:020000040004F6
:104000004343313378325231679B43E50301BFFFAD
:10401000FFFF0000FFFFFFFF9C980000A840040086
:10402000303030319BD804002C00FFFF03BFFFFF6E
:10403000550000000113FE0667B0177D511DEC10FE
:104040008B57B77892AA0508C27CC3A85FA614CA8A
:104050002D772EA206C78B8402946B3B73F875BE36
:10406000E6BB5CA0A745B8A47570BBCD076E9B6886
:10407000A17EEF531F7E5DF39C07E79DB9AB3E55D4
:10408000F501BFFFFF1B98000000400400FFFFFF89
:104090000000000000000000FFFFFFFFFFFFFFFF28
:1040A000FFFFFFFFFFFFFFFF007C0020D1C00400E7
:1040B0009DBC04009DBC04009DBC04009DBC04008C
:1040C0009DBC04009DBC04009DBC04009DBC04007C
:1040D0009DBC04009DBC04009DBC04009DBC04006C
:1040E000356E04002DE9F04385B005460C464804C2
:1040F00013D4A00024D4A0075CD460057ED420058E
:1041000000F10581200700F13A81600040F1F6805E
:1041100005F004FB24F08044F0E008F0CDFDDFF86A
:104120002C140F6D3FB1D7E90A1202F0E04201F002
:104130000A01891849D008F0A2FE24F48044DDE089
:10414000BE48DFF80C74016841F080010160B87866
:10415000012804D1042007F083F80020B87008F08B
:10416000ABFD0646042008F0B9FDDFF8E8130A6845
:10417000904219D12A7EBAB1FA68AAB1DFF8CC030D
:10418000806C002800F09780C16840F6030209881F
:10419000914206D0C06840F604010088884240F091
:1041A0008A8005F1140088E040F6C4120860C5E971
:1041B000042284E001F0CCFBDFF89003006C0028BF
:1041C00040F09D8024F0020498E0D7E90A65D7E921
:1041D0000A12AA43B143C7E90A1208F050FEB868B0
:1041E0000028AAD056EA0500A7D0D7F808C0386939
:1041F000B7F9301032462B46E0479EE708F05CFDE9
:10420000054607F0E7FE002800F0B680CF48876B30
:10421000002F00F0B180DFF838830420CE4900225F
:1042200088F81800C94808F056FB08F040FECB4853
:1042300008F016FECA480068006B8047C8F81000F6
:104240000126042088F8026007F0EEF9386990F83A
:104250002810C8F80400490703D5436A0421002246
:104260009847012005F0A2FCD8F80400467603F038
:10427000CBFED8F8040085682A46114652684AB138
:104280001388A3F60303072BF7D806FA03F313F0FA
:10429000830FF2D04A7B02F0F00201324A7300220F
:1042A0004A60FB681B88A3F60303012B00F2898098
:1042B000C8F810209EE005F1100006F00FFA304615
:1042C00008F0DDFD07F0C8F978B12E6A28466FF4D2
:1042D000807100224FF00073B0479C48806B10B192
:1042E00005F01CFA01E044F00204EE6928460021C2
:1042F00000224FF08063B04724F0005424B19B4863
:104300002146283008F013FE05B0BDE8F083904E3A
:10431000B078012804D1042006F0A2FF0020B0707C
:1043200007F09AF938B170686FF4807100224FF08D
:104330000073056AA847306950B189480068006B6E
:10434000804732697168801A000BC86000203061B4
:104350007E4D85490022284608F0BDFA02203076BD
:10436000286C20B181480221283008F0E0FD05F0DA
:10437000D5F924F40064C1E708F099FD4AE008F09B
:104380009BFC054607F026FEA0B1DFF8C48198F833
:10439000000000070ED498F9000000280AD46846EF
:1043A00003F028FF08B1009820B1DFF8C49199F814
:1043B000610090B308F07BFD05F0B0F924F008042B
:1043C0009CE7024632F8383FA3B190F8443090F8A9
:1043D000456003F0F00380F8443006F0F003013349
:1043E00080F845300023C36343874A60487B00F070
:1043F000F00048736E462846314602F057FB3046BF
:1044000008F078FB57480021C1610560012029466A
:1044100007F044FF24F4806470E700260127602E33
:104420000ED009EB0600817A31B18772407A07FA23
:1044300000F0C0B206F02EFF2036F0E7CC21084095
:10444000032088F81800454808F00AFD08F02FFD01
:10445000444F3E4D0022786900207861F968F86089
:104460002846444908F037FA3D480068006B804709
:10447000D8F80C10D8F82020411A02EB1130B0EB1C
:10448000113F38BF4FF0FF3098F82410C8F82000D3
:1044900021B1D8F80810B0EBC12F20D907F00EFFDA
:1044A000B8B140F60900414621F83C0F0020488091
:1044B0004A7B02F0F00201324A730A7B02F0F002FA
:1044C0000A734860F8613960B8F83E0010F4406F34
:1044D000FAD00020C8F82000012088F8240005F058
:1044E0007FFE2548002101600220002107F0D6FE52
:1044F000022006F0B5FE102003F086FC98F80100BB
:1045000020B9D8F80400503008F00FFD1B4880781F
:1045100010B90D2003F078FC98F8250028B1002090
:1045200088F82500052006F09BFE002088F818007A
:104530001348C8F81C000220B5F85610B5F85420EE
:10454000914208BF072004F079FE35E7A43D002022
:10455000083C002080400020B1BF0400F835002056
:104560008C01001000100440BD670400403D002095
:10457000D8340020819704000000046028D604008D
:10458000B16404002DE9F04F8FB0074618984FF042
:10459000000E002A01938DF8200000F093810AA8F4
:1045A0000E464FF0200A002400F1100CCDF800C098
:1045B000114611F8010B25280E910CD0002800F0AF
:1045C0007D81022EC0F01581013E002F00F0108188
:1045D00007F8010B0DE15378901C0E902D2B07D19D
:1045E0004FF00109D01C93788DF80D900E9003E0E8
:1045F0004FF000098DF80D90302B05D10121069167
:1046000010F8011B0E9002E01946CDF818E04FF0AB
:10461000FF322A29CDF808E0049214D1019D2968BF
:104620000A1D2A60D1F80080CDF80880B8F1FF3F5C
:1046300010F8011B0E9018DC4FF00109C8F10008BA
:104640008DF80D900FE04FF00008A1F13002092A1B
:1046500008D808EB880201EB4201A1F1300810F8FC
:10466000011BF2E70E90CDF808802E2914D1CDF869
:1046700010E0024612F8011B2A290E920FD1019D6B
:1046800029680A1D2A60096821EAE17BCDF810B08B
:10469000417802300E9015E04FF0FF3B12E04FF0F2
:1046A000000BA1F13000092808D80BEB8B0001EBBF
:1046B000400012F8011BA0F1300BF2E710460E92F9
:1046C000CDF810B0302B41F0200306BFCDF8188094
:1046D000424600226C2B06D101218DF80C1010F8F7
:1046E000011B0E9001E08DF80CE0CDF81CC00AAB68
:1046F0006929CDF814E0099301D0642916D1019BF2
:104700001868011D196093456FF00903C8BF5A4628
:1047100001686046069204F07BFCDDF800C04FF0B3
:10472000000E0990ACEB0001059128E075290AD034
:10473000A1F16F03092B5FD8DFE803F0058C6A6AEB
:10474000A26A6A6A6A05019D2868031D2B607829A0
:104750004FF0080308BF1023752908BF0A239345AB
:10476000C8BF5A4601686046069204F051FCDDF865
:1047700000C0ACEB0001099005914FF0000EA8EBD2
:104780000100B9F1000F02901CD109E0022E06D3FE
:10479000013E1FB107F801AB029800E00027013489
:1047A00001380290F2DA0DE00998022E07D3013E9B
:1047B00027B1007807F8010B099800E000270130C5
:1047C000013409900598411E00280591ECD19DF80F
:1047D0000D0078B10298013802900BDB022E05D350
:1047E000013E17B107F801AB00E000270134F1E703
:1047F000002701340E9ADBE6632909D1019A10687B
:10480000011D11600121006805918DF82800B4E7B1
:104810000138022E0E904FD36FF000400BF10101D2
:1048200086426FF0004038BF3046B345024638BF7D
:104830000A46002908BF024604920EA9019A02AB5B
:1048400002F0B8F8DDF800C09DF80D90DDF80880A2
:10485000059992E7019A10231068011D1160082143
:10486000082206919DF8201000290168604604F096
:10487000CFFB4FF04001DDF800C000F8011D78E7E4
:10488000019A1068011D11609DF820100068002930
:104890000E49002808BF0846099008F0DEF9834554
:1048A00001464FF0000E38BF59461BF1010208BF08
:1048B0000146DDF800C037E700215EE70FB10020B8
:1048C0003870A64670460FB0BDE8F08F9CD6040045
:1048D0002DE9F04F8DB0044600207C4D0F460B9023
:1048E000CDE90900002FA96800F0EC801646002AE7
:1048F00000F0E880387821FA00F0C00727D0304671
:1049000000219B4608F0FFFA7148C4E9017600686F
:1049100080B109A800900CA90BAA0AAB304601F09F
:10492000A5FB0B980B214FF6FF72502307F036FCC6
:10493000FF280CD008F0C0F9664F064678780128A9
:1049400002D830B101206DE0304608F098FA00201E
:10495000B8E001F0FFFA60480DF10409016841F088
:10496000020101605D482860484608F00BF9DFF855
:1049700070A15D494A469AF801009AF800500390E8
:104980005848283006F0E8FB584859494A4606F08E
:10499000E3FB484608F08EF8DFF85881564A1921A3
:1049A0004B460295404606F005F9544A08F11C00B2
:1049B0001A214B4606F0FEF85148524908F03CFADD
:1049C0005148524908F038FA5148006810F4402F15
:1049D00006D0504A07F128000421002307F0C4FA4A
:1049E0009AF8020010B10D2003F05EF908F14000C2
:1049F00007F07CFF08F1380007F078FF46490020F7
:104A000007223876B8843862386181F86020052141
:104A1000C7E902104149F96138700420002107F00C
:104A20003DFC78782F4941F82040013078703046BD
:104A300008F025FABBF1000F02D0DBF8000008E017
:104A40000DF1040B36492022584608F077FA4FF052
:104A5000FF30DBF80420BBF81010DBE90635002A34
:104A6000B2FA82F608BF40F6C4122060012076092F
:104A70006183256360762B4826764FF4FA7662616F
:104A8000C4E90362C4E90700C4E90903DBF80C00C8
:104A900000B12062DBF8140000B16062DBF80800AE
:104AA00000B1E06104F13800C82108F0CDF904F14B
:104AB0005000002107F012FC1B4904F1B80008F077
:104AC000BBF920460DB0BDE8F08F00BFCC210840F7
:104AD0004C400020083C002000200940110000E06C
:104AE00028D60400403D0020FDC40400803600208C
:104AF00019790400A43D002081970400F58C04007E
:104B00003C3600208DBF0400F8350020A9C4040005
:104B1000B44F0050F59D0400D8340020B164040067
:104B20008CD404000F990400B5CE04002DE9FC4795
:104B3000D0E900588246D8F80000D0F8409019F427
:104B4000F06FC0F8449035D05FEA495117D5D5E9E8
:104B50001401411A504606F03BFFD8F80000816965
:104B6000C90605D401688DF807109DF80710F6E70F
:104B7000296801312960A97B09B90121A973696CF0
:104B800040684FF0004600F00F0404EA0100B0FA5C
:104B900080F126FA01F1014005D02F6C1FB12A687F
:104BA000AB6C5046B847B4FA84F026FA00F02040C7
:104BB0004042A863D5F85801D8F83C1009F04007E6
:104BC00040680068D0F804251140394347D0DAE93D
:104BD0000064504604F03EFCD7B1F07C90B90BE085
:104BE000316F69B10068B16EB26F8854306FB16FC8
:104BF00001310138B167306720688169C906EFD596
:104C0000F07C28B1D6E91401411A504606F0E0FEC6
:104C100096F86400E0B13079022819D017B1B17963
:104C2000012901D0316F99B90024B16E0128346790
:104C300086F86440B46607D1B36CB26FD6F8CC6026
:104C400050460094B04703E006F17C0008F06DF98F
:104C5000504602F01BF8D5F858014068006800F291
:104C600004500068D8F83810084228D0D5F8F80069
:104C700028B3DAE90076504603F0A0FD504602F072
:104C8000EBFD7879012812D1D7F8F40078B997F8BC
:104C9000E80060B1002087F8E800BB6CD7F8EC10A2
:104CA000D7F8FC20D7F8504100905046A047D7F8DD
:104CB000F80020B93068816B41F4006181635FEADC
:104CC000095023D5D8F8000081690907FCD4016B8D
:104CD00021F480710163297A91B10020287295F83E
:104CE0004400800606D52C6C24B1AB6C50462021C4
:104CF0000022A0475046012106F004FFD8F800002A
:104D0000816B21F400618163687908B1BDE8FC879B
:104D100005F58070BDE8FC4708F007B92DE9FF41B3
:104D2000DFF8BC81002003900290D8F83840B4B37B
:104D3000D8F84C0010B9D8F8480070B3D8F848003B
:104D400060B12069D8F848100969814206D194F809
:104D50003300C00602D5D8F84C0090B1002702A855
:104D600087F0010103AA03F0A1FC0546FFB9F5B1E4
:104D70000299002900F09D805A4807F0EFFC0027B7
:104D800014E0D8F84800C06840880028F9D0D8F866
:104D90004800C06840880128F3D00127DFE7524867
:104DA0000221283008F0C3F80027002500242CB386
:104DB0004E48466816B30298B0FA80F04009284081
:104DC00001281BD1D8F84800D8F84C10039A87F076
:104DD0000103CDE9003208F1380208F14003B04781
:104DE000012868D0022809D1D8F8480001220123FF
:104DF0000069D8F84810B1F9301065E0002C204661
:104E000018BF01203840012851D139482169406834
:104E1000814203D034484FF4806145E00298002875
:104E200018BF01202840012806D1D8F8480018B939
:104E3000D8F84C0000284DD0082007F051FB94F81A
:104E400033004C25C00608F1380058BF482507F04C
:104E500051F948F80500274BD4E90601C2439A608E
:104E6000DA681043D860C843186058680843214680
:104E700058600820E56807F011FA284607F07EF927
:104E8000288843F60601411A022906D3B0F5C15F0E
:104E900003D040F60201884203D10120294607F0E1
:104EA000FDF911484FF08041283008F040F8BDE886
:104EB000FF8100277BE70398002818BF04460122E2
:104EC0000023B4F9301020690092002200F0E6FDC2
:104ED000BDE8FF81082006F0DDF9BDE8FF8100BFD5
:104EE000A43D00203C360020403D002054400020DE
:104EF000083C0020081004402DE9FC4F83F00043DB
:104F000001E02DE9FC4F1F03FF0847EAD2574FEAA3
:104F100042284FEA43095FEA595906D147EA080A8D
:104F20001CBF00210020BDE8FC8F57F000575FF444
:104F3000E06E1EF1FF0EF14505D14FF00000190D96
:104F40000905BDE8FC8F002B05D55FF0000AD8F1FC
:104F500000086AEB07070C03E40844EAD0544FEA60
:104F600040254FEA4106760D08D144EA050A19BFEB
:104F70000021002019461046BDE8FC8F44F0005483
:104F8000764504D10020090D0905BDE8FC8F0029F4
:104F900004D55FF0000A6D426AEB0404B6EB090E1B
:104FA00008D5A2463C465746AA464546D046CEF1CD
:104FB000000E4E46BEF1360F5CBF4FF0000B23E0F3
:104FC000BEF1000F04BF4FF0000B1AE0CEF1390A1A
:104FD000BAF120092EBF08FA09FB07FA0AFB4BEACF
:104FE000080BDEF1200A07FA0AFA38BFBA4647FA78
:104FF0000EF72DBF28FA0EF8AEF1200E4AFA0EF881
:10500000D04415EB08057C4154EA050A02BF002193
:105010000020BDE8FC8F002C58BF4FF0000A06D5D9
:105020005FF0010A5FF0000E6D426EEB0404A6F122
:1050300001066D006441FAD515F4806E11D005F4B7
:1050400080794BEA090B15F5806554F1000428BFFF
:10505000761C0BD205F400795BEA090B08BF25F436
:10506000006525F4E0656D0044EB0404B61CDEBF6A
:1050700000210020BDE8FC8F5FF4E06E1EF1FF0E02
:1050800076450AD34FF0000013F00043FF21C9001A
:10509000C91D09051943BDE8FC8F270547EA1530EE
:1050A000210B41EA065141EACA71BDE8FC8F704705
:1050B000B0B560480021604C016094F83A010328C3
:1050C00012D002282ED0012840F0AF8094F8400181
:1050D00003F0D6FD002084F840015948817B02206E
:1050E000002908BF06209EE054480168B1F5C06061
:1050F000C4F82C01B8BFC1F5C060D4F81011002964
:1051000000D5494288422ADDD4F8140106F0E4FEB5
:10511000D4F8180106F0F2FED4F8280106F012FFC8
:1051200001201DE04548056807F0FCFCC4F81401A7
:1051300007F000FDC4F8180107F004FDB5F5C061E3
:10514000C4F82801C4F8101109D094F830215AB1DC
:10515000D4F81401D4F82021D4F82C110AE000204E
:1051600084F8300106205EE0C4F82401D4E9450249
:10517000C4F82C110223C4F81C01002901EB4101E1
:1051800048BF6FF001031944042391FBF3F111446C
:105190000029C4F820110FDD1F2931D3D4F82421B0
:1051A0002AB33E28A8BF3E2001302929A8BF2921C3
:1051B000C4F81C010B3909E0D4F82421032A09D1D1
:1051C00011F1140FD8BF6FF013011531C4F820117D
:1051D000002113E00128D8BF0120013811F10A0F86
:1051E000D8BF6FF00901C4F81C010B3103E033296B
:1051F000A8BF33211539C4F820110321C4F82411A4
:1052000006F06AFE012006F08BFED4F8200106F0BD
:1052100075FED4F8240106F095FEA5F2FF51042096
:10522000032938BF0620C4F83C01BDE8B04001F0B6
:1052300035B800BF3C500C40A838002008400C4056
:105240007CD50400FEB504465A480078A04213D924
:1052500008780D46012801D1686868B1687801288E
:1052600001D1A86840B1544F57F8346007F024FDCD
:10527000F17921B107F003FE00242046FEBD07EBC3
:10528000C40401216768F17107F0F9FD002005F100
:10529000040C7074F081B06030602988B180A98BF3
:1052A000C6E93D00C6E90E0086F86400B186297D96
:1052B0002B69B1719CE80610C6F85021BCF1000FB3
:1052C000C6E910C34FF0FF32C6F8CC10A969C6E991
:1052D0003B203163A97F86F83610296AC6E91A0097
:1052E000C6E91C00B16486F8E800C6F8580102D18E
:1052F0003249C6E9101097F8400002F0D5FCD7E912
:10530000031206F14C0007F035FCD7E9051206F14F
:10531000D00007F02FFC2A4938680968C968884717
:105320007A6C97F8240046F2020102F065FC254DE4
:10533000BA6C97F82000294602F05EFCF869012853
:105340000CD1FA6C97F82800294602F055FC3A6D0A
:1053500097F82C0046F2020102F04EFC04F042FAEB
:10536000C6F85801204601F027F9174A06F5AE7035
:105370000421234606F0F8FD6D46284607F09AFB07
:10538000387A7968114A2B460094019006F114008E
:1053900005F010FC06F17C00002106F09FFF06F5E9
:1053A0008070002106F09AFF3868D7E90C1210606F
:1053B000486062E7CBD504006CD604007399040002
:1053C000D001001002600020A9C904002D4B040088
:1053D0002DE9F04F8BB08246581C022803D20020E2
:1053E0000BB0BDE8F08F14981D4616460C46B3F579
:1053F000801F01D90028F2D1B5F5B02F01D90028BE
:10540000EDD038B14E4A504600214FF4807306F07B
:1054100083F906E00AFB046149484FF4807207F003
:1054200086FA681E01234FF0FF38B0FBF4F101FB50
:105430001400013082B2C5B2100A002D18BF03EB70
:105440001220029001EB0A0006F580713C4E08BF65
:105450004FF4807503940191C0B2514606950890AF
:105460000898CDB2854268D8029A4FF0FF3018BF35
:10547000220A079150FA82F009920A90019805FBDE
:10548000040000240590481C049009985FFA84FBEE
:10549000C0B283454ED20898A94657468542069821
:1054A0004FF4807508BF05460A9858454FF4807040
:1054B00018BF0546079880EA0A004FF0000A20430B
:1054C000000608BF4FF00C0A1FFA8AF085420AD97D
:1054D000305C80EA0800C0B206F040FE80EA18287E
:1054E0000AF1010AF0E7149858B10A98584513D107
:1054F0000498002132464FF48073C0B206F00CF9D4
:1055000007E005984FF4807200EB0B21304607F05E
:105510000EFABA464D460BE04FF4807032464FF417
:1055200080734D4600EB0B21484606F0F5F8BA466D
:105530000134AAE7DDE9034192E76FEA08004FE78B
:10554000783100202DE9F84FD0E9004B98461646F7
:105550008A46054613B10020C8F8000076B107F06E
:10556000ABFB0746E07968B194F8E80088B13846AB
:1055700007F085FC6FF00800BDE8F88F6FF00900B8
:10558000BDE8F88F384607F07AFC6FF00E00BDE8F2
:10559000F88F0020012104F58079C4E93BA6C4F806
:1055A000F460C4F8FC0084F8E810E0636073E07213
:1055B0004846002107F01DFC584607F0CBFB384653
:1055C00007F05DFC07F07CF908B9607968B307F073
:1055D00073FB0646284602F03FF9304607F04FFCC1
:1055E000607960B90A99484607F003FC08B10120C8
:1055F0006073284603F0E2F8002084F8E800B8F170
:10560000000F1CBFD4F8FC00C8F80000E07A28B1F5
:105610000020E0726FF00D00BDE8F88F607B00287D
:1056200018BF6FF00C00BDE8F88FD5E9007497F84B
:105630004400C00615D5D7F840C0BB6C28461021E1
:105640000022E0470DE0D7F8FC0031460AEB0002EB
:10565000204605F039FED7F8FC10361A0144C7F889
:10566000FC10002EEFD1204607F094FA0028FAD063
:10567000204607F069FB97F84400800605D53C6C8E
:10568000BB6C284620210022A0470020B8F1000F63
:1056900087F8E800C7D0D7F8FC00C8F80000002061
:1056A000BDE8F88F2DE9F047012816D1DFF830A1C9
:1056B000DAF83401012813D10220CAF8340106F0C7
:1056C00045F90120012406F00FF860B1CAF8344111
:1056D00006F0B4FD4FF0FF347FE06FF001047CE092
:1056E0006FF0040479E09AF85A419AF859119AF83F
:1056F0005801002C18BF0124002918BF02340028CB
:1057000018BF0434012007F0E9FA013818BF01205E
:105710009AF83811B1FA81F1490910EA010902D168
:10572000002001F09FFEDAF808002E4D10F001086D
:1057300007D12D4F286A8168384688470428F9D058
:105740000646404607F050FBB8F1000F08D1012E85
:1057500004D1286A012142682348904707F0DAF90A
:1057600028684169204688479AF8540118B14FF4D7
:10577000806007F0B9FA9AF8530118B14FF48160CC
:1057800007F0B2FA19480121016003200021CAF88C
:10579000340117480160204604F05CFF0128FAD16B
:1057A000144E3068042005F09FFF0446124801257E
:1057B000B9F1000F0560306802D1012001F052FEFE
:1057C00007F02AFB082005F08FFF0443CAF8345184
:1057D00018BF4FF0FF3406F031FD2046BDE8F087DA
:1057E000A8380020B80100100040034028200860BD
:1057F0000C2008402C2009400C4009402DE9F04FB6
:1058000093B004464C4801904C4800904C4811908D
:105810004C488046109003F0BBF94B49FF2818BF55
:105820004103257A087B854206D1487B617A814213
:1058300002D10027002601E00526012768462146FF
:1058400006F098FF20B110A8214606F093FF38B962
:10585000207B06280DD80121814011F0610F08D06E
:105860000526962D03D0012138484170A6B10020AD
:105870005DE03F284FF0000188BF052688BF012169
:1058800039430129EDD0D4F80E203049962DC1E9D5
:105890000320ECD0012048702C4A107880B3207B84
:1058A0004FF400314FF0FF340DF1400B0DF1380A89
:1058B000E946012808BF4FF48031FF250226080B76
:1058C00091609080F7B2032F1ED81D4800215A46E0
:1058D0000823CDE90E80384605F01EFF5846514694
:1058E00006F048FFA8B9384600214A46342305F09F
:1058F00013FF0C98A0423CBF354604460136E1E751
:1059000000209080906009E0E8B205F02BFD2E4663
:1059100002E0384605F026FD0C4AF0B2D16850800E
:10592000012288064FEA911018BF02EB911080B255
:1059300013B0BDE8F08F00BF7832523143433133AA
:105940004E564D314F41442000400400943F00200A
:105950002DE9F047DFF83491D9F840A0BAF1000FF3
:1059600000F088800AF10C020820FF2151FA80F033
:10597000C3B21B1A18BF012312686AB163B113883E
:10598000A3F60303012B01D90432EFE7DAF8100084
:1059900092E8FA003830FAC0DAF808200025DAE98F
:1059A0000A10CAE90A55B2B110F0E2440CD021F055
:1059B0000F0220F0E2434FF0000852EA030005D046
:1059C00007F03DF9B04701E08846044607F037F993
:1059D00042462346B04707F06FF90446B9F856002F
:1059E00001306FF31F30A9F856004FF6FD70AAF88A
:1059F000300009F140008AF8335006F07BFB204666
:105A000007F03DFAB9F85600B9F85410884231D180
:105A10001F48204940680D6830B190F8FC200720ED
:105A2000002A08BF052000E005204C6803F006FCB2
:105A300055B195F8FC00002100284FF0000008BF88
:105A4000286885F8FC1000E0002044B194F8FC20A0
:105A50000021002502B9256884F8FC1000E000252B
:105A6000A84288BF0546681C04D02DB9BDE8F047A0
:105A700006F01ABDBDE8F08707F037FAB5FBF0F184
:105A80000548BDE8F04706F069BE00BFA43D002010
:105A9000083C0020403D0020F83500202DE9F84F5B
:105AA0004FF00054002A994616460F46804618BF0C
:105AB0004FF080444D1C07F0FFF8824635B1404658
:105AC0003946002204F0E8FD07460FE03D48816CAE
:105AD00011B10969414506D0C16C11B1096941454F
:105AE00003D0876B02E0876C00E0C76C37B197F991
:105AF0003300B0F1FF3F03DD04245DE003245BE0ED
:105B0000DFF8C0B00A9DDBF84800874218D0DBF808
:105B10004C00874229D0404639464A462B4602F07F
:105B200009FE0028E8D02848017E012943D0007EE4
:105B3000042840D025482649283007F0F8F93AE0F3
:105B4000DBF8480007F074F9DBF84C0007F070F957
:105B50002048002E18BF00F5803006F00FFB05B37B
:105B6000DBF8480007F03BF90EE0DBF84C0007F0EB
:105B70005FF91848002E00F100501CBF0120C2F24E
:105B8000024006F0FBFA65B1DBF84C0007F027F99C
:105B900038690E49086291F8240040F0010081F84C
:105BA0002400B9F1000F06D0DBF83810404601227E
:105BB0002B4602F0BFFD8324504607F060F92046D3
:105BC000BDE8F88FA43D0020083C0020403D0020A7
:105BD00002000040010001042DE9F04186B00546B5
:105BE000880040F185800020002403F0DFFF424957
:105BF0004248434FCC61086040F60A008846B887A7
:105C0000FC8797F8480000F0F00087F848003C64F3
:105C100097F8490000F0F000013087F84900284665
:105C200002F0F2F9AC68012021460E46496849B1FC
:105C30000A88A2F60302072AF7D800FA02F212F045
:105C4000830FF2D0707B00F0F000707307F13C001E
:105C500070602C48806B28B1C0680088A0F60300F3
:105C600002281AD3284630F8381FB1B10021E96361
:105C70006987386495F8440095F8451000F0F00005
:105C800085F8440001F0F000013085F8450097F8F0
:105C9000490000F0F00087F8490001AD2046294690
:105CA00000F004FF284606F025FF06F05FFE1648C8
:105CB000F86197F8250030B105F08CFF0028FBD083
:105CC00004F01EFB0BE0012007F008F8012806D0C5
:105CD000707B00F0F000013070730C48F861002018
:105CE0002146C8F81C000120C8F8004006F0D6FA8A
:105CF00006B0BDE8F08100BF0010044001010E04B1
:105D0000083C0020A43D0020E5400400B5A00400AC
:105D1000F8B5444D0C4601464FF0FF36424F6878C7
:105D2000002818BF02268B0117FA83F08E4205D98E
:105D3000A11C402207F002F900263DE016D1A11C6B
:105D40000D2207F0FBF802F023FF297880F0FF0214
:105D500051EA0203354A18BF42030BB1FF282AD08B
:105D6000E9B1B87C03281AD100261DE0A868C11843
:105D7000287850B1023A0234C1F307306FF31F3173
:105D800093B2224605F0A4FB05E0A31C0846023AA4
:105D9000194605F083FB0028CED003260CE0F889D5
:105DA000D289161A18BF0526214AD7F88900126829
:105DB000531E034202D00526F0B2F8BD3006FBD1D7
:105DC000BB6939B3180B190502D0012151FA80F0D3
:105DD0002F79C6B2A988F8B27218824207D905F0A5
:105DE000C1FA0137FF28F5D1A988032600E0002673
:105DF0000D4AC8B200218D2305F06AFB0028CCD1E2
:105E0000287904F10F028D21332305F061FB00286E
:105E1000C3D1D1E7B3FBF2F000FB12310029D4D19A
:105E2000D6E700BF943F002050330020004004001C
:105E30003C4000202DE9F04387B0DFF8FC8081462C
:105E40002025EFF3118085F31188D8F838501DB163
:105E500080F3118800256AE0C8F83890374F80F346
:105E600011880020C9F80C104FF48031C9F81C20AB
:105E7000002BC9E91200C9E9080118BF1F46D7E97C
:105E80000116C9F81810397B012905D1C9E910603C
:105E9000C9F8146030460DE0294A0020314600233D
:105EA000002506F08BFDC9E910012649C9F8140048
:105EB0008E423CD80021DFF890E0C9E9160197F83E
:105EC00000C0C9F85410BCF1020F08BF0146BCF174
:105ED000000FC9F8501001AB9EE8F5001946F5C156
:105EE00008F124001A4ACDF808900090174808BF1E
:105EF000024609F12800142106F0B4F805462020D6
:105F0000EFF3118180F3118881F3118899F8100063
:105F100010B9484604F03CFA35B108F13000494662
:105F200006F078FB4D4602E00025C8F838502846B8
:105F300007B0BDE8F08300BF983B002004D5040003
:105F400040420F003F420F0038D50400A5AC0400CA
:105F5000D5CB04002DE9FF413B4E96F842010028C5
:105F60006AD1012086F8420106F0C4FE374F86F858
:105F70007001374D7868C6F86C01387B86F84101AE
:105F8000A86810F4402F13D1386988B128686421BB
:105F9000C0F3066000FB01F406F0A7FFB4FBF0F2CB
:105FA0002C4906F19400002305F0F6FA06F0AAFD4C
:105FB00001AC204606F004FF2749A846002506F15B
:105FC0000C00002206F02DFE204606F0F9FE2349C3
:105FD00006F15000082206F024FE214A06F1D800FE
:105FE0003221002304F0E6FD1E4C1F4A06F1F400A6
:105FF0002C2100232560454604F0DCFDD8F808007C
:10600000797BC0F3815021B1032804BF012186F8B8
:106010003911032803D040F00200022810D1206873
:1060200040F040002060022005F0FEFA686840075A
:1060300002D4002005F0F8FA002004B0BDE8F08199
:1060400004F08EFFF2E700BFA83800207CD50400E2
:10605000AC4F005069CC0400039D04003DA904002E
:106060001593040090220840B15004002DE9F84334
:106070001D46434BDDF8208043F606061C68038866
:1060800014F0007411D0B34227D0B3F5C15F33D000
:1060900040F60206B3423ED100F112030B604169A3
:1060A000116081692960C1692EE0B3420AD0B3F55D
:1060B000C15F03D040F60206B34203D100F11203E0
:1060C000143002E000F11A031C300B60006810600D
:1060D00000202860C8F800004BE000F11A034FF0E0
:1060E00000090B60C1691160016A2960416AC8F842
:1060F000001000F118011CE000F112030B6041696F
:106100001160416A2960816AC8F8001000F110012D
:1061100090F80F900DE000F11A030B60C169116057
:10612000816A2960C16AC8F8001000F1180190F86E
:106130002490286868B10E8806F07AFD042808D8F3
:10614000074606F00701484603F0A4FC296841F819
:106150002700D8F8000060B106F06AFD042808D8CE
:1061600005464846FF2103F095FCD8F8001041F899
:106170002500002C18BF01242046BDE8F88300BF8D
:10618000941200502DE9FE4FD0E90085994614463F
:106190000F46834613B10020C9F8000074B106F021
:1061A0008BFD064698F8070058B198F8E80070B1E2
:1061B000304606F064FE6FF008046CE06FF00904EE
:1061C00069E0304606F05BFE6FF00E0463E00020ED
:1061D0000121C8E93B74C8F8F440C8F8FC0088F80D
:1061E000E810C8F83C0088F80D0088F80B00284635
:1061F000019506F0AFFD304606F041FE08F1D006ED
:106200000DF1080A06F058FD04463046514605F0E7
:1062100041FBD8F8F450D8F8FC10A842394438BFF4
:10622000054602982A4606F089FE3046294604F0C3
:10623000B3FED8F8F400D8F8FC10401BC8F8F400FE
:106240004819C8F8FC00204606F019FE012D03DBB2
:10625000D8F8F4000028D5D106F02EFD0746D8F86E
:10626000FC0050B1019806F075FD584601F0F4FAB3
:10627000D8F8FC0010B1002402E000206FF00F04F9
:10628000B9F1000F18BFC9F80000002088F8E80035
:10629000384606F0F4FD2046BDE8FE8F2DE9F84FA4
:1062A0003C4C3D4E3D4D42F62A294FF0010A4FF03D
:1062B000030B00274FF00508D4F83C01062833D81B
:1062C000DFE800F00433183B203D4B000F20F06066
:1062D000C6F8109004F0AAFC45F804AC55F8040C7C
:1062E0008007FBD5C6F81CA094F8390190B10120B5
:1062F000EF6210E02F60C4F83CB128688007FCD43E
:106300000320DBE72F60C4F83C8128688007FCD4B9
:106310000520D3E70320C6F800B0C4F83C012F6085
:1063200029688907FCD4C9E7FEE70126022084F822
:106330003A6104F023FB2E6009E0022000E0032014
:1063400084F83A01002004F019FB0120286004F1D0
:106350005000BDE8F84F06F0D0BD002045F8040C11
:10636000286055F8040C8007FBD428688007FCD40B
:106370000B480025012105600A4801600D2001F04D
:1063800043FD022004F06CFFC4F83C5184F83B51FB
:10639000BDE8F88FA838002000400C4058600C4041
:1063A0003C500C4004800C402DE9FE4F05460F4642
:1063B0005818AE687168884202D96FF0030564E02E
:1063C000DFF8E8800C9C4FF0FF3199469246D8F8F0
:1063D000000006F00EFDE00711D1A0071ED53068C1
:1063E00051464A463844CAB110F8013B11F8014BF6
:1063F000013A23409C42F6D06FF0060541E0D8E90F
:106400000101CB4301EA090213EA090F18BF024454
:106410003940284602F012FA054690BB30680297D0
:106420000196074404F0EAFACB4655460090BBF1CA
:10643000000F16D0BBF1080F5E4628BF082606F0F5
:106440003BFC804628463946324606F003F80446AF
:10645000404606F014FD2CB937443544ABEB060B2F
:10646000E5E70024009805F0EBFDDFF84080DDE96A
:1064700001210C9814B14FF0FF3502E0400707D41A
:106480000025D8F8000006F050FD2846BDE8FE8F34
:1064900010680844B9F1000FF2D010F8011B1AF887
:1064A000012BA9F101098A42F4D0E4E7244000203D
:1064B000B0B50C46880722D4600758BFB0BD354D33
:1064C0000120A870042005F0AFF833480068006B85
:1064D0008047E8602D48806BF0B16968046961B15C
:1064E000A1420AD094F82800400704D5636A2046E8
:1064F000042100229847012060766C600DE0FFF7D0
:1065000027FA2248006CE0B3214844F00201283009
:10651000BDE8B04006F00BBD6C6860681F490078AC
:106520000860022005F080F8102001F0BDFB01207A
:1065300028761B48807810B90D2001F0B5FB6868FB
:10654000416818488A680AB9C96821B10021816088
:10655000154940F8141C154907220A6001680021FA
:106560000160426841601249124AE96101681143C1
:1065700001601A2006F0C5FC1920BDE8B04006F005
:10658000C0BCBDE8B04003F0C9B800BFA43D0020C6
:10659000403D0020083C00208C010010D021084024
:1065A00028D60400141004405100070600000460BF
:1065B000D95B040002400040FEB5D0E9005401A8B8
:1065C00006F068FA95F834003649374A384E085CC8
:1065D00095F83510515C354A084395F83610515CF2
:1065E0002A6B40EA0103316820684F680299B84776
:1065F000206840F2F272E1692E4B2F4F426494F80A
:1066000054209A5C94F85530FB5C1A43012942638C
:1066100011D10146D4E90A2351F8307FFF2A27F42B
:10662000004718BF07F50047FF2B0F6009D00A6825
:1066300042F4804208E0014651F8302F22F4004233
:106640000A600A6822F480420A60C16A41F01001BF
:10665000C162016B41F001010163E16B09B3A16B00
:10666000F9B1012106F0FEF8D5F85801E16B406858
:106670000068C162C0F8041591FAA1F17268B1FA1C
:1066800081F15368022298477068A16B0222436827
:10669000D5F8580191FAA1F1B1FA81F1406800688A
:1066A0009847FEBDC0D60400C1D20400A3D60400A2
:1066B000D0010010ADD60400A8D604002DE9F047A3
:1066C000A4B006F0F9FA33490A78012A04D124B0BB
:1066D000BDE8F04706F0D3BB4FF0010981F8009008
:1066E00006F0CDFBFFF736FC082001F0DDFA21AC07
:1066F000204606F0DFF9DFF8A0A0294A1021234642
:10670000DAF80C002290254804F054FA25480025B8
:1067100001AE0478244890F800804746A74213D879
:10672000DAF8000050F8271021F0FF0046F82700A3
:10673000880707D4F8B201F0010106F0B3F909FAAD
:1067400007F005430137E9E7184805601848C168B4
:1067500001F44001B1F5800F07D10068000E56F832
:10676000201041F0070146F820101248A4EB08025F
:10677000042306EB880103EB820240EA880006F05E
:10678000DDFB0D482022016862F30D21016024B079
:10679000BDE8F08790400020CCD5040018380020D8
:1067A000CDA50400C9D504006BD40400D02002405C
:1067B000A84F005000100840003009402DE9FE4F5E
:1067C0004FF4804006F086F9A0B1354C3549606839
:1067D000D1F8132009786FF39F5201F0040180680B
:1067E00042EA417101AA00F071FF606881680120EE
:1067F00005F054FD2E482C4F2C4D44F2020B002482
:106800004FF0000A00F14009BAF1020F3CD055F8F0
:106810002A80D8F80000A0B3D8F80000806906F0FC
:1068200059F90646D8F800000023324605F0E6F98B
:1068300016F00A0F1ED0D8F800008069B9686BEA1C
:1068400000000840B860D8F80000C069396821EA43
:10685000000038601020D8F8001005F01FFDD8F8AF
:106860000010484605F0F0FA002044F00204C8F891
:10687000000006E02EB1D8F800000D4944F4804431
:1068800008650AF1010ABFE724B10A482146283009
:1068900006F04DFB01F030FEBDE8FE4FFEF73EBABC
:1068A000083C0020850300210C10044064D604003D
:1068B000A43D0020403D00202DE9FC4191EA030861
:1068C0004CBF4FF000484FF000084FEAC32545EA9F
:1068D00052554FEAC2264FEA43077F0D11BF45F0DC
:1068E000004500210020BDE8FC815FF4E06E1EF150
:1068F000FF0E774555D04FEAC12343EA50534FEA84
:10690000C0224FEA4104640D11BF43F0004300214F
:106910000020BDE8FC81744543D0E419A3FB0501C8
:10692000A3FB06E7A2FB06631EEB030E57F100076D
:1069300051F10001A2FB05631EEB060E57F10007A3
:1069400051F10001FF1851F10001C01951F100018E
:106950004CBF40F2004E40F2002E10EB0E0051F101
:10696000000148BF641C01D4400049415FF44077F6
:10697000FF37E41BDEBF00210020BDE8FC8117F5D6
:106980008067BC420DD24FEAD02040EA41504FEA26
:1069900041014FEA113141EA045141EA0801BDE8E1
:1069A000FC810020FF21C900C91D090551EA080129
:1069B000BDE8FC812DE9F0479046D2F800A00A68B6
:1069C0001D4612F8010B66280A6008D1287E50B1D6
:1069D0005AF8040B04F018FB04460F460BE0E96973
:1069E0000870012054E00AF1070020F0070ADAF8E5
:1069F00004705AF8084B204639460022002302F062
:106A000091FF0646002818BF012604D0286987F0A8
:106A1000004701382861214A214B2046394602F0BF
:106A20009FFF20B10720E8601F48E86131E0204661
:106A3000394603F089FC814604F044FF02460B46C8
:106A400020463946FEF758FA164B0022FFF734FF6E
:106A500003F066FE0146686904220A2302F0D8FAB0
:106A6000411E0A23E9612E2100F8011CD5E9041218
:106A7000E869821A0A44494602F0CAFAE8612EB16E
:106A8000411EE9612D2100F8011CE8696969081AB5
:106A9000E8600020C8F800A0BDE8F0870000C0FF53
:106AA000FFFFDF410088C34084D6040070B5028830
:106AB00043F607039A4208D0B2F5C15F03D040F60F
:106AC00002039A4204D1C07B03E090F8240000E066
:106AD0000020314BD3F888220A609A68CA604206C7
:106AE00015D05A68851EFF240D2D4A6021D9A0F1CA
:106AF00082020D2A30D8DFE802F007183F3642182C
:106B0000181839184518183C03F118021DE01A46E8
:106B100052F8104B4C6044B2B4F1FF3FC8BF03F1D0
:106B20000C02802828BF80200FE000200C744874DD
:106B300070BD03F11402DFE805F008070C16280702
:106B4000070719072B07071CEFE7126804468A603E
:106B5000EBE703F12002F8E71E2801D09E28E4D1DC
:106B600003F14002F1E703F12402EEE703F1300202
:106B7000EBE703F13C02E8E703F11C02E5E703F170
:106B80002802E2E703F13402DFE703F12C02DCE73D
:106B900003F13802D9E700BFC41000502DE9F047D7
:106BA0000C4631498046344F1546086889468007AF
:106BB00044BF2E48C86000212D4801602D48824600
:106BC000006838688169272088472C4E2C49306B33
:106BD00008403063B06F20F48070B0673868016B94
:106BE0004FF4806088473868016B4FF481608847B4
:106BF0003868016B4FF4C06088472248012101606A
:106C0000C6F880413160D9F80000800705D4681CBF
:106C100008BF4FF04045C9F80C50DAF80000F069A1
:106C20008007FCD5072003F0F3FC0228FAD1B8F165
:106C3000000F13D1144C386A816820468847042815
:106C4000F9D0012804D1386A0321426820469047D0
:106C5000D6F8180220F00300C6F818023868806BD6
:106C6000BDE8F047004700BF10000940FD000040AC
:106C70000C4009402C200940B80100100C200840AD
:106C8000FFFFFEFE28200860004003402DE9FC477E
:106C900006680446707A00286BD0D4F80490D6F8C1
:106CA0005801D0F80480D9F83470204602F0D2FBA5
:106CB000706F20B306F14C05284606F032F9316FAB
:106CC000884221D2307902281ED0B06E002850D0E0
:106CD000204602F0BFFB346F284606F022F9201A46
:106CE000D6F868A0B46F7067284606F01AF900213C
:106CF000F1740AEB040108440190706F0CE0B06E6F
:106D000010B1306F0028D5D106F14C0001A904F074
:106D1000C1FD01217067F17458B30021B0F5806F97
:106D2000B17384BF4FF480607067012301990144FF
:106D3000013979601049B96043F6F07101EB001038
:106D40000840B9680843B860D9F83C10D9F8000089
:106D500091FAA1F2B2FA82F203FA02F2D8F8003004
:106D60009A61D6F85821526812689162012105F0A3
:106D700085FDBDE8FC8700BF0180000C1EF0040FFC
:106D800014BFEFF3098169468869EFF3118102B4FA
:106D900000B5DFF8C0E0F047314A1268116801EA37
:106DA000000010605DF804EB1EF0080F03D101BC79
:106DB00080F31188704704BC1EF0040F14BFEFF37A
:106DC00009816946A1F1200114BF81F309888D462C
:106DD0004A604FF08070C86122488861204B1B6870
:106DE0001868086040F201101860704702B401B4DE
:106DF000EFF3148100291CBF002282F3148802B42F
:106E000002B4DFF854E0F04701BC01BC00281CBF0D
:106E1000022181F3148801BCDFF840E0F0470C4800
:106E20004FF08051016001BC80F3118800BF00BFAA
:106E3000FFF7FEBF1EF0040F14BFEFF30981694690
:106E400001F1200114BF81F309888D46704700BF0E
:106E500004ED00E081930400C7CE0400CDCE040011
:106E6000C4D60400EC6D04002DE9F0418EB0044658
:106E70004A1E002012F1030F0AD809AA04900291B9
:106E800007922F4A06928DF814000222684600E00D
:106E900003220C908DF834202020EFF3118680F32C
:106EA0001188608A30B1608A01386082012086F3DF
:106EB000118842E000293DD02248012104F1140745
:106EC00090F808800172806909AD45620B9003F06B
:106ED00061FFA06909970A900560A5619DF83400DB
:106EE000022808D118494A680C9801604260106075
:106EF000486001F04BFB86F31188404603F068FFC1
:106F00002021EFF3118081F311880C9939B10A68BF
:106F10004B681A604A6809684A6000210C910B9915
:106F200000224A6280F311889DF83400002818BFBF
:106F3000012002E086F3118800200EB0BDE8F08148
:106F400037B50400883E0020D83C00202DE9F041F0
:106F500004462E482E4B4168890705D40168F0226B
:106F600042EA114183F84D102A4F98462A492B4A8C
:106F70003B68002B0ED4D7F8EC5085F0C00581F8A3
:106F800031500C2505EAD363C03313704FF400333E
:106F9000C1F884304FF00123214EC2F8C231098874
:106FA00031680968856828468847A80108D4E8013F
:106FB00006D598F80000414640F0020088F800002D
:106FC00030682946426820469047D7F80001154AA4
:106FD000C0F305311170C1054FF0130158BF2321D3
:106FE000402308F80130382101EA901000F5605084
:106FF000A2F85C003068816828468847022003F0C8
:107000003FFF094801210160BDE8F081AC4F00500D
:10701000096208400C13005000A00C4042A20C4032
:10702000F00100100EB00C4094046042F0B591B035
:107030001D460446013B002013F1030F0AD809AB9B
:107040006E460490029507932D4B069302238DF80C
:10705000140001E0032300262A4F0E908DF83430EF
:107060000C96CDE90F12B8690B902020EFF3118632
:1070700080F31188204605F0B1FA10B186F311882B
:107080003CE0C5B301213D7A04F10C00397221695D
:1070900009900A9109AA0A600B984262226103F0E2
:1070A00079FE0C9838B118494A6801604260106056
:1070B000486001F06BFA86F31188284603F088FED9
:1070C0002021EFF3118081F311880C9939B10A68FE
:1070D0004B681A604A6809684A6000210C910B9954
:1070E00000224A6280F311889DF834100E9800291E
:1070F00008BF084602E086F31188002011B0F0BDF9
:1071000005B50400883E0020D83C002070B59AB038
:10711000304D08210423287902AA04F0FDFA2879C9
:107120000FAA1121012304F0F7FA9DF83C00FC2876
:107130004AD02978A88831B1EB680121C0B200910A
:107140004FF4805105E02449EB680022C0B2009260
:1071500009680022FEF73CF90299884234D1FE20EA
:107160008DF83C00287838B928790FAA112101231D
:1071700004F0AEF9287850B328790FAC00212C2305
:107180000026224604F0C8FA02A821462C2205F067
:10719000D5FE124829690E96039011480290A868FE
:1071A0000D90481E06289CBF4FF6FE60ADF81800F3
:1071B000A87804F0D7F8A87802AA0021342304F0B4
:1071C00087F920B1032000E002201AB070BD002032
:1071D000FBE700BF943F00203C4000204E564D315D
:1071E0004F4144202DE9F0438FB00C460027304931
:1071F0001546814624229846009703A805F09EFE76
:107200006B46002050210022C9F8007003F0FEFDFB
:10721000002848D0074627484FF40071002C07F19A
:107220004806816008BF04460021D4E90032A06806
:107230000792002A4FF0000208BFE268FE64F9637B
:10724000C7E90D51F9627964BB6023691044002BD2
:1072500018BF01233B63BE644FF0FF330890012049
:107260000C91CDE90D11CDF82880CDE9045700210E
:107270008DF83000069307F110000CAA04F036FDDB
:107280000D4803A96A4603F017FBF86040B1456357
:10729000C9F800702168F86800F0F8FB002003E0EE
:1072A000384604F0ABFB0C200FB0BDE8F08300BF04
:1072B00024D40400A83F00206FCA0400F0B5314A6E
:1072C000046A516B137D0C61446A01F1200C032B9D
:1072D0000B704C61846A8C61C46ACC6190E8F000E8
:1072E000ACE8F00000F1400400F110074C64F0CF6E
:1072F00001F1300CACE8F000046B0C64446B8C645E
:10730000846BC06BCC6408650BD8DFE803F0020D1A
:107310001016156DC4B2106C936C55F824404C6077
:107320000FE0002000230CE01748C06D06E017486E
:1073300080694860D0E90A3003E000204860106CA2
:10734000936C926BC1E9020332B12BB110F8014B7F
:10735000013B02F8014BF8E70D4802684A6590F8D6
:1073600024208A6590F82520CA65C28C0A66826A44
:107370004A66C26A8A66026BCA66426B0A67806B9B
:107380004867F0BD703C0020983B0020883E0020FC
:1073900004ED00E070B52548066804F00FFF2448AE
:1073A0000025244C0560206C806C804722480068D2
:1073B00038B122480068B6F1FF3018BF3046FFF7F9
:1073C000C5FD1F4840F2391205601E48016862F38E
:1073D0001B4101601C48016801F44051B1F5805F18
:1073E00006D10168194A114001F5003202600160BE
:1073F000174D0126EE612068016A14208847154860
:10740000016841F4E021016013482E60006800F437
:107410004000B0F5000F03D1206C416C0F48884745
:107420000F4801680029FCD170BD00BF1C1300503B
:1074300084046042B001001080012843800520438D
:107440008C2108404820034028000940EFFFFCFC45
:107450000000244300200940B44F0050BD3786008F
:107460000C00684270B5F8B1012858D1012005F030
:1074700035FC012853D02D4C94F8380100284ED10A
:107480002848294E0569306810F4402F30D17DB36B
:1074900004F0C4FE502005F0F5FC0120A84704F1DB
:1074A000940005F02AFD25E005F031FD1E48006836
:1074B00010F4402F0AD11B4804693CB11B4894309A
:1074C00005F0CEFC04F09AFE0020A047174C94F87B
:1074D000380120B31648016821F080010160802145
:1074E0008160032003F0BCFE002084F8380116E020
:1074F00005F011FD012084F83801306810F4402FA8
:1075000000D14DB9207A800606D4094880218160D7
:10751000016841F080010160032004F085F800203B
:1075200070BD00BF7CD50400B44F0050A8380020C7
:10753000902208402DE9F84F1E4614460F4681461A
:1075400005F0BAFB804604F099FE00284AD00546B3
:107550002848DDF82CB005F083FCDFF89CA0274A12
:107560000A9B4FF0FF31BAF854001A400232013042
:107570006FF31F30AAF854000020AE6085F8324047
:10758000C5E90379C5E90F100BF0200185F8440027
:1075900085F838006863C5E90800C5E9062180223E
:1075A000BAF85410A5F85000C5E9120085F8332048
:1075B0002986397B01F00F01022904D1012185F8C8
:1075C0003810B968696389F8FC000AF13800294667
:1075D00004F03AFCDAF83800A84208BF02F09EF83E
:1075E0002C8E01E04FF6FE74404605F048FC20B2B8
:1075F000BDE8F88FF8350020A43D0020FDEFFF9F87
:107600002DE9F8432020EFF3118980F311882C48ED
:107610000068006B80472B4E4FF000082A4F012274
:1076200086F85D8086F85C20D7E9104522462B4617
:1076300005F0C4F9A0FB042300FB053301FB043172
:10764000746DC7E91221B168B268611A821A914259
:1076500005D986F85C8089F31188BDE8F883051B9D
:1076600089F311880020854206D304442D1A012095
:10767000214602F07FF9F6E72021EFF3118781F32D
:10768000118896F85D1019B10020214602F072F9B8
:10769000411C05D0411BB06D814238BF084600E057
:1076A000B06D011905F096F8002086F85C00012005
:1076B00086F85E00B46087F31188BDE8F88300BFE8
:1076C0008C010010D83C002040350020F0B585B07A
:1076D0000D4600211446CDE90311CDE9011101A9A0
:1076E000009104A903AA02ABFEF7C0FC029F002F81
:1076F000394618BF0121019E0140002E324618BFB5
:1077000001221140002D10D411B3049840F22B2116
:1077100005806FF39F5538462A4604F06DFC0398A8
:10772000314601F063FE676010E0C9B104984FF084
:10773000FF316FF39F552A46018030462B2104F01C
:107740005BFC0398314601F0B7FF666015201EE030
:10775000C8B104984FF6FF720188914214D110E02D
:1077600078B16FF39F5503982B212A4604F044FC0F
:10777000FF2806D004984FF0FF3101801420656087
:1077800005E0032005E00498058065801020208036
:10779000832005B0F0BD7047B0B52C49006849683A
:1077A00001422AD02A4D2878012805D105F030FB66
:1077B000284801210160FEE7687801281DD1A888CA
:1077C000A96881421FD1E9684A1C0429EA6015D3DF
:1077D00000206870002003F04FFC002004F024F922
:1077E00005F093FB012004F0CFFE4FF0FF30A860BE
:1077F000286901302861687828B9B0BD0138A860CF
:10780000286901302861AA88E88882420ED2A81C23
:1078100000210123AA6002F02BFD2A69E988A888CB
:1078200004F028FA502004F0FFF809E0FFF76EFC9E
:10783000044604F0A9FE0020687014B901202870E5
:107840003C20BDE8B04003F017BC00BF70380020FA
:107850004C3E00207C052043F8B505680446D5F869
:10786000F80000B1F8BD68796668022807D105F113
:10787000D000694604F04FFCC5F8F80009E0D5F8DF
:10788000EC10D5F8FC20D5F8F4001144C5F8F80048
:1078900000910028E6D031688A6B22F400628A6386
:1078A00095F84410C9060AD52F6C47B1297A31B929
:1078B000AB6C204610210022B847D5F8F800B0F58F
:1078C000806F84BF4FF48060C5F8F8000099336B77
:1078D00001444A1E3168B66B1A600E4A9A6043F63C
:1078E000F07202EB001010409A6810439860D5F8CF
:1078F00058014068006886620846022104F0BEFF15
:10790000287A0028AED120460121012604F064FA2D
:107910002E72F8BD018000C02DE9FC412A4D95F87A
:107920006100002844D000240026602C40D095F847
:107930006100F040C00702D120340136F5E7112084
:1079400095F8618000FA06F705F0B6F995F8611030
:10795000B94385F8611005F092FA281928D0817A88
:1079600031B31021194A2C59B14011EA080190F99C
:10797000091052F821804668CFB209D001F054F8BE
:10798000002079B200224FF00073009020460EE0F4
:10799000017A022902D1C17CC90601D401F044F860
:1079A000CDF8008079B2204600224FF00063B04746
:1079B00095F8610028B106480021BDE8FC4105F0BA
:1079C000B6BABDE8FC8100BFD83400209430044032
:1079D0008036002070B5012953D00446002942D1D9
:1079E00028480121057A01722021EFF3118681F3E5
:1079F000118894F82010032916D002291BD00129E0
:107A000029D12168E26C6368196061682368596054
:107A10001168914204D1A169C26822EA0101C160E2
:107A2000606AC0B1C0680FE0206861680860606883
:107A30002168486012E0616A69B10A68C8684B68E9
:107A40001A604A6809684A6028B101684268116092
:107A5000416800684160204603F046FB86F31188C8
:107A6000284603F0B5F9216B481C0AD006480029C6
:107A7000806818BF0846D4E90A214368BDE8704011
:107A8000184770BD883E0020983B00202DE9F0414A
:107A90002B4B012702462024187A1F72EFF3118C1A
:107AA00084F3118854698C4202D18CF3118841E02F
:107AB0001D6A002907FA01F705EBC10648BF03F16B
:107AC0002C0648BF002792F82050012D26D1D2F86D
:107AD00000E0D2F84C805568C5F800E0D2F804E028
:107AE0001568C5F804E0D8F80050454505D1D2F82E
:107AF00018E0DD6825EA0E05DD609D699542354692
:107B000001D1DE613568D5F804E01560C2F804E003
:107B1000CEF800206A60DD683D43DD60B1F1FF3FD3
:107B2000D66497615161DCBF0021D96101211974CC
:107B30008CF3118803F04CF92046BDE8F08100BFBA
:107B4000883E002070B505F063F905F0D9F805F01E
:107B5000DDF8044600F00C000C2803D100BF00BF84
:107B600030BF3BE060071ED402F0A8FF054600EBE3
:107B7000800001214600012004F088FC864212D9D1
:107B80001C4CA5F11800606104F10C0004F0C4FE67
:107B900000BF00BF0120FDF785FD00BF00BF002032
:107BA00084F820001CE000BF00BF200715D40E4E53
:107BB0000E4D30688168284688470428F9D0B0FA0D
:107BC00080F004F01001400940EA111005F0A1F91D
:107BD000074801210160006800E030BF00BF00BF1E
:107BE000BDE8704005F018B9D8010010004003400E
:107BF0002C200940A83800202DE9F84FFF2831D06B
:107C0000264B0C4605464FF4BE21AF0004F0020897
:107C100043EA80004158C9B2914227D121489A468F
:107C20004FEA142947EA0006834605F045F80BF1B0
:107C30000101220C86F8009039430A7046F00201D7
:107C4000220E0A7005F01BF9B8F1000F02BF45EAD9
:107C50000A0004F0010101701148012181EA580174
:107C6000384316E04FF0FF30BDE8F88F00F5BE2036
:107C700024F0FF0162B9B8F1000F02BF2B4304F0FA
:107C800001041C70064B012484EA58043B431C6029
:107C9000114301600020BDE8F88F00BF00200240C2
:107CA000001A4442011008402DE9F041254E0546D6
:107CB000371805F001F8044697F84A01411C87F887
:107CC0004A1128B1204605F0DAF80020BDE8F0811D
:107CD000DFF8748018F8257007F03F00122898BF6D
:107CE000FFF7E2FF08EB8500458878B2B0F1FF3F6F
:107CF0000CDD78061FD4154800684169284688477E
:107D0000284602F0A7FC0128FAD1DBE70F4E3068C5
:107D1000C169284688473068416A284688473068E4
:107D2000C16A284688470A4801210160094801685C
:107D30008907FCD5C6E706EB8500D0F86011012065
:107D40008847BFE7A83800201CD30400B801001002
:107D500028200860282008408B4208BF824207D9AB
:107D6000009A002A01D01060516000210020704765
:107D7000002B08BF002A10D1009A002A01D0106001
:107D8000516002000B0000210020002B08BF002AD8
:107D90001CBFC943C04301F0ACBEF0B51C4615463C
:107DA0000B46024600200021B4FA84F6202E04BFC0
:107DB000B5FA85F62036B3FA83F7202F04BFB2FA5E
:107DC00082F72037F61BB6F1200727BF05FA07F424
:107DD00000257F42B4403EBF25FA07F73C43B5403B
:107DE000A34208BFAA4201D3521BA34140414941CB
:107DF0006D0845EAC4756408761EF1D5059F002F0D
:107E000001D03A607B60F0BDF8B5254F05463E18BD
:107E100004F052FF044696F84A01013886F84A01F8
:107E2000000637D11F4810F9251000EB8500458862
:107E3000CEB2B1F1FF3F0CDD70061FD41A480068C6
:107E4000816928468847284602F0E2FB0228FAD1D9
:107E50001AE0154F3868016A284688473868816AF1
:107E6000284688473868016B284688470F48012113
:107E700001600F4801688907FCD505E007EB850024
:107E8000D0F860110020884706F03F00122898BF04
:107E9000FFF7BAFF204604F0F2FF0020F8BD00BF54
:107EA000A83800201CD30400B80100102820086066
:107EB000282008402DE9F041002918D41F46154616
:107EC0000E46044604F066FD804620463146802278
:107ED00002F0E2FB20B1064690F9330000280AD4F4
:107EE000404605F026F800210220BDE8F081002080
:107EF0000021BDE8F081D6E9080145F00A0547F008
:107F0000E04728403940084310D0404605F011F8BA
:107F1000D6E9082303EA070102EA050042404B4084
:107F2000C4E92C01C6E90823BDE8F081B1680B481B
:107F3000814203D0B168C4F8A810B0604046C4E9DB
:107F4000285704F0F6FF04F150004FF0FF3104F021
:107F500050FFD4E92C01BDE8F08100BFAD980400CA
:107F600070B58AB01E49086002A804F0DBFE1D4D02
:107F70004FF480701C494FF406720223009005F103
:107F80001004204601F066FB00B1FEE718491748CF
:107F9000FE2200260A75027BCB7B4661C673CC614C
:107FA00002F0F00243F003030273087B8A7BCB7379
:107FB00042F0060200F0F0008A7308730D480E4983
:107FC0000E4A02ABFCF784FC0D49002200236860D6
:107FD000CDE90066FFF7AEFA0A480AB070BD00BFEF
:107FE00090380020383F0020F02A0020683F002011
:107FF000F43E00207830002004400020C43E0020E1
:10800000503F00201C3A002010B586B00146427E49
:108010008068002343F606040593CDE903330293F9
:10802000438003881C1B022C10D3B3F5C15F03D01F
:1080300040F60204A34212D1038A002A23F4FE630D
:1080400012BF038243F43472028208E0038B23F4EC
:10805000FE630AB1038302E043F434720283002218
:108060004A7602A9009105A904AA03ABFDF7FEFF19
:1080700028B105984FF6FF71008888420ED0049C05
:108080000299204601F0B2F90748016821B1204663
:1080900006B0BDE81040084706B010BD049C029928
:1080A000204601F009FBEFE74C400020BCB5204D15
:1080B000287830B91F4C206804F087FE2878012802
:1080C00013D11C4C6988AA881F4B2068CDE9001287
:1080D0000021002204F0E9FBA96820681B4B002264
:1080E0000091002104F0E1FBBCBD6878FF2808BFC7
:1080F000BCBD01280DD002280ED080B92068104BDD
:108100000021002204F0D1FB2068BDE8BC4004F04F
:1081100061BE2068084B04E02068084B01E020683D
:10812000084B0021002202B0BDE8B04004F0BDBB06
:1081300030400020444000200CD60400FCD5040050
:10814000E8D4040058D60400ACD4040050D5040090
:10815000F8B51546044625480E461168D268AF6941
:108160000068002F18BF3846216120636261D5E99D
:108170000421002908BF4FF4007162B1D31D1144DE
:108180004FF0FF3023F007032063C91A21F00701E5
:10819000C4E90A1308E00731082221F00701A162AF
:1081A00002F034FEE062F0B1D5E9010104F13803D8
:1081B000EA69666307C395F8200084F8480018B19F
:1081C0000B4841690131416100206065204600F0A3
:1081D0001BFD08B10230F8BD054804F1080104F0A8
:1081E00019FA0020F8BD0120F8BD00BFA03800201A
:1081F000883E00202DE9F84F00248046002100220F
:108200000460684600F052FA204DDFF884A08146F1
:108210004FF0FF374FF0190B0020602C1ED02A19A9
:10822000917AB9B1107A022816D0DAF80400418B9D
:108230000069084495F8621011FB0B01506903F0C6
:10824000FBFA064604F051FEB6FBF0F0B84238BF28
:10825000074601202034E0E70120002709EA000159
:10826000012904D10099B94238BF0F4606E0B9F19F
:10827000000F01D0009F01E0C10701D0C8F80070D5
:1082800040EA090000F00100BDE8F88FD834002072
:10829000083C0020F8B50668054604F00DFD0446CC
:1082A000F07AA0B1307A68B1686804F073FC0028F5
:1082B000FAD0686804F048FD002001213072284699
:1082C00003F020FC2046BDE8F84004F0D8BD0120B2
:1082D000F072284600F072FA7179022908D1D6F8B6
:1082E000FC10081AC6F8FC0006F1D00004F014F9DE
:1082F00096F8E8000028D5D0707920B906F580708E
:1083000004F013FE70790128CCD10020C6F8F400E7
:1083100086F8E8006FF00D00B36CD6F8EC10D6F8D4
:10832000FC20D6F8507100902846B847BAE7F8B557
:108330000446FD201D468DF8030020461E68324687
:1083400000F08EF810B101208DF803009DF80300B5
:10835000FD2815D1A6B1E068007B00F00F000228CF
:108360000ED13768204631463A4600F079F820B9F8
:10837000002F3E46F5D1002602E002208DF80300D2
:108380009DF80300FD2804D1E06B10B104208DF8A6
:1083900003009DF80370042F0FD0022F06D0012F89
:1083A0000FD12846214603F061FD0AE0326822B170
:1083B0002846214603F0EAFC03E02846214603F064
:1083C00043FD78B2F8BD704770B5D0E90056044659
:1083D00040F2F2723068816B914381632046FFF76F
:1083E00059FF204601F00EFC204602F087FF1B4992
:1083F00030680968C968884764680020287294F862
:10840000240002F0B9FB94F8200002F0B5FBE0690B
:10841000012807D194F8280002F0AEFB94F82C0054
:1084200002F0AAFB05F1140004F069FD05F5807067
:1084300004F079FD05F17C0004F075FDD5F85801D4
:1084400008B102F0C5FD05F5AE7003F007FF96F820
:108450004000FFF7D9FC0020E87170BDD00100108A
:1084600070B5B2FA82F3B1FA81F45B096409B0B372
:1084700012B190F844506DB389B191F844406CB397
:10848000446B0E69096C05698908A408AE4214BFE3
:10849000ED6800252944611AB1F1704F22DAB2B1BA
:1084A000D168097B01F00F01022915D1516B0569D3
:1084B000006C146980088908A54214BFE268002294
:1084C0001044081AB0F1704F01DB012804DB0124CD
:1084D000012304E0002302E0012400E0002404EA78
:1084E000030070BD00240029C8BF0124002AF6D073
:1084F0000129D5DAF3E770472DE9F84F204E214FD7
:10850000DFF8848000254FF0010B4FF002094FF097
:10851000110A602D08BFBDE8F88F7C192ED0A07A13
:1085200001282BD1607A41B20BFA00F01131C0B2B0
:108530000BFA01F1CA43326072681143716003F0B3
:10854000CFFF04F11000002103F016FA812809D1B1
:10855000A06920B1002103F00FFA812802D184F82C
:108560000A900BE0607A97F861100AFA00F008436D
:10857000002187F86100404604F0D9FC2035C8E7A7
:1085800008100440D8340020803600202DE9F04146
:10859000044680681F4F206297F85E00E8B197F8A4
:1085A0005C00D0B91C480068006B8047DFF86C8025
:1085B000D8E910562A46334604F000FAA0FB0523FA
:1085C00000FB063301FB0531C8E91221B9687B6D58
:1085D000BA689A1A411A91420CD903F051FA012152
:1085E0002175A2681044E06097F85C0078B187F8C4
:1085F0005D100CE001212175A2681118181A824241
:10860000E16004D21046BDE8F04104F0E3B8BDE8F3
:10861000F08100BFD83C00208C01001040350020C4
:108620002DE9F04186B0DFF8708098F8650078BBDE
:10863000012088F86500C8F80480C8F8008003F0BD
:1086400069FB164801AA114690E8F8000520F8C118
:108650000490134808F11004124900F12403204645
:1086600001F074FDC8F84C4002F076FB0E48D0E9EA
:10867000102347F69160101A73F1000031BF4FF0DC
:10868000FF30002047F6906104F098F9C8F85800D0
:1086900006B0BDE8F08100BFD83C0020A4D504009E
:1086A000983B0020017604004035002010B50446B8
:1086B0001E4849B138300068B0B1C3681B7B03F075
:1086C0000F03022BF7D101E0806B68B102B110609B
:1086D000C268137B03F00F03022B08D151B101696B
:1086E0008A8DC968114415E0002100201CE001209A
:1086F000002119E012880169A2F60302012A4A8BBF
:108700008CBF0969496919231144094A92F862200A
:1087100012FB0311406B03F08FF8206004F0E5FBBF
:108720002168B1FBF0F10120216010BDA43D0020C3
:10873000D83400202DE9F84F07461E4815460E464E
:10874000009300F138094C4624680CB1B442FBD1C7
:108750004FF0000A00F1400B44B32069D4F80080C8
:10876000B84220D1204600224FF0805303F046FA51
:10877000009870B1204600224FF0807303F03EFA5B
:1087800030690D49086291F8240040F0010081F839
:1087900024004846214603F009FA5846214603F0D2
:1087A00053FB0AF1010A002D4446D5D15046BDE8DD
:1087B000F88F00BFA43D0020403D002070B5056843
:1087C000D5F8F81031B3D5F8582144685668A16B34
:1087D00020683268D162022104F044F8D5F85801CB
:1087E000A16B154A40680068C0F8041591FAA1F120
:1087F00012683068B1FA81F1926990470446D5F861
:10880000F800011B6879022806D105F1D00003F0B9
:108810002AF80BE000240CE0D5F8F400D5F8FC2091
:108820000A44401AC5F8FC20C5F8F4000020C5F839
:10883000F800204670BD00BFD40100102DE9F843B8
:10884000DFF874901446D9F8082002EA01038B423D
:1088500021D1806843688B4220D966186FF00505E6
:108860009E4226D82240A24223D10068471802F037
:10887000C5F88046ACB104F01FFA0646384603F04E
:10888000F7FD0546304604F0FAFA5DB9D9F8040060
:10889000241A0744EEE76FF004050AE06FF00305C1
:1088A00007E00025404603F0CBFB002D18BF4FF03A
:1088B000FF352846BDE8F8832440002070B5044603
:1088C000B0F90E00227A81B2920702D5227B1F2ACC
:1088D0000CD8154A6368D26C52F820509D4218BFDC
:1088E00042F820304A42E281227B0BE00E4B1D6DA4
:1088F00045F820400D4DDB6C53F82060AE4218BFA8
:1089000043F82050102901D30A4902E0042902D378
:10891000074901440A70217AC90718BF01F088FF8E
:108920000020A060002070BD703C00207D6D040020
:1089300014ED00E0F0E300E0F8B51A4E05463068AB
:1089400028B119490978A9420AD8002428E001F081
:1089500065FB3068002418B313490978A9421FD970
:10896000124A05EB450102EB81044FF0FF31D4E9D7
:10897000015704F03EFA287870B970683968421ED1
:108980000A4209D17968814206D3B0680840814221
:1089900002D10120287000E00024306804F0C5FAFC
:1089A0002046F8BD24400020CAD5040020D504008C
:1089B00070B586B0174990E81C001CC101AC204678
:1089C00004F032FA144800F11C01143001902046E2
:1089D000029103F09FFE03AC204604F014FA0F4E00
:1089E00000200F49012223468DF80C00049006F167
:1089F0000805284603F0E4FD356006F12C05094919
:108A000001222346284603F0DBFD756001F054FC8B
:108A100006B070BD703800204C3E0020FC3D0020A8
:108A2000A5CB0400B5CB0400F8B5054604F044F925
:108A30000446A87A50B36F7A012603F03FFC697AA6
:108A400048B1154A48B21130536806FA00F0834322
:108A5000C0435360106006FA01F31049002206FA81
:108A600007F02A72AA72C5E90422AA61C5E90022A8
:108A700091F8605091F862202B4381F8603012B178
:108A8000013A81F86220C0B202F004FC2046BDE841
:108A9000F84004F0F4B900BF08100440D8340020B6
:108AA000F8B51A4901220446087A0A7254F8485F58
:108AB00002F08EF9A54208BFF8BD15484FF0FF310E
:108AC000FEF7D2F92068134EA0421AD007688168D9
:108AD0000569026843681A60426803685A602A6838
:108AE0006B681A606A682B685A60096811B1C068BF
:108AF00000B18847B06829461C2243689847384629
:108B0000E2E70348BDE8F84000F064BF883E00207B
:108B100034380020983B002082B003F083F902F043
:108B2000E9FE01F03FF91748FFF71AFA164D2860E1
:108B300002F062FB02F036FF02F082FA02F094F8D3
:108B400010B1FF2002F058FD104E01AC306800213A
:108B50004FF0FF324FF0FF33FEF768FA81070190C4
:108B600002D5FFF7A3FA0198C10704D02968FF20B6
:108B700002F00EFB01984007E8D52046FEF70CFEF8
:108B8000E4E700BFC5CB0400943800207C38002007
:108B90002DE9F04F87B0174800270DF110096D46F9
:108BA0004668164883461648804616488246F8B2FC
:108BB00086421AD910494403CDE902A8CDE904B18F
:108BC000D4E90001CDE900014846294603F0D2FD71
:108BD00020B102A8294603F0CDFD20B944F01200CF
:108BE0000078082802D30137E1E7FF27F8B207B081
:108BF000BDE8F08F3C40002078325231434331339E
:108C00004E564D314F41442070B51A491A4A044618
:108C100002F0CAFD0146E061012051B3002184F851
:108C2000200061626069B0F1FF3F1ADD60690121D7
:108C3000124A01FA00F0A0616069157A1172116A96
:108C400001EBC000E0642020EFF3118680F311886F
:108C5000204603F0FBFD86F31188284602F0B8F8A1
:108C600006E00648A16121462C30E06403F0D2FC06
:108C7000002070BDADC00400FDAA0400883E0020A5
:108C8000F8B5054616484BF2F521174E006800FB73
:108C900001F714483C0A006800F44020B0F5802F2A
:108CA00010D11248006880030CD4F0680068804737
:108CB00001F09EFF3168C9688847C010390B4843EE
:108CC00004EBE0342DB90A48006820F07F402044CE
:108CD00044083069416C2046BDE8F840084700BFB1
:108CE00008400C40B44F0050E00100108C130050BD
:108CF00010200940F8B5164F1648BD6C03F0F2FE7F
:108D00000446154801680668214011F0200318BF89
:108D1000002D0AD0284600223D6502F06FFF0F4863
:108D20004FF48041283004F002F904EA060010F400
:108D3000602008BFF8BD0A4991F8612042EA50401E
:108D400081F8610007480021BDE8F84004F0EFB861
:108D5000A43D002020000E000C100440403D0020E7
:108D6000D83400208036002070B5154B2020EFF35A
:108D7000118180F31188144C1249DA6C0A609C64EA
:108D8000124C1A661C64124B0C689C420AD14A6849
:108D9000114B22F47F421A444A6088764FF40070E7
:108DA000C86070BD0B4D0024362CF0D00E2C8EBF49
:108DB00042F8245053F8246042F824600134F3E769
:108DC000703C002008ED00E000040000007C002062
:108DD000A84004009DBC04000000FA0500B17047E3
:108DE000B0B51A4C606D58B340F2000CEFF311802F
:108DF0008CF311882020EFF3118180F31188D4E9DE
:108E00001850616DB1FA81F1C1F11F0100EBC10190
:108E1000A94215D9086802680A6051600A688A4246
:108E200004D1416A626D22EA0101616500F07AFBBA
:108E3000616D29B1606EB1FA81F1C1F11F01E5E701
:108E4000002084F85000BDE8B0407047983B0020F7
:108E500010B50446C80712D1880758BF10BD1E20A0
:108E600004F022F81D2004F01FF8144C1E200022EC
:108E70002146FEF7C1FE1D20214600221AE01E20D9
:108E800004F012F81D2004F00FF8204600F0A0F9BD
:108E9000B0F1FF3F05DD1D200121BDE8104003F0CA
:108EA00001BE064C1E2032222146FEF7A5FE1D20E3
:108EB00021462F22BDE81040FEF79EBE0060002034
:108EC0007CB504460698362903DB00220092174A37
:108ED0000CE01646124A1D46124BE181126E52F802
:108EE00021209A4207D0002200920F4A0B4602F03E
:108EF000BBFA01207CBD084601F078FC286969684E
:108F00002073C4E90016287AA060297D11B140F0D1
:108F10000200A0602046FFF7D1FC00207CBD00BF0E
:108F2000703C00209DBC04003CD00400ECD1040047
:108F3000F0B5836A5C1E144218BF1A460C4018BF75
:108F40001C1B14EB010C01D30020F0BD571E00F1D7
:108F500020031C461B68002BF6D017EA030618BF37
:108F6000961B596806EB0C05A942F2D34A1BF01870
:108F700056B1A9425E6012D0196840F80C1000EB9F
:108F80000C014A601960F0BDA94201D1196805E0E1
:108F9000196840F80C1000EB0C014A602160F0BD2C
:108FA00010B596B0184C2020EFF3118180F3118892
:108FB000E06810B902F0D0FDFAE7E068216A134AD0
:108FC0000223B0FA80F0C0F11F00137501EBC0025C
:108FD000E26151F8300000212174A06140F2000CE0
:108FE000EFF311808CF311882020EFF3118180F3CF
:108FF000118803F029FDA16968461C301C3103F07B
:10900000BDF916B010BD00BF883E0020703C0020A6
:109010002DE9F041B3F1FF3F03DC5B42B1F1FF3FCB
:1090200024DD4FF0000C4FF0010EDFF85080471E9A
:109030000026B1FBF3F505FB131418F80440BC55EA
:10904000013E8B422946F4D9304471423023013825
:10905000914203DA00F801390131F9E7BEF1000F5E
:109060000CBF80F800C00130BDE8F081013A4942F0
:109070004FF02D0C4FF0000ED7E700BFB8D504001D
:10908000F0B540F6FF7C10F8013B0024082CFAD024
:109090000646DF0716F8015B0DD1467806F00F078C
:1090A0000337122F0DD190F90220D7B2B2F1FF3F52
:1090B00009DD03300DE001F8015B304601345B0847
:1090C000E4E7023006E0C27807F07F07043047EAA1
:1090D000C2171237320942EA0515654508BFF0BDCF
:1090E000ED43002FEAD04A5D013F0A700131F8E7F5
:1090F00070B50025844621F0004E4042C7F6F07559
:1091000075EB0E004FF0FF3028D323F00044564299
:10911000A54138BF70BD42EA0C0044EA0E06304358
:109120000CD013EA01000BD4BCEB020071EB03007E
:10913000BCBF4FF0FF3070BD0AE000BF002070BD23
:10914000B2EB0C0073EB0100BCBF4FF0FF3070BD01
:109150008CEA02005940084318BF012070BD7047D7
:1091600070B50025844621F0004E4042C7F6F075E8
:1091700075EB0E004FF0010028D323F00044564257
:10918000A54138BF70BD42EA0C0044EA0E063043E8
:109190000CD013EA01000BD4BCEB020071EB03000E
:1091A000BCBF4FF0FF3070BD0AE000BF002070BDB3
:1091B000B2EB0C0073EB0100BCBF4FF0FF3070BD91
:1091C0008CEA02005940084318BF012070BD704767
:1091D00010B586B0184C00218068CDE90411CDE9A6
:1091E0000211019402A9009105A904AA03ABFCF79E
:1091F0003DFF05994FF6FF720988914201D00C4658
:1092000017E00399002918BF01210140012904D169
:10921000029911B101AA084602E050B1049801AACE
:109220002B2103F04FF9FF2803D00198204000F1D3
:109230000044204606B010BDFFFF3F0070B5054654
:1092400003F03AFD174E044696F82400A84386F82A
:109250002400306820B1B83003F04BFE054600E032
:109260000025706818B1B83003F043FE054396F846
:10927000240030B92DB9306A18B190F82810890748
:1092800004D42046BDE8704003F0F9BD456A20468D
:1092900003F0F5FD306A022100220024A847346261
:1092A00070BD00BF403D002070B588B06D460446DB
:1092B0001D21EE1C304603F0C7FD3A208DF8020058
:1092C00047F27360ADF80000304603F001FD0F482F
:1092D000007B00F00F0101F141020A2938BF01F1C2
:1092E000300241218DF80C20020901EB1011A02859
:1092F000074838BF02F130018DF80B10CDF8070098
:109300002046294601F0FAFA08B070BD004004007A
:109310002062763AB0B5174C6068216801EA000512
:1093200021EA0002680622601DD51348006800F497
:109330004000B0F5000F03D11048006801F076FF3F
:10934000042003F0CBFC811E022905D201F008FEA7
:10935000022001F085FF03E0012808BF01F000FEB4
:10936000202002F0C1F9280648BF00F0C9FEA56020
:10937000B0BD00BF90220840B44F00507C40002098
:109380002DE9F0414FF02008EFF3118188F31188A7
:109390000122144F11490D7A0A72114991F8506057
:1093A00081F850200021104A3C7D3975396D1268D2
:1093B000D2B251F82210886040F2000CEFF3118015
:1093C0008CF31188D1E900018847EFF3118088F30D
:1093D00011883C7546EA0520BDE8F081883E0020F2
:1093E000983B0020703C002004ED00E089B36FF052
:1093F000C0020B0E02EA8112202B05D0212B05D0D2
:10940000A02B05D1302118E0102116E0202114E016
:10941000B1F1807F01D240210FE0102B05D0112B3C
:1094200005D0402B05D1702107E0502105E06021D7
:1094300003E09021502B08BF8021114341F00F0120
:1094400004C8531C18BF8A42FAD14FF0FF3140F8CC
:10945000041C704770B50468616F59B3D4F8582183
:1094600045685668E96B28683268D162012103F0CB
:10947000F9F9D4F85801E96B0F4A40680068C0F860
:10948000041591FAA1F112683068B1FA81F192697C
:109490009047616F091AE07C20B104F14C0001F0A3
:1094A0007BFD05E0206FA26F401A20675018A0676F
:1094B0000020606770BD00BFD4010010F8B5202205
:1094C000EFF3118482F311888268114381600146B1
:1094D00051F80C2F8A4220D0114901270D7A0F72C2
:1094E000C668D6E9061203F079F8706170B1316888
:1094F000F06872681160377471683268516008B141
:1095000000210175B068214601F094FF84F31188B1
:109510002846BDE8F84001F05BBC84F31188F8BD33
:10952000883E00202DE9F047164C002100F12C0365
:10953000154D4FF0010A80F8281084F850100ECB1A
:10954000D4E91689276E2E7DC4E91703A26585F834
:1095500014A0016340F2000CEFF311818CF3118829
:10956000D0E90532C169104698472020EFF31181F8
:1095700080F311882E7584F850A0C4E916892766F7
:10958000BDE8F087983B0020703C0020B0B5134D3B
:109590000124E86B01680120884701281BD0286856
:1095A0003C21012200230024C5680D48A84790B142
:1095B00001F0BAFC0B480C490068D1E9002388602F
:1095C000C01A0A4BA2EB92025843B2EB104F98BF5D
:1095D000020C01240A602046B0BD00BFA4010010A7
:1095E00000A00C4030200940F43F002040420F0012
:1095F000B0B51448144D807B95F83911084306D056
:1096000003F05AFB95F83B1121B103F038FC00241C
:109610002046B0BD012485F83B4103F030FC022018
:1096200002F002F80D20FEF73FFB08480168002910
:10963000EED1074940220A604A60002185F83A11BC
:10964000C461E4E77CD50400A838002004800C4005
:1096500038500C40F0B5DDF814C02CF0030404F1D0
:109660000C0505FB03F4944201D9012220E00CF023
:1096700003024FF0000E0F460E460024ACEB020230
:109680000C327BB1BE1887F804E0A7F806C0013B96
:109690003E607E7906F0F0067E7104FB05162F44CD
:1096A0000134EEE700220160316042600148016050
:1096B0001046F0BD9838002079B36FF0C0020B0E51
:1096C00002EA8112202B05D0212B05D0A02B05D139
:1096D000302118E0102116E0202114E0B1F1807F44
:1096E00001D240210FE0102B05D0112B05D0402BCB
:1096F00005D1702107E0502105E0602103E09021B1
:10970000502B08BF8021114341F00F0104C8531CA6
:1097100018BF8A42FAD140F8041C70471CB515489E
:10972000017E022904D11920BDE81C4003F0CAB90A
:10973000017E01291DD0007E04281AD003F0BCFA56
:10974000044601A8FEF756FD28B101990A4831B137
:1097500003F004F80AE0084803F082FB06E003F097
:109760007FFB06480421283003F0E1FB204603F08C
:1097700086FB1CBD083C00203C360020403D0020FC
:10978000B0B54FF0FF3003F0A5F9104D0446104975
:10979000E86988420DD10F480F49002203F09BF879
:1097A0000220287601F058FF18B9FEF7A5FEFBF756
:1097B000B5FA0A48044208BFB0BD09484FF000514D
:1097C0002830BDE8B04003F0B2BB00BF083C002029
:1097D000E5400400A43D0020BD67040002000040F5
:1097E000403D00202DE9FF41144DD5E9006738794F
:1097F000FEF75AFA03F060FA04463078B0B90DF17A
:109800000408404603F056F9B87979790C4A434682
:1098100001950290301D01F0CDF938684FF0FF310D
:10982000C16208498160012131704160204603F026
:1098300026FB024804B0BDE8F08100BF74D60400E6
:10984000FDCD040000040020B0B58AB01048417975
:10985000D9B901250F492422457101AC204603F0F6
:109860006DFB4FF400708DF824500D4D0D492246CC
:1098700000230690084805900020049007480190B6
:10988000284602F05BFA084845630AB0B0BD00BF45
:10989000983B002024D40400082D0020CBD40400E1
:1098A000A0350020DFCE0400883E00202DE9F041E5
:1098B000D0F8A8501F4616468846044625B12046D3
:1098C000414632463B46A847D4E928010F400640AE
:1098D00056EA070008BFBDE8F081204641468022D5
:1098E00000F0DAFEC4E92C6740B1D4F8A81081601A
:1098F000D0E90812B143BA43C0E908120020C4F805
:10990000A80004F15000BDE8F04103F00EBB704721
:1099100010B5FFF725FC002801D0002010BD012064
:1099200010BD00BF10B5FFF71BFC002801DB0020B5
:1099300010BD012010BD00BF10B5FFF711FC0028BD
:1099400001DD002010BD012010BD00BF10B5FFF7E4
:10995000CFFB002801DA002010BD012010BD00BFA0
:1099600010B5FFF7C5FB002801DC002010BD012069
:1099700010BD70472DE9F047054615488A464FF05F
:10998000FF394FF0000804686768BC421DD02646C6
:109990002468307D0028F8D06DB1F06850450AD1B8
:1099A000306918B130625044F06001E086F81480EC
:1099B000D6E906108847307D0028E6D0F068A0EB95
:1099C0000A00484538BF8146DFE74846BDE8F087D2
:1099D000D83C0020B0B5164A0121147A1172202219
:1099E000EFF3118582F31188024652F8143F934237
:1099F0000FD010680368136001745A60C16809B120
:109A000000220A758068294601F014FD85F311884B
:109A100008E0017CC90706BF418A0131012141826A
:109A200085F311882046BDE8B04001F0D1B900BFF0
:109A3000883E002070B5144E2021306EEFF3118562
:109A400081F31188716D726EB1FA81F1C1F11F015C
:109A500002EBC101814210D90C480121047A017244
:109A60000B4802F0CAFC002086F85000204685F31F
:109A70001188BDE8704001F0ABB9002086F85000B5
:109A800085F3118870BD00BF983B0020883E002000
:109A9000E59E04000F280ED840F20252DFE800F0E5
:109AA00014101210080D081010100D100810100DD1
:109AB0004FF2011208E01E2802D141F2011203E028
:109AC000002201E04FF4817231B1FF2907D14FF23A
:109AD00003101040C03008E042F0300005E0C80735
