:2000000000000420153D000083270000BB1F00004326000043260000432600004F2C000030
:2000200000000000000000000000000043260000432600000000000043260000432600001C
:20004000432600004326000043260000432600004326000043260000432600004326000058
:20006000432600004326000043260000432600004326000043260000432600004326000038
:20008000432600004326000043260000432600004326000043260000432600004326000018
:2000A0004326000043260000432600004326000043260000432600004326000043260000F8
:2000C0004326000043260000432600004326000043260000432600004326000043260000D8
:1C00E0004326000043260000432600004326000043260000432600004326000025
:2000FC002DE9F04F87B00446D0E90010CA694368510001318B4240F02D810068007804282D
:20011C0040F02881AA4DE06805F50076314602F050FF03F03AFE03F067FD0828FBD003F013
:20013C003BFB062840F01B8103F023FE03F02DFE03F05AFD0828FBD003F02EFB062840F082
:20015C001181D4E9000105F16008C26908684146013002F02EFFD4E9000105F1C00A03F0F2
:20017C00B6FD2068D0E90123D0E90317C069CDE9001702904046514600F0AAFC002840F0E5
:20019C00E48003F0F6FD2068DFF828B203F0ADFD02F048FE03F028FD0828FBD02068DBF87D
:2001BC00002005F54079C169484602F013FE002840F0CB802168A068CA69314602F0F9FECE
:2001DC002068324603F07CFD03F00EFD0828FBD0794F4FF48070DBF8002038603046394623
:2001FC0003F001FE002840F0B080206839680269C3693046CDF800B002F09AFD03F0F4FC52
:20021C000828FBD003F06AFDD4F800E00028DEF81CC0C7F800C040F09880DEE90512DEE97B
:20023C000130DEF80CE0CDE902CBCDE9000E304601F032FD03F0D8FC0828FBD02068DBF8B5
:20025C000020C3693046F11803F0D1FD00287CD103F095FD20682A4603F032FD03F0C4FC2F
:20027C000828FBD04FF480703946DBF8002041F8040F484603F0B7FD002866D12068796879
:20029C000269C3694846CDF800B002F051FD03F0ABFC0828FBD02068DBF80020C1694846A0
:2002BC0002F0E8FD21680028CA697A604DD1606841460068013002F07CFED4E9000103F06A
:2002DC0006FD2068D0E90131C268C069CDE90012CDE9020B48464146524601F0DDFC03F044
:2002FC0083FC0828FBD02068DBF80020C369484609EB030103F07BFD38BB2068D0E9011289
:20031C00C069CDE90012CDE9020B311809EB000330464A4601F012FD03F066FC0828FBD077
:20033C002068DBF800200021C369304603F05DFD58B9206803F0D9FC02F0FAFC03F054FC8A
:20035C000828FBD003F0CAFC78B107B0BDE8F04F03F074BB6FF0090007B0BDE8F08F6FF045
:20037C000200F9E76FF00300F6E703F008FD20680021C069069605950491810702D04FF012
:20039C00FF30E9E78008002188420BD0069A52F82120059B53F8213001315A40049B1A43C5
:2003BC000492F1E70498002818BF4FF0FF30D3E700620258D8560020105900202DE9F04F08
:2003DC0089B08246974888466021D0F80090504603F030FC9448DFF858B2964C0AF1200605
:2003FC0000254FF0FF37CAF850009048CAF82400022D12D00020294603F0CDFCC0B2314632
:20041C0003F008FA074628B15846214640F2BF6202F064FE2C360135EAE7504603F0D1F93D
:20043C0028B950460021002202F006FF70B301208AF858008DF8130050460021002401F06D
:20045C0027F981467C48006881450DD1C8F800A0CDE90544CDE90344DAF82000417888F842
:20047C0004104068C8F808003C464C2515F10C0005D05AF8050001F0ACFE2C3DF6E7002C9E
:20049C0018BFA146484609B0BDE8F08F504602F01DF80028CBD00020CDE905008DF8120045
:2004BC0040F20110ADF8100001200390002001F077FD0646023802280BD85046012101F0B3
:2004DC00E7F85D490968884203D0012818BF052006466FF001008AF858608DF8136050FA20
:2004FC0086F0032836D208A9012003F093F928B14F48504940F2933202F0F0FDCDF80880BA
:20051C0007A9022003F086F928B14948494940F2973202F0E3FDDAF82840DFF814B1454E49
:20053C0000254FF0000844451DD0DAF82400294600EBC800476808983A4602F0CFFB28B141
:20055C005846314640F29D3202F0C8FD3D4408F10108E8E7F0B201284BD0052849D0FF2015
:20057C008AF858004BE0DDE9071200200023CDE9000502F007FB88B12D4C2E4D40F2445294
:20059C002046294602F0AAFD2046294640F2FF6202F0A4FDDDF80880012728E0DAF8500027
:2005BC0000214268079802F099FBDDF8088028B11F4820494FF47B7202F090FDDAE91401A2
:2005DC00036800EBC10050E902120798C91A02F085FB28B1164817494FF47D7202F07EFD71
:2005FC00089801F0F6FD079801F0F3FD00279AF85860F0B201283FF41FAFFF2806D10F4849
:20061C000C4940F2167202F069FDFEE703AA50460021002702F010FE044600287FF425AF2E
:20063C000AE700BF20590020D0470020004000203C3E0000443E000024590020BD3E00002A
:20065C002DE9F04FADF5077DD0F8008006461C4615468691404603F05DFB4FF0000A08EB8E
:20067C0000090027CDF814A2C8453AD208F1010B8DF810A2CDF804A21BF8010C88B325284B
:20069C0007D02946C6F800B0A0470BF1010B0137F2E70BF101088597C6F800809BF8000098
:2006BC0073288DF8100207D186A9284685AA234600F01CF8859F10E00DF1060B81A986AA5E
:2006DC00584600F033F8909B0246584629469847411C18BF384407468590781CC4D14FF06C
:2006FC00FF3738460DF5077DBDE8F08F2DE9F041804608681746021D0A6005688DB1284604
:20071C001C4603F007FB06463868304438600027B742A8BFBDE8F081E85D4146A0470137E6
:20073C00F6E700204146BDE8F04118472DE9FC4115460E46002740F2FD1120220446009758
:20075C0003F072FA04F5FE7084F8FD710190307B25284ED004F2FD18782803D0642818BF45
:20077C006F280DD1694601AA30462B4600F046F80098A8B101982D21002700F8011911E077
:20079C0063280ED12868011D296004F2FB110068019184F8FC01C0B2B0FA80F0470900E06B
:2007BC0000270198A8EB000125464FF4FF73621A0029D8BF551C411C28460022002603F0F6
:2007DC009AF90FB100F8016BA04207D8211A01382022013103F028FA00202070291B20462E
:2007FC00202203F021FA204603F094FA3844BDE8FC81252020800120BDE8FC81F8B50D46E0
:20081C00077B19461446064600F014F8317B642905D1B0F1FF3FDEBF0121296040420A2156
:20083C0022466F2F08BF0821782F08BF1021BDE8F8400FE0007B642807D06F2805D0782851
:20085C0003D070281CBF002070470868021D0A6000687047F8B514460D46064620B9206840
:20087C00411E216030210170094F66B13046294600F010F821684A1E226000FB156206463D
:20089C00BA5C0A70F1E72068BDE8F84003F042BAF43F0000102904BF00097047082914BF8D
:2008BC00B0FBF1F0C00870472DE9F04FBDB08448994692460068049003F0A1FA489820B191
:2008DC004999012901DB03F09CFABAF80800DAF80C10DDE9467400260844BAF80A1000EB3A
:2008FC000108B04511D9A8EB0605484631463A46A54288BF25462B4603F0EEF858B938465F
:20091C00294603F07EFA2E44EBE705A803F0AFF94FF0000B00E0834603F06FFABBF1000F4B
:20093C0040F0C7804A9818B105A9202203F076FA002051464A464FF6FF7300902DA801F0D2
:20095C00BDFB8346002840F0B4805E480DF1D00A0DF1CE050468002003902DAF33AE4FF004
:20097C00FF38C346384651462A463346D84601F035FA002800F18D8040F08D80BDF8CC00FB
:20099C00222807D14FF0FF3BB8F1000FEAD4A045E8DA68E0012803D01028C3464AD0E1E71C
:2009BC00BDF8CE30202B00F28880349948460DAA03F092F800286CD19DF8CE70202F02D932
:2009DC004FF0FF3B2EE04FF0000BA3452CDA3F4850F83B1000EBCB00D0F80480029103F09A
:2009FC000EFAD8F8001002980DF1D40803F009FA404603F03CF9D7B1A4460DA93A460B78B0
:200A1C0098F800409C4206D1013A08F1010801F10101F4D103E00BF1010B6446D5E7644644
:200A3C0003F0EBF92DAF9DE74FF0FF3BF8E74FF0000BF5E7BDF8CE0020283ED134994846B0
:200A5C000DAA202303F048F818BB05A80DA9202203F0DBF983461C480121039100688345FB
:200A7C003FF47FAF25E0BDF8CE30802B25D8349948460DAA03F030F858B95FFA88F0BDF8D5
:200A9C00CE302021009005A80DAA00F08BFB049065E783460DE0039848B10B480849D1F8FA
:200ABC0000B000680499814208BF8B4601E04FF0010B58463DB0BDE8F08F4FF0FF3BF8E7D7
:200ADC0020590020A041000024590020804100002DE9F04F85B0DDF840A00646002015461C
:200AFC008B46DDF8389045F21C0702903046114652461C46C5F6020702F0BEFB38680004A6
:200B1C00FCD43868000400F1BB807868022840F0B78058462946524602F0AEFB38680004C4
:200B3C00FCD43868000400F1AD807868022840F0A9800DF1080C3046514632465346CDF8AF
:200B5C0000C002F0BFF900BF38680004FCD446F20048C5F60208C820029A039003A940464E
:200B7C0001F066FA002840F08980039940462246534602AC009402F004F900BF38680004F0
:200B9C00FCD4C820029A039003A9404601F050FA002873D10399404632465346009402F0C0
:200BBC0091F900BF38680004FCD4C820029A039003A9404601F03CFA00285FD10399404672
:200BDC004A465346009402F0DCF838680004FCD4C820029A039003A9404601F029FA00287D
:200BFC004CD1039940462A465346009402F0A0F838680004FCD4029AC820049000200021A6
:200C1C0008EB0103C42901F10401C3F80002F7D308F5007404A9204601F0E2FB70BB58463B
:200C3C0051465A46534602AE009602F04BF938680004FCD4C820029A039003A9404601F09E
:200C5C00F7F9D8B9039940462A46534602AE009602F06EF838680004FCD4C820029A0390A3
:200C7C0004900020002148F80100C42901F10401F9D304A9404601F0B3FB38B1012002E0D4
:200C9C000D2000E00E2005B0BDE8F08F40462146524602F0F1FA38680004FCD438680004AA
:200CBC0004D47868012801D10020ECE70F20EAE72DE9F04381B005464AF25C384AF2412937
:200CDC004AF2000440F650360846C5F60C08C5F60C09C5F60C04C5F2000601F07BFA0246D9
:200CFC002046182103F07DF830683168C0F3870761F3092720462C2140F2FF32002300970B
:200D1C0002F0C4FDF26A20466FF39F321C2103F068F8706A142120F00332204603F061F879
:200D3C00306A4FF6FF71C0F2FC0100EA01022046102103F056F8284601F03CFC024620468F
:200D5C000C2103F04EF8222D0ED3F06B022101EAD060203089F80800F06B0821400F61F348
:200D7C005F0089F8080007E0222089F8080011201F2D89F8080033D9B06C4FF440711C225D
:200D9C0001EAD04102EA90521144C0F381500A182046282103F025F8B06C062101EAD04075
:200DBC006030222D89F80B0010D3F06B082101EA1060803089F80000F06BFC2101EAD04046
:200DDC004FF60041CFF6FF71084304E0802089F800004FF47C40A8F80000B06C020312E03A
:200DFC0020462821002202F0FCFF602089F80B00802089F800004FF47C4048F20002A8F811
:200E1C000000C4F23F022046082101B0BDE8F04302F0E7BFF0B581B04AF28006C0F3814102
:200E3C0040F66C37C5F60C060229C5F200072AD0012925D1396A8A0322D44FF48042326030
:200E5C0046F20A02C5F60802D2F80230802404EA5124C1F3033523F08F0325442B44C2F847
:200E7C000230D2F801300D0A65F30303C2F80130136801F0E70123F0E7031944116002E0C8
:200E9C004FF0004131604FF0A04109680C2209075CBF4021B1624FF40071C6F88010396A22
:200EBC00C0F38150C90C62F39F01022886F8881144D0012816D0002843D146F27C0404204C
:200EDC000121C5F60C04012502F032FA43F2BD70206086206060A560A0688007FCD50020F8
:200EFC00A06032E0012002F00BFD04460420214602F01EFA042002F003FDA042FAD11420D3
:200F1C00C5F20000006846F27C01C5F60C0182B20A60C0F307424A6001228A608A6892073D
:200F3C00FCD500228A604CF20002000EC6F20002072102F08CFE4FF4806030600420032111
:200F5C0001E00420022102F0F3F938684BF20B0100F03F00C4F20C01087042F22C00C4F206
:200F7C000900006801B0F0BD2DE9F0410546002000297AD03E4F0C460021072FA7F1080685
:200F9C0088BF31468C4270D83A4800688047681E082105424FF0080008BF2846072D98BFB3
:200FBC000846E11D21F0070833490A7892B900220023072F88BF334613B9314B1A6007E07C
:200FDC002E4B2F4D072F9A602B6098BF16461E6001220A702A4E4142421E3568ADB305F129
:200FFC000806931903EA0107BE4210D005F11003A7F108049C4201D20744F9E72C6807EB37
:20101C00080324F0010434449C42E6D305E02B6823F001034345E0DB3746284602F0A4FD31
:20103C00B74218D0B81B2A68A0F10801296021F001016E1822F00101081A40F0010046F8ED
:20105C00080F284602F0FAFB06E00E48006880470020BDE8F0812E463046414601F0E4FA27
:20107C0008480068804706F10800BDE8F08100BF004000002C59002034590020000000204F
:20109C00DC56002030590020B0B540F61C30C5F2000005682824C5F6090402F00BFC01F030
:2010BC009DFD44F20C00C4F209000068C00706D0B5F1FF30616818BF284600F099FD42F2D7
:2010DC008C10C5F6080000210160206800F44050B0F5805F09D120684FF6EF71CFF6FC417A
:2010FC00084000F500312160206042F20004C5F60904206840F080002060142001F08EFCFE
:20111C00206840F4E0202060206840F0010020600420C5F20000006800F44000B0F5000F13
:20113C0005D143F2BD70C0F2860002F031FC44F20000C4F2030000BF01680907FCD440F6D7
:20115C00007146F2A020C0F20B01C5F6080001F1080201604260CA1C07318260C16041F632
:20117C000041C0F2090101F11C02026141614CF24001C0F20A0181614031C16141F22C0031
:20119C0040F2F011C5F60E00C0F2400181604FF4C40141604FF4A3010160206840F00200B8
:2011BC002060B0BD2DE9F04196B00D4680461C983B4917461E46302351F8302001EBC000EF
:2011DC00406811920068111811A815AA02F04AFB28B14FF0FF34204616B0BDE8F08115982E
:2011FC0011990C1811A801AA12AB214601F078F80028EED102980728EBD10398294907227A
:20121C0002F0C0FC0028E4D113980828E1D114982549082202F0B6FC0028DAD111A815AA67
:20123C00214602F0E8F90028D3D115994129D0D111980144A142CCD101780429C9D10130F4
:20125C00BC193023CDE9110712A815AA214602F009FB0028BDD1159812990844A042B8D8DA
:20127C0001AE12A92246304601F054FE0028B0D106F1200012A9224601F04CFE202D4FF01D
:20129C00FF3408BF0028A6D102F0B5FD119801AA414601F003FB044602F0ABFD9BE700BF06
:2012BC008041000098410000744100002DE9F04FDDF8288044F2000EC5F6020EA8F108063B
:2012DC00DEF880564FEAF606072ECEF880566AD8F5B28B2424FA05F5ED074FF0010C64D01C
:2012FC00DDE90B97099C002FA24644F2980718BF4FF0010AB9F1000FC0F2000744F2C065EB
:20131C0008BFA246002C57F82670C5F6020518BFA246002918BF47F000472F640327C5F878
:20133C00C870C5F8C0C044F2901BD5F8C470C0F2000B1BF806C047F00106C5F8C46049EA52
:20135C00080645F83C6C5AB1B9F1000F08D14FEA9C062F4652F8044B013E47F8044BF9D161
:20137C000C9A2AB1DA0045F8382C8022CEF880260322C5F8C82000BFD5F8D0209207FBD19C
:20139C0030B10122CEF80020CEF80400CEF80CA031B10120CEF82000CEF82410CEF82CC076
:2013BC004FF0000C01E04FF0010C6046BDE8F08F80B3F8B50446384800688047374A083C31
:2013DC000021A24207D21068114620F00100104408300246F5E7314D31484319072888BFBA
:2013FC00A3F10805136823F0010010440830A84288BF0020A24249D1DA0747D059B10A6852
:20141C000D4612F0010218BF002530B91ABB00260D4608E07047F0B1002501780646C9072B
:20143C0018BF00262DB1284602F09EFB0EB3012703E086B1002500270646304602F094FB2A
:20145C006FB129682068103120F0010021F001010844316812E0206820F0010007E02168F2
:20147C003068083120F0010021F001010844206009E02068296820F00100083121F0010130
:20149C002C4608442860204602F0D8F905480068BDE8F840004700BF2C5900200000002064
:2014BC0000400000305900202DE9F04381B0144645F21802C5F602021D4653688946190439
:2014DC0003D4116829B1012000E0082001B0BDE8F083D16809041BD4E0B15FEA95081ED03A
:2014FC00C44600F00301B8F1010F98BF4FF0010C63460746264600BF326800293A6006F101
:20151C000406013B07F10407F6D14FEA8C0107E01120DBE705F003074FEA95080CE000211D
:20153C0015F0030707D00A590844009269463A4602F074FC00E00027002F384618BF01202B
:20155C00B9F1000F29D0404400F00101084404EB8000042D00F1080601D2002015E009F07B
:20157C000301B8F1010F98BF4FF0010842464B46304600BF056800291D6000F10400013A62
:20159C0003F10403F6D14FEA880037B181594844009169463A4602F041FC002096E770471B
:2015BC002DE9F047054638480C4600688047204601F0A4F900285ED0D4E902010022AB5C43
:2015DC000132002BFBD1A2F10108626902F00702042A0DD100264746002F4ED02068A9190D
:2015FC003A4602F0C3F8002841D43F1A0644F3E7A1EB00094646002E3FD037464E4588BF33
:20161C004F46616901F00701022912D13FB100216A5C0A2A07D001318F42F9D109E04FF071
:20163C00000A002707E06A1803D04F1C4FF0010A01E04FF0000A29463A4602F0EFFBA0686F
:20165C00F61B3D44BAF1000F3844A06002D1B9EB0709D0D1204601F085FC40B96269D4E925
:20167C00020142F02002A1EB00096261C3E7606940F4806060614FF0FF3804480068804766
:20169C004046BDE8F08700BF2C5900203059002070B586B0054633480C460668002002F08C
:2016BC007AFBC0B205A902F0B5F8002857D12846214601F0A4FC00284DD02C2004FB00563E
:2016DC00307CC00647D4BCB1287D95F84010814212D80AD3687D95F8411081420CD804D3A7
:2016FC00E88AB5F84210814206D22846002101F086FC08B105982AE00020059B0021324607
:20171C000490CDE902004FF480700190164800900020FFF7C9F83268144B014605989A421F
:20173C0014D12C2204FB0253DA681B899D180DD213448268934209D20D4B0E461B68994291
:20175C0018BF012644B1994202D105E01CB18268002101F0C3FA0126059800F03AFD304600
:20177C0006B070BD20590020C05400203DB8F396245900202DE9F047DFF8C08004461E4670
:20179C0017468946D8F800008047206801304CD0042F01D0002E48D0254655F8040FD5F8B3
:2017BC0010A060B15FEA0A7102D50138FFF700FE00202AF0080AC5E90000C5E90200002FAB
:2017DC0008BF01272AF0070040EA070AB6F5807F3746C4F814A028BF4FF48077B9F1000F31
:2017FC0018BF012E0BD10137384602F0F3FA2860C0B101304AF008016161606002E009F18B
:20181C0001002860C11920610139C4E902010C4800688047D8F8000080470A480A490024FB
:20183C00016004E04AF4806060614FF0FF340448006880472046BDE8F08700BF2C59002095
:20185C003059002018590020113500002DE9F047054627200C4600F059FB2B4F0026DFF800
:20187C00ACA03989BE707E608AF80160081940280FD329B307F11008C1F1400608EB01000C
:20189C002946324602F0CAFA00204FF0400938811AE0781829462246103002F0BFFA388921
:2018BC00CAF80C602044388102F057FA18490120787008604A6842F001024A60C8601DE0F6
:2018DC0024F03F06A846B146A01BA919CAE9021002F043FAF86807F1500128B1404608220B
:2018FC004B4602F0EAF804E0404608224B4602F0C5F801207870F8684844F86002F033FA27
:20191C00BDE8F04700F006B86056002000590020804702582DE9F84F2A482B4E284DDFF81D
:20193C00ACA04FF0000B8046841C06F1500006F110090090404601F0D7FEAF682C6002F0C7
:20195C000CFAB07898BBB7F1FF3F17DDDAF80C701FB3402F16D327F03F07DAF808000099C8
:20197C0008223B4602F0A9F8DAE90201C91B3844CAE90201F0683844F06018E04FF0FF30A7
:20199C0070600AE0DAF8081048463A4602F046FA3089CAF80CB03844308186F801B09AF822
:2019BC000100012804BFA6F808B0C6F80CB002F0DAF970780028BDD17068BDE8F88F00BF28
:2019DC00884702580100008060560020005900202DE9F04782B045F2000899469246C5F6C2
:2019FC0002084FEA910640B3042901D200250FE008EB0A02354602F58052012E98BF0125FB
:201A1C0003462F4653F8044B013F42F8044BF9D111F0030111D050F82500019001A80844E6
:201A3C00C1F1040102F006F9019808EB0A0101EB85014FF48052013688504FEAB900032898
:201A5C001AD8DFE800F0020910154FEA9A00C8F80000C8F810600FE04FEA9A00C8F8040048
:201A7C00C8F8146008E04FEA9A00C8F8080003E04FEA9A00C8F80C0006F0010030440AEBB1
:201A9C00800002B0BDE8F08770B586B0044680680D4602AA1023A0F11001204602F01CF80F
:201ABC00002840D402AE20461022314601F09EFE08B103210DE0214A0021535C705C9842D7
:201ADC0003D101311029F8D103460221984208BF012129700DF1070201230126A068A0F12F
:201AFC002801204601F0F8FF002823D49DF8070001220126010900F00F00297168700DF1D5
:201B1C000701204601F072FE10B96878052802D300206E702871A068A91CA0F120022046B2
:201B3C0001F098FC08B1012604E0E91C204602F04DF90646304606B070BD00BF30410000C8
:201B5C00F0B585B00446272000F0E0F9264E00200125B07070602548457002F0FEF875709C
:201B7C00F068328960B192B10821831806F11000CDE9002106F15002214601F0CBFF2BE0CA
:201B9C0006F110002146082301F088FF24E0C00006F110050027402102902846039702F034
:201BBC0049F88020307406F1480002A93A1D07D0CA19013FD378D27900F8012BC370F5E780
:201BDC0006F150012046202202F028F9284621460822402301F071FF02F0C5F805B0BDE81A
:201BFC00F040FFF797BE00BF605600200059002070B504464FF0A040006846F2092680075C
:201C1C0040F20400C5F60806C5F2000005D44168F02242EA114186F84D104AF20441C5F6C9
:201C3C000C014FF001220A604AF20001C5F60C0109880568284600F062FD05F04070B0F1A9
:201C5C00807F03D1307840F00200307020462946FFF72EF840F60C40C5F2000000684BF24C
:201C7C000E02C0F30531C4F20C021170C1054FF0130158BF232140237354382101EA901088
:201C9C0000F56050A2F85C002846FFF7C3F80220BDE8704001F0FEB92DE9F04F81B045F292
:201CBC000C0AC5F6020A1446DAF810200E46110440D4DDE90C5B1F46DDE90A9829460022C7
:201CDC000023FFF785FE0246384629460423FFF77FFE00F1080248462946FF23FFF778FEF7
:201CFC0000F1080240462946FF23FFF771FE00F10802304629460823FFF76AFE00F10802ED
:201D1C0020462946FF23FFF763FEBBF1000F00F1080106D046F20802C5F602021044CBF8B6
:201D3C0000008808CAF800004FF45040CAF81000002000E0082001B0BDE8F08F2DE9F04F3E
:201D5C0081B045F20C0BC5F6020B1746DBF810200D4611043DD40C9E9946DDE90AA83146CF
:201D7C00002200230024FFF733FE00F1080228463146FF23FFF72CFE00F10802504631468D
:201D9C000423FFF725FE00F1080240463146FF23FFF71EFE00F10802384631460823FFF7AA
:201DBC0017FE00F1080248463146FF23FFF710FE46F20802C5F6020200F1080110440D9AD6
:201DDC0010608808CBF800004FF43040CBF8100000E00824204601B0BDE8F08F2DE9F84306
:201DFC0080B30446006868B3606858B3894621691F4690466D464FF6FF766069814238D25D
:201E1C002068408920B1E068814204BF0431216160682A46042301F05FFE98B9A07A18B11E
:201E3C00D4E90301814224D22089B0420ED0BDF8001081420AD02069BDF802100844011D77
:201E5C002161DAE74FF0FF30BDE8F88317B1BDF80000388020690430C9F80000BDF802002B
:201E7C002169A8F800000844043020610020BDE8F8830120BDE8F88370B501F06EFF1E4DAC
:201E9C00287810B14FF0FF3431E0002601246E702C70AE7001F067FFEE602E8101F05DFFBE
:201EBC00164D04202C7001F083F9012808D004202E7001F087FB042001F07AF90128FAD1C4
:201EDC004FF4806001F087FD4FF4806001F094FD4FF4806001F06EFD0948046009480168BB
:201EFC008907FCD50848002401686960046001F03AFF204670BD00BF605600200059002090
:201F1C00282008602820084034EF00E005280BDC04281AD0052829D14EF62450CEF2000099
:201F3C00016821F400311FE0062816D00F281DD14FF690604EF28011CFF6FF70CEF20001A3
:201F5C000A5822F002020A5070474EF62450CEF20000016821F4803106E04EF62450CEF2D7
:201F7C000000016821F4802101607047A0F110011F2907D8012088404EF28011CEF20001CA
:201F9C0008607047302838BF70473038012101FA00F04EF28011CEF2000148607047FEE7B5
:201FBC00F0B585B003A9012001F097FC20B901A9022001F092FC10B1FF2005B0F0BD9DF8DF
:201FDC0004109DF807E09DF80C309DF80EC09DF80F50164E00200027122823D0345C042C95
:201FFC0006D0052C02D1012B02D118E09C4216D134186278042A06D0052A02D1012902D106
:20201C000DE08A420BD1022F03D2E278724506D10AE0A278AA4202D12279624504D0063012
:20203C000137D9E70120C8E76079C6E70C41000080B545F21C0CC5F6020CDCF800301B0469
:20205C0011D4DCF808C05FEA0C430ED46FF3DF2CA2F1B0430CF1010CA3F51833BCEB930F40
:20207C000CD2102113E0082111E00A6872B108B10022027001200860002108E09B08D1F848
:20209C0000E0ACEB030CBEEB8C0F02D20321084680BD4FEA8C030B6000284FF00001F6D076
:2020BC00BCF1000FF3D000BF52F8041BBCF1010C40F8041B4FF00001F6D1E8E72DE9FC4123
:2020DC0080B10D4671B1164662B104462889E9681F4601AA042301EB00083046414601F06A
:2020FC00FBFC18B14FF0FF30BDE8FC81BDF8040046F60812698990420ED1BDF80600814244
:20211C00F0D1414401AA3046042301F0E5FC0028E8D1BDF8040001E00029E3D146F6071197
:20213C008842DFD10898BDF806102781C4E90056A07208F10400206168894044E060084462
:20215C0060610020BDE8FC81F0B504680B1B012B35DB25782E060AD4631C03602578C91ADC
:20217C00002015608D4288BF6FF05F00F0BD05F07F05013D032D84BF6FF06300F0BDDFE8CD
:20219C0005F0021C0814022B19D36578A31C0360E5E7042B13D3A6786578231DE7780360FE
:2021BC00300240EA0540C519D9E7052B07D3D4F80150631D03602DBAD1E7032B02D26FF0BA
:2021DC005F00F0BDB4F80150E31C0360280405BAC5E7704710B540F65031C5F200010A6884
:2021FC008303C2F38364C2F38F2234D40304B3F1FF3F40F3072315DC43EAE37000F1010C7E
:20221C00ACEB030E6008022C4FF6FF733CBF01230120022A2CBF53080446BEF1010E1A4693
:20223C00F0D16346012B16DB581C00BF520002F1010C6200531C0F2B4FF0010284BF4FF6A1
:20225C00FF720F235FEA1C41A0F101000CBF62461C460128EAD842EA044010BD70B546F22D
:20227C000621C5F608010A7800F01F00152802F01F0288BF60F01F00152A88BF62F01F02C7
:20229C0090422CD040F2280CC5F6090CDCF8005042F22C03C5F6090315F0800425F0100E14
:2022BC0004D025F09005CCF800501D689D684FF0FF359042C8BF01250E782A4406F0E00525
:2022DC0002F01F06354490420D70EFD19868002C08BF70BD98689868CCF800E0186870BDD2
:2022FC00F8B51C4617466A4630230E46054601F0B9FA00B1F8BD2868311A0129BCBF6FF0CB
:20231C005F00F8BD01783A46062302C2009946182846314601F0A6FA0028EBD12868B860AE
:20233C00786829680844B042286015D010F8011B2246286002C228463146FFF705FF002886
:20235C00D8D12868A0606068296808442860801B18BF6FF06500F8BD20460C2101F0A0FCF0
:20237C000020F8BD10B501F0F8FC184C607808B100F0FCFF002017492070154C6068086041
:20239C0001F0F1FC01F0E9FC207838B9042001F097F8042000F00CFF0228FAD14FF4806009
:2023BC0001F0D2FA4FF4806001F0E0FA4FF4806001F0B8FA08480121016008480168890774
:2023DC00FCD5BDE8104001F0CEBC00BF605600200059002034EF00E028200860282008404F
:2023FC0080B545F21C0CC5F6020CDCF800301B0424D4DCF80CC05FEA0C4321D4A2F1B04396
:20241C006FF3DF2CA3F51833ACEB9303D1F800C003F1010EBCEB8E0F1BD34FEA8E030B6030
:20243C004FF00001B0B1BEF1000F13D052F8041BBEF1010E40F8041BF8D108E0082109E0FD
:20245C000A6832B108B10022027001200860002100E00321084680BDF8B506680446701C94
:20247C0004D06569204600F07DFD18B14FF0FF352846F8BD207D05F48057000707D5606857
:20249C000138FEF795FF606920F0080060610020C4E90100E060206800F060FA05464FF052
:2024BC00FF30002F2060E3D0054800688047054800EB061001F0ADFC034800688047D7E7D3
:2024DC002C590020C055002030590020F0B5816AFA2904D8D0F854C0BCF1FA0F01D9002042
:2024FC00F0BD002300260024002500278C4228BF65451DD29E420AD010D2022FEFD0426AD4
:20251C00012702EBC402013452681644EEE7466A06EBC406013476681E4402E0012FDED006
:20253C000227026D02EBC502013552681344DDE785EA0C0061400843B0FA80F04009F0BDB1
:20255C002DE9F047DFF85CA00446DAF8000080474CB1204600F006FD044615480068804730
:20257C002046BDE8F087DFF84080104DDFF8409000240027D8F800008742EEDA29680131B3
:20259C000CD0DAF800008047284600F0EBFC0646D9F800008047D8F80000344318350137B5
:2025BC00EAE700BF2C59002028590020E45600203059002080B540F2080CC5F2000C4FF0A9
:2025DC00A041DCF8702B0B68C2F30351DB07C2F3034E15D1DCF800C04FEA0C5301EB237199
:2025FC004FEA0C4321EAE1710EEB23734FF00F0E0F2923EAE37328BF71460F2B38BF9E46A1
:20261C00090541EA0E4102F47F43194402F0F003194402F00F03194402F08042212888BF1A
:20263C001143084680BDFEE7F8B50D460168044621F00100401B102824D31449144A531845
:20265C00072A88BFA3F108016619083846F8080F20F00100304400F108078F420ED238784F
:20267C00C0070BD1384601F07FFA31683868083120F0010021F0010108443060304601F0DA
:20269C00DDF8294641F001002060F8BD0000002000400000F0B540F6FF7C10F8013B002455
:2026BC00082CFAD00646DF0716F8015B0AD1467806F00F070337122F0AD187783A0609D44D
:2026DC0003300DE001F8015B304601345B08E7E7023006E0C27807F07F07043047EAC21780
:2026FC001237320942EA0515654508BFF0BDED43002FEAD04A5D013F0A700131F8E710B586
:20271C00044600F04070B0F1807F13D146F21520C5F6080080214FF6D8020174A0F85120C1
:20273C00017040F68830C5F200000068C0F30460FFF794FD1020C5F60900016889070DD493
:20275C0045F22401C4F209010A68630122F020020A6003D4016841F0050102E0016821F0FA
:20277C000501016010BDFEE770B50646164814460D4600688047306801301DD0012C07D1BE
:20279C00307DC00604D5B06810B131692844451A304600F0E7FB71693068224621F42061DB
:2027BC007161294600F0B6FF0446084800688047601C18BF002404E00448006880474FF039
:2027DC00FF34204670BD00BF2C59002030590020FEB5016804460026885D18B13A2803D09B
:2027FC000136F9E7134D22E0124D8F191FD0082EA8BF08268EB10DF10300324601300B7817
:20281C0000F8013C23B101300131013AF7D104E0022A02D3511E01F00DFA0DF103000021BF
:20283C00815500F0B5FE10B1791C054621602846FEBD00BFD457002070B59AB00646144897
:20285C000D460068804701AC3146204601F05BFA304601F06DFA064620442946013001F0FB
:20287C0052FA284601F064FA0A4D30442246831CF720294600F058FE2846002100F0D4FE44
:20289C000548B5F900400068804720461AB070BD2C590020D056002030590020F0B599B0D3
:2028BC00064604200DF1070714460D4620228DF80700781C314601F0B1FA07F1210006F14E
:2028DC002001202201F0AAFA17AE39464122304601F084FA0848CDE913651594129004F19A
:2028FC002000169012A8FDF7FBFB002818BF4FF0FF3019B0F0BD00BFD03F000010B5044692
:20291C000068013028D06169C80622D4080605D520460021022201F07AFA6169880604D454
:20293C00480644BF41F020016161626801206AB911F004020AD101F00702204600214FF462
:20295C008073FEF717FFB0FA80F04009E168216110BD41F480606061002010BD70B5002852
:20297C0002D40546092802D94FF0FF341DE01048006880470F4E56F8351089B106EBC50038
:20299C00096940688847044601300BD056F83500002146F83510418921F00101418101E035
:2029BC004FF0FF34044800688047204670BD00BF2C590020B058002030590020F8B500F0A9
:2029DC00B1FB01F0EFF901A801F024F9B0B9019811490068884211D1072003214FF4FA7235
:2029FC0000F0E2FC0198039900890A58084482F3088840688047002004B080BD00F092FB7F
:202A1C0006200A21322200F0CFFC062002214FF47A7200F0C9FCF3E73DB8F3960F2809D0A5
:202A3C000E2810D14EF60450CEF20000016841F0006106E04EF60450CEF20000016841F038
:202A5C00007101607047A0F110011F2907D8012088404EF28021CEF2000108607047302806
:202A7C0038BF70473038012101FA00F04EF28021CEF200014860704770B5144D0023032B3F
:202A9C001DD055F82340013326788642F7D160787F2814D10E480368D4E9010414FA83F4AF
:202ABC00651E9CB2B5FBF4F300259D420AD002EBC50642F83500204401357460F5E74FF004
:202ADC00FF3070BD00200B6070BD00BF20410000F0230358F8B50646114814460D460068D1
:202AFC008047104F200A00220023F871280E3946BC71BD703E707871280C3871280AF8709F
:202B1C00300A7870F42000F00FFD3846002100F08BFD05483C68006880472046F8BD00BF56
:202B3C002C590020D056002030590020F8B50646114814460F4600688047104D380A0023F3
:202B5C00E870200AAF702C706870F05C01330028FBD1F0202946324600F0E6FC2846002178
:202B7C0000F062FD0648B5F9005000688047002D48BF2C462046F8BD2C590020D0560020C3
:202B9C00305900202DE9F84FDDE90AB6124F994690468A460024B4421AD2351B04EB090158
:202BBC0050463A46B5F5806F28BF4FF480652B4600F092FF48B904EB0B0140463A462B46D6
:202BDC0000F018FB2C440028E5D00120BDE8F88F0020BDE8F88F00BFA04F002044F20000EC
:202BFC00C4F2030001680907FCD44FF0A041436809684FF6F87240F2040CCDF6FF72490706
:202C1C00C2F2000C03EA02010ED4026841EA0C0192070CD00CF103021A434260026802F092
:202C3C000302032AFAD102E00CF10102114341607047FEE7F8B50646104814460D460068A2
:202C5C008047B4F5807F0E4F28BF4FF48074200A00220023F870300A3946BC703E7078701C
:202C7C00F22000F061FC3846294600F0DDFC0548B7F90040006880472046F8BD2C590020F7
:202C9C00D056002030590020F8B50646104814460D4600688047B4F5807F0E4F28BF4FF4CD
:202CBC0080742A462346200AF870300A3946BC703E707870F32000F037FC3846002100F059
:202CDC00B3FC0548B7F90040006880472046F8BD2C590020D0560020305900202DE9F041C7
:202CFC0043787F2B15D1406845180F48AE18006887B200F033FC0D4C8046B5420CD220680F
:202D1C004169284688473D440006F6D04FF0FF3503E04FF0FF3503E00025404600F016FF07
:202D3C002846BDE8F08100BFF0230358A80100102DE9F04145F20807C5F6020716467A697D
:202D5C0012041AD41D46DDF81880002200230024FEF73EFE0246304629460423FEF738FE6A
:202D7C0000F10801384400F58050C8F80000880838604FF40240786100E008242046BDE89F
:202D9C00F0812DE9F04145F20807C5F6020716467A69120419D41D46DDF8188000220023FE
:202DBC000024FEF715FE0246304629460423FEF70FFE00F1B04101F518318008C8F80010FC
:202DDC00386048F21000786100E008242046BDE8F081000080B582B021F0030EBEF1000F4D
:202DFC0001910BD04FF0000C002300BF40F803C004337345FAD3A3F1040C01E06FF0030C73
:202E1C008B070AD08C4508D2A1EB0C0E00EB8C0313F8041BBEF1010EFAD101A9FFF708F90B
:202E3C0002B080BD2DE9F04145F20C07C5F6020716463A69120419D41D46DDF8188000223E
:202E5C0000230024FEF7C4FD0246304629460423FEF7BEFD00F1B04101F518318008C8F8EC
:202E7C00001038604FF47040386100E008242046BDE8F08180B582B021F0030EBEF1000F33
:202E9C0001910BD04FF0000C002300BF40F803C004337345FAD3A3F1040C01E06FF0030CD2
:202EBC008B070AD08C4508D2A1EB0C0E00EB8C0313F8041BBEF1010EFAD101A9FFF790FAE2
:202EDC0002B080BD2DE9F04145F20807C5F6020716467A69120419D41D46DDF81880002262
:202EFC0000230024FEF774FD0246304629460423FEF76EFD00F1B04101F518318008C8F8EC
:202F1C000010386048F20100786100E008242046BDE8F0817CB5134606460C46084601AA30
:202F3C001946022300F09EFC10B16FF002007CBD019D202D06D3206820222844A0F1200160
:202F5C00304608E0C5F12001304600F073FE701B21682A46203000F061FF206828442060B1
:202F7C0000207CBD10B504460068411C04BF4FF0FF3010BD636961689A0609D541B1A268FB
:202F9C00521A05D000F0F2FB00280CD4616863695806A16021615CBF002010BD23F030012D
:202FBC000020616110BD606940F480614FF0FF30F7E7F0B513180D469C1E93081E4636B159
:202FDC0054F8027C043C013E3FBA80C5F7E702F00302032A05D0022A0BD0012A0ED10078EE
:202FFC000AE00278B0F80100000400BA40EA024002E00088000400BA41F82300F0BD7CB51C
:20301C00054600200C4600F0C6FEC0B201A900F001FC10B14FF0FF307CBD019800F037FEF4
:20303C0006460198FFF7D5F82C20002204FB00501146042A03D0435C4A1CB342F8D00020D5
:20305C00042938BF4FF0FF307CBD0000B0B50E4D012404202C7000F0ABF8012809D000202F
:20307C002870042000F0AEFA042000F0A1F80128FAD140F2024000F0AEFC04480460044835
:20309C0001688907FCD5B0BDE0560020282008602820084080B546F2000144F2881E44F2C7
:2030BC008C1CC4F20C01C0F2000EC0F2000C00BF0B6800BF4A689342FCD1834208BF80BDFD
:2030DC001EF803201EF800309A424FF0FF3338BF01231A441CF802200A60E9E7F8B5164616
:2030FC000C46054600F01DFE0746204600F019FE3844263000F06EFE58B108492A462346F1
:20311C000746009600F06EF93846BDE8F84000F00FBD0348BDE8F84000F00ABD323F0000F2
:20313C001A3F000080B5042000F04CFA042000F03FF80128FAD14FF4A06000F04CFC084881
:20315C0001210160074801688907FCD50648016841F040010160016841F08001016080BD74
:20317C002820086028200840D0200240B0B504460C48006880470023E05C01330028FBD108
:20319C00094DF5202246294600F0CEF92846002100F04AFA0548B5F9004000688047204687
:2031BC00B0BD00BF2C590020D05600203059002042F24011C4F208010A68496DC30701D12B
:2031DC00012106E002F0010301F00401C91818BF0121830744BF02F0020301EA53014007FB
:2031FC0044BF02F0040001EA90010220002918BF01207047F8B5154642787F2A15D140684B
:20321C001C46461800F0AAF907460A483146224600688369284698470446384600F096FCD6
:20323C00002C18BF4FF0FF3401E04FF0FF342046F8BD00BFA80100102DE9F04116468846A6
:20325C00044600250746022D09D0204629463A46334600F01AF928B92C370135F3E74FF02A
:20327C00000806E0B8F1000F18BF8046002D08BF80464046BDE8F081F0B581B045F21C0769
:20329C00C5F6020715463A680E4611040FD42946002200230024FEF79BFB02463046294675
:2032BC000423FEF795FB4FF40440386000E00824204601B0F0BD000080B50B48007838B966
:2032DC00042000F0FDF80420FFF772FF0228FAD140F2024000F038FB044801210160044897
:2032FC0001688907FCD580BDE05600202820086028200840B0B504460A48006880470A4D8E
:20331C00F1200022002329462C8000F00DF92846002100F089F90548B5F9004000688047BF
:20333C002046B0BD2C590020D056002030590020F0B581B04AF200070D460646C007C5F6D0
:20335C000C0707D0ACB23846002101220023009400F09CFA700707D5AEB2384600210C228A
:20337C000223009600F092FA01B0F0BD70B500F0F4FC0B4D687868B10A4801260660272020
:20339C00FFF74CFB00246FF00200AE70EC602C81686001E04FF0FF3400F0E5FC204670BDB9
:2033BC0060560020404702582DE9F0470C4F14468A4606464FF000084FF0010900255545CD
:2033DC0028BFBDE8F087204606F8079000F057FC204606F8078000F052FC0135EFE700BF9C
:2033FC000020024082B0F8B5CDE901010948CDE9062306A9084B0391009002A801AAFDF719
:20341C001FF9019A0021117004B0BDE8804002B0704700BFD53B0000D73D000070B5094860
:20343C00094C84420BD0094D094EB54207D0F5E8020110F8012B54F822209047F5E700BFEB
:20345C0000BF70BD284200001C420000304200004042000070B50C46114601230646012544
:20347C00224600F039FB00280DD430462146012200F0BCF908B1032003E02078012818BF9F
:20349C00022000252070284670BD1CB50020144600F081FCC0B201A900F0BCF908B1012447
:2034BC0009E0019800212246202300F015FB0446002818BF01240198FEF78BFE20461CBDDE
:2034DC00C10742F23011C4F208011CBF00220A60820744BF00224A60420744BF00228A60BD
:2034FC00C20644BFC0F30142CA65800644BF00204865704770B50A4C2046FEF7ADFF094DDB
:20351C001834012628688642A8BF70BD2168002903D42046FEF7A0FF286818340136F2E7C1
:20353C00E45600202859002070B50B4C207100202360082804D00D5C261801307571F8E723
:20355C0004F10D002BB112F8011B013B00F8011BF8E700BF70BD00BFA0530020B0B50B4CA2
:20357C00204600F07CFB0546606840F030006060280608D02046002100F01AFC204600F046
:20359C006EFB0028FAD1E8B2B0BD00BF00400340B0B50146007880B1094A02F128007832FD
:2035BC0090420AD00023C55CCC5C15B10133A542F9D0A54202D02830F2E70020B0BD00BFF7
:2035DC00D4570020C10742F23011C4F208011CBF01220A60820744BF01224A60420744BF7B
:2035FC0001228A60C20644BF0122CA65800644BF012048657047B0B503231546044600F057
:20361C0031F900B1B0BD2868411E022829603CBF6FF06700B0BD2068411C21600078002870
:20363C0018BF6FF06700B0BDB0B50A4B00241A68082C04D01D192D7905550134F8E741B1C0
:20365C0003F10C002AB110F8013B013A01F8013BF8E7B0BDA0530020044608480068804797
:20367C00074D696809B120468847286800B1804704480068804700F0CEFB00BF2C5900207A
:20369C001859002030590020094880F308880948016841F47001016000BF00BF00F0B3FBA3
:2036BC0008B1FFF7BBFE00F0ABFA0120FFF7D4FF0000042088ED00E0BCB50446FA200D4666
:2036DC0001905020012908BF2420225801A92846FFF7D2F900B1BCBD5421012D08BF282168
:2036FC00019A6250BCBD000070B544F290750446C5F6020500F00306012000F063FB286884
:20371C000642F9D0286845F8084C00BF29680E42FCD170BD10B500280CD409280AD8074C8E
:20373C0054F8303033B104EBC000DB694068BDE8104018474FF0FF3010BD00BFB0580020CC
:20375C001CB5019007480068804701A8FFF740F8016A019888470446034800688047204699
:20377C001CBD00BF2C5900203059002010B500280CD409280AD8074C54F8303033B104EB95
:20379C00C0009B694068BDE8104018474FF0FF3010BD00BFB058002045F21C00C5F602001B
:2037BC000168090444BF082070474068013803288FBF012044F24011C0F2000151F8200077
:2037DC007047B0B5012104460125FFF775FF58B920460221FFF770FF08B1012504E0206A69
:2037FC0000F0F6F90025E0652846B0BDB0B579B114466AB10D4600F04AFA0146B4FA84F095
:20381C00400924B115F8012B013C8A42F6D0B0BD0020B0BDB0B5084B0022032A04BF4FF063
:20383C00FF30B0BD53F82240013225788542F4D100200C60B0BD00BF2041000010B5016880
:20385C00074A21F0010113683BB11C6824F001048C4202D203F10802F5E78360106010BD48
:20387C00DC560020B0B504680D1B012DBCBF6FF05F00B0BD25789D421CBF6FF06100B0BD89
:20389C00631C0360BDE8B040FEF75EBCDDF800C000EB41000F2B88BF103B4FF4806184BF92
:2038BC0040F20441120C0CFA03F343EA024242507047000040F61830C5F2000000684FF2C3
:2038DC000001C0F6FF71084048F20001C0F6B731884208BF704700BFFEE71CB50C46C0B203
:2038FC0001A9FFF797FF08B1012407E001982146FEF7CAF804460198FEF76BFC20461CBD7C
:20391C0080B504284AF20000C5F60C004FF03C0119BF4FF080521C234FF0C0421D2300F012
:20393C003FF980BD44F2B80200F01F01C0F30320C0F2000252F820000122036802FA01F186
:20395C0023EA01010160704744F2D40200F01F01C0F30320C0F2000252F820000122036886
:20397C0002FA01F123EA01010160704744F2F00200F01F01C0F30320C0F2000252F82000EA
:20399C000122036802FA01F123EA01010160704746F27C01C5F60C0182B2C0F307400A6053
:2039BC0048600120886000BF88688007FCD500208860704744F2B80200F01F01C0F303209E
:2039DC00C0F2000252F820000122036802FA01F119430160704744F2D40200F01F01C0F3EE
:2039FC000320C0F2000252F820000122036802FA01F119430160704744F2F00200F01F0142
:203A1C00C0F30320C0F2000252F820000122036802FA01F119430160704710B562B10C784A
:203A3C000378A34206D1013A00F1010001F10101F5D11C46181B10BD002010BD10B50446EE
:203A5C0000F00CF8201F0B288EBF4FF0FF30024951F8200010BD00BFA03F0000B0B542F271
:203A7C003C04C5F60804256845F400202060402000F0A8F925F400202060B0BD80B584B03D
:203A9C0094464FF0000E0122CDE9022E0A460093CDF804C0FDF70AFC04B080BD80B584B01A
:203ABC009C4613460122CDE9022200220093CDF804C0FDF7FBFB04B080BD80B584B0944656
:203ADC0000220093CDE902220A460023CDF804C0FDF7ECFB04B080BD10B544787F2C1CBF6C
:203AFC004FF0FF3010BD4068014410461A4600F095F9002010BD10B553B10130D2B20C785F
:203B1C00944200F8014C04D001300131013BF6D1002010BDB0B584B0DDE908CE01240025C8
:203B3C00CDE90254CDE900CEFDF7C0FB04B0B0BD054901F130042146FDF732FD2046FEF7B0
:203B5C00FFFC00F068F900BFE456002010B5054C18B12046012100F02BF9606820F0300061
:203B7C00606010BD00400340054A136833B1114603F108028342F8D180680860704700BFC2
:203B9C00DC56002010B50C780378A34206D1013A00F1010001F10101F5D11C46181B10BDEE
:203BBC0008440F2B84BF103B0230008888BF120C104080B2D8407047B0B50D46014614460C
:203BDC00286800F02BF92868204428602046B0BD40787F2811BF4FF0FF300248006880B255
:203BFC00704700BFF023035845F21C00C5F60200006800044FF0080058BF0920704700000B
:203C1C000349002912BF01C900200021FEF7D6BEAC41000080B5014602480430FCF7CEFB0B
:203C3C0080BD00BF4C5800200B4611461A4600F086B800BF0A46002100F081B810B5002331
:203C5C009A4208BF10BDCC5CC4540133F8E7114341F20002C4F2080242F8201070470168B2
:203C7C0008074FF0040058BF01F00300704710B5FDF766FF0446FEF775FB204610BD40F6DE
:203C9C00AA71484310B100BF0138FBE770474078A0F17F010020022938BFFF20704700002F
:203CBC000A4602490B680021184700BFA441000080B50A46D0F803101046FFF7BBFF80BD13
:203CDC00C1694846CDF800B00B46FFF7FBB8C2690868514610440130FFF76BB92068DBF875
:203CFC000020C1693046FFF7C5B8C16902693046CDF800B00B46704700F02FF8FDF7C4F925
:203D1C00FFF7C2BCFEE711F8012B00F8012B002AF9D170470021425C0131002AFBD1481EDD
:203D3C0070470021425C0131002AFBD1481E70470021425C0131002AFBD1481E7047002385
:203D5C009A4208BF7047C1540133F9E70B46D0F80320C11D184600F061B80020EFF31080B1
:203D7C0072B6704770470020EFF3108062B67047704721682069CA693146FFF71AB921686B
:203D9C00E068CA692946FFF714B920680169C2693046FFF771BA4FF0FF30032938BF481CB1
:203DBC0070470000014801210170704706200240426861F30102426070470A68531C0B608F
:203DDC00107070470138FDD1704770478268183AFFF740BB01460820FDF7C6B8C0E9001252
:203DFC0070470A507047FEF723B9FDF75DBBFDF75BBBFFF761BAFFF729B9FEF7B3BAFEF7B8
:203E1C003BB8FDF723BD01207047FFF706BEFEF7ABBCFFF795BC00BFFEE70000FFF70EBF23
:203E3C007263203D3D2030002F686F6D652F61303439313539356C6F63616C2F74692F7315
:203E5C00646B2F73696D706C656C696E6B5F6363313378785F6363323678785F73646B5F1A
:203E7C00375F31305F30305F39382F736F757263652F74686972645F70617274792F6D6308
:203E9C0075626F6F742F626F6F742F626F6F747574696C2F7372632F6C6F616465722E63AB
:203EBC000030003059301306072A8648CE3D020106082A8648CE3D030107034200042ACB7D
:203EDC00403CE8FEED5BA44995A1A91DAEE8DBBE1937CD14FB2F245737E5953988D994B996
:203EFC00D65AEBD7CDD5308AD6FE48B24A6A810EE5F07D8B6834CC3A6AFC538EFAC16D61F8
:203F1C006C6C6F63206661696C656420696E2061737365727400417373657274696F6E20D5
:203F3C006661696C65642C20282573292C2066696C652025732C206C696E652025640A0080
:203F5C002E00000096C298D84539A1F4A033EB2D817D0377F240A463E5E6BCF847422CE18B
:203F7C00F2D1176BF551BF376840B6CBCE5E316B5733CE2B169E0F7C4AEBE78E9B7F1AFE15
:203F9C00E242E34FF9FFFFFFFFFFFFFFFFFFFFFFFFFFFFFFFFFFFFFFFFFFFFFFFFFFFFFFD1
:203FBC00F9FFFFFFF9FFFFFFFAFFFFFFFAFFFFFFFBFFFFFF01000000784000001840000002
:203FDC003840000058400000603F0000803F0000200000000100000030313233343536379A
:203FFC0038396162636465660030313233343536373839414243444546000000FCFFFFFF44
:20401C00FFFFFFFFFFFFFFFF00000000000000000000000001000000FFFFFFFF4B60D227EB
:20403C003E3CCE3BF6B053CCB0061D65BC86987655BDEBB3E7933AAAD835C65A512563FC84
:20405C00C2CAB9F3849E17A7ADFAE6BCFFFFFFFFFFFFFFFF00000000FFFFFFFFFFFFFFFFF3
:20407C00FFFFFFFFFFFFFFFF00000000000000000000000001000000FFFFFFFF040000002B
:20409C00040000000400000008000000040000000400000004000000080000005C2008401C
:2040BC0080200840742008406820084044200858502008408C200840542008407820084044
:2040DC006C200840602008403C2008584820084084200840582008407C2008407020084054
:2040FC0064200840402008584C200840882008400401040304020401040104030103030446
:20411C0001040000504100005C410000684100000000000077C295F360D2EF7F3552500F60
:20413C002CB6798007000000060000000100000005000000007F0000000000000060000096
:20415C00017F00000060000000D00000027F00000030080000D000002A8648CE3D030107FC
:20417C0000000000BF3E0000A84100000102000302000103201C1C401C1C1C302A8648CE4F
:10419C003D020100010000005B3D00005B000000DF
:0841AC0000000000000000000B
:2041B400005500000F0112014001018F012202C0E502030F0124044F02013F8F010200492F
:2041D400FF2B00001133000051EF2C0000A50030F12A007F008931000055280D0FA3011F6C
:2041F40000D457002000751BF100F1901AFF021AEF2721412188FF000023F103162440BBBD
:2042140015003300FFF00000B1260000693D0000CD3C000002000000E1160000B4410000DF
:0C423400E456002028420000004000205A
:020000045000AA
:20000000FDFF7C00FFD5B9F3100080FFFFFFFFFFFFFFFFFF00008001FFFFFFFFFFFFFFFFE8
:20002000FFFFFFFFFFFFFFFFC50FFEC5FFFFFFFFFFFFFFFF0000C5FF00C5C5FF000000FFED
:2000400000000000FFFFFFFFFFFFFFFFFFFFFFFFFFFFFFFF0004FEFF0000FCFFFEFFFFFFB9
:1C006000FFFFFFFFFFFFFFFFFFFFFFFFFFFFFFFFFFFFFFFFFFFFFFFFFFFFFFFFA0
:00000001FF
