:020000040005F5
:2060000000400120E571050017720500D77105001572050015720500157205000000000045
:20602000000000000000000000000000157205001572050000000000157205001572050030
:206040001572050015720500157205001572050015720500157205001572050015720500E0
:206060001572050015720500157205001572050015720500157205001572050015720500C0
:206080001572050015720500157205001572050015720500157205001572050015720500A0
:2060A000157205001572050015720500157205001572050015720500157205001572050080
:1860C00015720500157205001572050015720500157205001572050080
:2060D8002DE9F04F9DB0A5484FF47051DFF890B2006801EA8020CBF8000000F053FC0446BD
:2060F800002800F0EF8005AD10AE4FF000085FFA88F008212A46000300F020FD284600F072
:20611800CBFF60B9284600F0B5FF002840F09E8008F101085FFA88F02C28E8D396E04FFA5B
:2061380088FABAF1000F00F191804FEA0A3734213246384600F002FD9DF85000FE2840F01A
:2061580082809DF84C0003287DD19DF84D00012879D19DF85100FC2875D01698DDF86C90A8
:206178004844B0F5801F6ED8FC202C212A468DF81300484600F0E2FC0B99484600F01CFEE8
:20619800024601305FD00C9890425CD30B991144884258D80E980292801A411C48460B914C
:2061B80000F026FB039047F0100001210DF1130200F06AFB0398002845D10020DBF8001076
:2061D8000B9B002200900298C0F3473000F0CAF80799884223D102980121470BFE208DF8CA
:2061F80013004FEA4A300DF1130A1130524600F04BFBF8B211215246012300F0BFFD9DF8BE
:206218002600072815D8012101FA00F010F08B0F0FD000F091FE0C9800F0DDFF09E0FC20AA
:2062380001210DF113028DF8130009F1110000F02BFBFC2001210DF113028DF8130009F175
:20625800100000F021FB08F1010850E700F074FE002510AE012728463146082200F02EFF38
:20627800304600F007FF40B3284631462C2200F025FF9DF8520007281FD807FA00F010F062
:206298008A0F1AD01699481C022816D3B1F5B02F13D81798A84210D3294488420DD89DF8A0
:2062B8004C10032909D19DF84D10012905D19DF85110FE2901D300F08EFF05F50055B5F50B
:2062D800B02FC8D100F05EFBE0B310AA0020342100F034FC9DF85100FE2833D116991B9E8B
:2062F8008819B0F5801F2DD8304600F065FD0546013027D01798A84224D316994A199042ED
:2063180020D830462A4600F073FAC8B90020DBF80010169B00220090C5F3473000F022F80A
:20633800129988420CD1680BFE2101238DF81410C0B205AA112100F021FD179800F04BFF4A
:2063580000F0FAFD2CB100F005FF00201DB0BDE8F08F00F06DFC00F033FFFEE73024034065
:20637800000400202DE9F04F8BB08246581C022803D200200BB0BDE8F08F14981D461646AC
:206398000C46B3F5801F01D90028F2D1B5F5B02F01D90028EDD038B14E4A504600214FF4C4
:2063B800807300F053FE06E00AFB046149484FF4807200F0DAFE681E01234FF0FF38B0FBE8
:2063D800F4F101FB1400013082B2C5B2100A002D18BF03EB1220029001EB0A0006F5807122
:2063F8003C4E08BF4FF4807503940191C0B25146069508900898CDB2854268D8029A4FF096
:20641800FF3018BF220A079150FA82F009920A90019805FB040000240590481C04900998BA
:206438005FFA84FBC0B283454ED20898A9465746854206984FF4807508BF05460A985845F8
:206458004FF4807018BF0546079880EA0A004FF0000A2043000608BF4FF00C0A1FFA8AF05B
:2064780085420AD9305C80EA0800C0B200F038FE80EA18280AF1010AF0E7149858B10A98E6
:20649800584513D10498002132464FF48073C0B200F0DCFD07E005984FF4807200EB0B21ED
:2064B800304600F062FEBA464D460BE04FF4807032464FF480734D4600EB0B21484600F077
:2064D800C5FDBA460134AAE7DDE9034192E76FEA08004FE7000300202DE9F84315460C46E1
:2064F800804600F013FA2C4800212D4F01602B48814600683868816927208847294E2A4923
:20651800306B08403063B06F20F48070B0673868016B4FF4806088473868016B4FF4816085
:2065380088473868016B4FF4C06088471F48012101601F48C6F8804131600168890704D404
:20655800691C08BF4FF04045C560D9F80000F0698007FCD5072000F08FFB0228FAD1B8F12D
:20657800000F13D1134C386A8168204688470428F9D0012804D1386A032142682046904751
:20659800D6F8180220F00300C6F818023868806BBDE8F843004700BF0C4009402C20094075
:2065B800B80100100C200840FFFFFEFE28200860100009400040034070B52548066800F010
:2065D80031FD24480025244C0560206C806C80472248006838B122480068B6F1FF3018BF96
:2065F800304600F0ADF81F4840F2391205601E48016862F31B4101601C48016801F44051FB
:20661800B1F5805F06D10168194A114001F5003202600160174D0126EE612068016A1420FD
:2066380088471548016841F4E021016013482E60006800F44000B0F5000F03D1206C416CD0
:206658000F4888470F4801680029FCD170BD00BF1C13005084046042B00100108001284304
:20667800800520438C2108404820034028000940EFFFFCFC0000244300200940B44F005000
:20669800BD3786000C0068422DE9FF41274E054688463068416906208847062000F00EFB78
:2066B8000128FAD13068C1694FF4A0608847204C204F0120206038688007FCD53068C169C4
:2066D8004FF4807088470120206038688007FCD5194F1A4900220023386920F00F0038619E
:2066F8000320F861F06804680820CDE900504FF08040A04756F8040C082109224FF0FF330B
:20671800446C4FF08040CDF80080A047386840F00200386003ACF068214602694FF0804044
:2067380090470028F7D1BDE8FF8100BFB8010010282008602820084004000040006CDC02FF
:20675800F8B505462248234E4168890705D40168F02242EA114186F84D101F494FF001229E
:206778001F4F0A601D49098839680968846820468847A00105D4E00103D5307840F00200F2
:2067980030703868214642682846904700F036FC1448154A0068C0F305311170C1054FF097
:2067B800130158BF232140237354382101EA901000F56050A2F85C003868816820468847EB
:2067D800022000F031FB094801210160F8BD00BFAC4F00500962084004A40C4000A00C403D
:2067F800F00100100C1400500EB00C40940460422DE9F043C1B0814690070DD188180D46E3
:206818001446411E1F480068B1FBF0F1B2FBF0F68E4298BF2C2904D9FF2040B241B0BDE8B8
:20683800F083B5FBF0F101FB1050002818BF0131C8B250FA86F7F0B2874205D900F062FBD8
:206858000136FF28F7D1E7E74FF480760DF10408B5B1B0B242468542484638BF2E46B7B270
:20687800394600F06BF90028D6D0204641463A4600F066FA0028CFD1ED1B3C44B944E7E787
:206898000020CAE7000400202DE9F84F06461E4815460C464FF002094FF0000AE8468346A5
:2068B80064B300F017F948BB00F092FB30BB300A8DF800908DF803608DF80200300C8DF8BF
:2068D8000100F0B28BF800A0C0F580774046BC4238BF2746042100F0FBFA60B92846394636
:2068F80000F0F6FA38B90121E41B3E4458463D448BF80010D4E701208BF80000B4FA84F0D9
:206918004009BDE8F88F00BF1420024010B517480168890726D417480468A00221D41648DE
:20693800006800688047C0F13E000722C1100729B8BFC210012000EB24718A42D8BF0A46F2
:206958000E490968C1F30321891A0F29A8BF0F210129D8BF014641F0F000094981F84D00CC
:20697800087810BD0249C16010BD00BF10000940FD000040B44F0050EC0100100C13005065
:206998000D620840BCB518480A21FFF77DFE17480068C16B14208847154C0125AB20012151
:2069B80025708DF80700002020700DF1070000F08FFA257088B94FF4C870ADF80400BDF8C1
:2069D8000400BDF8040028B1BDF804000138ADF80400F6E700F07EF818B100F0ADFA0020AB
:2069F800BCBD00F007F8BCBD00093D00B401001014200240BCB51648164D04210190002015
:206A1800287001A800F064FA10B10120287007E0114C0221204600F073F90121297008B1B8
:206A38000020BCBD0D4B2278647803F12001186840B11D79AA4202D15D79AC4201D008332C
:206A5800F5E71946064A0028116018BF0120BCBD90FFFF00142002400404002018720500CE
:206A780008040020F0B540F6FF7C10F8013B0024082CFAD00646DF0716F8015B0DD14678DE
:206A980006F00F070337122F0DD190F90220D7B2B2F1FF3F09DD03300DE001F8015B304693
:206AB80001345B08E4E7023006E0C27807F07F07043047EAC2171237320942EA05156545DA
:206AD80008BFF0BDED43002FEAD04A5D013F0A700131F8E72DE9F843174E05204FF000087D
:206AF8008DF8030086F8008000F026FB4FF001090DF103040DF10205022786F800902046F7
:206B1800012186F8008000F0E3F92846012100F0F7F886F8009000284FF001009DF80210E5
:206B380008BF27EA41000028E9D002280CBF00206FF00100BDE8F883142002407CB51546AC
:206B58000C460646FFF7C6FF0146002001B17CBD03218DF807608DF80410310A8DF80610F3
:206B7800310C0B4E8DF805100421307001A800F0AFF918B10120307000207CBD284621460F
:206B980000F0BEF8B0FA80F00121400931707CBD1420024070B5104C2068016A4FF48070BB
:206BB80088470E4E0E4D0120306028688007FCD52068016A4FF4A060884701203060286858
:206BD8008007FCD52068816906208847062000F075F80228FAD170BDB801001028200860C0
:206BF800282008400E480F4A0F4B0168825800680340D0B20D4A7F2888BF0020934207D162
:206C1800090F022906D307D0032901D1153004E0FF2002E00A2000E00B3040B2704700BF94
:206C38001813005088FDFFFF00F0FF0F0010B40B10B50D4C2068416904208847042000F01A
:206C58003DF80128FAD12068C1694FF4A0608847064801210160064801688907FCD50548F9
:206C780001210160416010BDB80100102820086028200840181A44420F49C3070A68496D00
:206C980001D1002106E001F0040102F00103C91818BF0121830744BF02F0020341EA53013A
:206CB800400744BF02F0040041EA90010220002918BF0120704700BF402108400F49C3073C
:206CD8000A68496D01D1012106E001F0040102F00103C91818BF0121830744BF02F0020350
:206CF80001EA5301400744BF02F0040001EA90010220002918BF0120704700BF402108401F
:206D1800F8B50E4F0C4605466E468CB13868002182684FF08040904760B138683146C268F0
:206D38004FF0804090470098013C05F8010BECE70020F8BD4FF0FF30F8BD00BFC401001028
:206D5800F8B514460D46064600F08AF8074628463146224600F0D4F904462FB10548012113
:206D78000068426804489047002C18BFFF242046F8BD00BFD801001000400340F8B51C464B
:206D9800154601EB403600F06BF8074628463146224600F0B5F904462FB105480121006892
:206DB800426804489047002C18BFFF242046F8BDD801001000400340FEB50C4605462C279E
:206DD8006E4678190C213246FFF7B8FE58B19DF8000001280AD001994FF0FF3011B10F4447
:206DF800A742EED3FEBD4FF0FF30FEBD0298FEBD10F1240FD8BF6FF023001B28A8BF1B2066
:206E180003210F222430A1EB101122EA000022FA01F14FF6FF7222FA00F040EA0140014973
:206E38000860704718A00C40B0B50A490A4A0B4B0C684D68AC42FCD1844208BFB0BD155C66
:206E5800145DAC424FF0FF3538BF01252C441C5D0C60EDE700600C405072050054720500C4
:206E780070B50B4E0B4C3068816820468847054600060AD03068002142682046904730680C
:206E98008168204688470028F9D1E8B270BD00BFD80100100040034070B50948094C844247
:206EB8000BD0094D094EB54207D0F5E8020110F8012B54F822209047F5E700BF00BF70BD64
:206ED80064720500587205007472050084720500F8B50B4F0C4605466E4674B1386815F8E0
:206EF800011B42684FF08040904738683146C2684FF080409047013CEFE70020F8BD00BF20
:206F1800C4010010B0B50446FFF7AAFF0546600300F004F904462DB10548012100684268F2
:206F380004489047E0B2002818BFFF20B0BD00BFD8010010004003407CB5B9200A4D002449
:206F5800012101268DF807000DF107002C70FFF7BFFF2E70092C04D80134FFF74BFD0028A5
:206F7800F8D1FFF717FE7CBD142002400A4880F308880A48016841F47001016000BF00BFE1
:206F980000F038F908B1FFF787FF0020FFF798F8012000F031F900BF0040012088ED00E02D
:206FB80007480068C00608D406480749006808400649884204BF012070470020704700BFC8
:206FD800B04F00505013005000C4FF3F00C0071CBCB50620084C012101258DF807000020D3
:206FF80020700DF10700FFF773FF0028257018BF6FF00200BCBD00BF1420024080B5FFF7AE
:20701800CFFF60B10648006881034FEA00414FF0000058BF0816BDE88040FFF7E9BE80BD12
:20703800B44F005080B506480649006808400649884204D1FFF7D6FD1328C8BF80BDFEE7C8
:207058001813005000F0FF0F0010B40B70B51C46154601EB403600F0A4F8210405D016F8F8
:20707800011B013C05F8011BF7E708B900F0BCF8002070BDB0B5074907231A465BB2002B7F
:2070980005D4D3B2CC5CC55C531EA542F5D0D0B2C009B0BD48720500B0B5074907231A465E
:2070B8005BB2002B05D4D3B2CC5CC55C531EA542F5D0D0B2C009B0BD4072050070B51446CE
:2070D8000D46064600F06DF82CB116F8011B013C05F8011BF8E708B900F086F8002070BDEC
:2070F80010B5064A08210B0608BF10BD82EA5003C40708BF430801391846F4E72083B8ED3E
:2071180080B5044B1B689B699847034900220A6080BD00BFA80100108404604280B5044934
:20713800096849698847034900220A6080BD00BFA801001084046042BCB5054D01AC28688E
:20715800214602694FF0804090470028F7D1BCBDC401001080B500F043F8002000214FF051
:20717800FF32BDE88040FFF7B7B910B530B1431E01391AB18C5C9C54013AFAE710BD10B569
:2071980000239A4208BF10BDCC5CC4540133F8E7D0F80300002218B101F8012B0138FAE7FC
:2071B800704780B500F01CF8002818BF012080BD0B46D0F80320C11D184600F019B8FEE74C
:2071D800014801210170704706200240FFF7F4F9FFF7CCBEFEE7016881F3088841688F4669
:2071F800EFF3108072B67047EFF3108062B67047FFF7C5BF0120704700BFFEE7FEE7FEE725
:2072180000002000C215000000001000C214000000000800EF12000000000400EF1100006C
:2072380000000000000000004F4144204E564D3143433133783252310102000302000103FD
:207258007D6A0500C9710500A971050002000000060100000001000000FFF00064720500F8
:0C727800000300206C72050008040020D8
:207FA80000008001100080FFFDFF5800FFC1B9F3FFFFFFFFFFFFFFFFFFFFFFFFFFFFFFFFF9
:207FC800FFFFFFFFFFFFFFFFFFFFFFFFFFFFFFFFFFFFFF00FFFFFFFF00FFFFFF00C5C5FF2A
:187FE800000000FF00600500FFFFFFFFFFFFFFFFFFFFFFFFFFFFFFFF2D
:00000001FF
