:020000040009F1
:10C0000043433133783252316AEDC7420301BFFFF7
:10C01000FFFF0000FFFFFFFF8C9A0000A8C009008F
:10C02000303030318B5A0A002C00FFFF03BFFFFF76
:10C03000550000000167FE0667B0177D511DEC102A
:10C040008BEF55D8ED323C280F6A3F9302F823F965
:10C050006A69957645F919E13D0C3B3066E9AF20F8
:10C06000A514F4751BBA18D738D01BC943FDB3A06B
:10C07000D493CC8D3BE4A1633FA02A0E7DDFABFBC4
:10C08000B001BFFFFF0B9A000000C00900FFFFFFD7
:10C090000000000000000000FFFFFFFFFFFFFFFFA8
:10C0A000FFFFFFFFFFFFFFFF003A022095340A0069
:10C0B0005D3C0A005D3C0A005D3C0A005D3C0A00F4
:10C0C0005D3C0A005D3C0A005D3C0A005D3C0A00E4
:10C0D0005D3C0A005D3C0A005D3C0A005D3C0A00D4
:10C0E000A1E10900000000002DE9F84305460C46D7
:10C0F000480413D4A00024D4A0075CD460057ED4E7
:10C10000200500F10681200700F13B81600040F12D
:10C11000F68005F08FFA24F08044F0E008F07CFD12
:10C12000DFF81C140F6D3FB1D7E90A1202F0E042AC
:10C1300001F00A01891849D008F053FE24F4804424
:10C14000DDE0BB48DFF8FC73016841F0800101606D
:10C15000B878012804D1042007F04AF80020B8700C
:10C1600008F05AFD0646042008F06EFDDFF8D813EB
:10C170000A68904219D12A7EBAB1FA68AAB1DFF8EA
:10C18000C003806C002800F09780C16840F603026D
:10C190000988914206D0C06840F6040100888842B0
:10C1A00040F08A8005F1140088E040F6C41208606F
:10C1B000C5E9042284E001F0EBFBDFF88403006CA6
:10C1C000002840F09D8024F0020498E0D7E90A6539
:10C1D000D7E90A12AA43B143C7E90A1208F001FEDF
:10C1E000B8680028AAD056EA0500A7D0D7F808C03A
:10C1F0003869B7F9301032462B46E0479EE708F021
:10C200000BFD054607F0DAFE002800F0B780CC48A9
:10C21000876B002F00F0B280DFF828830420CB4921
:10C22000002288F81800C64808F00DFB08F0EEFD63
:10C23000C74808F0C7FDC7480068006B8047C8F8CA
:10C2400010000125042088F8025007F0CFF9386962
:10C2500090F82810C8F80400490703D5436A042160
:10C2600000229847012005F05FFCD8F804004576CD
:10C2700003F08CFED8F8040081680B461A465B6810
:10C280004BB11E88A6F60306072EF7D805FA06F668
:10C2900016F0830FF2D0537B03F0F0030133537396
:10C2A0000023FD6853602D88A5F60305012D00F2DB
:10C2B0008A80C8F810309FE005F1100006F0D4F92C
:10C2C000304608F08EFD07F0A9F978B12E6A2846AD
:10C2D0006FF4807100224FF00073B0479848806B74
:10C2E00010B105F0A7F901E044F00204EE69284618
:10C2F000002100224FF08063B04724F0005434B195
:10C30000974821462830BDE8F84308F0BDBDBDE898
:10C31000F8838C4EB078012804D1042006F068FF21
:10C320000020B07007F07AF938B170686FF480714E
:10C3300000224FF00073056AA847306950B1854864
:10C340000068006B804732697168801A000BC86012
:10C35000002030617A4D81490022284608F073FAA6
:10C3600002203076286C20B17D480221283008F068
:10C370008BFD05F05FF924F40064C0E708F046FD8A
:10C3800041E008F049FC054607F018FEA0B1DFF8CF
:10C39000B48198F8000000070ED498F90000002836
:10C3A0000AD4684603F0E8FE08B1009820B1DFF82F
:10C3B000B49199F8610048B308F028FD05F03AF906
:10C3C00024F008049BE7034633F8385FA5B190F8E2
:10C3D000445090F8456005F0F00580F8445006F0B0
:10C3E000F005013580F8455000255360C563458749
:10C3F000507B00F0F000507357480022C26101608A
:10C40000012007F02DFF24F4806478E7002601273F
:10C41000602E0FD009EB0600817A31B18772407A25
:10C4200007FA00F0C0B206F0FDFE2036F0E700BFCC
:10C43000CC210840032088F81800454808F0C2FCC9
:10C4400008F0E4FC444F3E4D0022786900207861FA
:10C45000F968F8602846444908F0F5F93D48006855
:10C46000006B8047D8F80C10D8F82020411A02EB56
:10C470001130B0EB113F38BF4FF0FF3098F8241067
:10C48000C8F8200021B1D8F80810B0EBC12F20D98E
:10C4900007F0F6FEB8B140F60900414621F83C0F1E
:10C4A000002048804A7B02F0F00201324A730A7B86
:10C4B00002F0F0020A734860F8613960B8F83E0093
:10C4C00010F4406FFAD00020C8F82000012088F84E
:10C4D000240005F06FFE25480021016002200021A4
:10C4E00007F0BEFE022006F083FE102003F0F8FBEA
:10C4F00098F8010020B9D8F80400503008F0C2FCC8
:10C500001B48807810B90D2003F0EAFB98F825004D
:10C5100028B1002088F82500052006F069FE0020DB
:10C5200088F818001348C8F81C000220B5F8561007
:10C53000B5F85420914208BF072004F0D9FD3DE72B
:10C540002C5D0020905B0020DC5F0020993F0A00FA
:10C55000C81100208C0100100010044049EA0900B5
:10C56000C85C0020A810002099160A000000046092
:10C5700038580A003DE709002DE9F04F8FB0074613
:10C5800018984FF0000E002A01938DF8200000F05B
:10C5900093810AA80E464FF0200A002400F1100CE7
:10C5A000CDF800C0114611F8010B25280E910CD0D2
:10C5B000002800F07D81022EC0F01581013E002F81
:10C5C00000F0108107F8010B0DE15378901C0E90DC
:10C5D0002D2B07D14FF00109D01C93788DF80D90C9
:10C5E0000E9003E04FF000098DF80D90302B05D12F
:10C5F0000121069110F8011B0E9002E01946CDF8BA
:10C6000018E04FF0FF322A29CDF808E0049214D147
:10C61000019D29680A1D2A60D1F80080CDF80880A4
:10C62000B8F1FF3F10F8011B0E9018DC4FF0010924
:10C63000C8F100088DF80D900FE04FF00008A1F14F
:10C640003002092A08D808EB880201EB4201A1F167
:10C65000300810F8011BF2E70E90CDF808802E2963
:10C6600014D1CDF810E0024612F8011B2A290E92CF
:10C670000FD1019D29680A1D2A60096821EAE17B22
:10C68000CDF810B0417802300E9015E04FF0FF3B2E
:10C6900012E04FF0000BA1F13000092808D80BEB95
:10C6A0008B0001EB400012F8011BA0F1300BF2E708
:10C6B00010460E92CDF810B0302B41F0200306BF8B
:10C6C000CDF81880424600226C2B06D101218DF84E
:10C6D0000C1010F8011B0E9001E08DF80CE0CDF865
:10C6E0001CC00AAB6929CDF814E0099301D0642974
:10C6F00016D1019B1868011D196093456FF009035D
:10C70000C8BF5A4601686046069204F011FCDDF885
:10C7100000C04FF0000E0990ACEB0001059128E03D
:10C7200075290AD0A1F16F03092B5FD8DFE803F068
:10C73000058C6A6AA26A6A6A6A05019D2868031DF7
:10C740002B6078294FF0080308BF1023752908BF14
:10C750000A239345C8BF5A4601686046069204F012
:10C76000E7FBDDF800C0ACEB0001099005914FF04C
:10C77000000EA8EB0100B9F1000F02901CD109E0F6
:10C78000022E06D3013E1FB107F801AB029800E06C
:10C790000027013401380290F2DA0DE00998022EE8
:10C7A00007D3013E27B1007807F8010B099800E094
:10C7B00000270130013409900598411E0028059199
:10C7C000ECD19DF80D0078B10298013802900BDB96
:10C7D000022E05D3013E17B107F801AB00E0002798
:10C7E0000134F1E7002701340E9ADBE6632909D111
:10C7F000019A1068011D11600121006805918DF8F2
:10C800002800B4E70138022E0E904FD36FF000409D
:10C810000BF1010186426FF0004038BF3046B3454E
:10C82000024638BF0A46002908BF024604920EA9F4
:10C83000019A02AB01F054F9DDF800C09DF80D90AB
:10C84000DDF80880059992E7019A10231068011D10
:10C8500011600821082206919DF820100029016826
:10C86000604604F065FB4FF04001DDF800C000F8C1
:10C87000011D78E7019A1068011D11609DF82010D4
:10C88000006800290E49002808BF0846099008F0F2
:10C8900094F9834501464FF0000E38BF59461BF10D
:10C8A000010208BF0146DDF800C037E700215EE75E
:10C8B0000FB100203870A64670460FB0BDE8F08F6B
:10C8C000AC580A002DE9F04F8DB0044600209A467E
:10C8D00016460F46CDE90B00CDE909008A48856868
:10C8E000804604F0ADFD1C2803D004F0A9FD1B28F0
:10C8F0001BD1308840F60201884218BFB0F5C15FF5
:10C9000003D1F07B022810D93EE043F607018842AC
:10C910000BD196F82400032807D330697B4940F0F7
:10C92000806020F0604088422ED100206FB366B353
:10C93000387825FA00F0C00726D03046002108F0EC
:10C940008FFA7348C4E90176006880B109A80090A5
:10C950000CA90BAA0AAB304601F0CEFC0B980B21B8
:10C960004FF6FF72502307F0FBFBFF280CD008F0B6
:10C9700053F9684F06467878012802D840B1012063
:10C9800070E0304608F02DFA00200DB0BDE8F08FC1
:10C9900001F026FC60480DF10409016841F0020134
:10C9A00001605E48C8F80000484608F09BF8DFF8D0
:10C9B00070B15D494A469BF801009BF80050039016
:10C9C0005848283006F090FB584859494A4606F026
:10C9D0008BFB484608F026F8DFF85881564A1921A3
:10C9E0004B460295404606F0ABF8544A08F11C004D
:10C9F0001A214B4606F0A4F85148524908F0CEF9E6
:10CA00005148524908F0CAF95148006810F4402FC3
:10CA100006D0504A07F128000421002307F098FAB5
:10CA20009BF8020010B10D2003F0AAF808F14000B5
:10CA300007F014FF08F1380007F010FF4649002006
:10CA400007223876B8843862386181F86020052181
:10CA5000C7E902104149F96138700420002107F04C
:10CA6000FFFB78782F4941F820400130787030463C
:10CA700008F0B7F9BAF1000F02D0DAF8000008E0C8
:10CA80000DF1040A36492022504608F003FA4FF00F
:10CA9000FF30DAF80420BAF81010DAE90635002A77
:10CAA000B2FA82F608BF40F6C4122060012076096F
:10CAB0006183256360762B4826764FF4FA766261AF
:10CAC000C4E90362C4E90700C4E90903DAF80C0009
:10CAD00000B12062DAF8140000B16062DAF80800F0
:10CAE00000B1E06104F13800C82108F05FF904F1F9
:10CAF0005000002107F0D4FB1B4904F1B80008F0F6
:10CB00004DF9204641E700BFCC2108400F00000549
:10CB1000A85F0020905B002000200940110000E089
:10CB200038580A00C85C0020A1440A0050120020B6
:10CB3000F1F709002C5D002099160A00F90C0A0093
:10CB40000C120020753F0A00C81100204D440A0055
:10CB5000B44F0050C91D0A00A81000203DE709008D
:10CB60009C560A008B180A00134E0A002DE9FC4758
:10CB7000D0E900588246D8F80000D0F8409019F467
:10CB8000F06FC0F8449035D05FEA495117D5D5E928
:10CB90001401411A504606F0E5FED8F800008169FC
:10CBA000C90605D401688DF807109DF80710F6E74F
:10CBB000296801312960A97B09B90121A973696C30
:10CBC00040684FF0004600F00F0404EA0100B0FA9C
:10CBD00080F126FA01F1014005D02F6C1FB12A68BF
:10CBE000AB6C5046B847B4FA84F026FA00F0204007
:10CBF0004042A863D5F85801D8F83C1009F0400726
:10CC000040680068D0F804251140394347D0DAE97C
:10CC10000064504604F078FBD7B1F07C90B90BE08B
:10CC2000316F69B10068B16EB26F8854306FB16F07
:10CC300001310138B167306720688169C906EFD5D5
:10CC4000F07C28B1D6E91401411A504606F08AFE5C
:10CC500096F86400E0B13079022819D017B1B179A3
:10CC6000012901D0316F99B90024B16E01283467D0
:10CC700086F86440B46607D1B36CB26FD6F8CC6066
:10CC800050460094B04703E006F17C0008F0FAF843
:10CC9000504602F04DF8D5F858014068006800F29F
:10CCA00004500068D8F83810084228D0D5F8F800A9
:10CCB00028B3DAE90076504603F042FD504602F010
:10CCC00037FD7879012812D1D7F8F40078B997F8B0
:10CCD000E80060B1002087F8E800BB6CD7F8EC10E2
:10CCE000D7F8FC20D7F8504100905046A047D7F81D
:10CCF000F80020B93068816B41F4006181635FEA1C
:10CD0000095023D5D8F8000081690907FCD4016BCC
:10CD100021F480710163297A91B10020287295F87D
:10CD20004400800606D52C6C24B1AB6C5046202103
:10CD30000022A0475046012106F0C4FED8F80000AA
:10CD4000816B21F400618163687908B1BDE8FC87DB
:10CD500005F58070BDE8FC4708F094B82DE9FF4167
:10CD6000DFF8BC81002003900290D8F83840B4B3BB
:10CD7000D8F84C0010B9D8F8480070B3D8F848007B
:10CD800060B12069D8F848100969814206D194F849
:10CD90003300C00602D5D8F84C0090B1002702A895
:10CDA00087F0010103AA03F043FC0546FFB9F5B182
:10CDB0000299002900F09D805A4807F087FC00275F
:10CDC00014E0D8F84800C06840880028F9D0D8F8A6
:10CDD0004800C06840880128F3D00127DFE75248A7
:10CDE0000221283008F050F80027002500242CB339
:10CDF0004E48466816B30298B0FA80F040092840C1
:10CE000001281BD1D8F84800D8F84C10039A87F0B5
:10CE10000103CDE9003208F1380208F14003B047C0
:10CE2000012868D0022809D1D8F84800012201233E
:10CE30000069D8F84810B1F9301065E0002C2046A0
:10CE400018BF01203840012851D139482169406874
:10CE5000814203D034484FF4806145E002980028B5
:10CE600018BF01202840012806D1D8F8480018B979
:10CE7000D8F84C0000284DD0082007F003FB94F8A8
:10CE800033004C25C00608F1380058BF482507F08C
:10CE900013F948F80500274BD4E90601C2439A600C
:10CEA000DA681043D860C8431860586808432146C0
:10CEB00058600820E56807F0D3F9284607F040F9E4
:10CEC000288843F60601411A022906D3B0F5C15F4E
:10CED00003D040F60201884203D10120294607F021
:10CEE000BFF911484FF08041283007F0CDFFBDE871
:10CEF000FF8100277BE70398002818BF0446012222
:10CF00000023B4F9301020690092002200F08AFE5C
:10CF1000BDE8FF81082006F085F9BDE8FF8100BF6C
:10CF20002C5D00200C120020C85C0020B05F0020A7
:10CF3000905B0020081004402DE9FC4F83F0004373
:10CF400001E02DE9FC4F1F03FF0847EAD2574FEAE3
:10CF500042284FEA43095FEA595906D147EA080ACD
:10CF60001CBF00210020BDE8FC8F57F000575FF484
:10CF7000E06E1EF1FF0EF14505D14FF00000190DD6
:10CF80000905BDE8FC8F002B05D55FF0000AD8F13C
:10CF900000086AEB07070C03E40844EAD0544FEAA0
:10CFA00040254FEA4106760D08D144EA050A19BF2B
:10CFB0000021002019461046BDE8FC8F44F00054C3
:10CFC000764504D10020090D0905BDE8FC8F002934
:10CFD00004D55FF0000A6D426AEB0404B6EB090E5B
:10CFE00008D5A2463C465746AA464546D046CEF10D
:10CFF000000E4E46BEF1360F5CBF4FF0000B23E033
:10D00000BEF1000F04BF4FF0000B1AE0CEF1390A59
:10D01000BAF120092EBF08FA09FB07FA0AFB4BEA0E
:10D02000080BDEF1200A07FA0AFA38BFBA4647FAB7
:10D030000EF72DBF28FA0EF8AEF1200E4AFA0EF8C0
:10D04000D04415EB08057C4154EA050A02BF0021D3
:10D050000020BDE8FC8F002C58BF4FF0000A06D519
:10D060005FF0010A5FF0000E6D426EEB0404A6F162
:10D0700001066D006441FAD515F4806E11D005F4F7
:10D0800080794BEA090B15F5806554F1000428BF3F
:10D09000761C0BD205F400795BEA090B08BF25F476
:10D0A000006525F4E0656D0044EB0404B61CDEBFAA
:10D0B00000210020BDE8FC8F5FF4E06E1EF1FF0E42
:10D0C00076450AD34FF0000013F00043FF21C9005A
:10D0D000C91D09051943BDE8FC8F270547EA15302E
:10D0E000210B41EA065141EACA71BDE8FC8F704745
:10D0F000B0B560480021604C016094F83A01032803
:10D1000012D002282ED0012840F0AF8094F84001C0
:10D1100003F0B8FD002084F840015948817B0220CB
:10D12000002908BF06209EE054480168B1F5C060A0
:10D13000C4F82C01B8BFC1F5C060D4F810110029A3
:10D1400000D5494288422ADDD4F8140106F0B8FE21
:10D15000D4F8180106F0C6FED4F8280106F0E6FE61
:10D1600001201DE04548056807F08CFCC4F8140157
:10D1700007F090FCC4F8180107F094FCB5F5C06105
:10D18000C4F82801C4F8101109D094F830215AB11C
:10D19000D4F81401D4F82021D4F82C110AE000208E
:10D1A00084F8300106205EE0C4F82401D4E9450289
:10D1B000C4F82C110223C4F81C01002901EB410121
:10D1C00048BF6FF001031944042391FBF3F11144AC
:10D1D0000029C4F820110FDD1F2931D3D4F82421F0
:10D1E0002AB33E28A8BF3E2001302929A8BF292103
:10D1F000C4F81C010B3909E0D4F82421032A09D111
:10D2000011F1140FD8BF6FF013011531C4F82011BC
:10D21000002113E00128D8BF0120013811F10A0FC5
:10D22000D8BF6FF00901C4F81C010B3103E03329AA
:10D23000A8BF33211539C4F820110321C4F82411E3
:10D2400006F03EFE012006F05FFED4F8200106F055
:10D2500049FED4F8240106F069FEA5F2FF5104202E
:10D26000032938BF0620C4F83C01BDE8B04001F0F6
:10D270005BB900BF3C500C403058002008400C40C7
:10D280008C570A00FEB504465A480078A04213D9CC
:10D2900008780D46012801D1686868B168780128CE
:10D2A00001D1A86840B1544F57F8346007F0B4FC7E
:10D2B000F17921B107F095FD00242046FEBD07EB72
:10D2C000C40401216768F17107F08BFD002005F1AE
:10D2D000040C7074F081B06030602988B180A98B33
:10D2E000C6E93D00C6E90E0086F86400B186297DD6
:10D2F0002B69B1719CE80610C6F85021BCF1000FF3
:10D30000C6E910C34FF0FF32C6F8CC10A969C6E9D0
:10D310003B203163A97F86F83610296AC6E91A00D6
:10D32000C6E91C00B16486F8E800C6F8580102D1CD
:10D330003249C6E9101097F8400002F021FCD7E905
:10D34000031206F14C0007F0C5FBD7E9051206F100
:10D35000D00007F0BFFB2A4938680968C9688847C8
:10D360007A6C97F8240046F2020102F0B1FB254DD9
:10D37000BA6C97F82000294602F0AAFBF869012848
:10D380000CD1FA6C97F82800294602F0A1FB3A6DFF
:10D3900097F82C0046F2020102F09AFB04F0AEF975
:10D3A000C6F85801204601F04DFA174A06F5AE704E
:10D3B0000421234606F0CCFD6D46284607F032FBDB
:10D3C000387A7968114A2B460094019006F11400CE
:10D3D00005F0B6FB06F17C00002106F061FF06F5C2
:10D3E0008070002106F05CFF3868D7E90C121060ED
:10D3F000486062E7DB570A007C580A00EF180A0011
:10D40000D00100100260002019490A006DCB09000C
:10D410002DE9F04F8BB08246581C022803D2002021
:10D420000BB0BDE8F08F14981D4616460C46B3F5B8
:10D43000801F01D90028F2D1B5F5302F01D900287D
:10D44000EDD038B14E4A504600214FF4807306F0BB
:10D450002DF906E00AFB046149484FF4807207F099
:10D460001EFA681E01234FF0FF38B0FBF4F101FBF8
:10D470001400013082B2C5B2100A002D18BF03EBB0
:10D480001220029001EB0A0006F580713C4E08BFA5
:10D490004FF4807503940191C0B2514606950890EF
:10D4A0000898CDB2854268D8029A4FF0FF3018BF75
:10D4B000220A079150FA82F009920A90019805FB1E
:10D4C000040000240590481C049009985FFA84FB2E
:10D4D000C0B283454ED20898A94657468542069861
:10D4E0004FF4807508BF05460A9858454FF4807080
:10D4F00018BF0546079880EA0A004FF0000A20434B
:10D50000000608BF4FF00C0A1FFA8AF085420AD9BC
:10D51000305C80EA0800C0B206F002FE80EA1828FB
:10D520000AF1010AF0E7149858B10A98584513D146
:10D530000498002132464FF48073C0B206F0B6F86A
:10D5400007E005984FF4807200EB0B21304607F09E
:10D55000A6F9BA464D460BE04FF4807032464FF4C0
:10D5600080734D4600EB0B21484606F09FF8BA4603
:10D570000134AAE7DDE9034192E76FEA08004FE7CB
:10D58000480D00202DE9F84FD0E9004B984616468B
:10D590008A46054613B10020C8F8000076B107F0AE
:10D5A0003BFB0746E07968B194F8E80088B138465B
:10D5B00007F017FC6FF00800BDE8F88F6FF0090066
:10D5C000BDE8F88F384607F00CFC6FF00E00BDE8A0
:10D5D000F88F0020012104F58079C4E93BA6C4F846
:10D5E000F460C4F8FC0084F8E810E0636073E07253
:10D5F0004846002107F0B3FB584607F061FB384668
:10D6000007F0EFFB07F014F908B9607968B307F089
:10D6100003FB0646284602F08BF8304607F0E1FB94
:10D62000607960B90A99484607F099FB08B1012072
:10D630006073284603F084F8002084F8E800B8F10D
:10D64000000F1CBFD4F8FC00C8F80000E07A28B135
:10D650000020E0726FF00D00BDE8F88F607B0028BD
:10D6600018BF6FF00C00BDE8F88FD5E9007497F88B
:10D670004400C00615D5D7F840C0BB6C2846102121
:10D680000022E0470DE0D7F8FC0031460AEB00022B
:10D69000204605F0E1FDD7F8FC10361A0144C7F822
:10D6A000FC10002EEFD1204607F024FA0028FAD013
:10D6B000204607F0FFFA97F84400800605D53C6C39
:10D6C000BB6C284620210022A0470020B8F1000FA3
:10D6D00087F8E800C7D0D7F8FC00C8F800000020A1
:10D6E000BDE8F88F2DE9F047012816D1DFF830A109
:10D6F000DAF83401012813D10220CAF8340106F007
:10D70000EFF80120012405F0B9FF60B1CAF83441F7
:10D7100006F076FD4FF0FF347FE06FF001047CE00F
:10D720006FF0040479E09AF85A419AF859119AF87E
:10D730005801002C18BF0124002918BF023400280A
:10D7400018BF0434012007F07FFA013818BF012008
:10D750009AF83811B1FA81F1490910EA010902D1A8
:10D76000002001F0EBFDDAF808002E4D10F0010862
:10D7700007D12D4F286A8168384688470428F9D098
:10D780000646404607F0E6FAB8F1000F08D1012E30
:10D7900004D1286A012142682348904707F06AF9BA
:10D7A00028684169204688479AF8540118B14FF417
:10D7B000806007F04FFA9AF8530118B14FF4816076
:10D7C00007F048FA19480121016003200021CAF836
:10D7D000340117480160204604F002FF0128FAD105
:10D7E000144E3068042005F049FF04461248012514
:10D7F000B9F1000F0560306802D1012001F09EFDF3
:10D8000007F0C0FA082005F039FF0443CAF8345184
:10D8100018BF4FF0FF3406F0F3FC2046BDE8F08758
:10D8200030580020B8010010004003402820086054
:10D830000C2008402C2009400C4009402DE9F04FF5
:10D8400093B004464C4801904C4800904C481190CD
:10D850004C488046109003F09DF94B49FF2818BFB3
:10D860004103257A087B854206D1487B617A814253
:10D8700002D10027002601E005260127684621463F
:10D8800006F030FF20B110A8214606F02BFF38B972
:10D89000207B06280DD80121814011F0610F08D0AE
:10D8A0000526962D03D0012138484170A6B10020ED
:10D8B0005DE03F284FF0000188BF052688BF0121A9
:10D8C00039430129EDD0D4F80E203049962DC1E915
:10D8D0000320ECD0012048702C4A107880B3207BC4
:10D8E0004FF400314FF0FF340DF1400B0DF1380AC9
:10D8F000E946012808BF4FF48031FF250226080BB6
:10D9000091609080F7B2032F1ED81D4800215A461F
:10D910000823CDE90E80384605F0C8FE584651462A
:10D9200006F0E0FEA8B9384600214A46342305F047
:10D93000BDFE0C98A0423CBF354604460136E1E7E7
:10D9400000209080906009E0E8B205F0D3FC2E46FC
:10D9500002E0384605F0CEFC0C4AF0B2D1685080A7
:10D96000012288064FEA911018BF02EB911080B295
:10D9700013B0BDE8F08F00BF7832523143433133EA
:10D980004E564D314F41442000C00900185F002021
:10D990002DE9F047DFF83491D9F840A0BAF1000F33
:10D9A00000F088800AF10C020820FF2151FA80F073
:10D9B000C3B21B1A18BF012312686AB163B113887E
:10D9C000A3F60303012B01D90432EFE7DAF81000C4
:10D9D00092E8FA003830FAC0DAF808200025DAE9CF
:10D9E0000A10CAE90A55B2B110F0E2440CD021F095
:10D9F0000F0220F0E2434FF0000852EA030005D086
:10DA000007F0CDF8B04701E08846044607F0C7F8B4
:10DA100042462346B04707F0FFF80446B9F85600DF
:10DA200001306FF31F30A9F856004FF6FD70AAF8C9
:10DA3000300009F140008AF8335006F03DFB2046E3
:10DA400007F0CFF9B9F85600B9F85410884231D12F
:10DA50001F48204940680D6830B190F8FC2007202D
:10DA6000002A08BF052000E005204C6803F040FBB9
:10DA700055B195F8FC00002100284FF0000008BFC8
:10DA8000286885F8FC1000E0002044B194F8FC20E0
:10DA90000021002502B9256884F8FC1000E000256B
:10DAA000A84288BF0546681C04D02DB9BDE8F047E0
:10DAB00006F0CCBCBDE8F08700F010F8B5FBF0F143
:10DAC0000548BDE8F04706F001BE00BF2C5D002010
:10DAD000905B0020C85C0020C81100200A2070471D
:10DAE0002DE9F84F2DED066B1446D2F800800A6838
:10DAF0001D4612F8010B66280A6008D1287E50B135
:10DB000058F8040B05F064FA41EC180B0BE0E969D6
:10DB1000087001206CE008F1070020F0070090ED8C
:10DB2000008B00F108089FED380B56EC18BB5846E7
:10DB3000314659EC107B3A464B4603F0B1FE019654
:10DB400060B12869013828618DED028B9DF80F00C6
:10DB500080F080008DF80F009DED028B9FED2C0B67
:10DB600056EC18AB5046314653EC102B03F0B6FE82
:10DB700020B10720E8602A48E8613AE05046314683
:10DB800004F0CCFB009005F067FE02460B465046C1
:10DB90003146FFF7D1F99FED200B53EC102B00F02D
:10DBA000D1FF04F083FD0146686904220A2303F0D3
:10DBB000BFF9411E0A23E9612E2100F8011CD5E9B5
:10DBC0000412E869821A0A44009903F0B1F9019934
:10DBD0000646E86158463A464B4603F061FE28B1D6
:10DBE000701EE8612D2006F8010CEE696869801B43
:10DBF000E860C4F800800020BDEC066B01B0BDE811
:10DC0000F08F00BF00BF00BF000000000000000058
:10DC10000000C0FFFFFFDF41000000000088C3409C
:10DC200094580A002DE9F84F4FF00054002A994605
:10DC300016460F46804618BF4FF080444D1C06F034
:10DC4000EBFF824635B140463946002204F0EAFC3B
:10DC500007460FE03C48816C11B10969414506D087
:10DC6000C16C11B10969414503D0876B02E0876C33
:10DC700000E0C76C37B197F93300B0F1FF3F03DD27
:10DC800004245BE0032459E0DFF8BCB00A9DDBF814
:10DC90004800874218D0DBF84C00874229D0404624
:10DCA00039464A462B4602F007FD0028E8D02748AF
:10DCB000017E012941D0007E04283ED02448254918
:10DCC000283007F0E1F838E0DBF84800002223466E
:10DCD00005F074FF06F0B2FF1F48002E18BF00F5D4
:10DCE000803006F02DFAF5B1DBF8480007F02DF88A
:10DCF0000CE006F0A3FF1848002E00F100501CBFF6
:10DD00000120C2F2024006F01BFA65B1DBF84C00BC
:10DD100007F01BF838690E49086291F8240040F0BA
:10DD2000010081F82400B9F1000F06D0DBF83810AB
:10DD3000404601222B4602F0BFFC8324504607F0E8
:10DD400050F82046BDE8F88F2C5D0020905B002045
:10DD5000C85C00200200004001000104F8B5444DF9
:10DD60000C4601464FF0FF36424F6878002818BF36
:10DD700002268B0117FA83F08E4205D9A11C40229E
:10DD800007F088F800263DE016D1A11C0D2207F00F
:10DD900081F802F0FFFE297880F0FF0251EA0203C9
:10DDA000354A18BF42030BB1FF282AD0E9B1B87C2D
:10DDB00003281AD100261DE0A868C118287850B1A0
:10DDC000023A0234C1F307306FF31F3193B2224697
:10DDD00005F046FB05E0A31C0846023A194605F08B
:10DDE00025FB0028CED003260CE0F889D289161A2C
:10DDF00018BF0526214AD7F889001268531E03422E
:10DE000002D00526F0B2F8BD3006FBD1BB6939B3AC
:10DE1000180B190502D0012151FA80F02F79C6B2F2
:10DE2000A988F8B27218824207D905F063FA01375F
:10DE3000FF28F5D1A988032600E000260D4AC8B2C4
:10DE400000218D2305F00CFB0028CCD1287904F1AA
:10DE50000F028D21332305F003FB0028C3D1D1E746
:10DE6000B3FBF2F000FB12310029D4D1D6E700BF9A
:10DE7000185F0020200F002000C00900985F0020DC
:10DE80002DE9F0410546880058BFBDE8F08100202B
:10DE9000002403F049FE3D493D483E4FCC610860F7
:10DEA00040F60A008846B887FC8797F8480000F0DB
:10DEB000F00087F848003C6497F8490000F0F00053
:10DEC000013087F84900284602F060F8AC6801206C
:10DED00021460E46496849B10A88A2F60302072A7C
:10DEE000F7D800FA02F212F0830FF2D0707B00F044
:10DEF000F000707307F13C0070602748806B28B118
:10DF0000C0680088A0F6030002281AD3284630F81B
:10DF1000381FB1B10021E9636987386495F844007E
:10DF200095F8451000F0F00085F8440001F0F0008D
:10DF3000013085F8450097F8490000F0F00087F8B7
:10DF4000490006F0CBFC1548F86197F8250030B180
:10DF500005F020FE0028FBD004F0BCF90BE0012006
:10DF600006F072FE012806D0707B00F0F000013050
:10DF700070730B48F86100202146C8F81C00C8F8EF
:10DF800000400120BDE8F04106F06AB900100440ED
:10DF900001010E04905B00202C5D0020E9C0090007
:10DFA00089200A002DE9F04387B0DFF8FC80814624
:10DFB0002025EFF3118085F31188D8F838501DB172
:10DFC00080F3118800256AE0C8F83890374F80F355
:10DFD00011880020C9F80C104FF48031C9F81C20BA
:10DFE000002BC9E91200C9E9080118BF1F46D7E98B
:10DFF0000116C9F81810397B012905D1C9E910604B
:10E00000C9F8146030460DE0294A0020314600234B
:10E01000002506F08BFCC9E910012649C9F8140057
:10E020008E423CD80021DFF890E0C9E9160197F84C
:10E0300000C0C9F85410BCF1020F08BF0146BCF182
:10E04000000FC9F8501001AB9EE8F5001946F5C164
:10E0500008F124001A4ACDF808900090174808BF2C
:10E06000024609F12800142105F0F0FF05462020A2
:10E07000EFF3118180F3118881F3118899F8100072
:10E0800010B9484604F06EF935B108F13000494640
:10E0900006F084FA4D4602E00025C8F838502846BC
:10E0A00007B0BDE8F08300BF205B002014570A00D2
:10E0B00040420F003F420F0048570A006D2C0A00F3
:10E0C000354B0A001EF0040F14BFEFF309816946B7
:10E0D0008869A1F1480214BF82F30988954621EDB1
:10E0E000100BF1EE102A41F8082DEFF3118102B464
:10E0F00000B5DFF8D8E0F047374A1268116801EA46
:10E10000000010605DF804EB1EF0080F09D101BC9F
:10E1100080F311885DF8080BE1EE100ABDEC100BDE
:10E12000704704BC1EF0040F14BFEFF30981694669
:10E13000A1F1200114BF81F309888D464A604FF098
:10E140008070C86125488861234B1B681868086087
:10E1500040F201101860704702B401B4EFF314816B
:10E1600000291CBF002282F3148802B402B4DFF835
:10E1700060E0F04701BC01BC00281CBF022181F314
:10E18000148801BCDFF84CE0F0470F484FF0805195
:10E19000016001BC80F3118800BF00BFFFF7FEBF24
:10E1A0001EF0040F14BFEFF30981694601F120014D
:10E1B00051F8080BE1EE100AB1EC100B14BF81F31B
:10E1C00009888D46704700BF04ED00E035120A0053
:10E1D000254E0A002B4E0A00D0580A0058E10900CB
:10E1E0002DE9FF413B4E96F8420100286AD10120FB
:10E1F00086F8420106F034FD374F86F87001374D3E
:10E200007868C6F86C01387B86F84101A86810F47C
:10E21000402F13D1386988B128686421C0F30660A3
:10E2200000FB01F4FFF75AFCB4FBF0F22C4906F1B5
:10E230009400002305F092F906F014FC01AC20468E
:10E2400006F074FD2749A846002506F10C000022BF
:10E2500006F097FC204606F069FD234906F15000C0
:10E26000082206F08EFC214A06F1D8003221002354
:10E2700004F066FC1E4C1F4A06F1F4002C2100231A
:10E280002560454604F05CFCD8F80800797BC0F3B3
:10E29000815021B1032804BF012186F839110328D8
:10E2A00003D040F00200022810D1206840F0400066
:10E2B0002060022005F09AF96868400702D4002027
:10E2C00005F094F9002004B0BDE8F08104F02CFEC4
:10E2D000F2E700BF305800208C570A00AC4F0050C6
:10E2E000C94B0A00D71C0A00C9280A00C9110A0034
:10E2F00090220840F1D009002DE9F8431D46434B18
:10E30000DDF8208043F606061C68038814F00074CC
:10E3100011D0B34227D0B3F5C15F33D040F6020627
:10E32000B3423ED100F112030B6041691160816973
:10E330002960C1692EE0B3420AD0B3F5C15F03D0B2
:10E3400040F60206B34203D100F11203143002E09A
:10E3500000F11A031C300B60006810600020286078
:10E36000C8F800004BE000F11A034FF000090B6001
:10E37000C1691160016A2960416AC8F8001000F1A2
:10E3800018011CE000F112030B6041691160416A41
:10E390002960816AC8F8001000F1100190F80F9010
:10E3A0000DE000F11A030B60C1691160816A2960F8
:10E3B000C16AC8F8001000F1180190F8249028688C
:10E3C00068B10E8806F0E4FB042808D8074606F07A
:10E3D0000701484603F01CFB296841F82700D8F8DC
:10E3E000000060B106F0D4FB042808D80546484672
:10E3F000FF2103F00DFBD8F8001041F82500002C98
:10E4000018BF01242046BDE8F88300BF94120050D5
:10E410002DE9FE4FD0E90085994614460F46834604
:10E4200013B10020C9F8000074B106F0F5FB0646F0
:10E4300098F8070058B198F8E80070B1304606F037
:10E44000D0FC6FF008046CE06FF0090469E030461E
:10E4500006F0C7FC6FF00E0463E000200121C8E95C
:10E460003B74C8F8F440C8F8FC0088F8E810C8F815
:10E470003C0088F80D0088F80B002846019506F04E
:10E480001FFC304606F0ADFC08F1D0060DF1080A7D
:10E4900006F0C2FB04463046514605F0C5F9D8F8EF
:10E4A000F450D8F8FC10A842394438BF0546029809
:10E4B0002A4606F0EFFC3046294604F051FDD8F814
:10E4C000F400D8F8FC10401BC8F8F4004819C8F84C
:10E4D000FC00204606F085FC012D03DBD8F8F40093
:10E4E0000028D5D106F098FB0746D8F8FC0050B1BB
:10E4F000019806F0E5FB584601F01AF9D8F8FC003F
:10E5000010B1002402E000206FF00F04B9F1000FF9
:10E5100018BFC9F80000002088F8E800384606F067
:10E5200060FC2046BDE8FE8F2DE9F84F3C4C3D4E87
:10E530003D4D42F62A294FF0010A4FF0030B002708
:10E540004FF00508D4F83C01062833D8DFE800F086
:10E550000433183B203D4B000F20F060C6F81090AC
:10E5600004F02AFB45F804AC55F8040C8007FBD5F1
:10E57000C6F81CA094F8390190B10120EF6210E0B8
:10E580002F60C4F83CB128688007FCD40320DBE787
:10E590002F60C4F83C8128688007FCD40520D3E7AD
:10E5A0000320C6F800B0C4F83C012F602968890731
:10E5B000FCD4C9E7FEE70126022084F83A6104F0A2
:10E5C000A3F92E6009E0022000E0032084F83A015C
:10E5D000002004F099F90120286004F15000BDE802
:10E5E000F84F06F037BC002045F8040C286055F8B9
:10E5F000040C8007FBD428688007FCD40B48002556
:10E60000012105600A4801600D2001F069FB02202C
:10E6100004F0EEFDC4F83C5184F83B51BDE8F88F9E
:10E620003058002000400C4058600C403C500C40DA
:10E6300004800C402DE9FE4F05460F465818AE6881
:10E640007168884202D96FF0030564E0DFF8E88062
:10E650000C9C4FF0FF3199469246D8F8000006F026
:10E660007EFBE00711D1A0071ED5306851464A460F
:10E670003844CAB110F8013B11F8014B013A23406C
:10E680009C42F6D06FF0060541E0D8E90101CB438A
:10E6900001EA090213EA090F18BF0244394028466B
:10E6A00002F08EF8054690BB306802970196074449
:10E6B00004F06AF9CB4655460090BBF1000F16D026
:10E6C000BBF1080F5E4628BF082606F0A5FA804673
:10E6D00028463946324605F08FFE0446404606F08D
:10E6E00080FB2CB937443544ABEB060BE5E700243F
:10E6F000009805F099FCDFF84080DDE901210C98D5
:10E7000014B14FF0FF3502E0400707D40025D8F8D8
:10E71000000006F0B7FB2846BDE8FE8F10680844ED
:10E72000B9F1000FF2D010F8011B1AF8012BA9F172
:10E7300001098A42F4D0E4E7805F0020B0B50C46BE
:10E74000880722D4600758BFB0BD354D0120A8709E
:10E75000042004F04BFF33480068006B8047E860FA
:10E760002D48806BF0B16968046961B1A1420AD09B
:10E7700094F82800400704D5636A2046042100224B
:10E780009847012060766C600DE0FFF701F92248A0
:10E79000006CE0B3214844F002012830BDE8B040ED
:10E7A00006F072BB6C6860681F4900780860022040
:10E7B00004F01CFF102001F0E3F9012028761B482B
:10E7C000807810B90D2001F0DBF9686841681848BD
:10E7D0008A680AB9C96821B100218160154940F8E9
:10E7E000141C154907220A60016800210160426873
:10E7F00041601249124AE9610168114301601A201F
:10E8000006F02CFB1920BDE8B04006F027BBBDE8A0
:10E81000B04002F00FBF00BF2C5D0020C85C00209C
:10E82000905B00208C010010D021084038580A006D
:10E8300014100440510007060000046081DE090046
:10E8400002400040FEB5D0E9005401A806F0DAF815
:10E8500095F834003649374A384E085C95F835103B
:10E86000515C354A084395F83610515C2A6B40EAF2
:10E870000103316820684F680299B847206840F268
:10E88000F272E1692E4B2F4F426494F854209A5C47
:10E8900094F85530FB5C1A430129426311D10146BB
:10E8A000D4E90A2351F8307FFF2A27F4004718BF24
:10E8B00007F50047FF2B0F6009D00A6842F4804239
:10E8C00008E0014651F8302F22F400420A600A683D
:10E8D00022F480420A60C16A41F01001C162016BFA
:10E8E00041F001010163E16B09B3A16BF9B10121B1
:10E8F00005F070FFD5F85801E16B40680068C1620F
:10E90000C0F8041591FAA1F17268B1FA81F1536867
:10E91000022298477068A16B02224368D5F858011B
:10E9200091FAA1F1B1FA81F1406800689847FEBD03
:10E93000CC580A00F9540A00B3580A00D00100105C
:10E94000BD580A00B8580A002DE9F047A4B006F0F7
:10E9500063F933490A78012A04D124B0BDE8F047AD
:10E9600006F03FBA4FF0010981F8009006F039FA3D
:10E97000FFF736FC082001F003F921AC204606F031
:10E9800051F8DFF8A0A0294A10212346DAF80C003C
:10E990002290254804F0D4F82548002501AE0478DB
:10E9A000244890F800804746A74213D8DAF80000C0
:10E9B00050F8271021F0FF0046F82700880707D4F9
:10E9C000F8B201F0010106F025F809FA07F0054355
:10E9D0000137E9E7184805601848C16801F44001AB
:10E9E000B1F5800F07D10068000E56F8201041F0F5
:10E9F000070146F820101248A4EB0802042306EB96
:10EA0000880103EB820240EA880006F043FA0D48D1
:10EA10002022016862F30D21016024B0BDE8F08777
:10EA2000ED5F0020DC570A00E813002059250A009A
:10EA3000D9570A007B560A00D0200240A84F005048
:10EA400000100840003009402DE9FE4F4FF480408F
:10EA500005F0F8FFA0B1354C35496068D1F81320B6
:10EA600009786FF39F5201F00401806842EA417116
:10EA700001AA00F097FD60688168012005F0F0FBB5
:10EA80002E482C4F2C4D44F2020B00244FF0000A6C
:10EA900000F14009BAF1020F3CD055F82A80D8F8AD
:10EAA0000000A0B3D8F80000806905F0CBFF06464F
:10EAB000D8F800000023324605F080F816F00A0F5F
:10EAC0001ED0D8F800008069B9686BEA00000840E1
:10EAD000B860D8F80000C069396821EA00003860E1
:10EAE0001020D8F8001005F0BBFBD8F800104846FD
:10EAF00005F09EF9002044F00204C8F8000006E08A
:10EB00002EB1D8F800000D4944F4804408650AF19C
:10EB1000010ABFE724B10A482146283006F0B4F9BB
:10EB200001F0ACFCBDE8FE4FFEF718B9905B002089
:10EB3000850300210C10044074580A002C5D00204D
:10EB4000C85C00202DE9FC4191EA03084CBF4FF05E
:10EB500000484FF000084FEAC32545EA52554FEAF6
:10EB6000C2264FEA43077F0D11BF45F00045002143
:10EB70000020BDE8FC815FF4E06E1EF1FF0E7745DA
:10EB800055D04FEAC12343EA50534FEAC0224FEA1F
:10EB90004104640D11BF43F0004300210020BDE893
:10EBA000FC81744543D0E419A3FB0501A3FB06E7F0
:10EBB000A2FB06631EEB030E57F1000751F10001A3
:10EBC000A2FB05631EEB060E57F1000751F1000191
:10EBD000FF1851F10001C01951F100014CBF40F282
:10EBE000004E40F2002E10EB0E0051F1000148BF24
:10EBF000641C01D4400049415FF44077FF37E41BB7
:10EC0000DEBF00210020BDE8FC8117F58067BC4213
:10EC10000DD24FEAD02040EA41504FEA41014FEA7D
:10EC2000113141EA045141EA0801BDE8FC810020AC
:10EC3000FF21C900C91D090551EA0801BDE8FC8191
:10EC40002DE9F0470C4631498046344F1546086897
:10EC50008946800744BF2E48C86000212D480160C6
:10EC60002D488246006838688169272088472C4EE5
:10EC70002C49306B08403063B06F20F48070B0676F
:10EC80003868016B4FF4806088473868016B4FF437
:10EC9000816088473868016B4FF4C060884722481C
:10ECA00001210160C6F880413160D9F80000800779
:10ECB00005D4681C08BF4FF04045C9F80C50DAF87D
:10ECC0000000F0698007FCD5072003F067FC0228EC
:10ECD000FAD1B8F1000F13D1144C386A816820467C
:10ECE00088470428F9D0012804D1386A03214268F2
:10ECF00020469047D6F8180220F00300C6F8180204
:10ED00003868806BBDE8F047004700BF100009403D
:10ED1000FD0000400C4009402C200940B8010010C3
:10ED20000C200840FFFFFEFE282008600040034042
:10ED30002DE9FC4706680446707A00286BD0D4F8A9
:10ED40000490D6F85801D0F80480D9F834702046E1
:10ED500002F0DAFA706F20B306F14C05284606F08F
:10ED60008DF8316F884221D2307902281ED0B06EE2
:10ED7000002850D0204602F0C7FA346F284606F02B
:10ED80007DF8201AD6F868A0B46F7067284606F0A0
:10ED900075F80021F1740AEB040108440190706FCA
:10EDA0000CE0B06E10B1306F0028D5D106F14C00E8
:10EDB00001A904F039FD01217067F17458B30021F5
:10EDC000B0F5806FB17384BF4FF48060706701232A
:10EDD00001990144013979601049B96043F6F07135
:10EDE00001EB00100840B9680843B860D9F83C103E
:10EDF000D9F8000091FAA1F2B2FA82F203FA02F213
:10EE0000D8F800309A61D6F8582152681268916299
:10EE1000012105F0EBFCBDE8FC8700BF0180000C80
:10EE20002DE9F0418EB004464A1E002012F1030F76
:10EE30000AD809AA0490029107922F4A06928DF8E7
:10EE400014000222684600E003220C908DF8342062
:10EE50002020EFF3118680F31188608A30B1608A38
:10EE600001386082012086F3118842E000293DD0FC
:10EE70002248012104F1140790F80880017280698A
:10EE800009AD45620B9003F069FFA06909970A90EC
:10EE90000560A5619DF83400022808D118494A6828
:10EEA0000C98016042601060486001F031FB86F30D
:10EEB0001188404603F070FF2021EFF3118081F3A9
:10EEC00011880C9939B10A684B681A604A68096858
:10EED0004A6000210C910B9900224A6280F311884C
:10EEE0009DF83400002818BF012002E086F3118845
:10EEF00000200EB0BDE8F081FB340A00105E002057
:10EF0000605C0020F0B591B01D460446013B002036
:10EF100013F1030F0AD809AB6E46049002950793CC
:10EF20002D4B069302238DF8140001E003230026E5
:10EF30002A4F0E908DF834300C96CDE90F12B86937
:10EF40000B902020EFF3118680F31188204605F006
:10EF500009FB10B186F311883CE0C5B301213D7A6D
:10EF600004F10C003972216909900A9109AA0A601A
:10EF70000B984262226103F0F1FE0C9838B11849F7
:10EF80004A68016042601060486001F0C1FA86F38F
:10EF90001188284603F000FF2021EFF3118081F350
:10EFA00011880C9939B10A684B681A604A68096877
:10EFB0004A6000210C910B9900224A6280F311886B
:10EFC0009DF834100E98002908BF084602E086F329
:10EFD0001188002011B0F0BDC9340A00105E002075
:10EFE000605C002070B59AB0304D08210423287968
:10EFF00002AA04F05BFB28790FAA1121012304F077
:10F0000055FB9DF83C00FC284AD02978A88831B1EE
:10F01000EB680121C0B200914FF4805105E0244912
:10F02000EB680022C0B2009209680022FEF7F0F9F6
:10F030000299884234D1FE208DF83C00287838B9F6
:10F0400028790FAA1121012304F00AFA287850B375
:10F0500028790FAC00212C230026224604F026FB41
:10F0600002A821462C2205F015FF124829690E96A8
:10F07000039011480290A8680D90481E06289CBF76
:10F080004FF6FE60ADF81800A87804F033F9A878C0
:10F0900002AA0021342304F0E3F920B1032000E0A8
:10F0A00002201AB070BD0020FBE700BF185F0020EF
:10F0B000985F00204E564D314F4144202DE9F043DA
:10F0C0008FB00C46002730491546814624229846C9
:10F0D000009703A805F0DEFE6B46002050210022B9
:10F0E000C9F8007003F076FE002848D0074627488C
:10F0F0004FF40071002C07F14806816008BF0446F8
:10F100000021D4E90032A0680792002A4FF00002E3
:10F1100008BFE268FE64F963C7E90D51F9627964DA
:10F12000BB6023691044002B18BF01233B63BE64FE
:10F130004FF0FF33089001200C91CDE90D11CDF86F
:10F140002880CDE9045700218DF83000069307F19F
:10F1500010000CAA04F0AAFD0D4803A96A4603F0AA
:10F1600071FBF86040B14563C9F800702168F86828
:10F1700000F0F8FB002003E0384604F009FC0C2006
:10F180000FB0BDE8F08300BF34560A002C5F0020AA
:10F19000DF490A00F0B5314A046A516B137D0C61F6
:10F1A000446A01F1200C032B0B704C61846A8C6162
:10F1B000C46ACC6190E8F000ACE8F00000F14004D3
:10F1C00000F110074C64F0CF01F1300CACE8F00016
:10F1D000046B0C64446B8C64846BC06BCC640865FA
:10F1E0000BD8DFE803F0020D1016156DC4B2106CD9
:10F1F000936C55F824404C600FE0002000230CE095
:10F200001748C06D06E0174880694860D0E90A30A9
:10F2100003E000204860106C936C926BC1E902031C
:10F2200032B12BB110F8014B013B02F8014BF8E76A
:10F230000D4802684A6590F824208A6590F82520D8
:10F24000CA65C28C0A66826A4A66C26A8A66026BAC
:10F25000CA66426B0A67806B4867F0BDF85B0020A6
:10F26000205B0020105E002004ED00E070B5254812
:10F27000066804F085FF24480025244C0560206CB6
:10F28000806C80472248006838B122480068B6F197
:10F29000FF3018BF304600F0CFFD1F4840F2391252
:10F2A00005601E48016862F31B4101601C4801684B
:10F2B00001F44051B1F5805F06D10168194A11404F
:10F2C00001F5003202600160174D0126EE612068F1
:10F2D000016A142088471548016841F4E021016063
:10F2E00013482E60006800F44000B0F5000F03D111
:10F2F000206C416C0F4888470F4801680029FCD1F9
:10F3000070BD00BF1C13005084046042B0010010A7
:10F3100080012843800520438C2108404820034079
:10F3200028000940EFFFFCFC0000244300200940B6
:10F33000B44F0050BD3786000C00684270B5F8B17C
:10F34000012858D1012005F07FFC012853D02D4C15
:10F3500094F8380100284ED12848294E05693068B4
:10F3600010F4402F30D17DB304F03AFF502005F067
:10F370003BFD0120A84704F1940005F06BFD25E05A
:10F3800005F072FD1E48006810F4402F0AD11B489A
:10F3900004693CB11B48943005F014FD04F010FFE3
:10F3A0000020A047174C94F8380120B31648016894
:10F3B00021F08001016080218160032003F018FFAB
:10F3C000002084F8380116E005F052FD012084F891
:10F3D0003801306810F4402F00D14DB9207A8006F2
:10F3E00006D4094880218160016841F080010160F4
:10F3F000032004F0FBF8002070BD00BF8C570A000A
:10F40000B44F005030580020902208402DE9F84FAA
:10F410001E4614460F46814605F0FEFB804604F06A
:10F420000FFF00284AD005462848DDF82CB005F02B
:10F43000C9FCDFF89CA0274A0A9B4FF0FF31BAF8BD
:10F4400054001A40023201306FF31F30AAF8540002
:10F450000020AE6085F83240C5E90379C5E90F1098
:10F460000BF0200185F8440085F838006863C5E991
:10F470000800C5E906218022BAF85410A5F850000A
:10F48000C5E9120085F833202986397B01F00F0188
:10F49000022904D1012185F83810B968696389F817
:10F4A000FC000AF13800294604F0C2FCDAF8380002
:10F4B000A84208BF02F0BEF82C8E01E04FF6FE74A1
:10F4C000404605F08EFC20B2BDE8F88FC811002040
:10F4D0002C5D0020FDEFFF9F2DE9F8432020EFF386
:10F4E000118980F311882C480068006B80472B4EEF
:10F4F0004FF000082A4F012286F85D8086F85C20D4
:10F50000D7E9104522462B4605F010FAA0FB04234C
:10F5100000FB053301FB0431746DC7E91221B168AA
:10F52000B268611A821A914205D986F85C8089F323
:10F530001188BDE8F883051B89F3118800208542F6
:10F5400006D304442D1A0120214602F0D1F9F6E732
:10F550002021EFF3118781F3118896F85D1019B11E
:10F560000020214602F0C4F9411C05D0411BB06DBA
:10F57000814238BF084600E0B06D011905F0E2F89D
:10F58000002086F85C00012086F85E00B46087F3F6
:10F590001188BDE8F88300BF8C010010605C00207A
:10F5A00010110020F0B585B00D4600211446CDE9BC
:10F5B0000311CDE9011101A9009104A903AA02AB2D
:10F5C000FEF79AFE029F002F394618BF0121019EC7
:10F5D0000140002E324618BF01221140002D10D4E8
:10F5E00011B3049840F22B2105806FF39F553846E4
:10F5F0002A4604F0F5FC0398314601F051FE67609D
:10F6000010E0C9B104984FF0FF316FF39F552A46BF
:10F61000018030462B2104F0E3FC0398314601F0D1
:10F62000D7FF666015201EE0C8B104984FF6FF7240
:10F630000188914214D110E078B16FF39F5503987F
:10F640002B212A4604F0CCFCFF2806D004984FF06A
:10F65000FF3101801420656005E0032005E0049877
:10F660000580658010202080832005B0F0BD7047A4
:10F67000B0B52C490068496801422AD02A4D287843
:10F68000012805D105F07AFB284801210160FEE739
:10F69000687801281DD1A888A96881421FD1E9682E
:10F6A0004A1C0429EA6015D300206870002003F08A
:10F6B000C7FC002004F082F905F0D4FB012004F01F
:10F6C00035FF4FF0FF30A860286901302861687865
:10F6D00028B9B0BD0138A860286901302861AA881E
:10F6E000E88882420ED2A81C00210123AA6002F001
:10F6F000A9FD2A69E988A88804F09CFA502004F042
:10F700005DF909E0FFF76EFC044604F00FFF0020EE
:10F71000687014B9012028703C20BDE8B04003F0A7
:10F720008FBC00BF40140020D45D00207C05204326
:10F73000F8B505680446D5F8F80000B1F8BD687959
:10F740006668022807D105F1D000694604F0C5FCBF
:10F75000C5F8F80009E0D5F8EC10D5F8FC20D5F88C
:10F76000F4001144C5F8F80000910028E6D0316893
:10F770008A6B22F400628A6395F84410C9060AD5A0
:10F780002F6C47B1297A31B9AB6C20461021002289
:10F79000B847D5F8F800B0F5806F84BF4FF48060AB
:10F7A000C5F8F8000099336B01444A1E3168B66B06
:10F7B0001A600E4A9A6043F6F07202EB0010104095
:10F7C0009A6810439860D5F85801406800688662CE
:10F7D0000846022105F00AF8287A0028AED1204612
:10F7E0000121012604F0ECFA2E72F8BD018000C060
:10F7F0002DE9FC412A4D95F86100002844D00024F1
:10F800000026602C40D095F86100F040C00702D17E
:10F8100020340136F5E7112095F8618000FA06F7EB
:10F8200005F0FAF995F86110B94385F8611005F013
:10F83000D8FA281928D0817A31B31021194A2C59C5
:10F84000B14011EA080190F9091052F82180466888
:10F85000CFB209D001F0EAF8002079B200224FF0CF
:10F860000073009020460EE0017A022902D1C17C8B
:10F87000C90601D401F0DAF8CDF8008079B220464B
:10F8800000224FF00063B04795F8610028B10648A8
:10F890000021BDE8FC4105F0F7BABDE8FC8100BFDE
:10F8A000A8100020943004405012002070B50129A7
:10F8B00053D00446002942D128480121057A01721B
:10F8C0002021EFF3118681F3118894F82010032989
:10F8D00016D002291BD0012929D12168E26C636866
:10F8E00019606168236859601168914204D1A16967
:10F8F000C26822EA0101C160606AC0B1C0680FE05D
:10F9000020686168086060682168486012E0616A88
:10F9100069B10A68C8684B681A604A6809684A6031
:10F9200028B1016842681160416800684160204662
:10F9300003F0A2FB86F31188284603F02DFA216B11
:10F94000481C0AD006480029806818BF0846D4E938
:10F950000A214368BDE87040184770BD105E002062
:10F96000205B00202DE9F0412B4B0127024620248B
:10F97000187A1F72EFF3118C84F3118854698C424A
:10F9800002D18CF3118841E01D6A002907FA01F7C2
:10F9900005EBC10648BF03F12C0648BF002792F8CB
:10F9A0002050012D26D1D2F800E0D2F84C805568C5
:10F9B000C5F800E0D2F804E01568C5F804E0D8F80E
:10F9C0000050454505D1D2F818E0DD6825EA0E055E
:10F9D000DD609D699542354601D1DE613568D5F817
:10F9E00004E01560C2F804E0CEF800206A60DD682B
:10F9F0003D43DD60B1F1FF3FD66497615161DCBFEB
:10FA00000021D961012119748CF3118803F0C4F924
:10FA10002046BDE8F08100BF105E002070B505F003
:10FA2000ADF905F023F905F027F9044600F00C00C4
:10FA30000C2803D100BF00BF30BF3BE060071ED4DD
:10FA400003F002F8054600EB80000121460001208A
:10FA500004F0EEFC864212D91C4CA5F1180060613E
:10FA600004F10C0004F010FF00BF00BF0120FDF7FF
:10FA700039FE00BF00BF002084F820001CE000BF5A
:10FA800000BF200715D40E4E0E4D30688168284601
:10FA900088470428F9D0B0FA80F004F0100140093A
:10FAA00040EA111005F0E2F9074801210160006801
:10FAB00000E030BF00BF00BFBDE8704005F062B994
:10FAC000D8010010004003402C200940305800208D
:10FAD0002DE9F84FFF2831D0264B0C4605464FF450
:10FAE000BE21AF0004F0020843EA80004158C9B2C9
:10FAF000914227D121489A464FEA142947EA000645
:10FB0000834605F089F80BF10101220C86F800907C
:10FB100039430A7046F00201220E0A7005F061F9BD
:10FB2000B8F1000F02BF45EA0A0004F001010170BC
:10FB30001148012181EA5801384316E04FF0FF30A7
:10FB4000BDE8F88F00F5BE2024F0FF0162B9B8F1DE
:10FB5000000F02BF2B4304F001041C70064B01246C
:10FB600084EA58043B431C60114301600020BDE857
:10FB7000F88F00BF00200240001A444201100840E4
:10FB80002DE9F041254E0546371805F045F80446A5
:10FB900097F84A01411C87F84A1128B1204605F020
:10FBA00020F90020BDE8F081DFF8748018F8257096
:10FBB00007F03F00142898BFFFF7E2FF08EB85002D
:10FBC000458878B2B0F1FF3F0CDD78061FD41548A8
:10FBD0000068416928468847284602F001FD01284F
:10FBE000FAD1DBE70F4E3068C16928468847306894
:10FBF000416A284688473068C16A284688470A48CB
:10FC000001210160094801688907FCD5C6E706EBB8
:10FC10008500D0F8601101208847BFE730580020E8
:10FC200054550A00B8010010282008602820084018
:10FC30008B4208BF824207D9009A002A01D0106087
:10FC40005160002100207047002B08BF002A10D10E
:10FC5000009A002A01D01060516002000B000021C0
:10FC60000020002B08BF002A1CBFC943C04301F07D
:10FC7000FEBEF0B51C4615460B460246002000218C
:10FC8000B4FA84F6202E04BFB5FA85F62036B3FA0E
:10FC900083F7202F04BFB2FA82F72037F61BB6F1A4
:10FCA000200727BF05FA07F400257F42B4403EBF76
:10FCB00025FA07F73C43B540A34208BFAA4201D347
:10FCC000521BA341404149416D0845EAC47564088F
:10FCD000761EF1D5059F002F01D03A607B60F0BD04
:10FCE000F8B5254F05463E1804F096FF044696F8F1
:10FCF0004A01013886F84A01000637D11F4810F939
:10FD0000251000EB85004588CEB2B1F1FF3F0CDD38
:10FD100070061FD41A48006881692846884728461B
:10FD200002F03CFC0228FAD11AE0154F3868016A4B
:10FD3000284688473868816A284688473868016BB2
:10FD4000284688470F48012101600F48016889074C
:10FD5000FCD505E007EB8500D0F86011002088474E
:10FD600006F03F00142898BFFFF7BAFF204605F0C1
:10FD700038F80020F8BD00BF3058002054550A0064
:10FD8000B801001028200860282008402DE9F04123
:10FD9000002918D41F4615460E46044604F0B2FD4D
:10FDA000804620463146802202F03CFC20B10646C7
:10FDB00090F9330000280AD4404605F067F8002186
:10FDC0000220BDE8F08100200021BDE8F081D6E9E5
:10FDD000080145F00A0547F0E0472840394008434C
:10FDE00010D0404605F052F8D6E9082303EA07018F
:10FDF00002EA050042404B40C4E92C01C6E9082351
:10FE0000BDE8F081B1680B48814203D0B168C4F805
:10FE1000A810B0604046C4E9285705F037F804F14F
:10FE200050004FF0FF3104F09AFFD4E92C01BDE8F7
:10FE3000F08100BF29180A00F8B504462148224E77
:10FE40004168890705D40168F02242EA114186F829
:10FE50004D101E494FF001221E4F0A601C490988AF
:10FE600039680968856828468847A80105D4E801EB
:10FE700003D5307840F00200307038682946426877
:10FE8000204690471448154A0068C0F305311170A8
:10FE9000C1054FF0130158BF23214023735438216B
:10FEA00001EA901000F56050A2F85C0038688168A3
:10FEB00028468847022002F0C7FF09480121016057
:10FEC000F8BD00BFAC4F00500962084004A40C40CC
:10FED00000A00C40F00100100C1400500EB00C40BB
:10FEE0009404604270B58AB01E49086002A804F00C
:10FEF000CFFE1D4D4FF480701C494FF40672022353
:10FF0000009005F11004204601F030FB00B1FEE73F
:10FF100018491748FE2200260A75027BCB7B4661F2
:10FF2000C673CC6102F0F00243F003030273087B56
:10FF30008A7BCB7342F0060200F0F0008A730873EC
:10FF40000D480E490E4A02ABFCF7BCFC0D490022DD
:10FF500000236860CDE90066FFF758FA0A480AB046
:10FF600070BD00BF60140020BC5E0020C0060020F1
:10FF7000EC5E0020745E0020480C0020605F0020D2
:10FF80004C5E0020D45E0020A459002010B586B03D
:10FF90000146427E8068002343F606040593CDE9BE
:10FFA00003330293438003881C1B022C10D3B3F548
:10FFB000C15F03D040F60204A34212D1038A002A93
:10FFC00023F4FE6312BF038243F43472028208E01A
:10FFD000038B23F4FE630AB1038302E043F434721B
:10FFE000028300224A7602A9009105A904AA03AB64
:10FFF000FEF782F928B105984FF6FF710088884214
:02000004000AF0
:100000000ED0049C0299204601F04AF90748016885
:1000100021B1204606B0BDE81040084706B010BD2B
:10002000049C0299204601F0D3FAEFE7A85F002074
:10003000BCB5204D287830B91F4C206804F07BFEF9
:100040002878012813D11C4C6988AA881F4B206886
:10005000CDE900120021002204F0DFFBA96820682E
:100060001B4B00220091002104F0D7FBBCBD687837
:10007000FF2808BFBCBD01280DD002280ED080B9D2
:100080002068104B0021002204F0C7FB2068BDE867
:10009000BC4004F055BE2068084B04E02068084BC3
:1000A00001E02068084B0021002202B0BDE8B0400A
:1000B00004F0B3BB8C5F0020A05F00201C580A0036
:1000C0000C580A00F8560A0068580A00BC560A0084
:1000D00060570A00F8B51546044625480E461168D3
:1000E000D268AF690068002F18BF384621612063CD
:1000F0006261D5E90421002908BF4FF4007162B1A3
:10010000D31D11444FF0FF3023F007032063C91AB9
:1001100021F00701C4E90A1308E00731082221F0A1
:100120000701A16202F056FEE062F0B1D5E90101DB
:1001300004F13803EA69666307C395F8200084F880
:10014000480018B10B4841690131416100206065E8
:10015000204600F05BFD08B10230F8BD054804F10F
:10016000080104F01BFA0020F8BD0120F8BD00BF13
:1001700070140020105E00202DE9F84F0024804606
:10018000002100220460684600F052FA204DDFF89A
:1001900084A081464FF0FF374FF0190B0020602CF0
:1001A0001ED02A19917AB9B1107A022816D0DAF83D
:1001B0000400418B0069084495F8621011FB0B01A3
:1001C000506903F003FB0646FDF788FCB6FBF0F030
:1001D000B84238BF074601202034E0E7012000275D
:1001E00009EA0001012904D10099B94238BF0F463C
:1001F00006E0B9F1000F01D0009F01E0C10701D076
:10020000C8F8007040EA090000F00100BDE8F88F6E
:10021000A8100020905B0020F8B50668054604F0A1
:10022000FBFC0446F07AA0B1307A68B1686804F04B
:1002300061FC0028FAD0686804F03CFD0020012130
:100240003072284603F03EFC2046BDE8F84004F03A
:10025000C8BD0120F072284600F072FA71790229B7
:1002600008D1D6F8FC10081AC6F8FC0006F1D00038
:1002700004F024F996F8E8000028D5D0707920B968
:1002800006F5807004F0FEFD70790128CCD10020C5
:10029000C6F8F40086F8E8006FF00D00B36CD6F8ED
:1002A000EC10D6F8FC20D6F8507100902846B847DC
:1002B000BAE7F8B50446FD201D468DF80300204638
:1002C0001E68324600F08EF810B101208DF8030050
:1002D0009DF80300FD2815D1A6B1E068007B00F071
:1002E0000F0002280ED13768204631463A4600F00A
:1002F00079F820B9002F3E46F5D1002602E0022011
:100300008DF803009DF80300FD2804D1E06B10B1C7
:1003100004208DF803009DF80370042F0FD0022FE6
:1003200006D0012F0FD12846214603F093FD0AE0A5
:10033000326822B12846214603F01CFD03E028461E
:10034000214603F075FD78B2F8BD704770B5D0E96D
:100350000056044640F2F2723068816B914381632B
:100360002046FFF759FF204601F036FC204602F0F8
:100370008DFF1B4930680968C96888476468002098
:10038000287294F8240002F0BDFB94F8200002F0DB
:10039000B9FBE069012807D194F8280002F0B2FB0C
:1003A00094F82C0002F0AEFB05F1140004F054FDAB
:1003B00005F5807004F064FD05F17C0004F060FD3B
:1003C000D5F8580108B102F0E7FD05F5AE7003F06D
:1003D00027FF96F84000FFF783FC0020E87170BD0E
:1003E000D001001070B5B2FA82F3B1FA81F45B0962
:1003F0006409B0B312B190F844506DB389B191F86B
:1004000044406CB3446B0E69096C05698908A40803
:10041000AE4214BFED6800252944611AB1F1704F56
:1004200022DAB2B1D168097B01F00F01022915D19E
:10043000516B0569006C146980088908A54214BFD6
:10044000E26800221044081AB0F1704F01DB012865
:1004500004DB0124012304E0002302E0012400E086
:10046000002404EA030070BD00240029C8BF012451
:10047000002AF6D00129D5DAF3E770472DE9F84FC5
:10048000204E214FDFF8848000254FF0010B4FF004
:1004900002094FF0110A602D08BFBDE8F88F7C19E2
:1004A0002ED0A07A01282BD1607A41B20BFA00F04D
:1004B0001131C0B20BFA01F1CA43326072681143C4
:1004C000716003F0DFFF04F11000002103F01EFA59
:1004D000812809D1A06920B1002103F017FA8128F1
:1004E00002D184F80A900BE0607A97F861100AFA5A
:1004F00000F00843002187F86100404604F0C4FC86
:100500002035C8E708100440A81000205012002031
:100510002DE9F041044680681F4F206297F85E0085
:10052000E8B197F85C00D0B91C480068006B8047C0
:10053000DFF86C80D8E910562A46334604F0F6F905
:10054000A0FB052300FB063301FB0531C8E912219E
:10055000B9687B6DBA689A1A411A91420CD903F0B6
:100560006FFA01212175A2681044E06097F85C00E1
:1005700078B187F85D100CE001212175A26811188F
:10058000181A8242E16004D21046BDE8F04104F03E
:10059000D9B8BDE8F08100BF605C00208C0100107C
:1005A000101100202DE9F04186B0DFF8708098F836
:1005B000650078BB012088F86500C8F80480C8F899
:1005C000008003F087FB164801AA114690E8F80066
:1005D0000520F8C10490134808F11004124900F1F5
:1005E0002403204601F09CFDC8F84C4002F098FB23
:1005F0000E48D0E9102347F69160101A73F10000FD
:1006000031BF4FF0FF30002047F6906104F08EF9C3
:10061000C8F8580006B0BDE8F08100BF605C00205B
:10062000B4570A00205B0020D9F409001011002003
:1006300010B504461E4849B138300068B0B1C368EF
:100640001B7B03F00F03022BF7D101E0806B68B135
:1006500002B11060C268137B03F00F03022B08D1B4
:1006600051B101698A8DC968114415E0002100204B
:100670001CE00120002119E012880169A2F60302A2
:10068000012A4A8B8CBF0969496919231144094A17
:1006900092F8622012FB0311406B03F097F8206080
:1006A000FDF71CFA2168B1FBF0F10120216010BDBB
:1006B0002C5D0020A81000202DE9F84F07461E48A9
:1006C00015460E46009300F138094C4624680CB1DB
:1006D000B442FBD14FF0000A00F1400B44B3206953
:1006E000D4F80080B84220D1204600224FF0805339
:1006F00003F064FA009870B1204600224FF0807336
:1007000003F05CFA30690D49086291F8240040F06A
:10071000010081F824004846214603F027FA584694
:10072000214603F085FB0AF1010A002D4446D5D18C
:100730005046BDE8F88F00BF2C5D0020C85C00204B
:1007400070B50568D5F8F81031B3D5F8582144686C
:100750005668A16B20683268D162022104F03AF831
:10076000D5F85801A16B154A40680068C0F8041517
:1007700091FAA1F112683068B1FA81F1926990475B
:100780000446D5F8F800011B6879022806D105F166
:10079000D00003F032F80BE000240CE0D5F8F400B0
:1007A000D5F8FC200A44401AC5F8FC20C5F8F4002E
:1007B0000020C5F8F800204670BD00BFD40100102D
:1007C0002DE9F843DFF874901446D9F8082002EABE
:1007D00001038B4221D1806843688B4220D966187F
:1007E0006FF005059E4226D82240A24223D1006820
:1007F000471802F0C9F88046ACB104F00DFA06467D
:10080000384603F007FE0546304604F0EAFA5DB9C3
:10081000D9F80400241A0744EEE76FF004050AE053
:100820006FF0030507E00025404603F0FDFB002DB7
:1008300018BF4FF0FF352846BDE8F883805F0020E1
:1008400070B5184B2021EFF3118081F31188174CFC
:100850001548DA6C02609C64154C1A661C64154BD2
:1008600004689C4210D14268144B22F47F421A441F
:10087000426081764FF40071C160D0F82C1221F0F3
:100880004041C0F82C1270BD0B4D0024362CEAD02C
:100890000E2C8EBF42F8245053F8246042F8246096
:1008A0000134F3E7F85B002008ED00E000060000EB
:1008B000003A0220A8C009005D3C0A000000FA05C9
:1008C00070B50446B0F90E00227A81B2920702D5C3
:1008D000227B1F2A0CD8154A6368D26C52F820502C
:1008E0009D4218BF42F820304A42E281227B0BE051
:1008F0000E4B1D6D45F820400D4DDB6C53F820600C
:10090000AE4218BF43F82050102901D30A4902E033
:10091000042902D3074901440A70217AC90718BF84
:1009200001F04CFF0020A060002070BDF85B0020AB
:10093000C5E0090014ED00E0F0E300E0F8B51A4E60
:100940000546306828B119490978A9420AD8002417
:1009500028E001F04DFB3068002418B313490978F2
:10096000A9421FD9124A05EB450102EB81044FF061
:10097000FF31D4E9015704F0F2F9287870B97068B2
:100980003968421E0A4209D17968814206D3B068AB
:100990000840814202D10120287000E00024306824
:1009A00004F070FA2046F8BD805F0020DA570A0094
:1009B00030570A0070B586B0174990E81C001CC17A
:1009C00001AC204604F0E6F9144800F11C01143093
:1009D00001902046029103F055FE03AC204604F03E
:1009E000C8F90F4E00200F49012223468DF80C0054
:1009F000049006F10805284603F0A6FD356006F1CF
:100A00002C05094901222346284603F09DFD756007
:100A100001F03CFC06B070BD40140020D45D002005
:100A2000845D0020054B0A00154B0A00F8B5054609
:100A300004F0F2F80446A87A50B36F7A012603F066
:100A40001FFC697A48B1154A48B21130536806FA5A
:100A500000F08343C0435360106006FA01F310496D
:100A6000002206FA07F02A72AA72C5E90422AA61D6
:100A7000C5E9002291F8605091F862202B4381F87B
:100A8000603012B1013A81F86220C0B202F0CAFBB4
:100A90002046BDE8F84004F0A4B900BF08100440A7
:100AA000A8100020F8B51A4901220446087A0A72F3
:100AB00054F8485F02F070F9A54208BFF8BD154828
:100AC0004FF0FF31FEF7ACF92068134EA0421AD068
:100AD000076881680569026843681A6042680368AC
:100AE0005A602A686B681A606A682B685A600968DD
:100AF00011B1C06800B18847B06829461C2243681C
:100B000098473846E2E70348BDE8F84000F020BFC8
:100B1000105E002004140020205B002082B003F04F
:100B200075F902F0B1FE01F027F91748FFF7DAF97D
:100B3000164D286002F028FB02F0FEFE02F064FA77
:100B400002F058F810B1FF2002F038FD104E01AC51
:100B5000306800214FF0FF324FF0FF33FEF7D2F93B
:100B60008107019002D5FFF763FA0198C10704D00D
:100B70002968FF2002F0D4FA01984007E8D5204602
:100B8000FEF776FDE4E700BF254B0A006414002061
:100B90004C1400202DE9F04F87B0174800270DF1C5
:100BA00010096D4646681648834616488046164822
:100BB0008246F8B286421AD910494403CDE902A808
:100BC000CDE904B1D4E90001CDE900014846294648
:100BD00003F088FD20B102A8294603F083FD20B967
:100BE00044F012000078082802D30137E1E7FF271C
:100BF000F8B207B0BDE8F08F985F0020783252312C
:100C0000434331334E564D314F41442070B51A495C
:100C10001A4A044602F092FD0146E061012051B3F8
:100C2000002184F8200061626069B0F1FF3F1ADDA5
:100C300060690121124A01FA00F0A0616069157A29
:100C40001172116A01EBC000E0642020EFF31186FD
:100C500080F31188204603F0B1FD86F31188284601
:100C600002F09AF806E00648A16121462C30E064C3
:100C700003F094FC002070BD95400A00892A0A0008
:100C8000105E0020F8B5054616484BF2F521174EC8
:100C9000006800FB01F714483C0A006800F440209B
:100CA000B0F5802F10D11248006880030CD4F06892
:100CB0000068804701F062FF3168C9688847C0104A
:100CC000390B484304EBE0342DB90A48006820F0A2
:100CD0007F40204444083069416C2046BDE8F8401C
:100CE000084700BF08400C40B44F0050E00100101E
:100CF0008C13005010200940F8B5164F1648BD6CF3
:100D000003F0A8FE0446154801680668214011F06A
:100D1000200318BF002D0AD0284600223D6502F0AE
:100D20004DFF0F484FF48041283004F0ADF804EA3D
:100D3000060010F4602008BFF8BD0A4991F8612050
:100D400042EA504081F8610007480021BDE8F840C0
:100D500004F09AB82C5D002020000E000C10044016
:100D6000C85C0020A81000205012002000B170477D
:100D7000B0B51A4C606D58B340F2000CEFF311801F
:100D80008CF311882020EFF3118180F31188D4E9CE
:100D90001850616DB1FA81F1C1F11F0100EBC10181
:100DA000A94215D9086802680A6051600A688A4237
:100DB00004D1416A626D22EA0101616500F00CFB19
:100DC000616D29B1606EB1FA81F1C1F11F01E5E7F2
:100DD000002084F85000BDE8B0407047205B002040
:100DE0007CB504460698362903DB00220092174A98
:100DF0000CE01646124A1D46124BE181126E52F863
:100E000021209A4207D0002200920F4A0B4602F09E
:100E1000F3FA01207CBD084601F0AEFC2869696840
:100E20002073C4E90016287AA060297D11B140F032
:100E30000200A0602046FFF743FD00207CBD00BFFC
:100E4000F85B00205D3C0A0074520A0024540A003A
:100E5000F0B5836A5C1E144218BF1A460C4018BFD6
:100E60001C1B14EB010C01D30020F0BD571E00F138
:100E700020031C461B68002BF6D017EA030618BF98
:100E8000961B596806EB0C05A942F2D34A1BF018D1
:100E900056B1A9425E6012D0196840F80C1000EB00
:100EA0000C014A601960F0BDA94201D1196805E042
:100EB000196840F80C1000EB0C014A602160F0BD8D
:100EC00010B596B0184C2020EFF3118180F31188F3
:100ED000E06810B902F020FEFAE7E068216A134AE0
:100EE0000223B0FA80F0C0F11F00137501EBC002BD
:100EF000E26151F8300000212174A06140F2000C41
:100F0000EFF311808CF311882020EFF3118180F32F
:100F1000118803F051FDA16968461C301C3102F0B4
:100F2000EDFE16B010BD00BF105E0020F85B002083
:100F30002DE9F041B3F1FF3F03DC5B42B1F1FF3F2C
:100F400024DD4FF0000C4FF0010EDFF85080471EFB
:100F50000026B1FBF3F505FB131418F80440BC554B
:100F6000013E8B422946F4D9304471423023013886
:100F7000914203DA00F801390131F9E7BEF1000FBF
:100F80000CBF80F800C00130BDE8F081013A494251
:100F90004FF02D0C4FF0000ED7E700BFC8570A00E6
:100FA000F0B540F6FF7C10F8013B0024082CFAD085
:100FB0000646DF0716F8015B0DD1467806F00F07ED
:100FC0000337122F0DD190F90220D7B2B2F1FF3FB3
:100FD00009DD03300DE001F8015B304601345B08A8
:100FE000E4E7023006E0C27807F07F07043047EA02
:100FF000C2171237320942EA0515654508BFF0BD30
:10100000ED43002FEAD04A5D013F0A700131F8E755
:1010100070B50024844621F0004E4042C7F6F074BB
:1010200074EB0E004FF0FF3028D323F000455642FA
:10103000AC4138BF70BD42EA0C0045EA0E063043B1
:101040000CD013EA01000BD4BCEB020071EB0300DF
:10105000BCBF4FF0FF3070BD0AE000BF002070BD84
:10106000B2EB0C0073EB0100BCBF4FF0FF3070BD62
:101070008CEA02005940084318BF012070BD704738
:1010800070B50024844621F0004E4042C7F6F0744B
:1010900074EB0E004FF0010028D323F000455642B8
:1010A000AC4138BF70BD42EA0C0045EA0E06304341
:1010B0000CD013EA01000BD4BCEB020071EB03006F
:1010C000BCBF4FF0FF3070BD0AE000BF002070BD14
:1010D000B2EB0C0073EB0100BCBF4FF0FF3070BDF2
:1010E0008CEA02005940084318BF012070BD7047C8
:1010F00070B5054603F090FD174E044696F824009F
:10110000A84386F82400306820B1B83003F09EFE72
:10111000054600E00025706818B1B83003F096FE6F
:10112000054396F8240030B92DB9306A18B190F80B
:101130002810890704D42046BDE8704003F051BE52
:10114000456A204603F04DFE306A02210022002449
:10115000A847346270BD00BFC85C002070B588B07D
:101160006D4604461D21EE1C304603F01FFE3A205A
:101170008DF8020047F27360ADF80000304603F0CE
:1011800057FD0F48007B00F00F0101F141020A29D1
:1011900038BF01F1300241218DF80C20020901EB2A
:1011A0001011A028074838BF02F130018DF80B104C
:1011B000CDF807002046294601F066FB08B070BD57
:1011C00000C009002062763AB0B5174C606821680B
:1011D00001EA000521EA0002680622601DD51348D5
:1011E000006800F44000B0F5000F03D1104800681B
:1011F00001F0E4FF042003F027FD811E022905D23F
:1012000001F092FE022001F0F3FF03E0012808BF85
:1012100001F08AFE202002F031FA280648BF00F0D3
:1012200059FFA560B0BD00BF90220840B44F0050E8
:10123000D85F00202DE9F0414FF02008EFF3118135
:1012400088F311880122144F11490D7A0A7211494D
:1012500091F8506081F850200021104A3C7D39758A
:10126000396D1268D2B251F82210886040F2000C39
:10127000EFF311808CF31188D1E900018847EFF377
:10128000118088F311883C7546EA0520BDE8F0819D
:10129000105E0020205B0020F85B002004ED00E0E1
:1012A00089B36FF0C0020B0E02EA8112202B05D029
:1012B000212B05D0A02B05D1302118E0102116E0FC
:1012C000202114E0B1F1807F01D240210FE0102BEA
:1012D00005D0112B05D0402B05D1702107E05021FE
:1012E00005E0602103E09021502B08BF80211143CD
:1012F00041F00F0104C8531C18BF8A42FAD14FF0C5
:10130000FF3140F8041C704770B50468616F59B331
:10131000D4F8582145685668E96B28683268D1626C
:10132000012103F057FAD4F85801E96B0F4A4068DD
:101330000068C0F8041591FAA1F112683068B1FA9A
:1013400081F192699047616F091AE07C20B104F144
:101350004C0001F005FE05E0206FA26F401A2067E7
:101360005018A0670020606770BD00BFD401001056
:10137000F8B52022EFF3118482F3118882681143BB
:101380008160014651F80C2F8A4220D01149012773
:101390000D7A0F72C668D6E9061203F0E3F87061A1
:1013A00070B13168F06872681160377471683268C2
:1013B000516008B100210175B068214602F002F8C1
:1013C00084F311882846BDE8F84001F0E5BC84F3B9
:1013D0001188F8BD105E00202DE9F047164C002161
:1013E00000F12C03154D4FF0010A80F8281084F805
:1013F00050100ECBD4E91689276E2E7DC4E9170351
:10140000A26585F814A0016340F2000CEFF311818E
:101410008CF31188D0E90532C16910469847202025
:10142000EFF3118180F311882E7584F850A0C4E980
:1014300016892766BDE8F087205B0020F85B002056
:101440001548164AD0F8841000681140144A914299
:1014500014D1C0F34061C0F3C052C0F303300F2871
:101460000FD008280AD100294FF0FF304FF0FF338A
:1014700008BF1720002A08BF184600E0FF2040B22E
:10148000704722B91C20002908BF1B20F7E71A204B
:10149000002908BF1920F2E79412005000F0FF0F56
:1014A0000070B70BB0B5134D0124E86B0168012043
:1014B000884701281BD028683C21012200230024F2
:1014C000C5680D48A84790B101F012FD0B480C49C2
:1014D0000068D1E900238860C01A0A4BA2EB92028F
:1014E0005843B2EB104F98BF020C01240A6020460B
:1014F000B0BD00BFA401001000A00C403020094086
:10150000505F002040420F00B0B51448144D807B5E
:1015100095F83911084306D003F07EFB95F83B118E
:1015200021B103F05EFC00242046B0BD012485F803
:101530003B4103F056FC022002F058F80D20FEF764
:101540001FFB084801680029EED1074940220A60C4
:101550004A60002185F83A11C461E4E78C570A001B
:101560003058002004800C4038500C40F0B5DDF8B5
:1015700014C02CF0030404F10C0505FB03F49442A1
:1015800001D9012220E00CF003024FF0000E0F46BB
:101590000E460024ACEB02020C327BB1BE1887F879
:1015A00004E0A7F806C0013B3E607E7906F0F00635
:1015B0007E7104FB05162F440134EEE70022016022
:1015C00031604260014801601046F0BD681400209F
:1015D00079B36FF0C0020B0E02EA8112202B05D006
:1015E000212B05D0A02B05D1302118E0102116E0C9
:1015F000202114E0B1F1807F01D240210FE0102BB7
:1016000005D0112B05D0402B05D1702107E05021CA
:1016100005E0602103E09021502B08BF8021114399
:1016200041F00F0104C8531C18BF8A42FAD140F898
:10163000041C70471CB51548017E022904D11920ED
:10164000BDE81C4003F0F6B9017E01291DD0007EE3
:1016500004281AD003F0E0FA044601A8FEF78CFD36
:1016600028B101990A4831B103F030F80AE008487E
:1016700003F0A8FB06E003F0A5FB06480421283090
:1016800003F002FC204603F0ACFB1CBD905B002085
:101690000C120020C85C0020B0B54FF0FF3003F002
:1016A000D1F9104D04461049E86988420DD10F4820
:1016B0000F49002203F0C7F80220287601F0AEFFA0
:1016C00018B9FEF7DBFEFBF749FB0A48044208BFE6
:1016D000B0BD09484FF000512830BDE8B04003F0DC
:1016E000D3BB00BF905B0020E9C009002C5D002047
:1016F00049EA090002000040C85C00202DE9FF41D2
:10170000144DD5E900673879FEF73AFA03F084FA08
:1017100004463078B0B90DF10408404603F082F970
:10172000B87979790C4A434601950290301D01F051
:1017300007FA38684FF0FF31C16208498160012122
:1017400031704160204603F04CFB024804B0BDE814
:10175000F08100BF84580A00694D0A00001800207B
:10176000B0B58AB010484179D9B901250F49242272
:10177000457101AC204603F08DFB4FF400708DF8ED
:1017800024500D4D0D49224600230690084805902F
:101790000020049007480190284602F0C3FA084848
:1017A00045630AB0B0BD00BF205B002034560A007C
:1017B000D8080020DB560A00701100203D4E0A00B8
:1017C000105E002021F003010844009940F8083C15
:1017D00040F80C2C40F8041C029940F8101C0199A8
:1017E00040F8141C0F4940F8181C4FF0FF3140F826
:1017F0001C1C40E9091140E90B1140E9131140E9B3
:10180000111140E90F1140E90D1140F8781DC0E9B0
:101810000911C0E90111C0E90311C0E90511C0E9CE
:1018200007117047A5470A002DE9F041D0F8A850EC
:101830001F4616468846044625B120464146324694
:101840003B46A847D4E928010F40064056EA070066
:1018500008BFBDE8F08120464146802200F0E2FE4C
:10186000C4E92C6740B1D4F8A8108160D0E908120F
:10187000B143BA43C0E908120020C4F8A80004F13B
:101880005000BDE8F04103F0FDBA704710B5FFF716
:10189000F7FB002801D0002010BD012010BD00BFC3
:1018A00010B5FFF7EDFB002801DB002010BD012083
:1018B00010BD00BF10B5FFF7E3FB002801DD0020DD
:1018C00010BD012010BD00BF10B5FFF7A1FB00281F
:1018D00001DA002010BD012010BD00BF10B5FFF7D8
:1018E00097FB002801DC002010BD012010BD7047CF
:1018F0002DE9F047054615488A464FF0FF394FF06D
:10190000000804686768BC421DD026462468307D04
:101910000028F8D06DB1F06850450AD1306918B18F
:1019200030625044F06001E086F81480D6E9061079
:101930008847307D0028E6D0F068A0EB0A004845D3
:1019400038BF8146DFE74846BDE8F087605C00208D
:10195000B0B5164A0121147A11722022EFF31185D5
:1019600082F31188024652F8143F93420FD0106858
:101970000368136001745A60C16809B100220A75D6
:101980008068294601F01EFD85F3118808E0017C7E
:10199000C90706BF418A01310121418285F31188BF
:1019A0002046BDE8B04001F0F7B900BF105E00204E
:1019B00070B5144E2021306EEFF3118581F311883C
:1019C000716D726EB1FA81F1C1F11F0102EBC101BB
:1019D000814210D90C480121047A01720B4802F0AF
:1019E000DEFC002086F85000204685F31188BDE813
:1019F000704001F0D1B9002086F8500085F31188BD
:101A000070BD00BF205B0020105E0020B91E0A00E0
:101A10000F280ED840F20252DFE800F01410121026
:101A2000080D081010100D100810100D4FF20112C3
:101A300008E01E2802D141F2011203E0002201E079
:101A40004FF4817231B1FF2907D14FF203101040DA
:101A5000C03008E042F0300005E0C8070CBF42F09B
:101A6000200042F01000000400F20370704770473D
:101A700010B588B002F0C6FEFCF766FF02AC204647
:101A800002F054FE012001210190204603F030F9BC
:101A900000B1FEE702AC01A9204602F083FF204618
:101AA0004FF4036103F0B8F900B1FEE7064A07A856
:101AB00002A90023FDF702FB00B1FEE703F0A6F840
:101AC000002008B010BD00BF1D0B0A00B0B5144DBA
