:020000040005F5
:20600000008000202968050059680500556805005768050057680500576805000000000076
:20602000000000000000000000000000576805005768050000000000576805005768050050
:206040005768050057680500576805000000000057680500576805005768050057680500E4
:206060000000000057680500576805005768050057680500576805005768050057680500C4
:206080005768050057680500576805005768050057680500576805005768050057680500E0
:2060A0005768050057680500576805005768050057680500576805005768050057680500C0
:1860C000576805005768050057680500000000000000000057680500B8
:2060D8002DE9F04F8BB08246581C022803D200200BB0BDE8F08F14981D4616460C46B3F579
:2060F800801F01D90028F2D1B5F5B02F01D90028EDD038B14E4A504600214FF4807300F07E
:20611800F3FA06E00AFB046149484FF4807200F05CFB681E01234FF0FF38B0FBF4F101FB71
:206138001400013082B2C5B2100A002D18BF03EB1220029001EB0A0006F580713C4E08BF54
:206158004FF4807503940191C0B25146069508900898CDB2854268D8029A4FF0FF3018BF83
:20617800220A079150FA82F009920A90019805FB040000240590481C049009985FFA84FB8B
:20619800C0B283454ED20898A9465746854206984FF4807508BF05460A9858454FF4807040
:2061B80018BF0546079880EA0A004FF0000A2043000608BF4FF00C0A1FFA8AF085420AD987
:2061D800305C80EA0800C0B200F0C6FA80EA18280AF1010AF0E7149858B10A98584513D128
:2061F8000498002132464FF48073C0B200F07CFA07E005984FF4807200EB0B21304600F00E
:20621800E4FABA464D460BE04FF4807032464FF480734D4600EB0B21484600F065FABA46A2
:206238000134AAE7DDE9034192E76FEA08004FE7000300202DE9F0470C4631498046344FE1
:20625800154608688946800744BF2E48C86000212D4801602D4882460068386881692720F7
:2062780088472C4E2C49306B08403063B06F20F48070B0673868016B4FF4806088473868FA
:20629800016B4FF4816088473868016B4FF4C0608847224801210160C6F880413160D9F87B
:2062B8000000800705D4681C08BF4FF04045C9F80C50DAF80000F0698007FCD5072000F0A0
:2062D80061F90228FAD1B8F1000F13D1144C386A8168204688470428F9D0012804D1386A06
:2062F8000321426820469047D6F8180220F00300C6F818023868806BBDE8F047004700BF3B
:2063180010000940FD0000400C4009402C200940B80100100C200840FFFFFEFE28200860BE
:20633800004003402DE9F04104462E482E4B4168890705D40168F02242EA114183F84D105F
:206358002A4F98462A492B4A3B68002B0ED4D7F8EC5085F0C00581F831500C2505EAD363A1
:20637800C03313704FF40033C1F884304FF00123214EC2F8C2310988316809688568284637
:206398008847A80108D4E80106D598F80000414640F0020088F800003068294642682046ED
:2063B8009047D7F80001154AC0F305311170C1054FF0130158BF2321402308F801303821F4
:2063D80001EA901000F56050A2F85C003068816828468847022000F033F9094801210160AF
:2063F800BDE8F081AC4F0050096208400C13005000A00C4042A20C40F00100100EB00C40DB
:206418009404604270B52548066800F0B5F924480025244C0560206C806C80472248006815
:2064380038B122480068B6F1FF3018BF3046FFF779FF1F4840F2391205601E48016862F38B
:206458001B4101601C48016801F44051B1F5805F06D10168194A114001F5003202600160B0
:20647800174D0126EE612068016A142088471548016841F4E021016013482E60006800F492
:206498004000B0F5000F03D1206C416C0F4888470F4801680029FCD170BD00BF1C1300509C
:2064B80084046042B001001080012843800520438C2108404820034028000940EFFFFCFC0E
:2064D8000000244300200940B44F0050BD3786000C00684270B590B002AE0D46002108239D
:2064F8000446324600F000F9304600F011F910B302AA204600212C2300F0F6F89DF81A0097
:20651800A84218D1079800F06AF9A0B19DF81400032810D19DF8150001280CD19DF819003A
:20653800FC2808D09DF81A10072908BFFF2804D0099800F072F910B070BDFE20089B0022CA
:206558008DF807000E480168002000902046FFF7B7FD0499884207D10DF10702204611213A
:20657800012300F04FF8E3E7FC200DF10702112101238DF80700204600F044F8DBE700BFC6
:20659800000400200F49C3070A68496D01D1002106E001F0040102F00103C91818BF0121D6
:2065B800830744BF02F0020341EA5301400744BF02F0040041EA90010220002918BF012081
:2065D800704700BF4021084010B50C484FF47051006801EA80200A49086000200721FFF77B
:2065F80079FF0124E0B22B2804D80021FFF772FF0134F7E700F0DEF8002010BD3024034040
:2066180000040020F8B51C46154601EB403600F033F8074628463146224600F0BDF80446CE
:206638002FB1054801210068426804489047002C18BFFF242046F8BDD80100100040034011
:20665800B0B50A490A4A0B4B0C684D68AC42FCD1844208BFB0BD155C145DAC424FF0FF359F
:2066780038BF01252C441C5D0C60EDE700600C40626805006668050070B50B4E0B4C306801
:20669800816820468847054600060AD030680021426820469047306881682046884700281B
:2066B800F9D1E8B270BD00BFD80100100040034070B50948094C84420BD0094D094EB542F6
:2066D80007D0F5E8020110F8012B54F822209047F5E700BF00BF70BD786805007468050005
:2066F800786805008068050070B51C46154601EB403600F086F8210405D016F8011B013C9D
:2067180005F8011BF7E708B900F090F8002070BDB0B5074907231A465BB2002B05D4D3B20F
:20673800CC5CC55C531EA542F5D0D0B2C009B0BD5A680500074880F3088800BF00BF00F09C
:2067580079F808B1FFF7B4FF0020FFF73DFF012000F072F80080002010B5064A08210B0692
:2067780008BF10BD82EA5003C40708BF430801391846F4E72083B8ED0448054900680840CC
:206798000449884208BF7047FEE700BF1813005000F0FF0F00A0B70B80B5044B1B689B69C2
:2067B8009847034900220A6080BD00BFA80100108404604280B500F035F8002000214FF059
:2067D800FF32BDE88040FFF735BD10B530B1431E01391AB18C5C9C54013AFAE710BD002135
:2067F80018B1421E01311040FAE7012088437047D0F80300002218B101F8012B0138FAE75D
:20681800704780B500F00EF8002818BF012080BDFFF7F8FDFFF78EBFFEE7016881F30888A1
:2068380041688F46EFF3108072B67047EFF3108062B670470120704700BFFEE7FEE7FEE7EA
:02685800FEE759
:10685A00434331337832523101020003020001030B
:14686C000000000004010000096805006C68050000030020A1
:207FA80000008001100080FFFDFF5800FFC1B9F3FFFFFFFFFFFFFFFFFFFFFFFFFFFFFFFFF9
:207FC800FFFFFFFFFFFFFFFFFFFFFFFFFFFFFFFFFFFFFF00FFFFFFFF00FFFFFF00C5C5FF2A
:187FE800000000FF00600500FFFFFFFFFFFFFFFFFFFFFFFFFFFFFFFF2D
:00000001FF
