:020000040004F6
:1040000043433133783252313B3003F00301BFFF79
:10401000FFFF0000FFFFFFFF2CA70000A8400400E7
:10402000303030312BE704002C00FFFF03BFFFFFCF
:1040300055000000014BFE0667B0177D511DEC10C6
:104040008B91C707186FFCBC7169CF023C48E1EA4D
:1040500044D8D1A51A7963DC85C2EDCADD821EF48D
:104060007F1F9061D1C709264986E31B3EECA4045B
:1040700096329512C7512DCCC810288C14C381D408
:10408000DF01BFFFFFABA6000000400400FFFFFF01
:104090000000000000000000FFFFFFFFFFFFFFFF28
:1040A000FFFFFFFFFFFFFFFF003A0120A1BE04005A
:1040B00041C7040041C7040041C7040041C70400D0
:1040C00041C7040041C7040041C7040041C70400C0
:1040D00041C7040041C7040041C7040041C70400B0
:1040E00001640400FFFFFFFF2DE9F84305460C467D
:1040F000480413D4A00024D4A0075CD460057ED467
:10410000200500F10681200700F13B81600040F1AD
:10411000F68005F011FE24F08044F0E009F026FB63
:10412000DFF81C140F6D3FB1D7E90A1202F0E0422C
:1041300001F00A01891849D009F0FDFB24F48044FC
:10414000DDE0BB48DFF8FC73016841F080010160ED
:10415000B878012804D1042007F036FD0020B8709B
:1041600009F004FB0646042009F018FBDFF8D81319
:104170000A68904219D12A7EBAB1FA68AAB1DFF86A
:10418000C003806C002800F09780C16840F60302ED
:104190000988914206D0C06840F604010088884230
:1041A00040F08A8005F1140088E040F6C4120860EF
:1041B000C5E9042284E001F01BFDDFF88403006CF4
:1041C000002840F09D8024F0020498E0D7E90A65B9
:1041D000D7E90A12AA43B143C7E90A1209F0ABFBB7
:1041E000B8680028AAD056EA0500A7D0D7F808C0BA
:1041F0003869B7F9301032462B46E0479EE709F0A0
:10420000B5FA054608F04CFC002800F0B780CC4811
:10421000876B002F00F0B280DFF828830420CB49A1
:10422000002288F81800C64809F09CF809F09BFBAA
:10423000C74809F071FBC7480068006B8047C8F8A1
:1042400010000125042088F8025007F0D5FE3869D7
:1042500090F82810C8F80400490703D5436A0421E0
:1042600000229847012006F00FF8D8F804004576A0
:1042700004F064F8D8F8040081680B461A465B68BD
:104280004BB11E88A6F60306072EF7D805FA06F6E8
:1042900016F0830FF2D0537B03F0F0030133537316
:1042A0000023FD6853602D88A5F60305012D00F25B
:1042B0008A80C8F810309FE005F1100006F040FE3B
:1042C000304609F038FB07F0AFFE78B12E6A284679
:1042D0006FF4807100224FF00073B0479848806BF4
:1042E00010B105F029FD01E044F00204EE69284612
:1042F000002100224FF08063B04724F0005434B115
:10430000974821462830BDE8F84309F06ABBBDE86C
:10431000F8838C4EB078012804D1042007F054FCB7
:104320000020B07007F080FE38B170686FF48071C3
:1043300000224FF00073056AA847306950B18548E4
:104340000068006B804732697168801A000BC86092
:10435000002030617A4D81490022284609F002F898
:1043600002203076286C20B17D480221283009F0E7
:1043700038FB05F0E1FC24F40064C0E709F0F3FA2F
:1043800041E009F0F3F9054608F08AFBA0B1DFF837
:10439000B48198F8000000070ED498F900000028B6
:1043A0000AD4684604F0C0F808B1009820B1DFF8DC
:1043B000B49199F8610048B309F0D5FA05F0BCFC56
:1043C00024F008049BE7034633F8385FA5B190F862
:1043D000445090F8456005F0F00580F8445006F030
:1043E000F005013580F8455000255360C5634587C9
:1043F000507B00F0F000507357480022C26101600A
:10440000012008F08FFC24F4806478E7002601275F
:10441000602E0FD009EB0600817A31B18772407AA5
:1044200007FA00F0C0B207F0E9FB2036F0E700BF62
:10443000CC210840032088F81800454809F06CFAA0
:1044400009F091FA444F3E4D0022786900207861CE
:10445000F968F8602846444908F084FF3D48006840
:10446000006B8047D8F80C10D8F82020411A02EBD6
:104470001130B0EB113F38BF4FF0FF3098F82410E7
:10448000C8F8200021B1D8F80810B0EBC12F20D90E
:1044900008F058FCB8B140F60900414621F83C0F3D
:1044A000002048804A7B02F0F00201324A730A7B06
:1044B00002F0F0020A734860F8613960B8F83E0013
:1044C00010F4406FFAD00020C8F82000012088F8CE
:1044D000240006F093FA2548002101600220002103
:1044E00008F020FC022007F06FFB102003F0D2FD43
:1044F00098F8010020B9D8F80400503009F06FFA9C
:104500001B48807810B90D2003F0C4FD98F82500F1
:1045100028B1002088F82500052007F055FB002071
:1045200088F818001348C8F81C000220B5F8561087
:10453000B5F85420914208BF072005F08DF93DE7FA
:10454000345D0020945B0020146000207DCA0400CC
:10455000D01100208C01001000100440A96C040050
:10456000D05C0020B01000209D9D0400000004607D
:10457000B4E404009D6904002DE9F04F8FB00746B4
:1045800018984FF0000E002A01938DF8200000F0DB
:1045900093810AA80E464FF0200A002400F1100C67
:1045A000CDF800C0114611F8010B25280E910CD052
:1045B000002800F07D81022EC0F01581013E002F01
:1045C00000F0108107F8010B0DE15378901C0E905C
:1045D0002D2B07D14FF00109D01C93788DF80D9049
:1045E0000E9003E04FF000098DF80D90302B05D1AF
:1045F0000121069110F8011B0E9002E01946CDF83A
:1046000018E04FF0FF322A29CDF808E0049214D1C7
:10461000019D29680A1D2A60D1F80080CDF8088024
:10462000B8F1FF3F10F8011B0E9018DC4FF00109A4
:10463000C8F100088DF80D900FE04FF00008A1F1CF
:104640003002092A08D808EB880201EB4201A1F1E7
:10465000300810F8011BF2E70E90CDF808802E29E3
:1046600014D1CDF810E0024612F8011B2A290E924F
:104670000FD1019D29680A1D2A60096821EAE17BA2
:10468000CDF810B0417802300E9015E04FF0FF3BAE
:1046900012E04FF0000BA1F13000092808D80BEB15
:1046A0008B0001EB400012F8011BA0F1300BF2E788
:1046B00010460E92CDF810B0302B41F0200306BF0B
:1046C000CDF81880424600226C2B06D101218DF8CE
:1046D0000C1010F8011B0E9001E08DF80CE0CDF8E5
:1046E0001CC00AAB6929CDF814E0099301D06429F4
:1046F00016D1019B1868011D196093456FF00903DD
:10470000C8BF5A4601686046069204F059FFDDF8BA
:1047100000C04FF0000E0990ACEB0001059128E0BD
:1047200075290AD0A1F16F03092B5FD8DFE803F0E8
:10473000058C6A6AA26A6A6A6A05019D2868031D77
:104740002B6078294FF0080308BF1023752908BF94
:104750000A239345C8BF5A4601686046069204F092
:104760002FFFDDF800C0ACEB0001099005914FF080
:10477000000EA8EB0100B9F1000F02901CD109E076
:10478000022E06D3013E1FB107F801AB029800E0EC
:104790000027013401380290F2DA0DE00998022E68
:1047A00007D3013E27B1007807F8010B099800E014
:1047B00000270130013409900598411E0028059119
:1047C000ECD19DF80D0078B10298013802900BDB16
:1047D000022E05D3013E17B107F801AB00E0002718
:1047E0000134F1E7002701340E9ADBE6632909D191
:1047F000019A1068011D11600121006805918DF872
:104800002800B4E70138022E0E904FD36FF000401D
:104810000BF1010186426FF0004038BF3046B345CE
:10482000024638BF0A46002908BF024604920EA974
:10483000019A02AB01F084FADDF800C09DF80D90FA
:10484000DDF80880059992E7019A10231068011D90
:1048500011600821082206919DF8201000290168A6
:10486000604604F0ADFE4FF04001DDF800C000F8F6
:10487000011D78E7019A1068011D11609DF8201054
:10488000006800290E49002808BF0846099008F072
:104890003EFF834501464FF0000E38BF59461BF1DD
:1048A000010208BF0146DDF800C037E700215EE7DE
:1048B0000FB100203870A64670460FB0BDE8F08FEB
:1048C00001E104002DE9F04F8DB0044600209A4626
:1048D00016460F46CDE90B00CDE909008A488568E8
:1048E000804604F08BFA1C2803D004F087FA1B28BA
:1048F0001BD1308840F60201884218BFB0F5C15F75
:1049000003D1F07B022810D93EE043F6070188422C
:104910000BD196F82400032807D330697B4940F077
:10492000806020F0604088422ED100206FB366B3D3
:10493000387825FA00F0C00726D03046002109F06B
:104940003CF87348C4E90176006880B109A800907A
:104950000CA90BAA0AAB304601F0FEFD0B980B2107
:104960004FF6FF72502308F06DF9FF280CD008F0C5
:10497000FDFE684F06467878012802D840B1012034
:1049800070E0304608F0D7FF00200DB0BDE8F08F92
:1049900001F056FD60480DF10409016841F0020183
:1049A00001605E48C8F80000484608F045FEDFF8A0
:1049B00070B15D494A469BF801009BF80050039096
:1049C0005848283007F07CF8584859494A4607F0BB
:1049D00077F8484608F0D0FDDFF85881564A19218B
:1049E0004B460295404606F07BFD544A08F11C00F8
:1049F0001A214B4606F074FD5148524908F078FFE1
:104A00005148524908F074FF5148006810F4402F93
:104A100006D0504A07F128000421002308F00AF8C4
:104A20009BF8020010B10D2003F02CFA08F14000B1
:104A300008F0A3FC08F1380008F09FFC464900206C
:104A400007223876B8843862386181F86020052101
:104A5000C7E902104149F96138700420002108F0CB
:104A600061F978782F4941F820400130787030465C
:104A700008F061FFBAF1000F02D0DAF8000008E098
:104A80000DF1040A36492022504608F0B1FF4FF0DC
:104A9000FF30DAF80420BAF81010DAE90635002AF7
:104AA000B2FA82F608BF40F6C412206001207609EF
:104AB0006183256360762B4826764FF4FA7662612F
:104AC000C4E90362C4E90700C4E90903DAF80C0089
:104AD00000B12062DAF8140000B16062DAF8080070
:104AE00000B1E06104F13800C82108F009FF04F1C9
:104AF0005000002108F036F91B4904F1B80008F015
:104B0000F7FE204641E700BFCC2108400F0000051A
:104B1000E05F0020945B002000200940110000E0CD
:104B2000B4E40400D05C002085CF040058120020BB
:104B3000417A0400345D00209D9D0400A992040088
:104B40001412002059CA0400D011002031CF0400F3
:104B5000B44F005079A50400B01000209D690400F6
:104B600018E304008F9F04006DD904002DE9F04F75
:104B7000A3B00C469049002A00F0A8801F461546B5
:104B8000002213AB032A06D050F822600E4443F8EB
:104B900022600132F6E7894E16AA284639460A23D2
:104BA000B047D4E900A0B346394600230A90A06874
:104BB0000C90E0680E902069109060691290219826
:104BC00011901F980F9020980D901E980B901D9893
:104BD00007901B9806901C9805901A9804901698B8
:104BE000029017980390189800901998019016AEAB
:104BF00028463246D8470DF14C08DFF8C4913146BB
:104C00004046C847CDE908102046394632460023C1
:104C1000D84740463146C84707462046674C8B4632
:104C2000294632460023B146A047029800990A9BC4
:104C3000401AA0FB0A1200FB0320039A019B9A4131
:104C40000C9D0E9E02FB0A00DDE90432D21AA2FB83
:104C5000053402FB0642DDE90664B44104FB05228B
:104C6000C91850410D9A0B9B109D129E9A1AA2FBD7
:104C7000053402FB0642119C0F9E66EB0404C91822
:104C800004FB05225041090D41EA0038051538465C
:104C9000594642462B4608F0E1FB404242462B462D
:104CA00011904FF0000088410F90DDE9081008F0E6
:104CB000D5FB434A0E91109013A8494690474246AF
:104CC0002B4608F0CBFBCDE90C1014E00068D4E9CA
:104CD00000230844C117890741EA9001800708F0C2
:104CE000BDFB109000200E91119000200F9000202D
:104CF0000D9000200C904FF0000A0C204FF0000B9C
:104D0000BAF1200F54D0DDF8B080109D0E9F1290A4
:104D100008EB0A04D4E90412D4E90C96A1FB0503BC
:104D200001FB073102FB051118F80B20143A08F0BB
:104D300099F8119A0F9B05460F46A9FB020109FB42
:104D4000031106FB021108EB0B02137992F808908D
:104D5000A3F1140208F086F82D184F41D4E914127B
:104D60000D9C0C9EA1FB040301FB063102FB041108
:104D7000A9F1140208F076F82A1847EB0100BAF1FD
:104D8000180F08D1910B41EA80400F4908440D49A2
:104D90000860129806E0910A0A4A41EA8050129986
:104DA0005050084604380AF1080A0BF1010BA7E736
:104DB00023B0BDE8F08F00BF6079FEFF919304003F
:104DC0007F970400A85F00200000A0862DE9FC4723
:104DD000D0E900588246D8F80000D0F8409019F485
:104DE000F06FC0F8449035D05FEA495117D5D5E946
:104DF0001401411A504607F0FFFAD8F80000816903
:104E0000C90605D401688DF807109DF80710F6E76C
:104E1000296801312960A97B09B90121A973696C4D
:104E200040684FF0004600F00F0404EA0100B0FAB9
:104E300080F126FA01F1014005D02F6C1FB12A68DC
:104E4000AB6C5046B847B4FA84F026FA00F0204024
:104E50004042A863D5F85801D8F83C1009F0400743
:104E600040680068D0F804251140394347D0DAE99A
:104E70000064504604F0FCFDD7B1F07C90B90BE023
:104E8000316F69B10068B16EB26F8854306FB16F25
:104E900001310138B167306720688169C906EFD5F3
:104EA000F07C28B1D6E91401411A504607F0A4FA63
:104EB00096F86400E0B13079022819D017B1B179C1
:104EC000012901D0316F99B90024B16E01283467EE
:104ED00086F86440B46607D1B36CB26FD6F8CC6084
:104EE00050460094B04703E006F17C0008F077FDDF
:104EF000504601F0D5FFD5F858014068006800F22F
:104F000004500068D8F83810084228D0D5F8F800C6
:104F100028B3DAE90076504603F034FE504602F03A
:104F20002FFD7879012812D1D7F8F40078B997F8D5
:104F3000E80060B1002087F8E800BB6CD7F8EC10FF
:104F4000D7F8FC20D7F8504100905046A047D7F83A
:104F5000F80020B93068816B41F4006181635FEA39
:104F6000095023D5D8F8000081690907FCD4016BEA
:104F700021F480710163297A91B10020287295F89B
:104F80004400800606D52C6C24B1AB6C5046202121
:104F90000022A0475046012107F0DEFAD8F80000B1
:104FA000816B21F400618163687908B1BDE8FC87F9
:104FB00005F58070BDE8FC4708F011BD2DE9FF4103
:104FC000DFF8BC81002003900290D8F83840B4B3D9
:104FD000D8F84C0010B9D8F8480070B3D8F8480099
:104FE00060B12069D8F848100969814206D194F867
:104FF0003300C00602D5D8F84C0090B1002702A8B3
:1050000087F0010103AA03F035FD0546FFB9F5B1AC
:105010000299002900F09D805A4808F0F1F8002715
:1050200014E0D8F84800C06840880028F9D0D8F8C3
:105030004800C06840880128F3D00127DFE75248C4
:105040000221283008F0CDFC0027002500242CB3D5
:105050004E48466816B30298B0FA80F040092840DE
:1050600001281BD1D8F84800D8F84C10039A87F0D3
:105070000103CDE9003208F1380208F14003B047DE
:10508000012868D0022809D1D8F84800012201235C
:105090000069D8F84810B1F9301065E0002C2046BE
:1050A00018BF01203840012851D139482169406892
:1050B000814203D034484FF4806145E002980028D3
:1050C00018BF01202840012806D1D8F8480018B997
:1050D000D8F84C0000284DD0082007F045FF94F880
:1050E00033004C25C00608F1380058BF482507F0AA
:1050F00055FD48F80500274BD4E90601C2439A60E4
:10510000DA681043D860C8431860586808432146DD
:1051100058600820E56807F005FE284607F082FD84
:10512000288843F60601411A022906D3B0F5C15F6B
:1051300003D040F60201884203D10120294607F03E
:10514000F1FD11484FF08041283008F04AFCBDE8DD
:10515000FF8100277BE70398002818BF044601223F
:105160000023B4F9301020690092002200F08AFE7A
:10517000BDE8FF81082006F041FDBDE8FF8100BFCA
:10518000345D002014120020D05C0020E85F002075
:10519000945B0020081004402DE9FC4F83F000438D
:1051A00001E02DE9FC4F1F03FF0847EAD2574FEA01
:1051B00042284FEA43095FEA595906D147EA080AEB
:1051C0001CBF00210020BDE8FC8F57F000575FF4A2
:1051D000E06E1EF1FF0EF14505D14FF00000190DF4
:1051E0000905BDE8FC8F002B05D55FF0000AD8F15A
:1051F00000086AEB07070C03E40844EAD0544FEABE
:1052000040254FEA4106760D08D144EA050A19BF48
:105210000021002019461046BDE8FC8F44F00054E0
:10522000764504D10020090D0905BDE8FC8F002951
:1052300004D55FF0000A6D426AEB0404B6EB090E78
:1052400008D5A2463C465746AA464546D046CEF12A
:10525000000E4E46BEF1360F5CBF4FF0000B23E050
:10526000BEF1000F04BF4FF0000B1AE0CEF1390A77
:10527000BAF120092EBF08FA09FB07FA0AFB4BEA2C
:10528000080BDEF1200A07FA0AFA38BFBA4647FAD5
:105290000EF72DBF28FA0EF8AEF1200E4AFA0EF8DE
:1052A000D04415EB08057C4154EA050A02BF0021F1
:1052B0000020BDE8FC8F002C58BF4FF0000A06D537
:1052C0005FF0010A5FF0000E6D426EEB0404A6F180
:1052D00001066D006441FAD515F4806E11D005F415
:1052E00080794BEA090B15F5806554F1000428BF5D
:1052F000761C0BD205F400795BEA090B08BF25F494
:10530000006525F4E0656D0044EB0404B61CDEBFC7
:1053100000210020BDE8FC8F5FF4E06E1EF1FF0E5F
:1053200076450AD34FF0000013F00043FF21C90077
:10533000C91D09051943BDE8FC8F270547EA15304B
:10534000210B41EA065141EACA71BDE8FC8F704762
:10535000B0B560480021604C016094F83A01032820
:1053600012D002282ED0012840F0AF8094F84001DE
:1053700003F060FF002084F840015948817B02203F
:10538000002908BF06209EE054480168B1F5C060BE
:10539000C4F82C01B8BFC1F5C060D4F810110029C1
:1053A00000D5494288422ADDD4F8140107F0FAFA00
:1053B000D4F8180107F008FBD4F8280107F028FBFF
:1053C00001201DE04548056808F006F9C4F81401FD
:1053D00008F00AF9C4F8180108F00EF9B5F5C06133
:1053E000C4F82801C4F8101109D094F830215AB13A
:1053F000D4F81401D4F82021D4F82C110AE00020AC
:1054000084F8300106205EE0C4F82401D4E94502A6
:10541000C4F82C110223C4F81C01002901EB41013E
:1054200048BF6FF001031944042391FBF3F11144C9
:105430000029C4F820110FDD1F2931D3D4F824210D
:105440002AB33E28A8BF3E2001302929A8BF292120
:10545000C4F81C010B3909E0D4F82421032A09D12E
:1054600011F1140FD8BF6FF013011531C4F82011DA
:10547000002113E00128D8BF0120013811F10A0FE3
:10548000D8BF6FF00901C4F81C010B3103E03329C8
:10549000A8BF33211539C4F820110321C4F8241101
:1054A00007F080FA012007F0A1FAD4F8200107F0F4
:1054B0008BFAD4F8240107F0ABFAA5F2FF510420CF
:1054C000032938BF0620C4F83C01BDE8B04001F014
:1054D0005BB900BF3C500C403058002008400C40E5
:1054E00008E40400FEB504465A480078A04213D9E7
:1054F00008780D46012801D1686868B168780128EC
:1055000001D1A86840B1544F57F8346008F02EF923
:10551000F17921B108F00FFA00242046FEBD07EB17
:10552000C40401216768F17108F005FA002005F153
:10553000040C7074F081B06030602988B180A98B50
:10554000C6E93D00C6E90E0086F86400B186297DF3
:105550002B69B1719CE80610C6F85021BCF1000F10
:10556000C6E910C34FF0FF32C6F8CC10A969C6E9EE
:105570003B203163A97F86F83610296AC6E91A00F4
:10558000C6E91C00B16486F8E800C6F8580102D1EB
:105590003249C6E9101097F8400002F073FCD7E9D1
:1055A000031206F14C0008F03FF8D7E9051206F1A6
:1055B000D00008F039F82A4938680968C96888476E
:1055C0007A6C97F8240046F2020102F003FC254DA4
:1055D000BA6C97F82000294602F0FCFBF869012814
:1055E0000CD1FA6C97F82800294602F0F3FB3A6DCB
:1055F00097F82C0046F2020102F0ECFB04F000FCEC
:10560000C6F85801204601F04DFA174A06F5AE706B
:105610000421234607F00EFA6D46284607F0ACFF3A
:10562000387A7968114A2B460094019006F11400EB
:1056300005F056FF06F17C00002107F093FB06F50C
:105640008070002107F08EFB3868D7E90C121060DB
:10565000486062E7EFE40400F8E40400F39F04000C
:10566000D00100100260002049D40400CD4D040098
:105670002DE9F04F8BB08246581C022803D200203F
:105680000BB0BDE8F08F14981D4616460C46B3F5D6
:10569000801F01D90028F2D1B5F5B02F01D900281B
:1056A000EDD038B14E4A504600214FF4807306F0D9
:1056B0001BFD06E00AFB046149484FF4807207F0C5
:1056C0007DFE681E01234FF0FF38B0FBF4F101FBB3
:1056D0001400013082B2C5B2100A002D18BF03EBCE
:1056E0001220029001EB0A0006F580713C4E08BFC3
:1056F0004FF4807503940191C0B25146069508900D
:105700000898CDB2854268D8029A4FF0FF3018BF92
:10571000220A079150FA82F009920A90019805FB3B
:10572000040000240590481C049009985FFA84FB4B
:10573000C0B283454ED20898A9465746854206987E
:105740004FF4807508BF05460A9858454FF480709D
:1057500018BF0546079880EA0A004FF0000A204368
:10576000000608BF4FF00C0A1FFA8AF085420AD9DA
:10577000305C80EA0800C0B207F044FA80EA1828DA
:105780000AF1010AF0E7149858B10A98584513D164
:105790000498002132464FF48073C0B206F0A4FC96
:1057A00007E005984FF4807200EB0B21304607F0BC
:1057B00005FEBA464D460BE04FF4807032464FF47A
:1057C00080734D4600EB0B21484606F08DFCBA462F
:1057D0000134AAE7DDE9034192E76FEA08004FE7E9
:1057E000480D00202DE9F84FD0E9004B98461646A9
:1057F0008A46054613B10020C8F8000076B107F0CC
:10580000B5FF0746E07968B194F8E80088B13846FA
:1058100008F091F86FF00800BDE8F88F6FF009000C
:10582000BDE8F88F384608F086F86FF00E00BDE846
:10583000F88F0020012104F58079C4E93BA6C4F863
:10584000F460C4F8FC0084F8E810E0636073E07270
:105850004846002108F02DF8584607F0DBFF38468F
:1058600008F069F807F073FD08B9607968B307F0CC
:105870007DFF0646284602F083F8304608F05BF8C4
:10588000607960B90A99484608F013F808B1012018
:105890006073284603F076F9002084F8E800B8F138
:1058A000000F1CBFD4F8FC00C8F80000E07A28B153
:1058B0000020E0726FF00D00BDE8F88F607B0028DB
:1058C00018BF6FF00C00BDE8F88FD5E9007497F8A9
:1058D0004400C00615D5D7F840C0BB6C284610213F
:1058E0000022E0470DE0D7F8FC0031460AEB000249
:1058F000204606F0B7F9D7F8FC10361A0144C7F86D
:10590000FC10002EEFD1204607F09EFE0028FAD0B2
:10591000204607F079FF97F84400800605D53C6CD7
:10592000BB6C284620210022A0470020B8F1000FC0
:1059300087F8E800C7D0D7F8FC00C8F800000020BE
:10594000BDE8F88F2DE9F047012816D1DFF830A126
:10595000DAF83401012813D10220CAF8340106F024
:10596000F3FC0120012406F0A7FB60B1CAF8344122
:1059700007F0A8F94FF0FF347FE06FF001047CE0FE
:105980006FF0040479E09AF85A419AF859119AF89C
:105990005801002C18BF0124002918BF0234002828
:1059A00018BF0434012007F0F9FE013818BF0120A8
:1059B0009AF83811B1FA81F1490910EA010902D1C6
:1059C000002001F0E3FDDAF808002E4D10F0010888
:1059D00007D12D4F286A8168384688470428F9D0B6
:1059E0000646404607F060FFB8F1000F08D1012ECF
:1059F00004D1286A012142682348904707F0E4FD5A
:105A000028684169204688479AF8540118B14FF434
:105A1000806007F0C9FE9AF8530118B14FF4816015
:105A200007F0C2FE19480121016003200021CAF8D5
:105A3000340117480160204605F03EFA0128FAD1EA
:105A4000144E3068042006F037FB04461248012546
:105A5000B9F1000F0560306802D1012001F096FD18
:105A600007F03AFF082006F027FB0443CAF8345138
:105A700018BF4FF0FF3407F025F92046BDE8F08746
:105A800030580020B8010010004003402820086072
:105A90000C2008402C2009400C4009402DE9F04F13
:105AA00093B004464C4801904C4800904C481190EB
:105AB0004C488046109003F045FB4B49FF2818BF27
:105AC0004103257A087B854206D1487B617A814271
:105AD00002D10027002601E005260127684621465D
:105AE00007F09AFB20B110A8214607F095FB38B9C2
:105AF000207B06280DD80121814011F0610F08D0CC
:105B00000526962D03D0012138484170A6B100200A
:105B10005DE03F284FF0000188BF052688BF0121C6
:105B200039430129EDD0D4F80E203049962DC1E932
:105B30000320ECD0012048702C4A107880B3207BE1
:105B40004FF400314FF0FF340DF1400B0DF1380AE6
:105B5000E946012808BF4FF48031FF250226080BD3
:105B600091609080F7B2032F1ED81D4800215A463D
:105B70000823CDE90E80384606F0B6FA584651465D
:105B800007F04AFBA8B9384600214A46342306F0FC
:105B9000ABFA0C98A0423CBF354604460136E1E71B
:105BA00000209080906009E0E8B206F0A9F82E4647
:105BB00002E0384606F0A4F80C4AF0B2D1685080F2
:105BC000012288064FEA911018BF02EB911080B2B3
:105BD00013B0BDE8F08F00BF783252314343313308
:105BE0004E564D314F41442000400400285F0020B4
:105BF0002DE9F047DFF83491D9F840A0BAF1000F51
:105C000000F088800AF10C020820FF2151FA80F090
:105C1000C3B21B1A18BF012312686AB163B113889B
:105C2000A3F60303012B01D90432EFE7DAF81000E1
:105C300092E8FA003830FAC0DAF808200025DAE9EC
:105C40000A10CAE90A55B2B110F0E2440CD021F0B2
:105C50000F0220F0E2434FF0000852EA030005D0A3
:105C600007F047FDB04701E08846044607F041FDD4
:105C700042462346B04707F079FD0446B9F856007E
:105C800001306FF31F30A9F856004FF6FD70AAF8E7
:105C9000300009F140008AF8335006F07FFF2046BB
:105CA00007F049FEB9F85600B9F85410884231D1CE
:105CB0001F48204940680D6830B190F8FC2007204B
:105CC000002A08BF052000E005204C6803F0C4FD51
:105CD00055B195F8FC00002100284FF0000008BFE6
:105CE000286885F8FC1000E0002044B194F8FC20FE
:105CF0000021002502B9256884F8FC1000E0002589
:105D0000A84288BF0546681C04D02DB9BDE8F047FD
:105D100007F00EB9BDE8F08700F010F8B5FBF0F120
:105D20000548BDE8F04707F06BBA00BF345D0020BE
:105D3000945B0020D05C0020D01100200A20704726
:105D40002DE9F84F2DED066B1446D2F800800A6855
:105D50001D4612F8010B66280A6008D1287E50B152
:105D600058F8040B05F020FE41EC180B0BE0E96934
:105D7000087001206CE008F1070020F0070090EDAA
:105D8000008B00F108089FED380B56EC18BB584605
:105D9000314659EC107B3A464B4604F003F9019624
:105DA00060B12869013828618DED028B9DF80F00E4
:105DB00080F080008DF80F009DED028B9FED2C0B85
:105DC00056EC18AB5046314653EC102B04F008F952
:105DD00020B10720E8602A48E8613AE050463146A1
:105DE00004F0E4FE009006F055FA02460B465046D9
:105DF0003146FFF7D1F99FED200B53EC102B00F04B
:105E0000D1FF05F0BFF80146686904220A2303F0B8
:105E1000D7FB411E0A23E9612E2100F8011CD5E9B8
:105E20000412E869821A0A44009903F0C9FB019937
:105E30000646E86158463A464B4604F0B3F828B1A6
:105E4000701EE8612D2006F8010CEE696869801B60
:105E5000E860C4F800800020BDEC066B01B0BDE82E
:105E6000F08F00BF00BF00BF000000000000000076
:105E70000000C0FFFFFFDF41000000000088C340BA
:105E800010E504002DE9F84F4FF00054002A994620
:105E900016460F46804618BF4FF080444D1C07F051
:105EA00065FC824635B140463946002205F026F8A9
:105EB00007460FE03C48816C11B10969414506D0A5
:105EC000C16C11B10969414503D0876B02E0876C51
:105ED00000E0C76C37B197F93300B0F1FF3F03DD45
:105EE00004245BE0032459E0DFF8BCB00A9DDBF832
:105EF0004800874218D0DBF84C00874229D0404642
:105F000039464A462B4602F0F9FD0028E8D02748DA
:105F1000017E012941D0007E04283ED02448254935
:105F2000283007F05EFD38E0DBF848000022234609
:105F300006F0B6FB07F02CFC1F48002E18BF00F53A
:105F4000803006F06FFEF5B1DBF8480007F0A7FCE3
:105F50000CE007F01DFC1848002E00F100501CBF9B
:105F60000120C2F2024006F05DFE65B1DBF84C0094
:105F700007F095FC38690E49086291F8240040F05A
:105F8000010081F82400B9F1000F06D0DBF83810C9
:105F9000404601222B4602F0B1FD8324504607F013
:105FA000CAFC2046BDE8F88F345D0020945B0020D9
:105FB000D05C00200200004001000104F8B5444D0F
:105FC0000C4601464FF0FF36424F6878002818BF54
:105FD00002268B0117FA83F08E4205D9A11C4022BC
:105FE00007F006FD00263DE016D1A11C0D2207F0AA
:105FF000FFFC03F0A7F8297880F0FF0251EA0203C2
:10600000354A18BF42030BB1FF282AD0E9B1B87C4A
:1060100003281AD100261DE0A868C118287850B1BD
:10602000023A0234C1F307306FF31F3193B22246B4
:1060300005F01CFF05E0A31C0846023A194605F0CE
:10604000FBFE0028CED003260CE0F889D289161A70
:1060500018BF0526214AD7F889001268531E03424B
:1060600002D00526F0B2F8BD3006FBD1BB6939B3CA
:10607000180B190502D0012151FA80F02F79C6B210
:10608000A988F8B27218824207D905F039FE0137A3
:10609000FF28F5D1A988032600E000260D4AC8B2E2
:1060A00000218D2305F0E2FE0028CCD1287904F1EF
:1060B0000F028D21332305F0D9FE0028C3D1D1E78B
:1060C000B3FBF2F000FB12310029D4D1D6E700BFB8
:1060D000285F0020200F002000400400D05F002037
:1060E0002DE9F0410546880058BFBDE8F081002049
:1060F000002404F0C9F83D493D483E4FCC6108609A
:1061000040F60A008846B887FC8797F8480000F0F8
:10611000F00087F848003C6497F8490000F0F00070
:10612000013087F84900284602F008F9AC680120E0
:1061300021460E46496849B10A88A2F60302072A99
:10614000F7D800FA02F212F0830FF2D0707B00F061
:10615000F000707307F13C0070602748806B28B135
:10616000C0680088A0F6030002281AD3284630F839
:10617000381FB1B10021E9636987386495F844009C
:1061800095F8451000F0F00085F8440001F0F000AB
:10619000013085F8450097F8490000F0F00087F8D5
:1061A000490007F029F91548F86197F8250030B142
:1061B00006F062FA0028FBD004F0B0FC0BE00120EE
:1061C00007F0ECFA012806D0707B00F0F0000130F7
:1061D00070730B48F86100202146C8F81C00C8F80D
:1061E00000400120BDE8F04106F09CBD00100440D5
:1061F00001010E04945B0020345D0020E94004009E
:10620000D1A804002DE9F04387B0DFF8FC80814677
:106210002025EFF3118085F31188D8F838501DB18F
:1062200080F3118800256AE0C8F83890374F80F372
:1062300011880020C9F80C104FF48031C9F81C20D7
:10624000002BC9E91200C9E9080118BF1F46D7E9A8
:106250000116C9F81810397B012905D1C9E9106068
:10626000C9F8146030460DE0294A00203146002369
:10627000002507F0FDF8C9E910012649C9F8140006
:106280008E423CD80021DFF890E0C9E9160197F86A
:1062900000C0C9F85410BCF1020F08BF0146BCF1A0
:1062A000000FC9F8501001AB9EE8F5001946F5C182
:1062B00008F124001A4ACDF808900090174808BF4A
:1062C000024609F12800142106F032FC0546202080
:1062D000EFF3118180F3118881F3118899F8100090
:1062E00010B9484604F0AAFC35B108F1300049461F
:1062F00006F0E2FE4D4602E00025C8F83850284678
:1063000007B0BDE8F08300BF245B002090E30400E9
:1063100040420F003F420F00C4E30400D1B5040027
:1063200089D604001EF0040F14BFEFF309816946FB
:106330008869A1F1480214BF82F30988954621EDCE
:10634000100BF1EE102A41F8082DEFF3118102B481
:1063500000B5DFF8D8E0F047374A1268116801EA63
:10636000000010605DF804EB1EF0080F09D101BCBD
:1063700080F311885DF8080BE1EE100ABDEC100BFC
:10638000704704BC1EF0040F14BFEFF30981694687
:10639000A1F1200114BF81F309888D464A604FF0B6
:1063A0008070C86125488861234B1B6818680860A5
:1063B00040F201101860704702B401B4EFF3148189
:1063C00000291CBF002282F3148802B402B4DFF853
:1063D00060E0F04701BC01BC00281CBF022181F332
:1063E000148801BCDFF84CE0F0470F484FF08051B3
:1063F000016001BC80F3118800BF00BFFFF7FEBF42
:106400001EF0040F14BFEFF30981694601F120016A
:1064100051F8080BE1EE100AB1EC100B14BF81F338
:1064200009888D46704700BF04ED00E09D99040087
:106430007FD9040085D9040048E50400B86304004E
:106440002DE9FF413B4E96F8420100286AD1012018
:1064500086F8420107F0AEF9374F86F87001374DE4
:106460007868C6F86C01387B86F84101A86810F49A
:10647000402F13D1386988B128686421C0F30660C1
:1064800000FB01F4FFF75AFCB4FBF0F22C4906F1D3
:106490009400002305F068FD07F08EF801AC20465B
:1064A00007F0EEF92749A846002506F10C00002266
:1064B00007F011F9204607F0E3F9234906F15000EF
:1064C000082207F008F9214A06F1D80032210023FA
:1064D00005F006F81E4C1F4A06F1F4002C2100239B
:1064E0002560454604F0FCFFD8F80800797BC0F32E
:1064F000815021B1032804BF012186F839110328F6
:1065000003D040F00200022810D1206840F0400083
:106510002060022005F070FD6868400702D400206A
:1065200005F06AFD002004B0BDE8F08105F0E8F94F
:10653000F2E700BF3058002008E40400AC4F0050E0
:106540001DD7040037A4040029B2040031990400C7
:1065500090220840515304002DE9F8431D46434B57
:10656000DDF8208043F606061C68038814F00074EA
:1065700011D0B34227D0B3F5C15F33D040F6020645
:10658000B3423ED100F112030B6041691160816991
:106590002960C1692EE0B3420AD0B3F5C15F03D0D0
:1065A00040F60206B34203D100F11203143002E0B8
:1065B00000F11A031C300B60006810600020286096
:1065C000C8F800004BE000F11A034FF000090B601F
:1065D000C1691160016A2960416AC8F8001000F1C0
:1065E00018011CE000F112030B6041691160416A5F
:1065F0002960816AC8F8001000F1100190F80F902E
:106600000DE000F11A030B60C1691160816A296015
:10661000C16AC8F8001000F1180190F824902868A9
:1066200068B10E8807F05EF8042808D8074606F01F
:106630000701484603F06EFD296841F82700D8F8A5
:10664000000060B107F04EF8042808D80546484617
:10665000FF2103F05FFDD8F8001041F82500002C61
:1066600018BF01242046BDE8F88300BF94120050F3
:106670002DE9FE4FD0E90085994614460F46834622
:1066800013B10020C9F8000074B107F06FF8064696
:1066900098F8070058B198F8E80070B1304607F054
:1066A0004AF96FF008046CE06FF0090469E03046C5
:1066B00007F041F96FF00E0463E000200121C8E902
:1066C0003B74C8F8F440C8F8FC0088F8E810C8F833
:1066D0003C0088F80D0088F80B002846019507F06B
:1066E00099F8304607F027F908F1D0060DF1080AAD
:1066F00007F03CF804463046514605F0B3FDD8F8A3
:10670000F450D8F8FC10A842394438BF0546029826
:106710002A4607F06DF93046294605F00DF9D8F8FC
:10672000F400D8F8FC10401BC8F8F4004819C8F869
:10673000FC00204607F0FFF8012D03DBD8F8F40039
:106740000028D5D107F012F80746D8F8FC0050B160
:10675000019807F05FF8584601F012F9D8F8FC00EC
:1067600010B1002402E000206FF00F04B9F1000F17
:1067700018BFC9F80000002088F8E800384607F084
:10678000DAF82046BDE8FE8F2DE9F84F3C4C3D4E2F
:106790003D4D42F62A294FF0010A4FF0030B002726
:1067A0004FF00508D4F83C01062833D8DFE800F0A4
:1067B0000433183B203D4B000F20F060C6F81090CA
:1067C00004F0CAFE45F804AC55F8040C8007FBD56C
:1067D000C6F81CA094F8390190B10120EF6210E0D6
:1067E0002F60C4F83CB128688007FCD40320DBE7A5
:1067F0002F60C4F83C8128688007FCD40520D3E7CB
:106800000320C6F800B0C4F83C012F60296889074E
:10681000FCD4C9E7FEE70126022084F83A6104F0BF
:1068200023FD2E6009E0022000E0032084F83A01F5
:10683000002004F019FD0120286004F15000BDE89B
:10684000F84F07F0B4B8002045F8040C286055F85C
:10685000040C8007FBD428688007FCD40B48002573
:10686000012105600A4801600D2001F013FC02209F
:1068700005F0AAF9C4F83C5184F83B51BDE8F88F03
:106880003058002000400C4058600C403C500C40F8
:1068900004800C402DE9FE4F05460F465818AE689F
:1068A0007168884202D96FF0030564E0DFF8E88080
:1068B0000C9C4FF0FF3199469246D8F8000006F044
:1068C000F8FFE00711D1A0071ED5306851464A46AF
:1068D0003844CAB110F8013B11F8014B013A23408A
:1068E0009C42F6D06FF0060541E0D8E90101CB43A8
:1068F00001EA090213EA090F18BF02443940284689
:1069000002F080F9054690BB306802970196074473
:1069100004F00AFDCB4655460090BBF1000F16D09F
:10692000BBF1080F5E4628BF082606F01FFF804611
:1069300028463946324606F0D1FA0446404606F06B
:10694000FAFF2CB937443544ABEB060BE5E70024DE
:10695000009806F0DBF8DFF84080DDE901210C98B3
:1069600014B14FF0FF3502E0400707D40025D8F8F6
:10697000000007F034F82846BDE8FE8F1068084490
:10698000B9F1000FF2D010F8011B1AF8012BA9F190
:1069900001098A42F4D0E4E7B85F0020B0B50C46A4
:1069A000880722D4600758BFB0BD354D0120A870BC
:1069B000042005F021FB33480068006B8047E86045
:1069C0002D48806BF0B16968046961B1A1420AD0B9
:1069D00094F82800400704D5636A20460421002269
:1069E0009847012060766C600DE0FFF701F92248BE
:1069F000006CE0B3214844F002012830BDE8B0400B
:106A000006F0EFBF6C6860681F49007808600220DC
:106A100005F0F2FA102001F035FA012028761B4823
:106A2000807810B90D2001F02DFA68684168184887
:106A30008A680AB9C96821B100218160154940F806
:106A4000141C154907220A60016800210160426890
:106A500041601249124AE9610168114301601A203C
:106A600006F0A9FF1920BDE8B04006F0A4BFBDE8BC
:106A7000B04003F061B900BF345D0020D05C00205D
:106A8000945B00208C010010D0210840B4E4040085
:106A9000141004405100070600000460E160040087
:106AA00002400040FEB5D0E9005401A806F054FDB4
:106AB00095F834003649374A384E085C95F8351059
:106AC000515C354A084395F83610515C2A6B40EA10
:106AD0000103316820684F680299B847206840F286
:106AE000F272E1692E4B2F4F426494F854209A5C65
:106AF00094F85530FB5C1A430129426311D10146D9
:106B0000D4E90A2351F8307FFF2A27F4004718BF41
:106B100007F50047FF2B0F6009D00A6842F4804256
:106B200008E0014651F8302F22F400420A600A685A
:106B300022F480420A60C16A41F01001C162016B17
:106B400041F001010163E16B09B3A16BF9B10121CE
:106B500006F0DAFBD5F85801E16B40680068C162C5
:106B6000C0F8041591FAA1F17268B1FA81F1536885
:106B7000022298477068A16B02224368D5F8580139
:106B800091FAA1F1B1FA81F1406800689847FEBD21
:106B900044E50400F6E2040028E50400D0010010FA
:106BA00032E504002DE504002DE9F047A4B006F01D
:106BB000DDFD33490A78012A04D124B0BDE8F0474D
:106BC00006F0B9BE4FF0010981F8009006F0B3FE5F
:106BD000FFF736FC082001F055F921AC204606F0FD
:106BE000CBFCDFF8A0A0294A10212346DAF80C00DC
:106BF0002290254804F074FC2548002501AE047855
:106C0000244890F800804746A74213D8DAF80000DD
:106C100050F8271021F0FF0046F82700880707D416
:106C2000F8B201F0010106F09FFC09FA07F00543F4
:106C30000137E9E7184805601848C16801F44001C8
:106C4000B1F5800F07D10068000E56F8201041F012
:106C5000070146F820101248A4EB0802042306EBB3
:106C6000880103EB820240EA880006F0C1FE0D486D
:106C70002022016862F30D21016024B0BDE8F08795
:106C80002560002058E404000C14002031AE0400FC
:106C9000A5E4040057E40400D0200240A84F0050AF
:106CA00000100840003009402DE9FE4F4FF48040AD
:106CB00006F072FCA0B1354C35496068D1F813205C
:106CC00009786FF39F5201F00401806842EA417134
:106CD00001AA00F08FFD60688168012006F022F8AB
:106CE0002E482C4F2C4D44F2020B00244FF0000A8A
:106CF00000F14009BAF1020F3CD055F82A80D8F8CB
:106D00000000A0B3D8F80000806906F045FC0646F4
:106D1000D8F800000023324605F0C2FC16F00A0F36
:106D20001ED0D8F800008069B9686BEA00000840FE
:106D3000B860D8F80000C069396821EA00003860FE
:106D40001020D8F8001005F0EDFFD8F800104846E4
:106D500005F0E0FD002044F00204C8F8000006E061
:106D60002EB1D8F800000D4944F4804408650AF1BA
:106D7000010ABFE724B10A482146283006F031FE57
:106D800001F09EFDBDE8FE4FFEF718B9945B0020B0
:106D9000850300210C100440F0E40400345D002061
:106DA000D05C00202DE9FC4191EA03084CBF4FF074
:106DB00000484FF000084FEAC32545EA52554FEA14
:106DC000C2264FEA43077F0D11BF45F00045002161
:106DD0000020BDE8FC815FF4E06E1EF1FF0E7745F8
:106DE00055D04FEAC12343EA50534FEAC0224FEA3D
:106DF0004104640D11BF43F0004300210020BDE8B1
:106E0000FC81744543D0E419A3FB0501A3FB06E70D
:106E1000A2FB06631EEB030E57F1000751F10001C0
:106E2000A2FB05631EEB060E57F1000751F10001AE
:106E3000FF1851F10001C01951F100014CBF40F29F
:106E4000004E40F2002E10EB0E0051F1000148BF41
:106E5000641C01D4400049415FF44077FF37E41BD4
:106E6000DEBF00210020BDE8FC8117F58067BC4231
:106E70000DD24FEAD02040EA41504FEA41014FEA9B
:106E8000113141EA045141EA0801BDE8FC810020CA
:106E9000FF21C900C91D090551EA0801BDE8FC81AF
:106EA0002DE9FC4706680446707A00286BD0D4F8B8
:106EB0000490D6F85801D0F80480D9F834702046F0
:106EC00002F0D6FD706F20B306F14C05284606F09F
:106ED00082FD316F884221D2307902281ED0B06EF7
:106EE000002850D0204602F0C3FD346F284606F03B
:106EF00072FD201AD6F868A0B46F7067284606F0B5
:106F00006AFD0021F1740AEB040108440190706FDE
:106F10000CE0B06E10B1306F0028D5D106F14C00F6
:106F200001A905F09FF901217067F17458B30021A0
:106F3000B0F5806FB17384BF4FF480607067012338
:106F400001990144013979601049B96043F6F07143
:106F500001EB00100840B9680843B860D9F83C104C
:106F6000D9F8000091FAA1F2B2FA82F203FA02F221
:106F7000D8F800309A61D6F85821526812689162A8
:106F8000012106F0CDF9BDE8FC8700BF0180000CAF
:106F90002DE9F0418EB004464A1E002012F1030F85
:106FA0000AD809AA0490029107922F4A06928DF8F6
:106FB00014000222684600E003220C908DF8342071
:106FC0002020EFF3118680F31188608A30B1608A47
:106FD00001386082012086F3118842E000293DD00B
:106FE0002248012104F1140790F808800172806999
:106FF00009AD45620B9004F063FBA06909970A9004
:107000000560A5619DF83400022808D118494A6836
:107010000C98016042601060486001F09BFC86F3B0
:107020001188404604F06AFB2021EFF3118081F3C0
:1070300011880C9939B10A684B681A604A68096866
:107040004A6000210C910B9900224A6280F311885A
:107050009DF83400002818BF012002E086F3118853
:1070600000200EB0BDE8F08107BF0400185E0020CC
:10707000685C00202DE9F84315460C46804601F077
:10708000F9FE2C4800212D4F01602B4881460068F5
:107090003868816927208847294E2A49306B084083
:1070A0003063B06F20F48070B0673868016B4FF4C4
:1070B000806088473868016B4FF481608847386882
:1070C000016B4FF4C06088471F48012101601F48D1
:1070D000C6F8804131600168890704D4691C08BF83
:1070E0004FF04045C560D9F80000F0698007FCD535
:1070F000072003F0BFFE0228FAD1B8F1000F13D128
:10710000134C386A8168204688470428F9D0012842
:1071100004D1386A0321426820469047D6F8180205
:1071200020F00300C6F818023868806BBDE8F84309
:10713000004700BF0C4009402C200940B801001056
:107140000C200840FFFFFEFE2820086010000940C8
:1071500000400340F0B591B01D460446013B0020BD
:1071600013F1030F0AD809AB6E46049002950793FA
:107170002D4B069302238DF8140001E00323002613
:107180002A4F0E908DF834300C96CDE90F12B86965
:107190000B902020EFF3118680F31188204605F034
:1071A0006FFF10B186F311883CE0C5B301213D7A31
:1071B00004F10C003972216909900A9109AA0A6048
:1071C0000B984262226104F07BFA0C9838B118499E
:1071D0004A68016042601060486001F0BBFB86F3C2
:1071E0001188284604F08AFA2021EFF3118081F3F8
:1071F00011880C9939B10A684B681A604A680968A5
:107200004A6000210C910B9900224A6280F3118898
:107210009DF834100E98002908BF084602E086F356
:107220001188002011B0F0BDD5BE0400185E00200A
:10723000685C002070B59AB0304D0821042328798D
:1072400002AA04F051FF28790FAA1121012304F0AA
:107250004BFF9DF83C00FC284AD02978A88831B122
:10726000EB680121C0B200914FF4805105E0244940
:10727000EB680022C0B2009209680022FEF7F8F91C
:107280000299884234D1FE208DF83C00287838B924
:1072900028790FAA1121012304F0E8FD287850B3C2
:1072A00028790FAC00212C230026224604F01CFF75
:1072B00002A821462C2206F09BFB124829690E9653
:1072C000039011480290A8680D90481E06289CBFA4
:1072D0004FF6FE60ADF81800A87804F011FDA8780C
:1072E00002AA0021342304F0C1FD20B1032000E0F4
:1072F00002201AB070BD0020FBE700BF285F00200D
:10730000D05F00204E564D314F4144202DE9F043CF
:107310008FB00C46002730491546814624229846F6
:10732000009703A806F064FB6B4600205021002262
:10733000C9F8007004F000FA002848D00746274832
:107340004FF40071002C07F14806816008BF044625
:107350000021D4E90032A0680792002A4FF0000211
:1073600008BFE268FE64F963C7E90D51F962796408
:10737000BB6023691044002B18BF01233B63BE642C
:107380004FF0FF33089001200C91CDE90D11CDF89D
:107390002880CDE9045700218DF83000069307F1CD
:1073A00010000CAA05F0F4F90D4803A96A4603F091
:1073B000F9FEF86040B14563C9F800702168F868CB
:1073C00000F0F8FB002003E0384605F02BF80C2015
:1073D0000FB0BDE8F08300BFB0E204003C5F0020C6
:1073E00035D50400F0B5314A046A516B137D0C6148
:1073F000446A01F1200C032B0B704C61846A8C6190
:10740000C46ACC6190E8F000ACE8F00000F1400400
:1074100000F110074C64F0CF01F1300CACE8F00043
:10742000046B0C64446B8C64846BC06BCC64086527
:107430000BD8DFE803F0020D1016156DC4B2106C06
:10744000936C55F824404C600FE0002000230CE0C2
:107450001748C06D06E0174880694860D0E90A30D7
:1074600003E000204860106C936C926BC1E902034A
:1074700032B12BB110F8014B013B02F8014BF8E798
:107480000D4802684A6590F824208A6590F8252006
:10749000CA65C28C0A66826A4A66C26A8A66026BDA
:1074A000CA66426B0A67806B4867F0BD005C0020CB
:1074B000245B0020185E002004ED00E070B5254834
:1074C000066805F0C5F824480025244C0560206CAA
:1074D000806C80472248006838B122480068B6F1C5
:1074E000FF3018BF304600F025FD1F4840F239122A
:1074F00005601E48016862F31B4101601C48016879
:1075000001F44051B1F5805F06D10168194A11407C
:1075100001F5003202600160174D0126EE6120681E
:10752000016A142088471548016841F4E021016090
:1075300013482E60006800F44000B0F5000F03D13E
:10754000206C416C0F4888470F4801680029FCD126
:1075500070BD00BF1C13005084046042B0010010D5
:1075600080012843800520438C21084048200340A7
:1075700028000940EFFFFCFC0000244300200940E4
:10758000B44F0050BD3786000C00684270B5F8B1AA
:10759000012858D1012006F001F9012853D02D4CC3
:1075A00094F8380100284ED12848294E05693068E2
:1075B00010F4402F30D17DB305F074FB502006F05D
:1075C000BDF90120A84704F1940006F0F0F925E088
:1075D00006F0F7F91E48006810F4402F0AD11B4846
:1075E00004693CB11B48943006F096F905F04AFB5B
:1075F0000020A047174C94F8380120B316480168C2
:1076000021F08001016080218160032004F0DCFA18
:10761000002084F8380116E006F0D7F9012084F83C
:107620003801306810F4402F00D14DB9207A80061F
:1076300006D4094880218160016841F08001016021
:10764000032004F0D9FC002070BD00BF08E4040052
:10765000B44F005030580020902208402DE9F84FD8
:107660001E4614460F46814606F080F8804605F017
:1076700049FB00284AD005462848DDF82CB006F022
:107680004BF9DFF89CA0274A0A9B4FF0FF31BAF86C
:1076900054001A40023201306FF31F30AAF8540030
:1076A0000020AE6085F83240C5E90379C5E90F10C6
:1076B0000BF0200185F8440085F838006863C5E9BF
:1076C0000800C5E906218022BAF85410A5F8500038
:1076D000C5E9120085F833202986397B01F00F01B6
:1076E000022904D1012185F83810B968696389F845
:1076F000FC000AF13800294605F00CF9DAF83800E8
:10770000A84208BF02F018FB2C8E01E04FF6FE7471
:10771000404606F010F920B2BDE8F88FD0110020E5
:10772000345D0020FDEFFF9F2DE9F8432020EFF3AB
:10773000118980F311882C480068006B80472B4E1C
:107740004FF000082A4F012286F85D8086F85C2001
:10775000D7E9104522462B4605F08AFEA0FB0423FC
:1077600000FB053301FB0431746DC7E91221B168D8
:10777000B268611A821A914205D986F85C8089F351
:107780001188BDE8F883051B89F311880020854224
:1077900006D304442D1A0120214602F02BFCF6E703
:1077A0002021EFF3118781F3118896F85D1019B14C
:1077B0000020214602F01EFC411C05D0411BB06D8B
:1077C000814238BF084600E0B06D011905F054FD54
:1077D000002086F85C00012086F85E00B46087F324
:1077E0001188BDE8F88300BF8C010010685C0020A0
:1077F00018110020F0B585B00D4600211446CDE9E2
:107800000311CDE9011101A9009104A903AA02AB5A
:10781000FEF7A2FE029F002F394618BF0121019EEC
:107820000140002E324618BF01221140002D10D415
:1078300011B3049840F22B2105806FF39F55384611
:107840002A4605F03FF90398314602F0DDF86760FB
:1078500010E0C9B104984FF0FF316FF39F552A46ED
:10786000018030462B2105F02DF90398314602F0B6
:1078700031FA666015201EE0C8B104984FF6FF7219
:107880000188914214D110E078B16FF39F550398AD
:107890002B212A4605F016F9FF2806D004984FF050
:1078A000FF3101801420656005E0032005E00498A5
:1078B0000580658010202080832005B0F0BD7047D2
:1078C000B0B52C490068496801422AD02A4D287871
:1078D000012805D105F0FCFF284801210160FEE7E1
:1078E000687801281DD1A888A96881421FD1E9685C
:1078F0004A1C0429EA6015D300206870002004F0B7
:107900008BF8002004F0A4FD06F059F8012005F0E2
:107910007FFB4FF0FF30A86028690130286168784C
:1079200028B9B0BD0138A860286901302861AA884B
:10793000E88882420ED2A81C00210123AA6003F02D
:10794000A5F82A69E988A88804F0E6FE502004F02A
:107950007FFD09E0FFF76EFC044605F059FB0020AF
:10796000687014B9012028703C20BDE8B04004F0D4
:1079700053B800BF64140020DC5D00207C05204368
:10798000F8B505680446D5F8F80000B1F8BD687987
:107990006668022807D105F1D000694605F00FF9A5
:1079A000C5F8F80009E0D5F8EC10D5F8FC20D5F8BA
:1079B000F4001144C5F8F80000910028E6D03168C1
:1079C0008A6B22F400628A6395F84410C9060AD5CE
:1079D0002F6C47B1297A31B9AB6C204610210022B7
:1079E000B847D5F8F800B0F5806F84BF4FF48060D9
:1079F000C5F8F8000099336B01444A1E3168B66B34
:107A00001A600E4A9A6043F6F07202EB00101040C2
:107A10009A6810439860D5F85801406800688662FB
:107A20000846022105F07CFC287A0028AED12046C9
:107A30000121012604F036FF2E72F8BD018000C03E
:107A40002DE9FC412A4D95F86100002844D000241E
:107A50000026602C40D095F86100F040C00702D1AC
:107A600020340136F5E7112095F8618000FA06F719
:107A700005F07CFE95F86110B94385F8611005F0BA
:107A80005AFF281928D0817A31B31021194A2C596C
:107A9000B14011EA080190F9091052F821804668B6
:107AA000CFB209D001F09AFA002079B200224FF04B
:107AB0000073009020460EE0017A022902D1C17CB9
:107AC000C90601D401F08AFACDF8008079B22046C7
:107AD00000224FF00063B04795F8610028B10648D6
:107AE0000021BDE8FC4105F07CBFBDE8FC8100BF82
:107AF000B0100020943004405812002070B50129C5
:107B000053D00446002942D128480121057A017248
:107B10002021EFF3118681F3118894F820100329B6
:107B200016D002291BD0012929D12168E26C636893
:107B300019606168236859601168914204D1A16994
:107B4000C26822EA0101C160606AC0B1C0680FE08A
:107B500020686168086060682168486012E0616AB6
:107B600069B10A68C8684B681A604A6809684A605F
:107B700028B1016842681160416800684160204690
:107B800003F066FF86F31188284603F0B7FD216BEA
:107B9000481C0AD006480029806818BF0846D4E966
:107BA0000A214368BDE87040184770BD185E002088
:107BB000245B00202DE9F0412B4B012702462024B5
:107BC000187A1F72EFF3118C84F3118854698C4278
:107BD00002D18CF3118841E01D6A002907FA01F7F0
:107BE00005EBC10648BF03F12C0648BF002792F8F9
:107BF0002050012D26D1D2F800E0D2F84C805568F3
:107C0000C5F800E0D2F804E01568C5F804E0D8F83B
:107C10000050454505D1D2F818E0DD6825EA0E058B
:107C2000DD609D699542354601D1DE613568D5F844
:107C300004E01560C2F804E0CEF800206A60DD6858
:107C40003D43DD60B1F1FF3FD66497615161DCBF18
:107C50000021D961012119748CF3118803F04EFDC4
:107C60002046BDE8F08100BF185E002070B505F029
:107C70002FFE05F0A5FD05F0A9FD044600F00C005F
:107C80000C2803D100BF00BF30BF3BE060071ED40B
:107C900003F0AAFB054600EB80000121460001200D
:107CA00005F038F9864212D91C4CA5F11800606124
:107CB00004F10C0005F077FB00BF00BF0120FDF7C9
:107CC00041FE00BF00BF002084F820001CE000BF80
:107CD00000BF200715D40E4E0E4D3068816828462F
:107CE00088470428F9D0B0FA80F004F01001400968
:107CF00040EA111005F067FE0748012101600068A5
:107D000000E030BF00BF00BFBDE8704005F0E4BD3B
:107D1000D8010010004003402C20094030580020BA
:107D20002DE9F04F87B00746109805920191002B7E
:107D30004CD0069005983A6807F1040B04939BE831
:107D4000080940C806FB06FA05900AFB06F1A2FBEB
:107D50000104CD1702FB054203FB0121019B1A78A8
:107D60009C7893F80190DB78143A0294039305F021
:107D700079F805460C46A8FB0A01A9F114020BFB91
:107D80000A1105F06FF82D1841EB0408D7E9041229
:107D9000F417A1FB060301FB043102FB0611029A52
:107DA000143A05F05FF82C18039A48EB0105D7E95F
:107DB0000601143A05F056F80019049B6941069A29
:107DC000013BC2E9000106980830B0E707B0BDE802
:107DD000F08F70472DE9F84FFF2831D0264B0C4625
:107DE00005464FF4BE21AF0004F0020843EA8000CC
:107DF0004158C9B2914227D121489A464FEA1429E5
:107E000047EA0006834605F0B1FC0BF10101220CA4
:107E100086F8009039430A7046F00201220E0A707B
:107E200005F089FDB8F1000F02BF45EA0A0004F031
:107E3000010101701148012181EA5801384316E01F
:107E40004FF0FF30BDE8F88F00F5BE2024F0FF01B1
:107E500062B9B8F1000F02BF2B4304F001041C709B
:107E6000064B012484EA58043B431C601143016023
:107E70000020BDE8F88F00BF00200240001A4442F5
:107E8000011008402DE9F041254E0546371805F050
:107E90006DFC044697F84A01411C87F84A1128B145
:107EA000204605F048FD0020BDE8F081DFF8748031
:107EB00018F8257007F03F00142898BFFFF7E2FF7D
:107EC00008EB8500458878B2B0F1FF3F0CDD7806FD
:107ED0001FD415480068416928468847284602F0A3
:107EE000EBFF0128FAD1DBE70F4E3068C169284665
:107EF00088473068416A284688473068C16A284602
:107F000088470A4801210160094801688907FCD5B2
:107F1000C6E706EB8500D0F8601101208847BFE76F
:107F200030580020D0E10400B8010010282008607B
:107F300028200840F8B505462248234E41688907A5
:107F400005D40168F02242EA114186F84D101F491C
:107F50004FF001221F4F0A601D49098839680968DE
:107F6000846820468847A00105D4E00103D5307815
:107F700040F0020030703868214642682846904739
:107F800004F052FB1448154A0068C0F30531117023
:107F9000C1054FF0130158BF2321402373543821EA
:107FA00001EA901000F56050A2F85C003868816822
:107FB00020468847022003F033FC09480121016074
:107FC000F8BD00BFAC4F00500962084004A40C404B
:107FD00000A00C40F00100100C1400500EB00C403A
:107FE000940460428B4208BF824207D9009A002A5B
:107FF00001D010605160002100207047002B08BFA5
:10800000002A10D1009A002A01D0106051600200AD
:108010000B0000210020002B08BF002A1CBFC94311
:10802000C04302F0D4B8F0B51C4615460B460246D4
:1080300000200021B4FA84F6202E04BFB5FA85F69C
:108040002036B3FA83F7202F04BFB2FA82F7203725
:10805000F61BB6F1200727BF05FA07F400257F427B
:10806000B4403EBF25FA07F73C43B540A34208BFE2
:10807000AA4201D3521BA341404149416D0845EA40
:10808000C4756408761EF1D5059F002F01D03A60B3
:108090007B60F0BDF8B5254F05463E1805F066FB40
:1080A000044696F84A01013886F84A01000637D19D
:1080B0001F4810F9251000EB85004588CEB2B1F1BC
:1080C000FF3F0CDD70061FD41A48006881692846FE
:1080D0008847284602F0CEFE0228FAD11AE0154F52
:1080E0003868016A284688473868816A2846884780
:1080F0003868016B284688470F48012101600F4806
:1081000001688907FCD505E007EB8500D0F8601110
:108110000020884706F03F00142898BFFFF7BAFFF9
:10812000204605F008FC0020F8BD00BF30580020B4
:10813000D0E10400B8010010282008602820084081
:108140002DE9F041002918D41F4615460E46044675
:1081500005F066F9804620463146802202F0CEFEC8
:1081600020B1064690F9330000280AD4404605F0B5
:108170003AFC00210220BDE8F08100200021BDE88A
:10818000F081D6E9080145F00A0547F0E0472840AC
:108190003940084310D0404605F025FCD6E90823B5
:1081A00003EA070102EA050042404B40C4E92C0102
:1081B000C6E90823BDE8F081B1680B48814203D0CD
:1081C000B168C4F8A810B0604046C4E9285705F06B
:1081D0000AFC04F150004FF0FF3105F06AFBD4E9CE
:1081E0002C01BDE8F08100BF2D9F040070B58AB05E
:1081F0001E49086002A805F0F5FA1D4D4FF4807085
:108200001C494FF406720223009005F11004204629
:1082100001F02EFD00B1FEE718491748FE220026A6
:108220000A75027BCB7B4661C673CC6102F0F0021B
:1082300043F003030273087B8A7BCB7342F0060290
:1082400000F0F0008A7308730D480E490E4A02AB25
:10825000FCF738FB0D49002200236860CDE9006679
:10826000FFF7FCF90A480AB070BD00BF8C1400206B
:10827000CC5E0020C0060020FC5E0020845E002052
:10828000480C0020985F0020545E0020E45E00202F
:10829000A45900202DE9F84FFA2004F0D5FE244C13
:1082A000206820F0040020606FF0F90004F0BEFEAA
:1082B0002068DFF88080A34620F0080020601E4878
:1082C000D8F800A0C06B0068804705B24FF00009E5
:1082D000BAF1000F17D0BAF90E705646DAF800A0BE
:1082E000AF4203DAB6F90C70AF42F1DC40463146DA
:1082F00004F086F9B468326928463946334686F870
:108300001490A047E4E702F075FCDBF8040000F0ED
:108310000C00CBF80400DBF8040010F00C0FF4D1D3
:1083200005480068016A3520BDE8F84F084700BFDE
:108330004850094078140020B001001010B586B0F4
:108340000146427E8068002343F606040593CDE98A
:1083500003330293438003881C1B022C10D3B3F514
:10836000C15F03D040F60204A34212D1038A002A5F
:1083700023F4FE6312BF038243F43472028208E0E6
:10838000038B23F4FE630AB1038302E043F43472E7
:10839000028300224A7602A9009105A904AA03AB30
:1083A000FEF7DAF828B105984FF6FF710088884289
:1083B0000ED0049C0299204601F026FB0748016874
:1083C00021B1204606B0BDE81040084706B010BDF8
:1083D000049C0299204601F07DFCEFE7E05F00205D
:1083E000BCB5204D287830B91F4C206805F04DFAF7
:1083F0002878012813D11C4C6988AA881F4B206853
:10840000CDE900120021002204F096FFA96820683F
:108410001B4B00220091002104F08EFFBCBD687848
:10842000FF2808BFBCBD01280DD002280ED080B99E
:108430002068104B0021002204F07EFF2068BDE878
:10844000BC4005F027BA2068084B04E02068084BC0
:1084500001E02068084B0021002202B0BDE8B040D6
:1084600004F06ABFC45F0020D85F002098E40400D5
:1084700088E4040074E30400E4E4040038E3040046
:10848000DCE30400F8B51546044625480E4611689D
:10849000D268AF690068002F18BF38462161206399
:1084A0006261D5E90421002908BF4FF4007162B16F
:1084B000D31D11444FF0FF3023F007032063C91A86
:1084C00021F00701C4E90A1308E00731082221F06E
:1084D0000701A16203F030F9E062F0B1D5E90101D2
:1084E00004F13803EA69666307C395F8200084F84D
:1084F000480018B10B4841690131416100206065B5
:10850000204600F05BFE08B10230F8BD054804F1DA
:10851000080104F0D1FD0020F8BD0120F8BD00BF26
:108520009C140020185E00202DE9F84F002480469E
:10853000002100220460684600F09CFA204DDFF81C
:1085400084A081464FF0FF374FF0190B0020602CBC
:108550001ED02A19917AB9B1107A022816D0DAF809
:108560000400418B0069084495F8621011FB0B016F
:10857000506903F049FE0646FDF7E0FBB6FBF0F05C
:10858000B84238BF074601202034E0E70120002729
:1085900009EA0001012904D10099B94238BF0F4608
:1085A00006E0B9F1000F01D0009F01E0C10701D042
:1085B000C8F8007040EA090000F00100BDE8F88F3B
:1085C000B0100020945B0020F8B50668054605F061
:1085D000CDF80446F07AA0B1307A68B1686805F049
:1085E00033F80028FAD0686805F00EF90020012160
:1085F0003072284603F0B0FF2046BDE8F84005F091
:108600009AB90120F072284600F0BCFA717902296B
:1086100008D1D6F8FC10081AC6F8FC0006F1D00004
:1086200004F0BEFC96F8E8000028D5D0707920B997
:1086300006F5807005F0D3F970790128CCD10020BF
:10864000C6F8F40086F8E8006FF00D00B36CD6F8B9
:10865000EC10D6F8FC20D6F8507100902846B847A8
:10866000BAE7F8B50446FD201D468DF80300204604
:108670001E68324600F08EF810B101208DF803001C
:108680009DF80300FD2815D1A6B1E068007B00F03D
:108690000F0002280ED13768204631463A4600F0D6
:1086A00079F820B9002F3E46F5D1002602E00220DD
:1086B0008DF803009DF80300FD2804D1E06B10B194
:1086C00004208DF803009DF80370042F0FD0022FB3
:1086D00006D0012F0FD12846214604F02DF90AE0DB
:1086E000326822B12846214604F0B6F803E0284655
:1086F000214604F00FF978B2F8BD704770B5D0E9A3
:108700000056044640F2F2723068816B91438163F7
:108710002046FFF759FF204601F00EFE204603F0E9
:10872000BBFA1B4930680968C9688847646800203B
:10873000287294F8240002F0B5FE94F8200002F0AC
:10874000B1FEE069012807D194F8280002F0AAFEE2
:1087500094F82C0002F0A6FE05F1140005F029F9AA
:1087600005F5807005F039F905F17C0005F035F963
:10877000D5F8580108B103F0FBF805F5AE7004F028
:10878000B1FA96F84000FFF785FC0020E87170BD53
:10879000D001001070B5B2FA82F3B1FA81F45B092E
:1087A0006409B0B312B190F844506DB389B191F837
:1087B00044406CB3446B0E69096C05698908A408D0
:1087C000AE4214BFED6800252944611AB1F1704F23
:1087D00022DAB2B1D168097B01F00F01022915D16B
:1087E000516B0569006C146980088908A54214BFA3
:1087F000E26800221044081AB0F1704F01DB012832
:1088000004DB0124012304E0002302E0012400E052
:10881000002404EA030070BD00240029C8BF01241D
:10882000002AF6D00129D5DAF3E77047F8B51C46DF
:10883000054602F073FE1D4F7969884224D01C4919
:1088400078610968C96888470646387E022802D0E0
:10885000387E042818D11749886C08B9C86C50B103
:10886000886C012200230069896CB1F930100092F4
:108870000122FDF707FB4FF6FC700F490022304044
:108880000143786803F0D4F900200C4B0090E81CF9
:1088900001B2E81E02B2204602F064F928B140207D
:1088A0000021BDE8F84004F03DBAF8BD945B00201B
:1088B000E0010010345D0020010008062D8804004E
:1088C0002DE9F84F204E214FDFF8848000254FF02E
:1088D000010B4FF002094FF0110A602D08BFBDE8EF
:1088E000F88F7C192ED0A07A01282BD1607A41B262
:1088F0000BFA00F01131C0B20BFA01F1CA43326039
:1089000072681143716004F02FFB04F11000002124
:1089100003F030FD812809D1A06920B1002103F0C6
:1089200029FD812802D184F80A900BE0607A97F83B
:1089300061100AFA00F00843002187F86100404600
:1089400005F04FF82035C8E708100440B0100020AB
:10895000581200202DE9F041044680681F4F206224
:1089600097F85E00E8B197F85C00D0B91C48006841
:10897000006B8047DFF86C80D8E910562A463346F2
:1089800004F076FDA0FB052300FB063301FB053157
:10899000C8E91221B9687B6DBA689A1A411A9142E6
:1089A0000CD903F097FD01212175A2681044E06005
:1089B00097F85C0078B187F85D100CE00121217513
:1089C000A2681118181A8242E16004D21046BDE86C
:1089D000F04104F051BCBDE8F08100BF685C0020AC
:1089E0008C010010181100202DE9F04186B0DFF84D
:1089F000708098F8650078BB012088F86500C8F899
:108A00000480C8F8008003F0D7FE164801AA11467A
:108A100090E8F8000520F8C10490134808F110040C
:108A2000124900F12403204601F09EFFC8F84C4093
:108A300002F028FE0E48D0E9102347F69160101A84
:108A400073F1000031BF4FF0FF30002047F6906116
:108A500004F00EFDC8F8580006B0BDE8F08100BF74
:108A6000685C002030E40400245B002029770400C7
:108A70001811002010B504461E4849B1383000686E
:108A8000B0B1C3681B7B03F00F03022BF7D101E0E9
:108A9000806B68B102B11060C268137B03F00F03F2
:108AA000022B08D151B101698A8DC968114415E0C2
:108AB000002100201CE00120002119E0128801693A
:108AC000A2F60302012A4A8B8CBF0969496919235E
:108AD0001144094A92F8622012FB0311406B03F023
:108AE00093FB2060FDF72AF92168B1FBF0F101202A
:108AF000216010BD345D0020B01000202DE9F84F3A
:108B000007461E4815460E46009300F138094C46AC
:108B100024680CB1B442FBD14FF0000A00F1400BC5
:108B200044B32069D4F80080B84220D12046002206
:108B30004FF0805303F0B4FD009870B1204600223E
:108B40004FF0807303F0ACFD30690D49086291F875
:108B5000240040F0010081F824004846214603F03B
:108B60004FFD5846214603F0D5FE0AF1010A002DBB
:108B70004446D5D15046BDE8F88F00BF345D002093
:108B8000D05C002070B50568D5F8F81031B3D5F881
:108B9000582144685668A16B20683268D16202216E
:108BA00004F0B2FBD5F85801A16B154A4068006883
:108BB000C0F8041591FAA1F112683068B1FA81F198
:108BC000926990470446D5F8F800011B687902289D
:108BD00006D105F1D00003F02EFB0BE000240CE0E1
:108BE000D5F8F400D5F8FC200A44401AC5F8FC205A
:108BF000C5F8F4000020C5F8F800204670BD00BF9D
:108C0000D40100102DE9F843DFF874901446D9F828
:108C1000082002EA01038B4221D1806843688B421D
:108C200020D966186FF005059E4226D82240A24240
:108C300023D10068471802F077FB8046ACB104F0FE
:108C400095FD0646384604F057F90546304604F0CF
:108C500072FE5DB9D9F80400241A0744EEE76FF0FC
:108C600004050AE06FF0030507E00025404603F025
:108C70004DFF002D18BF4FF0FF352846BDE8F883A3
:108C8000B85F002070B5184B2021EFF3118081F3FD
:108C90001188174C1548DA6C02609C64154C1A66F2
:108CA0001C64154B04689C4210D14268144B22F49A
:108CB0007F421A44426081764FF40071C160D0F85F
:108CC0002C1221F04041C0F82C1270BD0B4D002435
:108CD000362CEAD00E2C8EBF42F8245053F8246074
:108CE00042F824600134F3E7005C002008ED00E066
:108CF00000060000003A0120A840040041C704001B
:108D00000000FA057FB504F031FD174E04463078B7
:108D100030BB01AD284604F02FFC0120154A352157
:108D20002B468DF80C00114800780290104802F094
:108D3000D7FB114D0921A86C20F00400A864A86C91
:108D400020F00800A864032028600C48006802682E
:108D500002209047686BC007FCD001203070686328
:108D6000204604F0E8FD7FBD27600020A7E4040052
:108D7000F013002095820400005009408401001087
:108D800070B50446B0F90E00227A81B2920702D57E
:108D9000227B1F2A0CD8154A6368D26C52F82050E7
:108DA0009D4218BF42F820304A42E281227B0BE00C
:108DB0000E4B1D6D45F820400D4DDB6C53F82060C7
:108DC000AE4218BF43F82050102901D30A4902E0EF
:108DD000042902D3074901440A70217AC90718BF40
:108DE00002F09CF90020A060002070BD005C002013
:108DF0002563040014ED00E0F0E300E01A481B4A8C
:108E0000D0F8841000681140194A914211D1C0F382
:108E10000332C0F34061082A0ED0092A11D00F2A6C
:108E200007D1020213D400F08072A9B1A2B11120BF
:108E300000E0FF2040B270470A20002908BF0C2044
:108E4000F8E74FF0FF30002908BF0920F2E70E20B5
:108E5000002908BF0D20EDE70B20002A18BF1020C5
:108E6000002918BF0F20E5E79412005000F0FF0F13
:108E70000010B40B10B517480168890726D41748AD
:108E80000468A00221D41648006800688047C0F139
:108E90003E000722C1100729B8BFC210012000EB15
:108EA00024718A42D8BF0A460E490968C1F30321DA
:108EB000891A0F29A8BF0F210129D8BF014641F007
:108EC000F000094981F84D00087810BD0249C160E1
:108ED00010BD00BF10000940FD000040B44F00501D
:108EE000EC0100100C1300500D620840F8B51A4E4A
:108EF0000546306828B119490978A9420AD80024E2
:108F000028E001F099FC3068002418B3134909786F
:108F1000A9421FD9124A05EB450102EB81044FF02B
:108F2000FF31D4E9015704F0C4FC287870B97068A7
:108F30003968421E0A4209D17968814206D3B06875
:108F40000840814202D10120287000E000243068EE
:108F500004F045FD2046F8BDB85F0020A6E40400FB
:108F6000ACE3040070B586B0174990E81C001CC142
:108F700001AC204604F0B8FC144800F11C01143088
:108F800001902046029104F017F903AC204604F04A
:108F90009AFC0F4E00200F49012223468DF80C0049
:108FA000049006F10805284604F05CF8356006F1E7
:108FB0002C05094901222346284604F053F8756020
:108FC00001F088FD06B070BD64140020DC5D002057
:108FD0008C5D002059D6040069D60400F8B505461A
:108FE00004F0C4FB0446A87A50B36F7A012603F05C
:108FF000A9FE697A48B1154A48B21130536806FA99
:1090000000F08343C0435360106006FA01F3104937
:10901000002206FA07F02A72AA72C5E90422AA61A0
:10902000C5E9002291F8605091F862202B4381F845
:10903000603012B1013A81F86220C0B202F0DEFD68
:109040002046BDE8F84004F076BC00BF081004409C
:10905000B0100020F8B51A4901220446087A0A72B5
:1090600054F8485F02F04AFBA54208BFF8BD154816
:109070004FF0FF31FDF78CFF2068134EA0421AD04D
:10908000076881680569026843681A604268036876
:109090005A602A686B681A606A682B685A600968A7
:1090A00011B1C06800B18847B06829461C224368E6
:1090B00098473846E2E70348BDE8F84000F0CABFE9
:1090C000185E002028140020245B002082B003F0EA
:1090D0000FFC03F00DF901F0FFF91748FFF786F8D0
:1090E000164D286002F03CFD03F05AF902F078FCBE
:1090F00002F050FA10B1FF2002F066FF104E01ACF2
:10910000306800214FF0FF324FF0FF33FEF722F8B6
:109110008107019002D5FFF763F90198C10704D0D8
:109120002968FF2002F0E8FC01984007E8D52046B6
:10913000FEF7C6FBE4E700BF79D6040090140020D8
:10914000801400202DE9F04F87B0174800270DF15B
:1091500010096D46466816488346164880461648EC
:109160008246F8B286421AD910494403CDE902A8D2
:10917000CDE904B1D4E90001CDE900014846294612
:1091800004F04AF820B102A8294604F045F820B9B5
:1091900044F012000078082802D30137E1E7FF27E6
:1091A000F8B207B0BDE8F08FD05F002078325231BE
:1091B000434331334E564D314F41442070B51A4927
:1091C0001A4A044602F0D8FF0146E061012051B37B
:1091D000002184F8200061626069B0F1FF3F1ADD70
:1091E00060690121124A01FA00F0A0616069157AF4
:1091F0001172116A01EBC000E0642020EFF31186C8
:1092000080F31188204604F073F886F3118828460D
:1092100002F074FA06E00648A16121462C30E064B1
:1092200003F04AFF002070BD79CB040029B404008C
:10923000185E0020F8B5054616484BF2F521174E8A
:10924000006800FB01F714483C0A006800F4402065
:10925000B0F5802F10D11248006880030CD4F0685C
:109260000068804702F05AF93168C9688847C01021
:10927000390B484304EBE0342DB90A48006820F06C
:109280007F40204444083069416C2046BDE8F840E6
:10929000084700BF08400C40B44F0050E0010010E8
:1092A0008C13005010200940F8B5164F1648BD6CBD
:1092B00004F07AF90446154801680668214011F067
:1092C000200318BF002D0AD0284600223D6503F078
:1092D000E7F90F484FF48041283004F082FB04EA9C
:1092E000060010F4602008BFF8BD0A4991F861201B
:1092F00042EA504081F8610007480021BDE8F8408B
:1093000004F06FBB345D002020000E000C10044000
:10931000D05C0020B01000205812002000B170472F
:10932000B0B51A4C606D58B340F2000CEFF31180E9
:109330008CF311882020EFF3118180F31188D4E998
:109340001850616DB1FA81F1C1F11F0100EBC1014B
:10935000A94215D9086802680A6051600A688A4201
:1093600004D1416A626D22EA0101616500F0E8FB07
:10937000616D29B1606EB1FA81F1C1F11F01E5E7BC
:10938000002084F85000BDE8B0407047245B002006
:109390002DE9F8430E4699469046D0E90212074659
:1093A000D6E9043404F0BDF8C8E90001D7E9041295
:1093B000D6E9023404F0B5F8C8E90201D7E9001291
:1093C000D6E9043404F0ADF8C8E90401D7E9041281
:1093D000D6E9003404F0A5F8C8E90601D7E900127F
:1093E000D6E9023404F09DF8C8E90801D7E9021271
:1093F000D6E9003404F095F8C8E90A01BDE8F8831D
:1094000010B50446C80712D1880758BF10BD002008
:1094100004F0A6FA032004F0A3FA144C0020002262
:109420002146FEF7D7FC0320214600221AE0002047
:1094300004F096FA032004F093FA204600F0D6F9DF
:10944000B0F1FF3F05DD00200121BDE8104004F030
:109450008BB8064C00202F222146FEF7BBFC0320D0
:1094600021463222BDE81040FEF7B4BC0060002067
:109470007CB504460698362903DB00220092174A81
:109480000CE01646124A1D46124BE181126E52F84C
:1094900021209A4207D0002200920F4A0B4602F088
:1094A000B1FC01207CBD084601F016FE2869696800
:1094B0002073C4E90016287AA060297D11B140F01C
:1094C0000200A0602046FFF75BFC00207CBD00BFCF
:1094D000005C002041C704007CDE04002CE0040096
:1094E000F0B5836A5C1E144218BF1A460C4018BFC0
:1094F0001C1B14EB010C01D30020F0BD571E00F122
:1095000020031C461B68002BF6D017EA030618BF81
:10951000961B596806EB0C05A942F2D34A1BF018BA
:1095200056B1A9425E6012D0196840F80C1000EBE9
:109530000C014A601960F0BDA94201D1196805E02B
:10954000196840F80C1000EB0C014A602160F0BD76
:1095500010B596B0184C2020EFF3118180F31188DC
:10956000E06810B903F022F8FAE7E068216A134ACC
:109570000223B0FA80F0C0F11F00137501EBC002A6
:10958000E26151F8300000212174A06140F2000C2A
:10959000EFF311808CF311882020EFF3118180F319
:1095A000118803F0ABFFA16968461C301C3103F041
:1095B00017F916B010BD00BF185E0020005C002037
:1095C0002DE9F041B3F1FF3F03DC5B42B1F1FF3F16
:1095D00024DD4FF0000C4FF0010EDFF85080471EE5
:1095E0000026B1FBF3F505FB131418F80440BC5535
:1095F000013E8B422946F4D9304471423023013870
:10960000914203DA00F801390131F9E7BEF1000FA8
:109610000CBF80F800C00130BDE8F081013A49423A
:109620004FF02D0C4FF0000ED7E700BF44E40400CC
:10963000F0B540F6FF7C10F8013B0024082CFAD06E
:109640000646DF0716F8015B0DD1467806F00F07D6
:109650000337122F0DD190F90220D7B2B2F1FF3F9C
:1096600009DD03300DE001F8015B304601345B0891
:10967000E4E7023006E0C27807F07F07043047EAEB
:10968000C2171237320942EA0515654508BFF0BD19
:10969000ED43002FEAD04A5D013F0A700131F8E73F
:1096A00070B50024844621F0004E4042C7F6F074A5
:1096B00074EB0E004FF0FF3028D323F000455642E4
:1096C000AC4138BF70BD42EA0C0045EA0E0630439B
:1096D0000CD013EA01000BD4BCEB020071EB0300C9
:1096E000BCBF4FF0FF3070BD0AE000BF002070BD6E
:1096F000B2EB0C0073EB0100BCBF4FF0FF3070BD4C
:109700008CEA02005940084318BF012070BD704721
:1097100070B50024844621F0004E4042C7F6F07434
:1097200074EB0E004FF0010028D323F000455642A1
:10973000AC4138BF70BD42EA0C0045EA0E0630432A
:109740000CD013EA01000BD4BCEB020071EB030058
:10975000BCBF4FF0FF3070BD0AE000BF002070BDFD
:10976000B2EB0C0073EB0100BCBF4FF0FF3070BDDB
:109770008CEA02005940084318BF012070BD2DE952
:10978000F041D1E9004ED1E90267D0E900328068AA
:10979000A41B4FEAE375A4FB03C604FB05646EEB50
:1097A0000705D1E90A6705FB034ED1E90848C5174B
:1097B000A41BA4FB006304FB053368EB07048D695D
:1097C000D71704FB003016EB0C0340EB0E040869BE
:1097D000281AA0FB025600FB07604E69C969B14117
:1097E00001FB020158196141BDE8F08110B586B056
:1097F000184C00218068CDE90411CDE902110194D3
:1098000002A9009105A904AA03ABFCF7A5FE0599DE
:109810004FF6FF720988914201D00C4617E0039978
:10982000002918BF01210140012904D1029911B179
:1098300001AA084602E050B1049801AA2B2103F0C6
:1098400085FBFF2803D00198204000F1004420460A
:1098500006B010BDFFFF3F0070B5054603F086FF60
:10986000174E044696F82400A84386F82400306872
:1098700020B1B83004F097F8054600E00025706884
:1098800018B1B83004F08FF8054396F8240030B9C9
:109890002DB9306A18B190F82810890704D42046F1
:1098A000BDE8704004F047B8456A204604F043F82C
:1098B000306A022100220024A847346270BD00BF34
:1098C000D05C002070B588B06D4604461D21EE1CAA
:1098D000304604F015F83A208DF8020047F2736024
:1098E000ADF80000304603F04DFF0F48007B00F05C
:1098F0000F0101F141020A2938BF01F13002412173
:109900008DF80C20020901EB1011A028074838BF80
:1099100002F130018DF80B10CDF8070020462946E2
:1099200001F062FC08B070BD004004002062763A8D
:10993000B0B5174C6068216801EA000521EA000211
:10994000680622601DD51348006800F44000B0F599
:10995000000F03D11048006802F01CF9042003F046
:109960001DFF811E022905D201F0CAFF022002F06C
:109970002BF903E0012808BF01F0C2FF202002F00C
:109980009BFB280648BF00F0C9FFA560B0BD00BF23
:1099900090220840B44F0050106000202DE9F041A3
:1099A0004FF02008EFF3118188F311880122144F42
:1099B00011490D7A0A72114991F8506081F85020CE
:1099C0000021104A3C7D3975396D1268D2B251F8C8
:1099D0002210886040F2000CEFF311808CF31188A4
:1099E000D1E900018847EFF3118088F311883C75B5
:1099F00046EA0520BDE8F081185E0020245B0020C7
:109A0000005C002004ED00E089B36FF0C0020B0E93
:109A100002EA8112202B05D0212B05D0A02B05D1E5
:109A2000302118E0102116E0202114E0B1F1807FF0
:109A300001D240210FE0102B05D0112B05D0402B77
:109A400005D1702107E0502105E0602103E090215D
:109A5000502B08BF8021114341F00F0104C8531C53
:109A600018BF8A42FAD14FF0FF3140F8041C70470A
:109A700070B50468616F59B3D4F8582145685668C9
:109A8000E96B28683268D162012103F03DFCD4F80B
:109A90005801E96B0F4A40680068C0F8041591FA54
:109AA000A1F112683068B1FA81F192699047616F53
:109AB000091AE07C20B104F14C0001F03DFF05E003
:109AC000206FA26F401A20675018A06700206067BF
:109AD00070BD00BFD4010010F8B52022EFF311844F
