:020000040005F5
:2060000000800020AD660500D96605002364050093660500936605009366050000000000FE
:20602000000000000000000000000000936605009366050000000000936605009366050068
:2060400093660500936605009366050000000000936605009366050093660500936605004E
:2060600000000000936605009366050093660500936605009366050093660500936605002E
:20608000936605009366050093660500936605009366050093660500936605009366050010
:2060A0009366050093660500936605009366050093660500936605009366050093660500F0
:1860C000936605009366050093660500000000000000000093660500D0
:2060D8002DE9F04104462E482E4B4168890705D40168F02242EA114183F84D102A4F9846EE
:2060F8002A492B4A3B68002B0ED4D7F8EC5085F0C00581F831500C2505EAD363C0331370E5
:206118004FF40033C1F884304FF00123214EC2F8C231098831680968856828468847A80197
:2061380008D4E80106D598F80000414640F0020088F8000030682946426820469047D7F821
:206158000001154AC0F305311170C1054FF0130158BF2321402308F80130382101EA901071
:2061780000F56050A2F85C003068816828468847022000F0BDF9094801210160BDE8F081FC
:20619800AC4F0050096208400C13005000A00C4042A20C40F00100100EB00C409404604219
:2061B80070B52548066800F0F7F924480025244C0560206C806C80472248006838B122481D
:2061D8000068B6F1FF3018BF3046FFF779FF1F4840F2391205601E48016862F31B41016084
:2061F8001C48016801F44051B1F5805F06D10168194A114001F5003202600160174D012645
:20621800EE612068016A142088471548016841F4E021016013482E60006800F44000B0F59A
:20623800000F03D1206C416C0F4888470F4801680029FCD170BD00BF1C13005084046042B9
:20625800B001001080012843800520438C2108404820034028000940EFFFFCFC0000244333
:2062780000200940B44F0050BD3786000C0068422DE9F04FA5B00F460DF10C082F990546F6
:206298009B461446404600F0C1F8DDF8C090264E20464946B04709F1200428462146B0470D
:2062B80009F1400538462946B04709F1600A58465146B04709F1800B2E985946B0471B48CF
:2062D8000D9E1B4F214606600820C6F8DC04C6F8B804C6F89404C6F87004C6F84C0406F5F3
:2062F8008A60B84706F274402946B84706F593604946B84706F2BC405146B84706F59C6086
:206318005946B84706F2DC4006F5976106F58E6206F29443CDE9001006F24C41404600F045
:206338005BF925B0BDE8F08F6366050034010020756605002DE9F0439DB0DDF89490002145
:206358000128D9F80840216011D103ADDDF890801F461646284600F091F9284621463A46ED
:20637800334600F055F9404600F05CF908B1FF2015E0D9F8082008F12800D9F8001008F1C2
:20639800080320328DE807000749224601F10C002C31FFF76DFFA53818BF4FF0FF3040B283
:2063B8001DB0BDE8F08300BF547F050070B5A4B06E460D46002108230446324600F0B4F81F
:2063D800304600F0C5F8F0B16A46204600212C2300F0AAF89DF81200A84214D1059800F0C6
:2063F8002BF980B19DF80C0003280CD19DF80D00012808D1069800EB4430B0F5B02F02D888
:20641800079800F04CF924B070BDFEE7F0B50E4CDFF82CC0DFF82CE00D4D0E4E0E4F0F4A99
:206438000F4B8162032101704462084CC0E90127C0E90365C0E905ECC0E90734F0BD00BFAC
:20645800906705006C670500486705000067050024670500DC660500D8670500FC670500AD
:20647800B467050010B50D4C2068416904208847042000F01BF80128FAD12068C1694FF491
:20649800A0608847064801210160064801688907FCD5054801210160416010BDB801001025
:2064B8002820086028200840181A44420F49C3070A68496D01D1012106E001F0040102F0C0
:2064D8000103C91818BF0121830744BF02F0020301EA5301400744BF02F0040001EA900147
:2064F8000220002918BF0120704700BF40210840B0B50A490A4A0B4B0C684D68AC42FCD1DC
:20651800844208BFB0BD155C145DAC424FF0FF3538BF01252C441C5D0C60EDE700600C4034
:20653800286805002C68050070B51C46154601EB403600F09BF8210405D016F8011B013CED
:2065580005F8011BF7E708B900F0B2F8002070BDB0B5074907231A465BB2002B05D4D3B2AF
:20657800CC5CC55C531EA542F5D0D0B2C009B0BD2068050000200721FFF718FF0124E0B24C
:206598002B2804D80021FFF711FF0134F7E7FFF769FF00F079F8FCE704480549006808408E
:2065B8000449884208BF7047FEE700BF1813005000F0FF0F00A0B70B064880F3088800BF9F
:2065D80000BF00F079F80020FFF7D4FF012000F075F800BF0080002010B5054CD4F800C01B
:2065F800029C0294039C0394BDE81040604700BFAC00001010B54AB110F8013B11F8014BA9
:20661800013AA3421CBF012010BDF4E7002010BD10B5034CD4F800C0BDE81040604700BFB6
:20663800C800001080B5034908220431FFF7E2FFC0B280BD547F0500002118B1421E0131B0
:206658001040FAE70120884370471F22531C08BF7047835C013A01F8013BF7E70022202A87
:2066780008BF70478B5C83540132F8E780B500F01BF8002818BF012080BDFEE7014909687F
:20669800084700BFBC000010014801210170704706200240FFF784FDFFF78EBFFEE7016805
:2066B80081F3088841688F46EFF3108072B67047EFF3108062B670470120704700BFFEE732
:0266D800FEE7DB
:2066DC0008000000FCFFFFFFFFFFFFFFFFFFFFFF00000000000000000000000001000000A4
:2066FC00FFFFFFFFFCFFFFFFFFFFFFFFFFFFFFFF030000000000000000000000040000008A
:20671C00FCFFFFFF00000000080000004B60D2273E3CCE3BF6B053CCB0061D65BC869876E8
:20673C0055BDEBB3E7933AAAD835C65ADFBDC42962DF9CD890308478CD05F0ACD62E21F77E
:20675C00AB20A2E5344887041D0630DC000000000800000096C298D84539A1F4A033EB2DC7
:20677C00817D0377F240A463E5E6BCF847422CE1F2D1176B08000000F551BF376840B6CB85
:20679C00CE5E316B5733CE2B169E0F7C4AEBE78E9B7F1AFEE242E34F03000000000000001E
:2067BC00FFFFFFFFFBFFFFFFFEFFFFFFFFFFFFFFFDFFFFFF040000000000000008000000CC
:2067DC00512563FCC2CAB9F3849E17A7ADFAE6BCFFFFFFFFFFFFFFFF00000000FFFFFFFF73
:2067FC0008000000FFFFFFFFFFFFFFFFFFFFFFFF0000000000000000000000000100000080
:14681C00FFFFFFFF4343313378325231010200030200010349
:207F5400014C0000B0177D511DEC108BD851BCA2ED3D9E19B733A52F33DA05404D137650E9
:207F74003D88DF5CD0E2F2583053C42AB92ABEEF665FECCF5616CC36EF2DC95E462B7C3B97
:0C7F940009C19956D9AF958163237BE7A2
:047FA0004D63050028
:207FA80000008001100080FFFDFF5800FFC1B9F3FFFFFFFFFFFFFFFFFFFFFFFFFFFFFFFFF9
:207FC800FFFFFFFFFFFFFFFFFFFFFFFFFFFFFFFFFFFFFF00FFFFFFFF00FFFFFF00C5C5FF2A
:187FE800000000FF00600500FFFFFFFFFFFFFFFFFFFFFFFFFFFFFFFF2D
:00000001FF
