:020000040005F5
:2060000000400120416905007B6905006B69050079690500796905007969050000000000F9
:206020000000000000000000000000007969050079690500000000007969050079690500C4
:20604000796905007969050079690500796905007969050079690500796905007969050008
:206060007969050079690500796905007969050079690500796905007969050079690500E8
:206080007969050079690500796905007969050079690500796905007969050079690500C8
:2060A0007969050079690500796905007969050079690500796905007969050079690500A8
:1860C0007969050079690500796905007969050079690500796905005E
:2060D800ADF50E7D002000F0A9F8172000F0A6F84F480178437803F0020011F0020211D05F
:2060F80080B9D80702D0172000F030FC0020FE2100F0EAFB6AAA002000212C2300F09EFB0A
:20611800719812E0C2B9B8B111F0010002D0002000F01CFC1720FE2100F0D6FB46AA17204E
:2061380000212C2300F08AFB4D9800F002FC00F057FA00F0F3FBFCE7002AF8D00028F6D0AD
:206158006AAC002000218123224600F077FB46AD1720002181232A4600F070FB9DF8D7013B
:206178009DF84711FF281FD1FF291DD00020294A694644906AA8103050F8043B043A41F888
:20619800043BF9D110F8012B01F8012B20A8224955F8042B043940F8042BF9D115F8011B3F
:2061B80000F8011B6AAB20E0FF2822D0FF2920D11720184A6946449005F1100050F8043BC3
:2061D800043A41F8043BF9D110F8012B01F8012B20A8114954F8042B043940F8042BF9D1C3
:2061F80014F8011B00F8011B46AB0FCB00F0A8F99DE7FF2818BFFF2999D0FE2808BFFC29CA
:206218003FF47EAFFE2908BFFC2890D18CE700BF000300207C0000008C0000002DE9F04FE1
:20623800A9B002AD0021082304462A4600F006FB284600F017FB002876D002AA2046002136
:206258002C2300F0FBFA9DF81A00072871D1079800F044FB00286CD09DF81400032868D193
:206278009DF81500012864D1B4FA84F04709089814B9B0F5383F5FD84FEA443A00EB0A061A
:2062980014B1B6F5B02F57D8FF204AF02C054FF001080DF1A30B0DF19C098DF8A3000020FF
:2062B800279001905FEAC87026D028465946012200F0EAFA9DF8A30003280FD005F10800C3
:2062D800B04219D8281D4946042200F0DDFA27984FF001080544B542E4D90DE04FF00008CA
:2062F80015350422CDF89880284626A900F0CCFA269901200029D4D10198C0071CD027AA7B
:2063180020462F210123012500F098FA9DF89C00F82812D0099850450ED30899032551443B
:20633800884288BF012508E0B4FA84F00025470903E0B4FA84F0470901250448002F08BFD2
:206358000130057029B0BDE8F08F00BF0003002070B52548066800F05DFA24480025244C58
:206378000560206C806C80472248006838B122480068B6F1FF3018BF304600F051F81F4811
:2063980040F2391205601E48016862F31B4101601C48016801F44051B1F5805F06D101680A
:2063B800194A114001F5003202600160174D0126EE612068016A142088471548016841F45B
:2063D800E021016013482E60006800F44000B0F5000F03D1206C416C0F4888470F48016817
:2063F8000029FCD170BD00BF1C13005084046042B001001080012843800520438C21084070
:206418004820034028000940EFFFFCFC0000244300200940B44F0050BD3786000C0068420F
:20643800F8B505462248234E4168890705D40168F02242EA114186F84D101F494FF00122C1
:206458001F4F0A601D49098839680968846820468847A00105D4E00103D5307840F0020015
:2064780030703868214642682846904700F0BEF91448154A0068C0F305311170C1054FF035
:20649800130158BF232140237354382101EA901000F56050A2F85C0038688168204688470E
:2064B800022000F01DF9094801210160F8BD00BFAC4F00500962084004A40C4000A00C4076
:2064D800F00100100C1400500EB00C4094046042F0B540F6FF7C10F8013B0024082CFAD033
:2064F8000646DF0716F8015B0DD1467806F00F070337122F0DD190F90220D7B2B2F1FF3FD2
:2065180009DD03300DE001F8015B304601345B08E4E7023006E0C27807F07F07043047EAFB
:20653800C2171237320942EA0515654508BFF0BDED43002FEAD04A5D013F0A700131F8E7F7
:2065580084B070B504AC0FC44C9CB4F1170618BF17269DF8D4009DF8441004AD814203D9E7
:20657800F0B200F0F3F90AE005D2204628AD00F0EDF9344603E0F0B2FC2100F0A5F9E0B277
:20659800FE2100F0A1F9E86900F0D3F9BDE8704004B070470E480F4A0F4B016882580068B9
:2065B8000340D0B20D4A7F2888BF0020934207D1090F022906D307D0032901D1153004E0D2
:2065D800FF2002E00A2000E00B3040B2704700BF1813005088FDFFFF00F0FF0F0010B40B2A
:2065F80010B50D4C2068416904208847042000F01BF80128FAD12068C1694FF4A060884761
:20661800064801210160064801688907FCD5054801210160416010BDB801001028200860C2
:2066380028200840181A44420F49C3070A68496D01D1012106E001F0040102F00103C91809
:2066580018BF0121830744BF02F0020301EA5301400744BF02F0040001EA9001022000295F
:2066780018BF0120704700BF40210840F8B51C46154601EB403600F04FF8074628463146B6
:20669800224600F013F904462FB1054801210068426804489047002C18BFFF242046F8BD6F
:2066B800D80100100040034010F1240FD8BF6FF023001B28A8BF1B2003210F222430A1EBEF
:2066D800101122EA000022FA01F14FF6FF7222FA00F040EA014001490860704718A00C40CD
:2066F800B0B50A490A4A0B4B0C684D68AC42FCD1844208BFB0BD155C145DAC424FF0FF35FF
:2067180038BF01252C441C5D0C60EDE700600C40846905008869050070B50B4E0B4C30681A
:20673800816820468847054600060AD030680021426820469047306881682046884700287A
:20675800F9D1E8B270BD00BFD80100100040034070B50948094C84420BD0094D094EB54255
:2067780007D0F5E8020110F8012B54F822209047F5E700BF00BF70BD946905008C6905002E
:206798009C690500A46905000A4880F308880A48016841F47001016000BF00BF00F0DCF86C
:2067B80008B1FFF7D5FF0020FFF78AFC012000F0D5F800BF0040012088ED00E00748006898
:2067D800C00608D406480749006808400649884204BF012070470020704700BFB04F005018
:2067F8005013005000C4FF3F00C0071C80B5FFF7E5FF60B10648006881034FEA00414FF0D6
:20681800000058BF0816BDE88040FFF74DBF80BDB44F005080B50648064900680840064963
:20683800884204D1FFF7B6FE1328C8BF80BDFEE71813005000F0FF0F0010B40B70B51C4644
:20685800154601EB403600F05BF8210405D016F8011B013C05F8011BF7E708B900F072F8AD
:20687800002070BDB0B5074907231A465BB2002B05D4D3B2CC5CC55C531EA542F5D0D0B2F6
:20689800C009B0BD7C69050070B514460D46064600F036F82CB116F8011B013C05F8011B27
:2068B800F8E708B900F04EF8002070BD80B5044B1B689B699847034900220A6080BD00BFDF
:2068D800A801001084046042E0B58DF807100DF107022F210123FFF7C9FE8CBD002118B121
:2068F800421E01311040FAE701208843704710B500239A4208BF10BDCC5CC4540133F8E76F
:2069180080B500F01BF8002818BF012080BD0B46D0F80320C11D184600F01CB80148012123
:206938000170704706200240FFF712FDFFF72CBFFEE7016881F3088841688F46EFF3108087
:2069580072B67047EFF3108062B67047F821FFF7BBBFFEE7FFF7CBBF0120704700BFFEE795
:04697800FEE7FEE751
:10697C0043433133783252310102000302000103E8
:18698C00E96405002769050000030000FFF000009469050000030020F5
:207FA80000008001100080FFFDFF5800FFFFBBF3FFFFFFFFFFFFFFFFFFFFFFFFFFFFFFFFB9
:207FC800FFFFFFFFFFFFFFFFFFFFFFFFFFFFFFFFFFFFFF00FFFFFFFF00FFFFFF00C5C5FF2A
:187FE800000000FF00600500FFFFFFFFFFFFFFFFFFFFFFFFFFFFFFFF2D
:00000001FF
