:020000040000FA
:100000003DB8F39600000000200000005899000061
:1000100000000000010000000000000000000000DF
:10002000003A0220BD730000857B0000857B000044
:10003000857B0000857B0000857B0000857B0000C0
:10004000857B0000857B0000857B0000857B0000B0
:10005000857B0000857B000055210000000000002A
:1000600000000000FFFFFFFFFFFFFFFFFFFFFFFF9C
:10007000FFFFFFFFFFFFFFFFFFFFFFFFFFFFFFFF90
:10008000FFFFFFFFFFFFFFFFFFFFFFFFFFFFFFFF80
:10009000FFFFFFFFFFFFFFFFFFFFFFFFFFFFFFFF70
:1000A000FFFFFFFFFFFFFFFFFFFFFFFFFFFFFFFF60
:1000B000FFFFFFFFFFFFFFFFFFFFFFFFFFFFFFFF50
:1000C000FFFFFFFFFFFFFFFFFFFFFFFFFFFFFFFF40
:1000D000FFFFFFFFFFFFFFFFFFFFFFFFFFFFFFFF30
:1000E000FFFFFFFFFFFFFFFFFFFFFFFFFFFFFFFF20
:1000F000FFFFFFFFFFFFFFFFFFFFFFFFFFFFFFFF10
:10010000FFFFFFFFFFFFFFFFFFFFFFFFFFFFFFFFFF
:10011000FFFFFFFFFFFFFFFFFFFFFFFFFFFFFFFFEF
:100120004343313378325231FFFFFFFF9601BFFF67
:10013000FFFF0701FFFFFFFF00D0000000000000ED
:1001400030303031789900002C00FFFF03BFFFFFF3
:100150005500000001000000000000000000000049
:10016000000000000000000000000000000000008F
:10017000000000000000000000000000000000007F
:10018000000000000000000000000000000000006F
:10019000000000000000000000000000000000005F
:1001A0000001BFFFFF0000000020010000FFFFFF73
:1001B000FFFFFFFFFFFFFFFFFFFFFFFFFFFFFFFF4F
:1001C000FFFFFFFFFFFFFFFF2DE9F84305460C4649
:1001D000480413D4A00024D4A0075CD460057ED4C6
:1001E000200500F10681200700F13B81600040F10D
:1001F000F68005F0F1F924F08044F0E008F090FC7E
:10020000DFF81C140F6D3FB1D7E90A1202F0E0428B
:1002100001F00A01891849D008F061FD24F48044F6
:10022000DDE0BB48DFF8FC73016841F0800101604C
:10023000B878012804D1042006F06EFF0020B870C1
:1002400008F06EFC0646042008F07CFCDFF8D813AA
:100250000A68904219D12A7EBAB1FA68AAB1DFF8C9
:10026000C003806C002800F09780C16840F603024C
:100270000988914206D0C06840F60401008888428F
:1002800040F08A8005F1140088E040F6C41208604E
:10029000C5E9042284E001F0E7FBDFF88403006C89
:1002A000002840F09D8024F0020498E0D7E90A6518
:1002B000D7E90A12AA43B143C7E90A1208F00FFDB1
:1002C000B8680028AAD056EA0500A7D0D7F808C019
:1002D0003869B7F9301032462B46E0479EE708F000
:1002E0001FFC054607F0FEFD002800F0B780CC4853
:1002F000876B002F00F0B280DFF828830420CB4901
:10030000002288F81800C64808F02BFA08F0FCFC18
:10031000C74808F0D5FCC7480068006B8047C8F89C
:1003200010000125042088F8025007F0F3F838691E
:1003300090F82810C8F80400490703D5436A04213F
:1003400000229847012005F0C1FBD8F8040045764B
:1003500003F0FCFDD8F8040081680B461A465B6880
:100360004BB11E88A6F60306072EF7D805FA06F647
:1003700016F0830FF2D0537B03F0F0030133537375
:100380000023FD6853602D88A5F60305012D00F2BA
:100390008A80C8F810309FE005F1100006F012F9CD
:1003A000304608F09CFC07F0CDF878B12E6A28465C
:1003B0006FF4807100224FF00073B0479848806B53
:1003C00010B105F009F901E044F00204EE69284695
:1003D000002100224FF08063B04724F0005434B174
:1003E000974821462830BDE8F84308F0CDBCBDE869
:1003F000F8838C4EB078012804D1042006F08CFEDE
:100400000020B07007F09EF838B170686FF480710A
:1004100000224FF00073056AA847306950B1854843
:100420000068006B804732697168801A000BC860F1
:10043000002030617A4D81490022284608F091F968
:1004400002203076286C20B17D480221283008F047
:100450009BFC05F0C1F824F40064C0E708F054FCEC
:1004600041E008F05DFB054607F03CFDA0B1DFF878
:10047000B48198F8000000070ED498F90000002815
:100480000AD4684603F058FE08B1009820B1DFF89E
:10049000B49199F8610048B308F036FC05F09CF877
:1004A00024F008049BE7034633F8385FA5B190F8C1
:1004B000445090F8456005F0F00580F8445006F08F
:1004C000F005013580F8455000255360C563458728
:1004D000507B00F0F000507357480022C261016069
:1004E000012007F03FFE24F4806478E7002601270E
:1004F000602E0FD009EB0600817A31B18772407A05
:1005000007FA00F0C0B206F021FE2036F0E700BF87
:10051000CC210840032088F81800454808F0D0FB9B
:1005200008F0F2FB444F3E4D0022786900207861CC
:10053000F968F8602846444908F013F93D48006816
:10054000006B8047D8F80C10D8F82020411A02EB35
:100550001130B0EB113F38BF4FF0FF3098F8241046
:10056000C8F8200021B1D8F80810B0EBC12F20D96D
:1005700007F008FEB8B140F60900414621F83C0FEB
:10058000002048804A7B02F0F00201324A730A7B65
:1005900002F0F0020A734860F8613960B8F83E0072
:1005A00010F4406FFAD00020C8F82000012088F82D
:1005B000240005F0D1FD2548002101600220002122
:1005C00007F0D0FD022006F0A7FD102003F068FB25
:1005D00098F8010020B9D8F80400503008F0D2FB98
:1005E0001B48807810B90D2003F05AFB98F82500BD
:1005F00028B1002088F82500052006F08DFD002098
:1006000088F818001348C8F81C000220B5F85610E6
:10061000B5F85420914208BF072004F007FD3DE7DC
:100620002C5D0020905B0020CC5F0020C17E00008C
:10063000C81000208C01001000100440FD290000AB
:10064000C85C0020A80F00203D5600000000046098
:100650002C970000F12600002DE9F04F8FB00746DF
:1006600018984FF0000E002A01938DF8200000F03A
:1006700093810AA80E464FF0200A002400F1100CC6
:10068000CDF800C0114611F8010B25280E910CD0B1
:10069000002800F07D81022EC0F01581013E002F60
:1006A00000F0108107F8010B0DE15378901C0E90BB
:1006B0002D2B07D14FF00109D01C93788DF80D90A8
:1006C0000E9003E04FF000098DF80D90302B05D10E
:1006D0000121069110F8011B0E9002E01946CDF899
:1006E00018E04FF0FF322A29CDF808E0049214D127
:1006F000019D29680A1D2A60D1F80080CDF8088084
:10070000B8F1FF3F10F8011B0E9018DC4FF0010903
:10071000C8F100088DF80D900FE04FF00008A1F12E
:100720003002092A08D808EB880201EB4201A1F146
:10073000300810F8011BF2E70E90CDF808802E2942
:1007400014D1CDF810E0024612F8011B2A290E92AE
:100750000FD1019D29680A1D2A60096821EAE17B01
:10076000CDF810B0417802300E9015E04FF0FF3B0D
:1007700012E04FF0000BA1F13000092808D80BEB74
:100780008B0001EB400012F8011BA0F1300BF2E7E7
:1007900010460E92CDF810B0302B41F0200306BF6A
:1007A000CDF81880424600226C2B06D101218DF82D
:1007B0000C1010F8011B0E9001E08DF80CE0CDF844
:1007C0001CC00AAB6929CDF814E0099301D0642953
:1007D00016D1019B1868011D196093456FF009033C
:1007E000C8BF5A4601686046069204F009FBDDF86E
:1007F00000C04FF0000E0990ACEB0001059128E01D
:1008000075290AD0A1F16F03092B5FD8DFE803F047
:10081000058C6A6AA26A6A6A6A05019D2868031DD6
:100820002B6078294FF0080308BF1023752908BFF3
:100830000A239345C8BF5A4601686046069204F0F1
:10084000DFFADDF800C0ACEB0001099005914FF034
:10085000000EA8EB0100B9F1000F02901CD109E0D5
:10086000022E06D3013E1FB107F801AB029800E04B
:100870000027013401380290F2DA0DE00998022EC7
:1008800007D3013E27B1007807F8010B099800E073
:1008900000270130013409900598411E0028059178
:1008A000ECD19DF80D0078B10298013802900BDB75
:1008B000022E05D3013E17B107F801AB00E0002777
:1008C0000134F1E7002701340E9ADBE6632909D1F0
:1008D000019A1068011D11600121006805918DF8D1
:1008E0002800B4E70138022E0E904FD36FF000407D
:1008F0000BF1010186426FF0004038BF3046B3452E
:10090000024638BF0A46002908BF024604920EA9D3
:10091000019A02AB01F050F9DDF800C09DF80D908E
:10092000DDF80880059992E7019A10231068011DEF
:1009300011600821082206919DF820100029016805
:10094000604604F05DFA4FF04001DDF800C000F8A9
:10095000011D78E7019A1068011D11609DF82010B3
:10096000006800290E49002808BF0846099008F0D1
:10097000A8F8834501464FF0000E38BF59461BF1D9
:10098000010208BF0146DDF800C037E700215EE73D
:100990000FB100203870A64670460FB0BDE8F08F4A
:1009A000A09700002DE9F04F8DB0044600209A4634
:1009B00016460F46CDE90B00CDE909008A48856847
:1009C000804604F00FFD1C2803D004F00BFD1B280B
:1009D0001BD1308840F60201884218BFB0F5C15FD4
:1009E00003D1F07B022810D93EE043F6070188428C
:1009F0000BD196F82400032807D330697B4940F0D7
:100A0000806020F0604088422ED100206FB366B332
:100A1000387825FA00F0C00726D03046002108F0CB
:100A20009DF97348C4E90176006880B109A8009077
:100A30000CA90BAA0AAB304601F038FC0B980B212D
:100A40004FF6FF72502307F0FDFAFF280CD008F094
:100A500067F8684F06467878012802D840B101202F
:100A600070E0304608F03BF900200DB0BDE8F08F93
:100A700001F090FB60480DF10409016841F00201AA
:100A800001605E48C8F80000484607F0AFFFDFF895
:100A900070B15D494A469BF801009BF800500390F5
:100AA0005848283006F0B4FA584859494A4606F0E2
:100AB000AFFA484607F03AFFDFF85881564A192145
:100AC0004B460295404606F009F8544A08F11C00CE
:100AD0001A214B4606F002F85148524908F0DCF85A
:100AE0005148524908F0D8F85148006810F4402F96
:100AF00006D0504A07F128000421002307F0BCF972
:100B00009BF8020010B10D2003F01AF808F1400024
:100B100007F032FE08F1380007F02EFE46490020AB
:100B200007223876B8843862386181F86020052160
:100B3000C7E902104149F96138700420002107F02B
:100B400011FB78782F4941F8204001307870304609
:100B500008F0C5F8BAF1000F02D0DAF8000008E09A
:100B60000DF1040A36492022504608F013F94FF0DF
:100B7000FF30DAF80420BAF81010DAE90635002A56
:100B8000B2FA82F608BF40F6C4122060012076094E
:100B90006183256360762B4826764FF4FA7662618E
:100BA000C4E90362C4E90700C4E90903DAF80C00E8
:100BB00000B12062DAF8140000B16062DAF80800CF
:100BC00000B1E06104F13800C82108F06DF804F1CB
:100BD0005000002107F0E6FA1B4904F1B80008F0C4
:100BE0005BF8204641E700BFCC2108400F0000051C
:100BF000985F0020905B002000200940110000E079
:100C00002C970000C85C0020A58300005011002034
:100C1000B13700002C5D00203D560000C94B00009C
:100C20000C1100209D7E0000C810002051830000A0
:100C3000B44F00506D5D0000A80F0020F1260000A9
:100C4000A09500002F5800000F8D00002DE9FC47F3
:100C5000D0E900588246D8F80000D0F8409019F446
:100C6000F06FC0F8449035D05FEA495117D5D5E907
:100C70001401411A504606F009FED8F800008169B7
:100C8000C90605D401688DF807109DF80710F6E72E
:100C9000296801312960A97B09B90121A973696C0F
:100CA00040684FF0004600F00F0404EA0100B0FA7B
:100CB00080F126FA01F1014005D02F6C1FB12A689E
:100CC000AB6C5046B847B4FA84F026FA00F02040E6
:100CD0004042A863D5F85801D8F83C1009F0400705
:100CE00040680068D0F804251140394347D0DAE95C
:100CF0000064504604F0A6FAD7B1F07C90B90BE03E
:100D0000316F69B10068B16EB26F8854306FB16FE6
:100D100001310138B167306720688169C906EFD5B4
:100D2000F07C28B1D6E91401411A504606F0AEFD18
:100D300096F86400E0B13079022819D017B1B17982
:100D4000012901D0316F99B90024B16E01283467AF
:100D500086F86440B46607D1B36CB26FD6F8CC6045
:100D600050460094B04703E006F17C0008F00AF812
:100D7000504601F0B7FFD5F858014068006800F20E
:100D800004500068D8F83810084228D0D5F8F80088
:100D900028B3DAE90076504603F0B2FC504602F080
:100DA000A7FC7879012812D1D7F8F40078B997F820
:100DB000E80060B1002087F8E800BB6CD7F8EC10C1
:100DC000D7F8FC20D7F8504100905046A047D7F8FC
:100DD000F80020B93068816B41F4006181635FEAFB
:100DE000095023D5D8F8000081690907FCD4016BAC
:100DF00021F480710163297A91B10020287295F85D
:100E00004400800606D52C6C24B1AB6C50462021E2
:100E10000022A0475046012106F0E8FDD8F8000066
:100E2000816B21F400618163687908B1BDE8FC87BA
:100E300005F58070BDE8FC4707F0A4BF2DE9FF4130
:100E4000DFF8BC81002003900290D8F83840B4B39A
:100E5000D8F84C0010B9D8F8480070B3D8F848005A
:100E600060B12069D8F848100969814206D194F828
:100E70003300C00602D5D8F84C0090B1002702A874
:100E800087F0010103AA03F0B3FB0546FFB9F5B1F2
:100E90000299002900F09D805A4807F0A5FB002721
:100EA00014E0D8F84800C06840880028F9D0D8F885
:100EB0004800C06840880128F3D00127DFE7524886
:100EC0000221283007F060FF0027002500242CB302
:100ED0004E48466816B30298B0FA80F040092840A0
:100EE00001281BD1D8F84800D8F84C10039A87F095
:100EF0000103CDE9003208F1380208F14003B047A0
:100F0000012868D0022809D1D8F84800012201231D
:100F10000069D8F84810B1F9301065E0002C20467F
:100F200018BF01203840012851D139482169406853
:100F3000814203D034484FF4806145E00298002894
:100F400018BF01202840012806D1D8F8480018B958
:100F5000D8F84C0000284DD0082007F015FA94F876
:100F600033004C25C00608F1380058BF482507F06B
:100F700037F848F80500274BD4E90601C2439A60C8
:100F8000DA681043D860C84318605868084321469F
:100F900058600820E56807F0E5F8284607F042F8B1
:100FA000288843F60601411A022906D3B0F5C15F2D
:100FB00003D040F60201884203D10120294607F000
:100FC000D1F811484FF08041283007F0DDFEBDE830
:100FD000FF8100277BE70398002818BF0446012201
:100FE0000023B4F9301020690092002200F086FE40
:100FF000BDE8FF81082006F0A9F8BDE8FF8100BF29
:101000002C5D00200C110020C85C0020A05F002097
:10101000905B0020081004402DE9FC4F83F0004352
:1010200001E02DE9FC4F1F03FF0847EAD2574FEAC2
:1010300042284FEA43095FEA595906D147EA080AAC
:101040001CBF00210020BDE8FC8F57F000575FF463
:10105000E06E1EF1FF0EF14505D14FF00000190DB5
:101060000905BDE8FC8F002B05D55FF0000AD8F11B
:1010700000086AEB07070C03E40844EAD0544FEA7F
:1010800040254FEA4106760D08D144EA050A19BF0A
:101090000021002019461046BDE8FC8F44F00054A2
:1010A000764504D10020090D0905BDE8FC8F002913
:1010B00004D55FF0000A6D426AEB0404B6EB090E3A
:1010C00008D5A2463C465746AA464546D046CEF1EC
:1010D000000E4E46BEF1360F5CBF4FF0000B23E012
:1010E000BEF1000F04BF4FF0000B1AE0CEF1390A39
:1010F000BAF120092EBF08FA09FB07FA0AFB4BEAEE
:10110000080BDEF1200A07FA0AFA38BFBA4647FA96
:101110000EF72DBF28FA0EF8AEF1200E4AFA0EF89F
:10112000D04415EB08057C4154EA050A02BF0021B2
:101130000020BDE8FC8F002C58BF4FF0000A06D5F8
:101140005FF0010A5FF0000E6D426EEB0404A6F141
:1011500001066D006441FAD515F4806E11D005F4D6
:1011600080794BEA090B15F5806554F1000428BF1E
:10117000761C0BD205F400795BEA090B08BF25F455
:10118000006525F4E0656D0044EB0404B61CDEBF89
:1011900000210020BDE8FC8F5FF4E06E1EF1FF0E21
:1011A00076450AD34FF0000013F00043FF21C90039
:1011B000C91D09051943BDE8FC8F270547EA15300D
:1011C000210B41EA065141EACA71BDE8FC8F704724
:1011D000B0B560480021604C016094F83A010328E2
:1011E00012D002282ED0012840F0AF8094F84001A0
:1011F00003F0B0FC002084F840015948817B0220B4
:10120000002908BF06209EE054480168B1F5C0607F
:10121000C4F82C01B8BFC1F5C060D4F81011002982
:1012200000D5494288422ADDD4F8140106F0DCFDDD
:10123000D4F8180106F0EAFDD4F8280106F00AFEF9
:1012400001201DE04548056807F0A0FBC4F8140123
:1012500007F0A4FBC4F8180107F0A8FBB5F5C061BE
:10126000C4F82801C4F8101109D094F830215AB1FB
:10127000D4F81401D4F82021D4F82C110AE000206D
:1012800084F8300106205EE0C4F82401D4E9450268
:10129000C4F82C110223C4F81C01002901EB410100
:1012A00048BF6FF001031944042391FBF3F111448B
:1012B0000029C4F820110FDD1F2931D3D4F82421CF
:1012C0002AB33E28A8BF3E2001302929A8BF2921E2
:1012D000C4F81C010B3909E0D4F82421032A09D1F0
:1012E00011F1140FD8BF6FF013011531C4F820119C
:1012F000002113E00128D8BF0120013811F10A0FA5
:10130000D8BF6FF00901C4F81C010B3103E0332989
:10131000A8BF33211539C4F820110321C4F82411C2
:1013200006F062FD012006F083FDD4F8200106F0EE
:101330006DFDD4F8240106F08DFDA5F2FF510420C7
:10134000032938BF0620C4F83C01BDE8B04001F0D5
:10135000C5B800BF3C500C403058002008400C403D
:1013600090960000FEB504465A480078A04213D972
:1013700008780D46012801D1686868B168780128AD
:1013800001D1A86840B1544F57F8346007F0C8FB4A
:10139000F17921B107F0A3FC00242046FEBD07EB44
:1013A000C40401216768F17107F099FC002005F180
:1013B000040C7074F081B06030602988B180A98B12
:1013C000C6E93D00C6E90E0086F86400B186297DB5
:1013D0002B69B1719CE80610C6F85021BCF1000FD2
:1013E000C6E910C34FF0FF32C6F8CC10A969C6E9B0
:1013F0003B203163A97F86F83610296AC6E91A00B6
:10140000C6E91C00B16486F8E800C6F8580102D1AC
:101410003249C6E9101097F8400002F091FBD7E975
:10142000031206F14C0007F0D9FAD7E9051206F1CC
:10143000D00007F0D3FA2A4938680968C968884794
:101440007A6C97F8240046F2020102F021FB254D48
:10145000BA6C97F82000294602F01AFBF8690128B7
:101460000CD1FA6C97F82800294602F011FB3A6D6E
:1014700097F82C0046F2020102F00AFB04F010F982
:10148000C6F85801204601F0B7F9174A06F5AE70C4
:101490000421234606F0F0FC6D46284607F046FA84
:1014A000387A7968114A2B460094019006F11400AD
:1014B00005F014FB06F17C00002106F073FE06F532
:1014C0008070002106F06EFE3868D7E90C121060BB
:1014D000486062E7DF9600007097000093580000B4
:1014E000D001001002600020218800004D0C000097
:1014F0002DE9F84F514D8946014683016E78AF685A
:10150000013E17FA83F08E420AD94D4CAD34402C7F
:1015100006D309F10201402207F03CFC00277EE0DF
:101520008E4210D1464E09F1020106F1AD08B8F124
:10153000400F19D8424607F02DFC6FF03F00C3461C
:1015400050FA88F01CE0E868C118287800285BD0C1
:10155000023A09F10204C1F307306FF31F3193B26D
:10156000224605F011FF56E0A6F1530212F03F0BA0
:1015700008BF4FF0400B5A4607F00CFCABF140009F
:10158000B0FA80F04409F0192E4F8D2200F12001AD
:10159000384607F0FFFB287810B1B97C032905D045
:1015A000294AF989D2898A423CD1E8B3B969080B42
:1015B000090502D0012151FA80F02F79CBF1400AC0
:1015C000C6B2A988F8B27218824207D905F026FE81
:1015D0000137FF28F5D1A988032700E00027AA6872
:1015E000C8B21FFA88F3002105F0CEFEB0B9E007BB
:1015F00015D159FA8BF05FFA8AF34146821C28799B
:1016000005F0C2FE50B90AE009F102030846023AA9
:10161000194605F09FFE00283FF480AF03273846A7
:10162000BDE8F88F0527FAE70848BA690168B2FBF8
:10163000F1F000FB11210029BCD1BEE7205F0020A2
:1016400000010000200E002020010000581300209F
:101650002DE9F04F93B004464E48257A01904E484C
:1016600000904E4811904E4810904E48017B8D429C
:1016700006D1407B617A814202D10027002601E039
:10168000052601276846214606F0BAFF20B110A8BA
:10169000214606F0B5FF38B9207B06284CD8012139
:1016A000814011F0610F47D00526404801210322F7
:1016B000DFF8F480AD30962D08BF01EB901288F86A
:1016C00001200EB1002060E098F80000002842D010
:1016D000207B4FF400314FF0FF340DF1400B0DF142
:1016E000380AE946012808BF4FF48031FF25022659
:1016F000080BC8F80C10A8F80400F7B2032F30D874
:10170000264800215A4608230F9025480E90384657
:1017100005F060FF5846514606F072FF30BB384670
:1017200000214A46342305F055FF0C98A0423CBFE7
:10173000354604460136E0E73F284FF0000088BFF9
:10174000052688BF01203843AFD1D4F80E001649D2
:1017500000260861A9E70020A8F80400C8F80C00DA
:1017600008E0E8B205F05AFD2E4602E0384605F0E2
:1017700055FDF0B2D8F810100122A8F80200880632
:101780004FEA911018BF02EB911080B213B0BDE880
:10179000F08F00BF78325231434331334E564D31D2
:1017A0004F41442020010000205F00200001000084
:1017B0002DE9F84FD0E9004B984616468A46054673
:1017C00013B10020C8F8000076B107F0A9F9074668
:1017D000E07968B194F8E80088B1384607F07FFAFC
:1017E0006FF00800BDE8F88F6FF00900BDE8F88FD2
:1017F000384607F074FA6FF00E00BDE8F88F00204D
:10180000012104F58079C4E93BA6C4F8F460C4F86A
:10181000FC0084F8E810E0636073E0724846002141
:1018200007F01BFA584607F0C9F9384607F057FA8F
:1018300006F08CFF08B9607968B307F071F90646C5
:10184000284601F055FF304607F049FA607960B943
:101850000A99484607F001FA08B10120607328464A
:1018600002F04EFF002084F8E800B8F1000F1CBF22
:10187000D4F8FC00C8F80000E07A28B10020E0723B
:101880006FF00D00BDE8F88F607B002818BF6FF087
:101890000C00BDE8F88FD5E9007497F84400C00645
:1018A00015D5D7F840C0BB6C284610210022E04770
:1018B0000DE0D7F8FC0031460AEB0002204605F0A7
:1018C0005FFCD7F8FC10361A0144C7F8FC10002E54
:1018D000EFD1204607F092F80028FAD0204607F012
:1018E00067F997F84400800605D53C6CBB6C284628
:1018F00020210022A0470020B8F1000F87F8E8005F
:10190000C7D0D7F8FC00C8F800000020BDE8F88F69
:101910002DE9F047012816D1DFF830A1DAF83401BB
:10192000012813D10220CAF8340105F06DFF01200F
:10193000012405F037FE60B1CAF8344106F0E2FB3D
:101940004FF0FF347FE06FF001047CE06FF004049F
:1019500079E09AF85A419AF859119AF85801002CEE
:1019600018BF0124002918BF0234002818BF04340E
:10197000012007F0E7F8013818BF01209AF8381164
:10198000B1FA81F1490910EA010902D1002001F000
:10199000B5FCDAF808002E4D10F0010807D12D4FE4
:1019A000286A8168384688470428F9D006464046A8
:1019B00007F04EF9B8F1000F08D1012E04D1286AC2
:1019C000012142682348904706F0D8FF2868416902
:1019D000204688479AF8540118B14FF4806007F008
:1019E000B7F89AF8530118B14FF4816007F0B0F8D6
:1019F00019480121016003200021CAF83401174869
:101A00000160204604F09AFD0128FAD1144E306896
:101A1000042005F0C7FD044612480125B9F1000F66
:101A20000560306802D1012001F068FC07F028F958
:101A3000082005F0B7FD0443CAF8345118BF4FF031
:101A4000FF3406F05FFB2046BDE8F08730580020E9
:101A5000B801001000400340282008600C20084016
:101A60002C2009400C4009402DE9F047DFF8349163
:101A7000D9F840A0BAF1000F00F088800AF10C02FA
:101A80000820FF2151FA80F0C3B21B1A18BF0123AE
:101A900012686AB163B11388A3F60303012B01D95D
:101AA0000432EFE7DAF8100092E8FA003830FAC0B2
:101AB000DAF808200025DAE90A10CAE90A55B2B1B5
:101AC00010F0E2440CD021F00F0220F0E2434FF07E
:101AD000000852EA030005D006F0E5FFB04701E038
:101AE0008846044606F0DFFF42462346B04707F02B
:101AF00017F80446B9F8560001306FF31F30A9F803
:101B000056004FF6FD70AAF8300009F140008AF83F
:101B1000335006F065FA204607F0E1F8B9F85600B0
:101B2000B9F85410884231D11F48204940680D68E7
:101B300030B190F8FC200720002A08BF052000E003
:101B400005204C6803F072FA55B195F8FC000021AD
:101B500000284FF0000008BF286885F8FC1000E05E
:101B6000002044B194F8FC200021002502B925682A
:101B700084F8FC1000E00025A84288BF0546681CD8
:101B800004D02DB9BDE8F04706F0E2BBBDE8F08710
:101B900000F010F8B5FBF0F10548BDE8F04706F09D
:101BA00023BD00BF2C5D0020905B0020C85C00209E
:101BB000C81000200A2070472DE9F84F2DED066B64
:101BC0001446D2F800800A681D4612F8010B6628F8
:101BD0000A6008D1287E50B158F8040B05F0A8F926
:101BE00041EC180B0BE0E969087001206CE008F18A
:101BF000070020F0070090ED008B00F108089FED32
:101C0000380B56EC18BB5846314659EC107B3A4617
:101C10004B4603F017FE019660B128690138286130
:101C20008DED028B9DF80F0080F080008DF80F0085
:101C30009DED028B9FED2C0B56EC18AB50463146B8
:101C400053EC102B03F01CFE20B10720E8602A485B
:101C5000E8613AE05046314604F00EFB009005F092
:101C60008FFD02460B4650463146FFF7D5F99FEDF2
:101C7000200B53EC102B00F03FFF04F0C5FC014695
:101C8000686904220A2303F0BBF8411E0A23E961B4
:101C90002E2100F8011CD5E90412E869821A0A44D1
:101CA000009903F0ADF801990646E86158463A46B6
:101CB0004B4603F0C7FD28B1701EE8612D2006F8E1
:101CC000010CEE696869801BE860C4F800800020A0
:101CD000BDEC066B01B0BDE8F08F00BF00BF00BFD8
:101CE00000000000000000000000C0FFFFFFDF4117
:101CF000000000000088C340889700002DE9F84FDD
:101D00004FF00054002A994616460F46804618BFE9
:101D10004FF080444D1C06F003FF824635B140462B
:101D20003946002204F02CFC07460FE03C48816C49
:101D300011B10969414506D0C16C11B1096941452C
:101D400003D0876B02E0876C00E0C76C37B197F96E
:101D50003300B0F1FF3F03DD04245BE0032459E0CE
:101D6000DFF8BCB00A9DDBF84800874218D0DBF8EA
:101D70004C00874229D0404639464A462B4602F05D
:101D80007BFC0028E8D02748017E012941D0007E55
:101D900004283ED024482549283006F0F5FF38E0D5
:101DA000DBF848000022234605F09CFE06F0C4FE46
:101DB0001F48002E18BF00F5803006F033F9F5B14A
:101DC000DBF8480006F03FFF0CE006F0B5FE1848CF
:101DD000002E00F100501CBF0120C2F2024006F0AC
:101DE00021F965B1DBF84C0006F02DFF38690E498A
:101DF000086291F8240040F0010081F82400B9F154
:101E0000000F06D0DBF83810404601222B4602F0C6
:101E100033FC8324504606F062FF2046BDE8F88F6D
:101E20002C5D0020905B0020C85C00200200004078
:101E3000010001042DE9F0410546880058BFBDE8C6
:101E4000F0810020002403F041FE3D493D483E4F13
:101E5000CC61086040F60A008846B887FC8797F88E
:101E6000480000F0F00087F848003C6497F849000B
:101E700000F0F000013087F84900284602F066F8CB
:101E8000AC68012021460E46496849B10A88A2F68D
:101E90000302072AF7D800FA02F212F0830FF2D0F9
:101EA000707B00F0F000707307F13C007060274811
:101EB000806B28B1C0680088A0F6030002281AD3FE
:101EC000284630F8381FB1B10021E96369873864CA
:101ED00095F8440095F8451000F0F00085F84400AE
:101EE00001F0F000013085F8450097F8490000F056
:101EF000F00087F8490006F075FC1548F86197F87E
:101F0000250030B105F0DAFD0028FBD004F090F98F
:101F10000BE0012006F016FE012806D0707B00F0D1
:101F2000F000013070730B48F86100202146C8F8BA
:101F30001C00C8F800400120BDE8F04106F012B9CD
:101F40000010044001010E04905B00202C5D002075
:101F5000C90100002D6000002DE9F04387B0DFF8D3
:101F6000FC8081462025EFF3118085F31188D8F895
:101F700038501DB180F3118800256AE0C8F8389008
:101F8000374F80F311880020C9F80C104FF48031CE
:101F9000C9F81C20002BC9E91200C9E9080118BFC3
:101FA0001F46D7E90116C9F81810397B012905D158
:101FB000C9E91060C9F8146030460DE0294A0020D4
:101FC00031460023002506F035FCC9E910012649F9
:101FD000C9F814008E423CD80021DFF890E0C9E92E
:101FE000160197F800C0C9F85410BCF1020F08BFE1
:101FF0000146BCF1000FC9F8501001AB9EE8F50096
:102000001946F5C108F124001A4ACDF8089000904D
:10201000174808BF024609F12800142105F0AAFF5D
:1020200005462020EFF3118180F3118881F3118898
:1020300099F8100010B9484604F042F935B108F19A
:102040003000494606F02CFA4D4602E00025C8F85B
:102050003850284607B0BDE8F08300BF205B002061
:102060001896000040420F003F420F004C960000BF
:10207000CD6B00003D8A00001EF0040F14BFEFF38B
:10208000098169468869A1F1480214BF82F3098871
:10209000954621ED100BF1EE102A41F8082DEFF3D3
:1020A000118102B400B5DFF8D8E0F047374A126872
:1020B000116801EA000010605DF804EB1EF0080FE3
:1020C00009D101BC80F311885DF8080BE1EE100A1C
:1020D000BDEC100B704704BC1EF0040F14BFEFF3EF
:1020E00009816946A1F1200114BF81F309888D4659
:1020F0004A604FF08070C86125488861234B1B6897
:102100001868086040F201101860704702B401B40A
:10211000EFF3148100291CBF002282F3148802B45B
:1021200002B4DFF860E0F04701BC01BC00281CBF2E
:10213000022181F3148801BCDFF84CE0F0470F481E
:102140004FF08051016001BC80F3118800BF00BFD7
:10215000FFF7FEBF1EF0040F14BFEFF309816946BD
:1021600001F1200151F8080BE1EE100AB1EC100B5F
:1021700014BF81F309888D46704700BF04ED00E06D
:1021800071510000218D0000278D0000C8970000CC
:102190000C2100002DE9FF413B4E96F8420100283A
:1021A0006AD1012086F8420106F0D8FC374F86F844
:1021B0007001374D7868C6F86C01387B86F84101AC
:1021C000A86810F4402F13D1386988B128686421B9
:1021D000C0F3066000FB01F4FFF7ECFCB4FBF0F287
:1021E0002C4906F19400002305F04CF906F0BEFBE3
:1021F00001AC204606F018FD2749A846002506F147
:102200000C00002206F041FC204606F00DFD23499B
:1022100006F15000082206F038FC214A06F1D800E9
:102220003221002304F05AFC1E4C1F4A06F1F40030
:102230002C2100232560454604F050FCD8F8080006
:10224000797BC0F3815021B1032804BF012186F8B6
:102250003911032803D040F00200022810D1206871
:1022600040F040002060022005F054F96868400703
:1022700002D4002005F04EF9002004B0BDE8F08142
:1022800004F002FEF2E700BF3058002090960000F4
:10229000AC4F0050D18A00007B5C000065680000F4
:1022A0000551000090220840D11100002DE9F843AB
:1022B0001D46434BDDF8208043F606061C68038864
:1022C00014F0007411D0B34227D0B3F5C15F33D0FE
:1022D00040F60206B3423ED100F112030B604169A1
:1022E000116081692960C1692EE0B3420AD0B3F55B
:1022F000C15F03D040F60206B34203D100F11203DE
:10230000143002E000F11A031C300B60006810600A
:1023100000202860C8F800004BE000F11A034FF0DD
:1023200000090B60C1691160016A2960416AC8F83F
:10233000001000F118011CE000F112030B6041696C
:102340001160416A2960816AC8F8001000F110012B
:1023500090F80F900DE000F11A030B60C169116055
:10236000816A2960C16AC8F8001000F1180190F86C
:102370002490286868B10E8806F08EFB042808D8DF
:10238000074606F00701484603F014FB296841F8A8
:102390002700D8F8000060B106F07EFB042808D8BA
:1023A00005464846FF2103F005FBD8F8001041F828
:1023B0002500002C18BF01242046BDE8F88300BF8B
:1023C000941200502DE9FE4FD0E90085994614463D
:1023D0000F46834613B10020C9F8000074B106F01F
:1023E0009FFB064698F8070058B198F8E80070B1CE
:1023F000304606F074FC6FF008046CE06FF00904DE
:1024000069E0304606F06BFC6FF00E0463E00020DC
:102410000121C8E93B74C8F8F440C8F8FC0088F80A
:10242000E810C8F83C0088F80D0088F80B00284632
:10243000019506F0C3FB304606F051FC08F1D006CA
:102440000DF1080A06F06CFB04463046514605F0D3
:102450007FF9D8F8F450D8F8FC10A842394438BFB6
:10246000054602982A4606F095FC3046294604F0B7
:1024700027FDD8F8F400D8F8FC10401BC8F8F40089
:102480004819C8F8FC00204606F029FC012D03DBA2
:10249000D8F8F4000028D5D106F042FB0746D8F85A
:1024A000FC0050B1019806F089FB584601F020F974
:1024B000D8F8FC0010B1002402E000206FF00F04F7
:1024C000B9F1000F18BFC9F80000002088F8E80033
:1024D000384606F004FC2046BDE8FE8F2DE9F84F93
:1024E0003C4C3D4E3D4D42F62A294FF0010A4FF03B
:1024F000030B00274FF00508D4F83C01062833D819
:10250000DFE800F00433183B203D4B000F20F06063
:10251000C6F8109004F01EFB45F804AC55F8040C06
:102520008007FBD5C6F81CA094F8390190B10120B2
:10253000EF6210E02F60C4F83CB128688007FCD43B
:102540000320DBE72F60C4F83C8128688007FCD4B7
:102550000520D3E70320C6F800B0C4F83C012F6083
:1025600029688907FCD4C9E7FEE70126022084F820
:102570003A6104F097F92E6009E0022000E00320A0
:1025800084F83A01002004F08DF90120286004F15C
:102590005000BDE8F84F06F0DBBB002045F8040C06
:1025A000286055F8040C8007FBD428688007FCD409
:1025B0000B480025012105600A4801600D2001F04B
:1025C0006FFB022004F0A8FDC4F83C5184F83B5195
:1025D000BDE8F88F3058002000400C4058600C4097
:1025E0003C500C4004800C402DE9FE4F05460F4640
:1025F0005818AE687168884202D96FF0030564E02C
:10260000DFF8E8800C9C4FF0FF3199469246D8F8ED
:10261000000006F022FBE00711D1A0071ED53068AC
:1026200051464A463844CAB110F8013B11F8014BF3
:10263000013A23409C42F6D06FF0060541E0D8E90C
:102640000101CB4301EA090213EA090F18BF024452
:102650003940284602F094F8054690BB306802974E
:102660000196074404F05EF9CB4655460090BBF155
:10267000000F16D0BBF1080F5E4628BF082606F0F3
:102680004FFA804628463946324605F037FE044662
:10269000404606F024FB2CB937443544ABEB060B1F
:1026A000E5E70024009805F053FCDFF84080DDE901
:1026B00001210C9814B14FF0FF3502E0400707D418
:1026C0000025D8F8000006F05DFB2846BDE8FE8F27
:1026D00010680844B9F1000FF2D010F8011B1AF885
:1026E000012BA9F101098A42F4D0E4E7785F0020C8
:1026F000B0B50C46880722D4600758BFB0BD354D31
:102700000120A870042004F005FF33480068006B26
:102710008047E8602D48806BF0B16968046961B159
:10272000A1420AD094F82800400704D5636A2046E5
:10273000042100229847012060766C600DE0FFF7CD
:1027400093F92248006CE0B3214844F0020128309C
:10275000BDE8B04006F018BB6C6860681F4900789F
:102760000860022004F0D6FE102001F0E9F90120F3
:1027700028761B48807810B90D2001F0E1F96868CF
:10278000416818488A680AB9C96821B10021816086
:10279000154940F8141C154907220A6001680021F8
:1027A0000160426841601249124AE96101681143BF
:1027B00001601A2006F0D0FA1920BDE8B04006F0FA
:1027C000CBBABDE8B04002F007BF00BF2C5D0020CF
:1027D000C85C0020905B00208C010010D0210840D4
:1027E0002C970000141004405100070600000460FC
:1027F000351E000002400040FEB5D0E9005401A89B
:1028000006F084F895F834003649374A384E085CAB
:1028100095F83510515C354A084395F83610515CEF
:102820002A6B40EA0103316820684F680299B84773
:10283000206840F2F272E1692E4B2F4F426494F807
:1028400054209A5C94F85530FB5C1A43012942638A
:1028500011D10146D4E90A2351F8307FFF2A27F429
:10286000004718BF07F50047FF2B0F6009D00A6823
:1028700042F4804208E0014651F8302F22F4004231
:102880000A600A6822F480420A60C16A41F01001BD
:10289000C162016B41F001010163E16B09B3A16BFE
:1028A000F9B1012105F024FFD5F85801E16B40682A
:1028B0000068C162C0F8041591FAA1F17268B1FA1A
:1028C00081F15368022298477068A16B0222436825
:1028D000D5F8580191FAA1F1B1FA81F14068006888
:1028E0009847FEBDC4970000FD930000A797000025
:1028F000D0010010B1970000AC9700002DE9F0471F
:10290000A4B006F00DF933490A78012A04D124B0A5
:10291000BDE8F04706F0E3B94FF0010981F80090F7
:1029200006F0DDF9FFF736FC082001F009F921ACCB
:10293000204605F0FBFFDFF8A0A0294A102123461E
:10294000DAF80C002290254804F0C8F82548002544
:1029500001AE0478244890F800804746A74213D877
:10296000DAF8000050F8271021F0FF0046F82700A1
:10297000880707D4F8B201F0010105F0CFFF09FA8A
:1029800007F005430137E9E7184805601848C168B2
:1029900001F44001B1F5800F07D10068000E56F830
:1029A000201041F0070146F820101248A4EB08025D
:1029B000042306EB880103EB820240EA880006F05C
:1029C000E9F90D482022016862F30D21016024B06D
:1029D000BDE8F087DD5F0020E0960000E8120020EF
:1029E000B5640000DD9600007F950000D020024015
:1029F000A84F005000100840003009402DE9FE4F5C
:102A00004FF4804005F0A2FFA0B1354C3549606815
:102A1000D1F8132009786FF39F5201F00401806808
:102A200042EA417101AA00F09DFD606881680120C1
:102A300005F098FB2E482C4F2C4D44F2020B00243D
:102A40004FF0000A00F14009BAF1020F3CD055F8EE
:102A50002A80D8F80000A0B3D8F80000806905F0FB
:102A600075FF0646D8F800000023324605F03AF814
:102A700016F00A0F1ED0D8F800008069B9686BEA1A
:102A800000000840B860D8F80000C069396821EA41
:102A9000000038601020D8F8001005F063FBD8F86B
:102AA0000010484605F058F9002044F00204C8F828
:102AB000000006E02EB1D8F800000D4944F480442F
:102AC00008650AF1010ABFE724B10A482146283007
:102AD00006F05AF901F0B2FCBDE8FE4FFEF7AEB9C0
:102AE000905B0020850300210C10044068970000D3
:102AF0002C5D0020C85C00202DE9FC4191EA030810
:102B00004CBF4FF000484FF000084FEAC32545EA9C
:102B100052554FEAC2264FEA43077F0D11BF45F0D9
:102B2000004500210020BDE8FC815FF4E06E1EF14D
:102B3000FF0E774555D04FEAC12343EA50534FEA81
:102B4000C0224FEA4104640D11BF43F0004300214D
:102B50000020BDE8FC81744543D0E419A3FB0501C6
:102B6000A3FB06E7A2FB06631EEB030E57F100076B
:102B700051F10001A2FB05631EEB060E57F10007A1
:102B800051F10001FF1851F10001C01951F100018C
:102B90004CBF40F2004E40F2002E10EB0E0051F1FF
:102BA000000148BF641C01D4400049415FF44077F4
:102BB000FF37E41BDEBF00210020BDE8FC8117F5D4
:102BC0008067BC420DD24FEAD02040EA41504FEA24
:102BD00041014FEA113141EA045141EA0801BDE8DF
:102BE000FC810020FF21C900C91D090551EA080127
:102BF000BDE8FC812DE9F0470C4631498046344F51
:102C0000154608688946800744BF2E48C8600021E1
:102C10002D4801602D488246006838688169272068
:102C200088472C4E2C49306B08403063B06F20F43D
:102C30008070B0673868016B4FF4806088473868EF
:102C4000016B4FF4816088473868016B4FF4C060B6
:102C50008847224801210160C6F880413160D9F8D7
:102C60000000800705D4681C08BF4FF04045C9F834
:102C70000C50DAF80000F0698007FCD5072003F05B
:102C80003BFC0228FAD1B8F1000F13D1144C386A7A
:102C90008168204688470428F9D0012804D1386A81
:102CA0000321426820469047D6F8180220F003001E
:102CB000C6F818023868806BBDE8F047004700BFCF
:102CC00010000940FD0000400C4009402C20094044
:102CD000B80100100C200840FFFFFEFE282008600D
:102CE000004003402DE9FC4706680446707A00283E
:102CF0006BD0D4F80490D6F85801D0F80480D9F8F5
:102D00003470204602F09EFA706F20B306F14C0535
:102D1000284606F033F8316F884221D230790228F4
:102D20001ED0B06E002850D0204602F08BFA346FCF
:102D3000284606F023F8201AD6F868A0B46F70670A
:102D4000284606F01BF80021F1740AEB0401084440
:102D50000190706F0CE0B06E10B1306F0028D5D1CB
:102D600006F14C0001A904F0F3FC01217067F17435
:102D700058B30021B0F5806FB17384BF4FF4806009
:102D80007067012301990144013979601049B960E4
:102D900043F6F07101EB00100840B9680843B860D1
:102DA000D9F83C10D9F8000091FAA1F2B2FA82F2F7
:102DB00003FA02F2D8F800309A61D6F85821526826
:102DC00012689162012105F09FFCBDE8FC8700BFFD
:102DD0000180000C70B50446C80711D1880758BFA0
:102DE00070BD324C1C200021A0471D200021A047AF
:102DF0001E200021A0472E4C2E4D1C2021463DE0D8
:102E00002A4E1C2000211546B0471D200021B04746
:102E10001E200021B047204602F0D2F82988C60FB4
:102E200040F60200224C814206D043F60700814260
:102E300004D0B1F5C15F14D1E87B01E095F824001E
:102E400040060ED01C202146002200F021FE1D204D
:102E5000214606B3322200F01BFE1E2021462F22FF
:102E60001FE046B1134D1C2021462F22A8471D20EC
:102E70002146322207E00F4D611C1C200022A8478A
:102E80001D2021460022A8471E20214600222B4655
:102E9000BDE870401847002200F0FAFD611C1E20BA
:102EA0000022BDE8704000F0F3BD00BF1D890000A6
:102EB00000600020913A00002DE9F0418EB00446F8
:102EC0004A1E002012F1030F0AD809AA04900291A9
:102ED00007922F4A06928DF814000222684600E0FD
:102EE00003220C908DF834202020EFF3118680F31C
:102EF0001188608A30B1608A01386082012086F3CF
:102F0000118842E000293DD02248012104F1140734
:102F100090F808800172806909AD45620B9003F05A
:102F2000CDFEA06909970A900560A5619DF834005F
:102F3000022808D118494A680C9801604260106064
:102F4000486001F0C5FA86F31188404603F0D4FECC
:102F50002021EFF3118081F311880C9939B10A68AF
:102F60004B681A604A6809684A6000210C910B9905
:102F700000224A6280F311889DF83400002818BFAF
:102F8000012002E086F3118800200EB0BDE8F08138
:102F900023740000105E0020605C0020F0B591B04A
:102FA0001D460446013B002013F1030F0AD809AB6C
:102FB0006E460490029507932D4B069302238DF8DD
:102FC000140001E0032300262A4F0E908DF83430C0
:102FD0000C96CDE90F12B8690B902020EFF3118603
:102FE00080F31188204605F03FFA10B186F311886E
:102FF0003CE0C5B301213D7A04F10C00397221692E
:1030000009900A9109AA0A600B984262226103F0B2
:1030100055FE0C9838B118494A680160426010604A
:10302000486001F055FA86F31188284603F064FEE3
:103030002021EFF3118081F311880C9939B10A68CE
:103040004B681A604A6809684A6000210C910B9924
:1030500000224A6280F311889DF834100E980029EE
:1030600008BF084602E086F31188002011B0F0BDC9
:10307000F1730000105E0020605C00202DE9F04339
:103080008FB00C46002730491546814624229846C9
:10309000009703A805F07EFE6B4600205021002219
:1030A000C9F8007003F046FE002848D007462748BC
:1030B0004FF40071002C07F14806816008BF0446F8
:1030C0000021D4E90032A0680792002A4FF00002E4
:1030D00008BFE268FE64F963C7E90D51F9627964DB
:1030E000BB6023691044002B18BF01233B63BE64FF
:1030F0004FF0FF33089001200C91CDE90D11CDF870
:103100002880CDE9045700218DF83000069307F19F
:1031100010000CAA04F05EFD0D4803A96A4603F0F6
:103120003FFBF86040B14563C9F800702168F8685A
:1031300000F0F8FB002003E0384604F0BDFB0C2053
:103140000FB0BDE8F08300BF38950000345F002069
:10315000E7880000F0B5314A046A516B137D0C61B9
:10316000446A01F1200C032B0B704C61846A8C6162
:10317000C46ACC6190E8F000ACE8F00000F14004D3
:1031800000F110074C64F0CF01F1300CACE8F00016
:10319000046B0C64446B8C64846BC06BCC640865FA
:1031A0000BD8DFE803F0020D1016156DC4B2106CD9
:1031B000936C55F824404C600FE0002000230CE095
:1031C0001748C06D06E0174880694860D0E90A30AA
:1031D00003E000204860106C936C926BC1E902031D
:1031E00032B12BB110F8014B013B02F8014BF8E76B
:1031F0000D4802684A6590F824208A6590F82520D9
:10320000CA65C28C0A66826A4A66C26A8A66026BAC
:10321000CA66426B0A67806B4867F0BDF85B0020A6
:10322000205B0020105E002004ED00E070B5254812
:10323000066804F017FF24480025244C0560206C24
:10324000806C80472248006838B122480068B6F197
:10325000FF3018BF304600F0CFFD1F4840F2391252
:1032600005601E48016862F31B4101601C4801684B
:1032700001F44051B1F5805F06D10168194A11404F
:1032800001F5003202600160174D0126EE612068F1
:10329000016A142088471548016841F4E021016063
:1032A00013482E60006800F44000B0F5000F03D111
:1032B000206C416C0F4888470F4801680029FCD1F9
:1032C00070BD00BF1C13005084046042B0010010A8
:1032D00080012843800520438C210840482003407A
:1032E00028000940EFFFFCFC0000244300200940B7
:1032F000B44F0050BD3786000C00684270B5F8B17D
:10330000012858D1012005F01DFC012853D02D4C77
:1033100094F8380100284ED12848294E05693068B4
:1033200010F4402F30D17DB304F0DCFE502005F0C6
:10333000D9FC0120A84704F1940005F009FD25E01F
:1033400005F012FD1E48006810F4402F0AD11B48FA
:1033500004693CB11B48943005F0B2FC04F0B2FEA5
:103360000020A047174C94F8380120B31648016894
:1033700021F08001016080218160032003F0CCFEF8
:10338000002084F8380116E005F0F2FC012084F8F2
:103390003801306810F4402F00D14DB9207A8006F2
:1033A00006D4094880218160016841F080010160F4
:1033B000032004F0AFF8002070BD00BF909600001D
:1033C000B44F005030580020902208402DE9F84FAB
:1033D0001E4614460F46814605F0A2FB804604F0C7
:1033E000B1FE00284AD005462848DDF82CB005F08B
:1033F00067FCDFF89CA0274A0A9B4FF0FF31BAF820
:1034000054001A40023201306FF31F30AAF8540002
:103410000020AE6085F83240C5E90379C5E90F1098
:103420000BF0200185F8440085F838006863C5E991
:103430000800C5E906218022BAF85410A5F850000A
:10344000C5E9120085F833202986397B01F00F0188
:10345000022904D1012185F83810B968696389F817
:10346000FC000AF13800294604F076FCDAF838004E
:10347000A84208BF02F0B0F82C8E01E04FF6FE74AF
:10348000404605F02CFC20B2BDE8F88FC8100020A3
:103490002C5D0020FDEFFF9F2DE9F8432020EFF386
:1034A000118980F311882C480068006B80472B4EEF
:1034B0004FF000082A4F012286F85D8086F85C20D4
:1034C000D7E9104522462B4605F0B4F9A0FB0423AA
:1034D00000FB053301FB0431746DC7E91221B168AB
:1034E000B268611A821A914205D986F85C8089F324
:1034F0001188BDE8F883051B89F3118800208542F7
:1035000006D304442D1A0120214602F0C3F9F6E740
:103510002021EFF3118781F3118896F85D1019B11E
:103520000020214602F0B6F9411C05D0411BB06DC8
:10353000814238BF084600E0B06D011905F090F8EF
:10354000002086F85C00012086F85E00B46087F3F6
:103550001188BDE8F88300BF8C010010605C00207A
:1035600010100020F0B585B00D4600211446CDE9BD
:103570000311CDE9011101A9009104A903AA02AB2D
:10358000FEF794FE029F002F394618BF0121019ECD
:103590000140002E324618BF01221140002D10D4E8
:1035A00011B3049840F22B2105806FF39F553846E4
:1035B0002A4604F0A9FC0398314601F00FFE67602B
:1035C00010E0C9B104984FF0FF316FF39F552A46C0
:1035D000018030462B2104F097FC0398314601F01E
:1035E000C9FF666015201EE0C8B104984FF6FF724F
:1035F0000188914214D110E078B16FF39F55039880
:103600002B212A4604F080FCFF2806D004984FF0B6
:10361000FF3101801420656005E0032005E0049877
:103620000580658010202080832005B0F0BD7047A4
:10363000B0B52C490068496801422AD02A4D287843
:10364000012805D105F018FB284801210160FEE79B
:10365000687801281DD1A888A96881421FD1E9682E
:103660004A1C0429EA6015D300206870002003F08A
:103670007BFC002004F036F905F072FB012004F019
:10368000D7FE4FF0FF30A8602869013028616878C4
:1036900028B9B0BD0138A860286901302861AA881E
:1036A000E88882420ED2A81C00210123AA6002F001
:1036B0009BFD2A69E988A88804F050FA502004F09C
:1036C00011F909E005F04EFB044604F0B1FE0020BC
:1036D000687014B9012028703C20BDE8B04003F0A8
:1036E00043BC00BF40130020D45D00207C05204374
:1036F000F8B505680446D5F8F80000B1F8BD68795A
:103700006668022807D105F1D000694604F079FC0B
:10371000C5F8F80009E0D5F8EC10D5F8FC20D5F88C
:10372000F4001144C5F8F80000910028E6D0316893
:103730008A6B22F400628A6395F84410C9060AD5A0
:103740002F6C47B1297A31B9AB6C20461021002289
:10375000B847D5F8F800B0F5806F84BF4FF48060AB
:10376000C5F8F8000099336B01444A1E3168B66B06
:103770001A600E4A9A6043F6F07202EB0010104095
:103780009A6810439860D5F85801406800688662CE
:103790000846022104F0B8FF287A0028AED120465E
:1037A0000121012604F0A0FA2E72F8BD018000C0AC
:1037B0002DE9FC412A4D95F86100002844D00024F1
:1037C0000026602C40D095F86100F040C00702D17F
:1037D00020340136F5E7112095F8618000FA06F7EC
:1037E00005F09EF995F86110B94385F8611005F070
:1037F00076FA281928D0817A31B31021194A2C5928
:10380000B14011EA080190F9091052F82180466888
:10381000CFB209D001F0EAF8002079B200224FF0CF
:103820000073009020460EE0017A022902D1C17C8B
:10383000C90601D401F0DAF8CDF8008079B220464B
:1038400000224FF00063B04795F8610028B10648A8
:103850000021BDE8FC4105F097BABDE8FC8100BF3E
:10386000A80F0020943004405011002070B50129A9
:1038700053D00446002942D128480121057A01721B
:103880002021EFF3118681F3118894F82010032989
:1038900016D002291BD0012929D12168E26C636866
:1038A00019606168236859601168914204D1A16967
:1038B000C26822EA0101C160606AC0B1C0680FE05D
:1038C00020686168086060682168486012E0616A89
:1038D00069B10A68C8684B681A604A6809684A6032
:1038E00028B1016842681160416800684160204663
:1038F00003F056FB86F31188284603F0FDF9216B8F
:10390000481C0AD006480029806818BF0846D4E938
:103910000A214368BDE87040184770BD105E002062
:10392000205B00202DE9F0412B4B0127024620248B
:10393000187A1F72EFF3118C84F3118854698C424A
:1039400002D18CF3118841E01D6A002907FA01F7C2
:1039500005EBC10648BF03F12C0648BF002792F8CB
:103960002050012D26D1D2F800E0D2F84C805568C5
:10397000C5F800E0D2F804E01568C5F804E0D8F80E
:103980000050454505D1D2F818E0DD6825EA0E055E
:10399000DD609D699542354601D1DE613568D5F817
:1039A00004E01560C2F804E0CEF800206A60DD682B
:1039B0003D43DD60B1F1FF3FD66497615161DCBFEB
:1039C0000021D961012119748CF3118803F094F955
:1039D0002046BDE8F08100BF105E002070B505F004
:1039E0004BF905F0C1F805F0C5F8044600F00C00ED
:1039F0000C2803D100BF00BF30BF3BE060071ED4DE
:103A000002F0F0FF054600EB800001214600012096
:103A100004F090FC864212D91C4CA5F1180060619C
:103A200004F10C0004F0BEFE00BF00BF0120FDF752
:103A30006FFF00BF00BF002084F820001CE000BF23
:103A400000BF200715D40E4E0E4D30688168284601
:103A500088470428F9D0B0FA80F004F0100140093A
:103A600040EA111005F082F9074801210160006861
:103A700000E030BF00BF00BFBDE8704005F000B9F6
:103A8000D8010010004003402C200940305800208D
:103A90002DE9F84FFF2831D0264B0C4605464FF450
:103AA000BE21AF0004F0020843EA80004158C9B2C9
:103AB000914227D121489A464FEA142947EA000645
:103AC000834605F02DF80BF10101220C86F80090D9
:103AD00039430A7046F00201220E0A7005F0FFF821
:103AE000B8F1000F02BF45EA0A0004F001010170BD
:103AF0001148012181EA5801384316E04FF0FF30A8
:103B0000BDE8F88F00F5BE2024F0FF0162B9B8F1DE
:103B1000000F02BF2B4304F001041C70064B01246C
:103B200084EA58043B431C60114301600020BDE857
:103B3000F88F00BF00200240001A444201100840E4
:103B40002DE9F041254E0546371804F0E9FF0446FB
:103B500097F84A01411C87F84A1128B1204605F020
:103B6000BEF80020BDE8F081DFF8748018F82570F9
:103B700007F03F00142898BFFFF7E2FF08EB85002D
:103B8000458878B2B0F1FF3F0CDD78061FD41548A8
:103B90000068416928468847284602F0CFFC012882
:103BA000FAD1DBE70F4E3068C16928468847306894
:103BB000416A284688473068C16A284688470A48CB
:103BC00001210160094801688907FCD5C6E706EBB9
:103BD0008500D0F8601101208847BFE730580020E9
:103BE00058940000B80100102820086028200840E0
:103BF0008B4208BF824207D9009A002A01D0106088
:103C00005160002100207047002B08BF002A10D10E
:103C1000009A002A01D01060516002000B000021C0
:103C20000020002B08BF002A1CBFC943C04301F07D
:103C3000F0BEF0B51C4615460B460246002000219A
:103C4000B4FA84F6202E04BFB5FA85F62036B3FA0E
:103C500083F7202F04BFB2FA82F72037F61BB6F1A4
:103C6000200727BF05FA07F400257F42B4403EBF76
:103C700025FA07F73C43B540A34208BFAA4201D347
:103C8000521BA341404149416D0845EAC47564088F
:103C9000761EF1D5059F002F01D03A607B60F0BD04
:103CA000F8B5254F05463E1804F03AFF044696F84D
:103CB0004A01013886F84A01000637D11F4810F939
:103CC000251000EB85004588CEB2B1F1FF3F0CDD39
:103CD00070061FD41A48006881692846884728461C
:103CE00002F00AFC0228FAD11AE0154F3868016A7E
:103CF000284688473868816A284688473868016BB3
:103D0000284688470F48012101600F48016889074C
:103D1000FCD505E007EB8500D0F86011002088474E
:103D200006F03F00142898BFFFF7BAFF204604F0C2
:103D3000D6FF0020F8BD00BF305800205894000086
:103D4000B801001028200860282008402DE9F04123
:103D5000002918D41F4615460E46044604F056FDA9
:103D6000804620463146802202F00AFC20B10646F9
:103D700090F9330000280AD4404605F007F80021E6
:103D80000220BDE8F08100200021BDE8F081D6E9E5
:103D9000080145F00A0547F0E0472840394008434C
:103DA00010D0404604F0F2FFD6E9082303EA0701E9
:103DB00002EA050042404B40C4E92C01C6E9082351
:103DC000BDE8F081B1680B48814203D0B168C4F806
:103DD000A810B0604046C4E9285704F0D7FF04F1AA
:103DE00050004FF0FF3104F038FFD4E92C01BDE85A
:103DF000F08100BFCD570000F8B504462148224E9F
:103E00004168890705D40168F02242EA114186F829
:103E10004D101E494FF001221E4F0A601C490988AF
:103E200039680968856828468847A80105D4E801EB
:103E300003D5307840F00200307038682946426877
:103E4000204690471448154A0068C0F305311170A8
:103E5000C1054FF0130158BF23214023735438216B
:103E600001EA901000F56050A2F85C0038688168A3
:103E700028468847022002F097FF09480121016087
:103E8000F8BD00BFAC4F00500962084004A40C40CC
:103E900000A00C40F00100100C1400500EB00C40BB
:103EA0009404604270B58AB01E49086002A804F00C
:103EB0006DFE1D4D4FF480701C494FF406720223B5
:103EC000009005F11004204601F022FB00B1FEE74E
:103ED00018491748FE2200260A75027BCB7B4661F3
:103EE000C673CC6102F0F00243F003030273087B57
:103EF0008A7BCB7342F0060200F0F0008A730873ED
:103F00000D480E490E4A02ABFCF74CFD0D4900224C
:103F100000236860CDE90066FFF758FA0A480AB046
:103F200070BD00BF64130020C45E0020C0060020E6
:103F3000F45E00207C5E0020480C0020585F0020CA
:103F40004C5E0020DC5E0020A459002010B586B035
:103F50000146427E8068002343F606040593CDE9BE
:103F600003330293438003881C1B022C10D3B3F548
:103F7000C15F03D040F60204A34212D1038A002A93
:103F800023F4FE6312BF038243F43472028208E01A
:103F9000038B23F4FE630AB1038302E043F434721B
:103FA000028300224A7602A9009105A904AA03AB64
:103FB000FEF77CF928B105984FF6FF71008888421A
:103FC0000ED0049C0299204601F008F907480168C8
:103FD00021B1204606B0BDE81040084706B010BD2C
:103FE000049C0299204601F0C5FAEFE7985F002093
:103FF000BCB5204D287830B91F4C206804F019FE5C
:104000002878012813D11C4C6988AA881F4B206886
:10401000CDE900120021002204F08DFBA968206880
:104020001B4B00220091002104F085FBBCBD687889
:10403000FF2808BFBCBD01280DD002280ED080B9D2
:104040002068104B0021002204F075FB2068BDE8B9
:10405000BC4004F0F3BD2068084B04E02068084B26
:1040600001E02068084B0021002202B0BDE8B0400A
:1040700004F061BB845F0020905F00201097000077
:1040800000970000FC9500005C970000C0950000C0
:1040900064960000F8B51546044625480E4611689A
:1040A000D268AF690068002F18BF384621612063CD
:1040B0006261D5E90421002908BF4FF4007162B1A3
:1040C000D31D11444FF0FF3023F007032063C91ABA
:1040D00021F00701C4E90A1308E00731082221F0A2
:1040E0000701A16202F026FEE062F0B1D5E901010C
:1040F00004F13803EA69666307C395F8200084F881
:10410000480018B10B4841690131416100206065E8
:10411000204600F0E3FC08B10230F8BD054804F188
:10412000080104F0BDF90020F8BD0120F8BD00BF72
:1041300074130020105E00202DE9F84F0024804603
:10414000002100220460684600F052FA204DDFF89A
:1041500084A081464FF0FF374FF0190B0020602CF0
:104160001ED02A19917AB9B1107A022816D0DAF83D
:104170000400418B0069084495F8621011FB0B01A3
:10418000506903F0B7FA0646FDF714FDB6FBF0F0F0
:10419000B84238BF074601202034E0E7012000275D
:1041A00009EA0001012904D10099B94238BF0F463C
:1041B00006E0B9F1000F01D0009F01E0C10701D076
:1041C000C8F8007040EA090000F00100BDE8F88F6F
:1041D000A80F0020905B0020F8B50668054604F0A3
:1041E0009FFC0446F07AA0B1307A68B1686804F0A8
:1041F00005FC0028FAD0686804F0DAFC00200121F0
:104200003072284603F0F2FB2046BDE8F84004F087
:1042100066BD0120F072284600F072FA7179022919
:1042200008D1D6F8FC10081AC6F8FC0006F1D00038
:1042300004F0C6F896F8E8000028D5D0707920B9C7
:1042400006F5807004F09EFD70790128CCD1002025
:10425000C6F8F40086F8E8006FF00D00B36CD6F8ED
:10426000EC10D6F8FC20D6F8507100902846B847DC
:10427000BAE7F8B50446FD201D468DF80300204638
:104280001E68324600F08EF810B101208DF8030050
:104290009DF80300FD2815D1A6B1E068007B00F071
:1042A0000F0002280ED13768204631463A4600F00A
:1042B00079F820B9002F3E46F5D1002602E0022011
:1042C0008DF803009DF80300FD2804D1E06B10B1C8
:1042D00004208DF803009DF80370042F0FD0022FE7
:1042E00006D0012F0FD12846214603F047FD0AE0F2
:1042F000326822B12846214603F0D0FC03E028466C
:10430000214603F029FD78B2F8BD704770B5D0E9B9
:104310000056044640F2F2723068816B914381632B
:104320002046FFF759FF204601F028FC204602F006
:1043300041FF1B4930680968C968884764680020E4
:10434000287294F8240002F0ABFB94F8200002F0ED
:10435000A7FBE069012807D194F8280002F0A0FB30
:1043600094F82C0002F09CFB05F1140004F0F2FC20
:1043700005F5807004F004FD05F17C0004F000FDFB
:10438000D5F8580108B102F0B7FD05F5AE7003F09D
:10439000C9FE96F84000FFF783FC0020E87170BD6D
:1043A000D001001070B5B2FA82F3B1FA81F45B0962
:1043B0006409B0B312B190F844506DB389B191F86B
:1043C00044406CB3446B0E69096C05698908A40804
:1043D000AE4214BFED6800252944611AB1F1704F57
:1043E00022DAB2B1D168097B01F00F01022915D19F
:1043F000516B0569006C146980088908A54214BFD7
:10440000E26800221044081AB0F1704F01DB012865
:1044100004DB0124012304E0002302E0012400E086
:10442000002404EA030070BD00240029C8BF012451
:10443000002AF6D00129D5DAF3E770472DE9F84FC5
:10444000204E214FDFF8848000254FF0010B4FF004
:1044500002094FF0110A602D08BFBDE8F88F7C19E2
:104460002ED0A07A01282BD1607A41B20BFA00F04D
:104470001131C0B20BFA01F1CA43326072681143C4
:10448000716003F081FF04F11000002103F0D2F904
:10449000812809D1A06920B1002103F0CBF981283E
:1044A00002D184F80A900BE0607A97F861100AFA5A
:1044B00000F00843002187F86100404604F064FCE6
:1044C0002035C8E708100440A80F00205011002034
:1044D0002DE9F041044680681F4F206297F85E0086
:1044E000E8B197F85C00D0B91C480068006B8047C1
:1044F000DFF86C80D8E910562A46334604F09AF962
:10450000A0FB052300FB063301FB0531C8E912219E
:10451000B9687B6DBA689A1A411A91420CD903F0B6
:1045200023FA01212175A2681044E06097F85C002D
:1045300078B187F85D100CE001212175A26811188F
:10454000181A8242E16004D21046BDE8F04104F03E
:1045500087B8BDE8F08100BF605C00208C010010CE
:10456000101000202DE9F04186B0DFF8708098F837
:10457000650078BB012088F86500C8F80480C8F899
:10458000008003F03BFB164801AA114690E8F800B2
:104590000520F8C10490134808F11004124900F1F5
:1045A0002403204601F08EFDC8F84C4002F068FB61
:1045B0000E48D0E9102347F69160101A73F10000FD
:1045C00031BF4FF0FF30002047F6906104F032F920
:1045D000C8F8580006B0BDE8F08100BF605C00205C
:1045E000B8960000205B00209934000010100020D5
:1045F00010B504461E4849B138300068B0B1C368F0
:104600001B7B03F00F03022BF7D101E0806B68B135
:1046100002B11060C268137B03F00F03022B08D1B4
:1046200051B101698A8DC968114415E0002100204B
:104630001CE00120002119E012880169A2F60302A2
:10464000012A4A8B8CBF0969496919231144094A17
:1046500092F8622012FB0311406B03F04BF82060CC
:10466000FDF7A8FA2168B1FBF0F10120216010BD2F
:104670002C5D0020A80F00202DE9F84F07461E48AA
:1046800015460E46009300F138094C4624680CB1DB
:10469000B442FBD14FF0000A00F1400B44B3206953
:1046A000D4F80080B84220D1204600224FF0805339
:1046B00003F018FA009870B1204600224FF0807382
:1046C00003F010FA30690D49086291F8240040F0B7
:1046D000010081F824004846214603F0DBF95846E2
:1046E000214603F039FB0AF1010A002D4446D5D1D9
:1046F0005046BDE8F88F00BF2C5D0020C85C00204C
:1047000070B50568D5F8F81031B3D5F8582144686C
:104710005668A16B20683268D162022103F0E8FF7D
:10472000D5F85801A16B154A40680068C0F8041517
:1047300091FAA1F112683068B1FA81F1926990475B
:104740000446D5F8F800011B6879022806D105F166
:10475000D00002F0E6FF0BE000240CE0D5F8F400F6
:10476000D5F8FC200A44401AC5F8FC20C5F8F4002E
:104770000020C5F8F800204670BD00BFD40100102D
:104780002DE9F843DFF874901446D9F8082002EABE
:1047900001038B4221D1806843688B4220D966187F
:1047A0006FF005059E4226D82240A24223D1006820
:1047B000471802F0B7F88046ACB104F0B1F90646EC
:1047C000384603F0A9FD0546304604F088FA5DB985
:1047D000D9F80400241A0744EEE76FF004050AE054
:1047E0006FF0030507E00025404603F0B1FB002D04
:1047F00018BF4FF0FF352846BDE8F883785F0020EA
:1048000070B5184B2021EFF3118081F31188174CFC
:104810001548DA6C02609C64154C1A661C64154BD2
:1048200004689C4210D14268144B22F47F421A441F
:10483000426081764FF40071C160D0F82C1221F0F3
:104840004041C0F82C1270BD0B4D0024362CEAD02C
:104850000E2C8EBF42F8245053F8246042F8246096
:104860000134F3E7F85B002008ED00E000060000EB
:10487000003A022020000000857B00000000FA05BD
:1048800070B50446B0F90E00227A81B2920702D5C3
:10489000227B1F2A0CD8154A6368D26C52F820502C
:1048A0009D4218BF42F820304A42E281227B0BE051
:1048B0000E4B1D6D45F820400D4DDB6C53F820600C
:1048C000AE4218BF43F82050102901D30A4902E034
:1048D000042902D3074901440A70217AC90718BF85
:1048E00001F01AFF0020A060002070BDF85B0020DE
:1048F0007920000014ED00E0F0E300E0F8B51A4E76
:104900000546306828B119490978A9420AD8002417
:1049100028E001F03FFB3068002418B31349097800
:10492000A9421FD9124A05EB450102EB81044FF061
:10493000FF31D4E9015704F090F9287870B9706814
:104940003968421E0A4209D17968814206D3B068AB
:104950000840814202D10120287000E00024306824
:1049600004F010FA2046F8BD785F0020DE960000C3
:104970003496000070B586B0174990E81C001CC141
:1049800001AC204604F084F9144800F11C011430F5
:1049900001902046029103F003FE03AC204604F090
:1049A00066F90F4E00200F49012223468DF80C00B6
:1049B000049006F10805284603F048FD356006F12D
:1049C0002C05094901222346284603F03FFD756066
:1049D00001F028FF06B070BD40130020D45D002018
:1049E000845D00200D8A00001D8A0000F8B5054690
:1049F00004F096F80446A87A50B36F7A012603F0C3
:104A0000C1FB697A48B1154A48B21130536806FAB9
:104A100000F08343C0435360106006FA01F310496D
:104A2000002206FA07F02A72AA72C5E90422AA61D6
:104A3000C5E9002291F8605091F862202B4381F87B
:104A4000603012B1013A81F86220C0B202F07EFB00
:104A50002046BDE8F84004F042B900BF0810044009
:104A6000A80F0020F8B51A4901220446087A0A72F4
:104A700054F8485F02F040F9A54208BFF8BD154858
:104A80004FF0FF31FEF718FA2068134EA0421AD0FB
:104A9000076881680569026843681A6042680368AC
:104AA0005A602A686B681A606A682B685A600968DD
:104AB00011B1C06800B18847B06829461C2243681C
:104AC00098473846E2E70348BDE8F84000F012BFD7
:104AD000105E002004130020205B002070B51A49EE
:104AE0001A4A044602F0BEFD0146E061012051B3BE
:104AF000002184F8200061626069B0F1FF3F1ADD97
:104B000060690121124A01FA00F0A0616069157A1A
:104B10001172116A01EBC000E0642020EFF31186EE
:104B200080F31188204603F0D7FD86F311882846CC
:104B300002F0E2F806E00648A16121462C30E0646C
:104B400003F0AEFC002070BDBD7F0000256A0000B0
:104B5000105E0020F8B5054616484BF2F521174EB9
:104B6000006800FB01F714483C0A006800F440208C
:104B7000B0F5802F10D11248006880030CD4F06883
:104B80000068804701F0C8FF3168C9688847C010D5
:104B9000390B484304EBE0342DB90A48006820F093
:104BA0007F40204444083069416C2046BDE8F8400D
:104BB000084700BF08400C40B44F0050E00100100F
:104BC0008C13005010200940F8B5164F1648BD6CE4
:104BD00003F0C4FE0446154801680668214011F040
:104BE000200318BF002D0AD0284600223D6502F0A0
:104BF00079FF0F484FF48041283004F0C5F804EAEB
:104C0000060010F4602008BFF8BD0A4991F8612041
:104C100042EA504081F8610007480021BDE8F840B1
:104C200004F0B2B82C5D002020000E000C100440EF
:104C3000C85C0020A80F00205011002000B1704770
:104C4000B0B51A4C606D58B340F2000CEFF3118010
:104C50008CF311882020EFF3118180F31188D4E9BF
:104C60001850616DB1FA81F1C1F11F0100EBC10172
:104C7000A94215D9086802680A6051600A688A4228
:104C800004D1416A626D22EA0101616500F076FBA0
:104C9000616D29B1606EB1FA81F1C1F11F01E5E7E3
:104CA000002084F85000BDE8B0407047205B002031
:104CB0007CB504460698362903DB00220092174A89
:104CC0000CE01646124A1D46124BE181126E52F854
:104CD00021209A4207D0002200920F4A0B4602F090
:104CE0001FFB01207CBD084601F0F4FC28696968BF
:104CF0002073C4E90016287AA060297D11B140F024
:104D00000200A0602046FFF7BBFD00207CBD00BF75
:104D1000F85B0020857B000078910000289300005C
:104D2000F0B5836A5C1E144218BF1A460C4018BFC7
:104D30001C1B14EB010C01D30020F0BD571E00F129
:104D400020031C461B68002BF6D017EA030618BF89
:104D5000961B596806EB0C05A942F2D34A1BF018C2
:104D600056B1A9425E6012D0196840F80C1000EBF1
:104D70000C014A601960F0BDA94201D1196805E033
:104D8000196840F80C1000EB0C014A602160F0BD7E
:104D900010B596B0184C2020EFF3118180F31188E4
:104DA000E06810B902F04CFEFAE7E068216A134AA5
:104DB0000223B0FA80F0C0F11F00137501EBC002AE
:104DC000E26151F8300000212174A06140F2000C32
:104DD000EFF311808CF311882020EFF3118180F321
:104DE000118803F06DFDA16968461C301C3102F08A
:104DF00019FF16B010BD00BF105E0020F85B002048
:104E00002DE9F041B3F1FF3F03DC5B42B1F1FF3F1D
:104E100024DD4FF0000C4FF0010EDFF85080471EEC
:104E20000026B1FBF3F505FB131418F80440BC553C
:104E3000013E8B422946F4D9304471423023013877
:104E4000914203DA00F801390131F9E7BEF1000FB0
:104E50000CBF80F800C00130BDE8F081013A494242
:104E60004FF02D0C4FF0000ED7E700BFCC9600009E
:104E7000F0B540F6FF7C10F8013B0024082CFAD076
:104E80000646DF0716F8015B0DD1467806F00F07DE
:104E90000337122F0DD190F90220D7B2B2F1FF3FA4
:104EA00009DD03300DE001F8015B304601345B0899
:104EB000E4E7023006E0C27807F07F07043047EAF3
:104EC000C2171237320942EA0515654508BFF0BD21
:104ED000ED43002FEAD04A5D013F0A700131F8E747
:104EE00070B50024844621F0004E4042C7F6F074AD
:104EF00074EB0E004FF0FF3028D323F000455642EC
:104F0000AC4138BF70BD42EA0C0045EA0E063043A2
:104F10000CD013EA01000BD4BCEB020071EB0300D0
:104F2000BCBF4FF0FF3070BD0AE000BF002070BD75
:104F3000B2EB0C0073EB0100BCBF4FF0FF3070BD53
:104F40008CEA02005940084318BF012070BD704729
:104F500070B50024844621F0004E4042C7F6F0743C
:104F600074EB0E004FF0010028D323F000455642A9
:104F7000AC4138BF70BD42EA0C0045EA0E06304332
:104F80000CD013EA01000BD4BCEB020071EB030060
:104F9000BCBF4FF0FF3070BD0AE000BF002070BD05
:104FA000B2EB0C0073EB0100BCBF4FF0FF3070BDE3
:104FB0008CEA02005940084318BF012070BD7047B9
:104FC00010B586B0184C00218068CDE90411CDE9F8
:104FD0000211019402A9009105A904AA03ABFDF7EF
:104FE00065F905994FF6FF720988914201D00C4688
:104FF00017E00399002918BF01210140012904D1BC
:10500000029911B101AA084602E050B1049801AA20
:105010002B2103F0ABF9FF2803D00198204000F1C9
:105020000044204606B010BDFFFF3F0070B50546A6
:1050300003F076FD174E044696F82400A84386F840
:105040002400306820B1B83003F07EFE054600E051
:105050000025706818B1B83003F076FE054396F865
:10506000240030B92DB9306A18B190F8281089079A
:1050700004D42046BDE8704003F031BE456A2046A6
:1050800003F02DFE306A022100220024A84734627A
:1050900070BD00BFC85C002070B588B06D46044686
:1050A0001D21EE1C304603F0FFFD3A208DF8020072
:1050B00047F27360ADF80000304602F0F3FF0F488E
:1050C000007B00F00F0101F141020A2938BF01F114
:1050D000300241218DF80C20020901EB1011A028AB
:1050E000074838BF02F130018DF80B10CDF80700EA
:1050F0002046294601F076FB08B070BD2001000073
:105100002062763AB0B5174C6068216801EA000564
:1051100021EA0002680622601DD51348006800F4E9
:105120004000B0F5000F03D11048006801F0DAFF2D
:10513000042003F007FD811E022905D201F0A4FE20
:10514000022001F0E9FF03E0012808BF01F09CFE06
:10515000202002F027FA280648BF00F08DFFA56046
:10516000B0BD00BF90220840B44F0050C85F00207F
:105170002DE9F0414FF02008EFF3118188F31188F9
:105180000122144F11490D7A0A72114991F85060A9
:1051900081F850200021104A3C7D3975396D126824
:1051A000D2B251F82210886040F2000CEFF3118067
:1051B0008CF31188D1E900018847EFF3118088F35F
:1051C00011883C7546EA0520BDE8F081105E00209C
:1051D000205B0020F85B002004ED00E089B36FF055
:1051E000C0020B0E02EA8112202B05D0212B05D024
:1051F000A02B05D1302118E0102116E0202114E069
:10520000B1F1807F01D240210FE0102B05D0112B8E
:1052100005D0402B05D1702107E0502105E0602129
:1052200003E09021502B08BF8021114341F00F0172
:1052300004C8531C18BF8A42FAD14FF0FF3140F81E
:10524000041C704770B50468616F59B3D4F85821D5
:1052500045685668E96B28683268D162012103F01D
:1052600047FAD4F85801E96B0F4A40680068C0F863
:10527000041591FAA1F112683068B1FA81F19269CE
:105280009047616F091AE07C20B104F14C0001F0F5
:1052900017FE05E0206FA26F401A20675018A06724
:1052A0000020606770BD00BFD401001082B002F022
:1052B00041FD02F07DFA00F031FD1348FEF7F2FDEA
:1052C000124D286001F0F4FE02F0CAFA104E01AC53
:1052D000306800214FF0FF324FF0FF33FDF75EFEE4
:1052E0008107019002D5FEF783FE0198C10704D023
:1052F0002968FF2001F0A8FE01984007E8D5204664
:10530000FEF796F9E4E700BF2D8A0000681300203D
:105310004C130020F8B52022EFF3118482F311889A
:10532000826811438160014651F80C2F8A4220D0D7
:10533000114901270D7A0F72C668D6E9061203F0EB
:1053400093F8706170B13168F068726811603774F9
:1053500071683268516008B100210175B06821465A
:1053600001F0C4FF84F311882846BDE8F84001F03D
:10537000C3BC84F31188F8BD105E00202DE9F0470E
:10538000164C002100F12C03154D4FF0010A80F856
:10539000281084F850100ECBD4E91689276E2E7D84
:1053A000C4E91703A26585F814A0016340F2000C5C
:1053B000EFF311818CF31188D0E90532C1691046F1
:1053C00098472020EFF3118180F311882E7584F81F
:1053D00050A0C4E916892766BDE8F087205B00204D
:1053E000F85B00201548164AD0F884100068114078
:1053F000144A914214D1C0F34061C0F3C052C0F3CB
:1054000003300F280FD008280AD100294FF0FF30B1
:105410004FF0FF3308BF1720002A08BF184600E0EE
:10542000FF2040B2704722B91C20002908BF1B2072
:10543000F7E71A20002908BF1920F2E7941200505C
:1054400000F0FF0F0070B70BB0B5134D0124E86BEF
:1054500001680120884701281BD028683C210122CF
:1054600000230024C5680D48A84790B101F0F0FC66
:105470000B480C490068D1E900238860C01A0A4B28
:10548000A2EB92025843B2EB104F98BF020C0124DA
:105490000A602046B0BD00BFA401001000A00C406F
:1054A00030200940485F002040420F00B0B514484A
:1054B000144D807B95F83911084306D003F030FB7A
:1054C00095F83B1121B103F00AFC00242046B0BD41
:1054D000012485F83B4103F002FC022002F01AF897
:1054E0000D20FEF72DFB084801680029EED1074981
:1054F00040220A604A60002185F83A11C461E4E75D
:10550000909600003058002004800C4038500C4029
:10551000F0B5DDF814C02CF0030404F10C0505FB14
:1055200003F4944201D9012220E00CF003024FF071
:10553000000E0F460E460024ACEB02020C327BB18B
:10554000BE1887F804E0A7F806C0013B3E607E79EC
:1055500006F0F0067E7104FB05162F440134EEE7D9
:105560000022016031604260014801601046F0BDD8
:105570006C13002079B36FF0C0020B0E02EA8112A7
:10558000202B05D0212B05D0A02B05D1302118E0F0
:10559000102116E0202114E0B1F1807F01D24021DA
:1055A0000FE0102B05D0112B05D0402B05D1702119
:1055B00007E0502105E0602103E09021502B08BF57
:1055C0008021114341F00F0104C8531C18BF8A42C7
:1055D000FAD140F8041C70471CB51548017E022919
:1055E00004D11920BDE81C4003F0A8B9017E0129AF
:1055F0001DD0007E04281AD003F092FA044601A8B8
:10560000FEF79AFD28B101990A4831B102F0ECFF8A
:105610000AE0084803F054FB06E003F051FB06489B
:105620000421283003F0B0FB204603F058FB1CBDDA
:10563000905B00200C110020C85C0020B0B54FF03A
:10564000FF3003F083F9104D04461049E8698842A1
:105650000DD10F480F49002203F083F8022028766D
:1056600001F070FF18B9FEF7E9FEFBF7E7FB0A4807
:10567000044208BFB0BD09484FF000512830BDE8D2
:10568000B04003F081BB00BF905B0020C901000067
:105690002C5D0020FD29000002000040C85C0020B5
:1056A0002DE9FF41144DD5E900673879FEF748FA36
:1056B00003F036FA04463078B0B90DF104084046DC
:1056C00003F034F9B87979790C4A43460195029090
:1056D000301D01F003FA38684FF0FF31C16208490C
:1056E0008160012131704160204603F0F8FA0248E0
:1056F00004B0BDE8F08100BF78970000658C000021
:1057000000180020B0B58AB010484179D9B90125F8
:105710000F492422457101AC204603F03BFB4FF4B6
:1057200000708DF824500D4D0D492246002306903F
:10573000084805900020049007480190284602F090
:1057400085FA084845630AB0B0BD00BF205B002061
:1057500038950000D8080020DF9500007010002068
:10576000398D0000105E002021F0030108440099EB
:1057700040F8083C40F80C2C40F8041C029940F812
:10578000101C019940F8141C0F4940F8181C4FF0E8
:10579000FF3140F81C1C40E9091140E90B1140E9B8
:1057A000131140E9111140E90F1140E90D1140F8C2
:1057B000781DC0E90911C0E90111C0E90311C0E970
:1057C0000511C0E907117047C18600002DE9F041BD
:1057D000D0F8A8501F4616468846044625B12046F4
:1057E000414632463B46A847D4E928010F400640CF
:1057F00056EA070008BFBDE8F081204641468022F6
:1058000000F0BEFEC4E92C6740B1D4F8A810816056
:10581000D0E90812B143BA43C0E908120020C4F825
:10582000A80004F15000BDE8F04103F0ABBA7047A6
:1058300010B5FFF78DFB002801D0002010BD01201E
:1058400010BD00BF10B5FFF783FB002801DB00206F
:1058500010BD012010BD00BF10B5FFF779FB002877
:1058600001DD002010BD012010BD00BF10B5FFF705
:1058700037FB002801DA002010BD012010BD00BF59
:1058800010B5FFF72DFB002801DC002010BD012022
:1058900010BD70472DE9F047054615488A464FF080
:1058A000FF394FF0000804686768BC421DD02646E7
:1058B0002468307D0028F8D06DB1F06850450AD1D9
:1058C000306918B130625044F06001E086F814800D
:1058D000D6E906108847307D0028E6D0F068A0EBB6
:1058E0000A00484538BF8146DFE74846BDE8F087F3
:1058F000605C0020B0B5164A0121147A1172202292
:10590000EFF3118582F31188024652F8143F934257
:105910000FD010680368136001745A60C16809B140
:1059200000220A758068294601F0E0FC85F31188A1
:1059300008E0017CC90706BF418A0131012141828B
:1059400085F311882046BDE8B04001F0D5B900BF0D
:10595000105E002070B5144E2021306EEFF31185DB
:1059600081F31188716D726EB1FA81F1C1F11F017D
:1059700002EBC101814210D90C480121047A017265
:105980000B4802F08EFC002086F85000204685F37C
:105990001188BDE8704001F0AFB9002086F85000D2
:1059A00085F3118870BD00BF205B0020105E0020D1
:1059B0005D5E00000F280ED840F20252DFE800F0D2
:1059C00014101210080D081010100D100810100DF2
:1059D0004FF2011208E01E2802D141F2011203E049
:1059E000002201E04FF4817231B1FF2907D14FF25B
:1059F00003101040C03008E042F0300005E0C80756
:105A00000CBF42F0200042F01000000400F20370CE
:105A10007047704710B588B002F082FEFCF76EFF49
:105A200002AC204602F010FE012001210190204628
:105A300003F0DCF800B1FEE702AC01A9204602F059
:105A400035FF20464FF4036103F064F900B1FEE72F
:105A5000064A07A802A90023FDF710FB00B1FEE7E4
:105A600003F058F8002008B010BD00BFAD52000090
:105A7000B0B5144DA969CC6B20640120A063616CA2
:105A800031B1D1E900238868096951649847F6E784
:105A90002046FEF7E7FF206B48B10121287A2972E2
:105AA0000949CA692260CC6101F026F903E004F1DA
:105AB0001000FFF71FFFE0684FF0FF31BDE8B04076
:105AC000FDF730BF105E0020205B0020B0B512490A
:105AD00049684A68D2E90115D46860B155EA040002
