:02000004000AF0
:20C0000000400220F1EA0A001FE70A00AFDB0A0073E50A0073E50A0073E50A00000000000F
:20C0200000000000000000000000000073E50A0073E50A000000000073E50A0073E50A0078
:20C0400073E50A0073E50A0073E50A0073E50A0073E50A0073E50A0073E50A0073E50A00D0
:20C0600073E50A0073E50A0073E50A0073E50A0073E50A0073E50A0073E50A0073E50A00B0
:20C0800073E50A0073E50A0073E50A0073E50A0073E50A0073E50A0073E50A0073E50A0090
:20C0A00073E50A0073E50A0073E50A0073E50A0073E50A0073E50A0073E50A0073E50A0070
:18C0C00073E50A0073E50A0073E50A0073E50A0073E50A0073E50A001C
:20C0D8002DE9F04F87B00446D0E90010CA694368510001318B4240F0488100680078042876
:20C0F80040F04381BB4DE06805F5007A514602F058F82068B84F02F0AAFD02F0CFFD082881
:20C11800FBD0386840688047062840F0338102F098FD206802F09BFD02F0C0FD0828FBD0D8
:20C13800386840688047062840F02781D4E9000105F16008C26908684146013002F031F848
:20C15800D4E9000105F1C00B02F037FD3868456D2068D0E90123D0E90316C069CDE90016A4
:20C17800029040465946A847002840F0F98002F068FD2068994DC16902693868066B50462F
:20C198000B460095B04702F089FD0828FBD020682A68C169386883688E4800F54079484656
:20C1B8009847002840F0DC802168A068CA69514601F0F7FF2068524602F0F8FC02F06EFD2F
:20C1D8000828FBD0864E4FF480702A68306031463868036950469847002840F0C18020680A
:20C1F80031680269C3693868466B50460095B04702F054FD0828FBD002F0E6FCD4F800E0C6
:20C2180077490028DEF81CC0C1F800C040F0A8803868DEE90512066ADEE90130DEF80CE0F3
:20C23800CDE902C5CDE9000E5046B04702F036FD0828FBD020682A68C3693868C6690AEBEE
:20C2580003015046B047002840F08A802168E068CA69604901F0A5FF20685E4A02F0A6FCCD
:20C2780002F01CFD0828FBD05D4E4FF480702A68314641F8040F38680369484698470028CC
:20C298006ED1206871680269C3693868466B48460095B04702F002FD0828FBD020682A68DE
:20C2B800C1693868C3684846984721680028CA694B494A6054D1606841460068013001F0E4
:20C2D80070FFD4E9000102F078FC3868066A2068D0E90131C268C069CDE90012CDE9020558
:20C2F800484641465A46B04702F0D8FC0828FBD020682A68C3693868C66909EB030148461E
:20C31800B04768BB386886692068D0E90112C069CDE90012CDE902050AEB000109EB00036D
:20C3380050464A46B04702F0B9FC0828FBD020682A680021C369386846695046B04778B9B2
:20C358002068C16902693868466B50460B460095B04702F0A3FC0828FBD002F035FC78B10C
:20C3780007B0BDE8F04F02F021BB6FF0090007B0BDE8F08F6FF00200F9E76FF00300F6E779
:20C398002168144DE068CA69294601F00AFF20680021C069CDF818A005950491810702D0DF
:20C3B8004FF0FF30E3E78008002188420BD0069A52F82120059B53F8213001315A40049B0D
:20C3D8001A430492F1E70498002818BF4FF0FF30CDE700BF0062024000020010D8560020FA
:20C3F800105900202DE9F04F89B08246974888466021D0F80090504602F0A2FB9448DFF8E8
:20C4180058B2964C0AF1200600254FF0FF37CAF850009048CAF82400022D12D000202946ED
:20C4380002F01BFCC0B2314602F03AFA074628B15846214640F2BF6201F048FF2C3601357E
:20C45800EAE7504602F002FA28B950460021002201F0EAFF70B301208AF858008DF8130025
:20C4780050460021002400F0C1FD81467C48006881450DD1C8F800A0CDE90544CDE9034428
:20C49800DAF82000417888F804104068C8F808003C464C2515F10C0005D05AF8050001F0B3
:20C4B800CCFE2C3DF6E7002C18BFA146484609B0BDE8F08F504601F08FFA0028CBD000200C
:20C4D800CDE905008DF8120040F20110ADF8100001200390002001F0EDF8064602380228A0
:20C4F8000BD85046012100F081FD5D490968884203D0012818BF052006466FF001008AF814
:20C5180058608DF8136050FA86F0032836D208A9012002F0C5F928B14F48504940F29332DE
:20C5380001F0D4FECDF8088007A9022002F0B8F928B14948494940F2973201F0C7FEDAF8DF
:20C558002840DFF814B1454E00254FF0000844451DD0DAF82400294600EBC80047680898E3
:20C578003A4601F0A5FD28B15846314640F29D3201F0ACFE3D4408F10108E8E7F0B20128E9
:20C598004BD0052849D0FF208AF858004BE0DDE9071200200023CDE9000501F0DFFC88B11C
:20C5B8002D4C2E4D40F244522046294601F08EFE2046294640F2FF6201F088FEDDF8088019
:20C5D800012728E0DAF8500000214268079801F06FFDDDF8088028B11F4820494FF47B72F4
:20C5F80001F074FEDAE91401036800EBC10050E902120798C91A01F05BFD28B11648174922
:20C618004FF47D7201F062FE089801F016FE079801F013FE00279AF85860F0B201283FF4CA
:20C638001FAFFF2806D10F480C4940F2167201F04DFEFEE703AA50460021002701F0F4FE21
:20C65800044600287FF425AF0AE700BF20590020D047002000400020ECEC0A00F4EC0A005D
:20C67800245900206DED0A002DE9F04FADF5077DD0F8008006461C4615468691404602F046
:20C69800B1FA4FF0000A08EB00090027CDF814A2C8453AD208F1010B8DF810A2CDF804A230
:20C6B8001BF8010C88B3252807D02946C6F800B0A0470BF1010B0137F2E70BF101088597E5
:20C6D800C6F800809BF8000073288DF8100207D186A9284685AA234600F01CF8859F10E01A
:20C6F8000DF1060B81A986AA584600F033F8909B0246584629469847411C18BF38440746A4
:20C718008590781CC4D14FF0FF3738460DF5077DBDE8F08F2DE9F041804608681746021D2D
:20C738000A6005688DB128461C4602F05BFA06463868304438600027B742A8BFBDE8F08120
:20C75800E85D4146A0470137F6E700204146BDE8F04118472DE9FC4115460E46002740F2C2
:20C77800FD1120220446009702F0E4F904F5FE7084F8FD710190307B25284ED004F2FD189E
:20C79800782803D0642818BF6F280DD1694601AA30462B4600F046F80098A8B101982D21EF
:20C7B800002700F8011911E063280ED12868011D296004F2FB110068019184F8FC01C0B2AF
:20C7D800B0FA80F0470900E000270198A8EB000125464FF4FF73621A0029D8BF551C411C79
:20C7F80028460022002602F03EF90FB100F8016BA04207D8211A01382022013102F09AF9F0
:20C8180000202070291B2046202202F093F9204602F0E8F93844BDE8FC8125202080012009
:20C83800BDE8FC81F8B50D46077B19461446064600F014F8317B642905D1B0F1FF3FDEBFB0
:20C858000121296040420A2122466F2F08BF0821782F08BF1021BDE8F8400FE0007B642800
:20C8780007D06F2805D0782803D070281CBF002070470868021D0A6000687047F8B5144681
:20C898000D46064620B92068411E216030210170094F66B13046294600F010F821684A1EA1
:20C8B800226000FB15620646BA5C0A70F1E72068BDE8F84002F096B9A4EE0A00102904BF7A
:20C8D80000097047082914BFB0FBF1F0C00870472DE9F04FBDB08448994692460068049030
:20C8F80002F0E8F9489820B14999012901DB02F0E3F9BAF80800DAF80C10DDE94674002698
:20C918000844BAF80A1000EB0108B04511D9A8EB0605484631463A46A54288BF25462B46E7
:20C9380002F092F858B93846294602F0C5F92E44EBE705A802F011F94FF0000B00E08346D5
:20C9580002F0B6F9BBF1000F40F0C7804A9818B105A9202202F0BCF9002051464A464FF61E
:20C97800FF7300902DA800F0EDFE8346002840F0B4805E480DF1D00A0DF1CE0504680020BD
:20C9980003902DAF33AE4FF0FF38C346384651462A463346D84600F03FFE002800F18D8041
:20C9B80040F08D80BDF8CC00222807D14FF0FF3BB8F1000FEAD4A045E8DA68E0012803D0A5
:20C9D8001028C3464AD0E1E7BDF8CE30202B00F28880349948460DAA02F036F800286CD18D
:20C9F8009DF8CE70202F02D94FF0FF3B2EE04FF0000BA3452CDA3F4850F83B1000EBCB0093
:20CA1800D0F80480029102F055F9D8F8001002980DF1D40802F050F9404602F09EF8D7B1BA
:20CA3800A4460DA93A460B7898F800409C4206D1013A08F1010801F10101F4D103E00BF1E1
:20CA5800010B6446D5E7644602F032F92DAF9DE74FF0FF3BF8E74FF0000BF5E7BDF8CE0024
:20CA780020283ED1349948460DAA202301F0ECFF18BB05A80DA9202202F022F983461C4864
:20CA980001210391006883453FF47FAF25E0BDF8CE30802B25D8349948460DAA01F0D4FF01
:20CAB80058B95FFA88F0BDF8CE302021009005A80DAA00F0B1F8049065E783460DE00398CA
:20CAD80048B10B480849D1F800B000680499814208BF8B4601E04FF0010B58463DB0BDE86C
:20CAF800F08F4FF0FF3BF8E720590020C4EF0A0024590020ACEF0A002DE9F04105460020FD
:20CB180000297AD03E4F0C460021072FA7F1080688BF31468C4270D83A4800688047681EA3
:20CB3800082105424FF0080008BF2846072D98BF0846E11D21F0070833490A7892B900228F
:20CB58000023072F88BF334613B9314B1A6007E02E4B2F4D072F9A602B6098BF16461E601A
:20CB780001220A702A4E4142421E3568ADB305F10806931903EA0107BE4210D005F110031A
:20CB9800A7F108049C4201D20744F9E72C6807EB080324F0010434449C42E6D305E02B68CC
:20CBB80023F001034345E0DB3746284601F078FFB74218D0B81B2A68A0F10801296021F036
:20CBD80001016E1822F00101081A40F0010046F8080F284601F078FE06E00E4800688047B9
:20CBF8000020BDE8F0812E463046414600F068FF08480068804706F10800BDE8F08100BFCC
:20CC1800004000002C5900203459002000000020DC560020305900202DE9F04196B00D466F
:20CC380080461C983B4917461E46302351F8302001EBC000406811920068111811A815AA31
:20CC580001F056FE28B14FF0FF34204616B0BDE8F081159811990C1811A801AA12AB2146E7
:20CC780000F03EFE0028EED102980728EBD103982949072201F022FF0028E4D11398082804
:20CC9800E1D114982549082201F018FF0028DAD111A815AA214601F01DFD0028D3D1159947
:20CCB8004129D0D111980144A142CCD101780429C9D10130BC193023CDE9110712A815AA03
:20CCD800214601F015FE0028BDD1159812990844A042B8D801AE12A92246304601F012FAC0
:20CCF8000028B0D106F1200012A9224601F00AFA202D4FF0FF3408BF0028A6D101F0D6FF59
:20CD1800119801AA414600F0E1FF044601F0CCFF9BE700BFACEF0A00BCEF0A00A0EF0A0016
:20CD380080B3F8B50446384800688047374A083C0021A24207D21068114620F0010010442B
:20CD580008300246F5E7314D31484319072888BFA3F10805136823F0010010440830A842F0
:20CD780088BF0020A24249D1DA0747D059B10A680D4612F0010218BF002530B91ABB00268A
:20CD98000D4608E07047F0B1002501780646C90718BF00262DB1284601F082FE0EB301278B
:20CDB80003E086B1002500270646304601F078FE6FB129682068103120F0010021F001012E
:20CDD8000844316812E0206820F0010007E021683068083120F0010021F00101084420609A
:20CDF80009E02068296820F00100083121F001012C4608442860204601F066FD0548006807
:20CE1800BDE8F840004700BF2C5900200000002000400000305900202DE9F0470546384851
:20CE38000C4600688047204600F080FF00285ED0D4E902010022AB5C0132002BFBD1A2F188
:20CE58000108626902F00702042A0DD100264746002F4ED02068A9193A4601F0E1FC00281F
:20CE780041D43F1A0644F3E7A1EB00094646002E3FD037464E4588BF4F46616901F00701FB
:20CE9800022912D13FB100216A5C0A2A07D001318F42F9D109E04FF0000A002707E06A18FB
:20CEB80003D04F1C4FF0010A01E04FF0000A29463A4601F00DFFA068F61B3D44BAF1000F68
:20CED8003844A06002D1B9EB0709D0D1204601F041F940B96269D4E9020142F02002A1EBA1
:20CEF80000096261C3E7606940F4806060614FF0FF380448006880474046BDE8F08700BFB4
:20CF18002C5900203059002070B541F21C30C5F20000066840F2B014C1F2000401F0FCFC4C
:20CF380040F28440C4F2602000250560206C806C804740F28010C4F22830006850B140F279
:20CF58008051C4F22031B6F1FF30096818BF304600F0FAF942F28C11C4F208010D6042F239
:20CF78004801C4F203010A6840F23913282063F31B42C4F209000A60016801F44051B1F5ED
:20CF9800805F09D101684FF6EF72CFF6FC42114001F50032026001600025C4F22435012617
:20CFB800EE612068016A1420884742F20000C4F20900016841F4E021016044F6B4702E6035
:20CFD800C5F20000006800F44000B0F5000F06D1206C416C43F2BD70C0F2860088470C208D
:20CFF800C4F2682001680029FCD170BD70B586B0054633480C460668002001F02EFEC0B2BF
:20D0180005A901F04DFC002857D12846214601F0EEF800284DD02C2004FB0056307CC006BC
:20D0380047D4BCB1287D95F84010814212D80AD3687D95F8411081420CD804D3E88AB5F8E4
:20D058004210814206D22846002101F0D0F808B105982AE00020059B002132460490CDE980
:20D0780002004FF480700190164800900020FFF72FFC3268144B014605989A4214D12C22B7
:20D0980004FB0253DA681B899D180DD213448268934209D20D4B0E461B68994218BF0126B1
:20D0B80044B1994202D105E01CB18268002100F0FFFF0126059801F0C0F8304606B070BD44
:20D0D80020590020C05400203DB8F396245900202DE9F047DFF8C08004461E461746894612
:20D0F800D8F800008047206801304CD0042F01D0002E48D0254655F8040FD5F810A060B109
:20D118005FEA0A7102D50138FFF70AFE00202AF0080AC5E90000C5E90200002F08BF01275D
:20D138002AF0070040EA070AB6F5807F3746C4F814A028BF4FF48077B9F1000F18BF012E04
:20D158000BD10137384601F0A2FD2860C0B101304AF008016161606002E009F10100286041
:20D17800C11920610139C4E902010C4800688047D8F8000080470A480A490024016004E02A
:20D198004AF4806060614FF0FF340448006880472046BDE8F08700BF2C590020305900201C
:20D1B8001859002051E60A002DE9F84F05462E480C46834600684169272088472B4E002784
:20D1D800DFF8ACA03189B77077608AF80170081940280FD329B306F11008C1F1400708EB27
:20D1F800010029463A4601F073FD00204FF0400930811AE0701829462246103001F068FD7E
:20D218003089CAF80C702044308101F00EFD19490120707008604A6842F001024A60C8606A
:20D238001CE024F03F07A846B946E01BE919CAE9021001F0FAFCF0680C214B46002808BFE5
:20D258000821DBF854000822445806F150014046A04701207070F0684844F06001F0EBFCDE
:20D27800BDE8F84F00F008B8B00100106056002000590020804702402DE9FE4F2D48304D8C
:20D298002D4EDFF8C0A04FF0000B80462B488146841C05F15000029005F110000190D8F89B
:20D2B8000000416948468847B768346001F0BDFCA878B0BBB7F1FF3F1ADDDAF80C7037B352
:20D2D800402F19D3D8F8001027F03F07DAF8080008223B46D1F80CC00299E047DAE90201FC
:20D2F800C91B3844CAE90201E8683844E86018E04FF0FF3068600AE0DAF8081001983A46D1
:20D3180001F0E6FC2889CAF80CB03844288185F801B09AF80100012804BFA5F808B0C5F80F
:20D338000CB001F088FC68780028B8D16868BDE8FE8F00BF040200108847024001000080AA
:20D358006056002000590020F0B581B044F6AC71C5F200014A6846F2092605469007C4F2D0
:20D37800080605D40868F02242EA104086F84D004AF20440C4F20C004FF0012202604AF2A3
:20D39800000040F2F017C4F20C00C1F2000700888C68386801682046884704F04070B0F1C1
:20D3B800807F03D1307840F0020030703868214642682846904741F20C40C5F20000006874
:20D3D8004BF20E02C0F30531C4F20C021170C1054FF0130158BF232140237354382101EAD8
:20D3F800901000F56050A2F85C003868816820468847022000F046FF40F29440C4F2602089
:20D418000121016001B0F0BD2DE9FF412A4E044656F8540C416927208847284F00200125D0
:20D43800B87078602648457001F0FFFB7D70F86868B1398999B13268431807F110001568DA
:20D458000822CDE9001207F1500221462CE030683A8921460823456807F1100024E0C0009F
:20D4780007F110080025402102904046039501F067FB8020387407F1480002A92A1D07D0A6
:20D498004A19013DD378D27900F8012BC370F5E707F150012046202201F01AFC3068214613
:20D4B80008224023C5684046A84701F0C4FBBDE8FF41FFF7E1BE00BF040200106056002050
:20D4D8000059002070B586B0044680680D4602AA1023A0F11001204601F0B6FA002840D417
:20D4F80002AE20461022314601F0C5F908B103210DE0214A0021535C705C984203D10131F5
:20D518001029F8D103460221984208BF012129700DF1070201230126A068A0F128012046AF
:20D5380001F092FA002823D49DF8070001220126010900F00F00297168700DF1070120466A
:20D5580001F099F910B96878052802D300206E702871A068A91CA0F12002204601F036F8E9
:20D5780008B1012604E0E91C204601F08CFB0646304606B070BD00BF6CEF0A00F8B501F085
:20D5980054FB1F4D287810B14FF0FF3433E0002701246F702C70AF7001F04DFBEF602F81B4
:20D5B80001F043FB174D04202C7000F0F9FE164E012809D02F7030684169042088470420BB
:20D5D80000F0EEFE0128FAD13068C16901F069FB3068416A01F065FB3068C16A01F061FBA8
:20D5F8000A4804600A4801688907FCD50948002401686960046001F01EFB2046F8BD00BF52
:20D618006056002000590020B8010010282008602820084034EF00E02DE9F84380B30446C9
:20D63800006868B3606858B3894621691F4690466D464FF6FF766069814238D22068408994
:20D6580020B1E068814204BF0431216160682A46042301F0F9F998B9A07A18B1D4E9030125
:20D67800814224D22089B0420ED0BDF8001081420AD02069BDF802100844011D2161DAE701
:20D698004FF0FF30BDE8F88317B1BDF80000388020690430C9F80000BDF802002169A8F850
:20D6B80000000844043020610020BDE8F8830120BDE8F883F0B585B003A9012001F03FF900
:20D6D80020B901A9022001F03AF910B1FF2005B0F0BD9DF804109DF807E09DF80C309DF89C
:20D6F8000EC09DF80F50164E00200027122823D0345C042C06D0052C02D1012B02D118E0E7
:20D718009C4216D134186278042A06D0052A02D1012902D10DE08A420BD1022F03D2E2780E
:20D73800724506D10AE0A278AA4202D12279624504D006300137D9E70120C8E76079C6E7E6
:20D7580048EF0A002DE9FC4180B10D4671B1164662B104462889E9681F4601AA042301EB99
:20D7780000083046414601F06FF918B14FF0FF30BDE8FC81BDF8040046F608126989904207
:20D798000ED1BDF806008142F0D1414401AA3046042301F059F90028E8D1BDF8040001E0C8
:20D7B8000029E3D146F607118842DFD10898BDF806102781C4E90056A07208F10400206100
:20D7D80068894044E060084460610020BDE8FC81F0B504680B1B012B35DB25782E060AD40B
:20D7F800631C03602578C91A002015608D4288BF6FF05F00F0BD05F07F05013D032D84BF6F
:20D818006FF06300F0BDDFE805F0021C0814022B19D36578A31C0360E5E7042B13D3A67874
:20D838006578231DE7780360300240EA0540C519D9E7052B07D3D4F80150631D03602DBAC1
:20D85800D1E7032B02D26FF05F00F0BDB4F80150E31C0360280405BAC5E7704710B501F028
:20D87800E4F9194C607808B100F0BCFD002018492070164C6068086001F0DDF901F0D5F9EB
:20D898002078144C40B92068816904208847042000F086FD0228FAD12068016A01F001FAAF
:20D8B8002068816A01F0FDF92068016B01F0F9F9094801210160094801688907FCD5BDE88B
:20D8D800104001F0B8B900BF605600200059002034EF00E0B8010010282008602820084064
:20D8F800F8B51C4617466A4630230E46054600F0FFFF00B1F8BD2868311A0129BCBF6FF0CF
:20D918005F00F8BD01783A46062302C2009946182846314600F0ECFF0028EBD12868B860B2
:20D93800786829680844B042286015D010F8011B2246286002C228463146FFF749FF002890
:20D95800D8D12868A0606068296808442860801B18BF6FF06500F8BD20460C2101F016F9CB
:20D978000020F8BDF8B506680446701C04D06569204600F0EFFB18B14FF0FF352846F8BD88
:20D99800207D05F48057000707D560680138FFF7C7F9606920F0080060610020C4E90100F8
:20D9B800E060206800F0F2F905464FF0FF30002F2060E3D0054800688047054800EB0610C7
:20D9D80001F082F9034800688047D7E72C590020C055002030590020F0B5816AFA2904D879
:20D9F800D0F854C0BCF1FA0F01D90020F0BD002300260024002500278C4228BF65451DD2CF
:20DA18009E420AD010D2022FEFD0426A012702EBC402013452681644EEE7466A06EBC40652
:20DA3800013476681E4402E0012FDED00227026D02EBC502013552681344DDE785EA0C00C7
:20DA580061400843B0FA80F04009F0BD2DE9F047DFF85CA00446DAF8000080474CB120464C
:20DA780000F078FB04461548006880472046BDE8F087DFF84080104DDFF8409000240027ED
:20DA9800D8F800008742EEDA296801310CD0DAF800008047284600F05DFB0646D9F8000002
:20DAB8008047D8F80000344318350137EAE700BF2C59002028590020E456002030590020E2
:20DAD800F8B50D460168044621F00100401B102824D31449144A5318072A88BFA3F10801A4
:20DAF8006619083846F8080F20F00100304400F108078F420ED23878C0070BD1384600F003
:20DB1800CFFF31683868083120F0010021F0010108443060304600F0D7FE294641F00100D1
:20DB38002060F8BD0000002000400000F0B540F6FF7C10F8013B0024082CFAD00646DF074A
:20DB580016F8015B0AD1467806F00F070337122F0AD187783A0609D403300DE001F8015BB7
:20DB7800304601345B08E7E7023006E0C27807F07F07043047EAC2171237320942EA0515DA
:20DB9800654508BFF0BDED43002FEAD04A5D013F0A700131F8E7FEE770B5064616481446B6
:20DBB8000D4600688047306801301DD0012C07D1307DC00604D5B06810B131692844451A86
:20DBD800304600F0C7FA71693068224621F420617161294600F0F8FD0446084800688047A7
:20DBF800601C18BF002404E00448006880474FF0FF34204670BD00BF2C5900203059002025
:20DC1800FEB5016804460026885D18B13A2803D00136F9E7134D22E0124D8F191FD0082ED8
:20DC3800A8BF08268EB10DF10300324601300B7800F8013C23B101300131013AF7D104E078
:20DC5800022A02D3511E00F07BFF0DF103000021815500F025FD10B1791C05462160284638
:20DC7800FEBD00BFD457002070B59AB0064614480D460068804701AC3146204600F0ABFF0A
:20DC9800304600F0BDFF064620442946013000F0A2FF284600F0B4FF0A4D30442246831C86
:20DCB800F720294600F0E2FC2846002100F02CFD0548B5F900400068804720461AB070BD89
:20DCD8002C590020D056002030590020F0B599B0064604200DF1070714460D4620228DF8BA
:20DCF8000700781C314600F0F3FF07F1210006F12001202200F0ECFF17AE394641223046AD
:20DD180000F0C9FF0848CDE913651594129004F12000169012A8FEF7D3F9002818BF4FF0F6
:20DD3800FF3019B0F0BD00BF80EE0A0010B504460068013028D06169C80622D4080605D5D9
:20DD580020460021022200F0BDFF6169880604D4480644BF41F020016161626801206AB9B1
:20DD780011F004020AD101F00702204600214FF48073FFF7ADF9B0FA80F04009E168216128
:20DD980010BD41F480606061002010BD70B5002802D40546092802D94FF0FF341DE010489A
:20DDB800006880470F4E56F8351089B106EBC500096940688847044601300BD056F835007A
:20DDD800002146F83510418921F00101418101E04FF0FF34044800688047204670BD00BFC8
:20DDF8002C590020B05800203059002070B5154D0023032B1FD055F8234001332678864284
:20DE1800F7D160787F2816D10F484FF470530025006803EA8020D4E901340444013CB4FB1F
:20DE3800F0F4A5420AD002EBC50642F83530034401357060F5E74FF0FF3070BD00200C607E
:20DE580070BD00BF5CEF0A0030240340F8B500F061FA00F009FF01A800F062FEB0B90198E7
:20DE780011490068884211D1072003214FF4FA7200F038FB0198039900890A58084482F31E
:20DE9800088840688047002004B080BD00F042FA06200A21322200F025FB062002214FF4ED
:20DEB8007A7200F01FFBF3E73DB8F396F8B50646114814460D4600688047104F200A002223
:20DED8000023F871280E3946BC71BD703E707871280C3871280AF870300A7870F42000F05B
:20DEF800C5FB3846002100F00FFC05483C68006880472046F8BD00BF2C590020D0560020CB
:20DF180030590020F8B50646114814460F4600688047104D380A0023E870200AAF702C7011
:20DF38006870F05C01330028FBD1F0202946324600F09CFB2846002100F0E6FB0648B5F9A3
:20DF5800005000688047002D48BF2C462046F8BD2C590020D0560020305900202DE9F84F78
:20DF7800DDE90AB6124F994690468A460024B4421AD2351B04EB090150463A46B5F5806F1F
:20DF980028BF4FF480652B4600F05EFD48B904EB0B0140463A462B4600F0C2FA2C440028E7
:20DFB800E5D00120BDE8F88F0020BDE8F88F00BFA04F002070B5104E01240420347000F0CD
:20DFD800EFF90E4D01280AD0002030702868416904208847042000F0E3F90128FAD1286882
:20DFF800C16940F20240884705480460054801688907FCD570BD00BFE0560020B8010010C9
:20E018002820086028200840F8B50646104814460D4600688047B4F5807F0E4F28BF4FF44C
:20E038008074200A00220023F870300A3946BC703E707870F22000F019FB3846294600F08F
:20E0580063FB0548B7F90040006880472046F8BD2C590020D056002030590020F8B5064636
:20E07800104814460D4600688047B4F5807F0E4F28BF4FF480742A462346200AF870300A8C
:20E098003946BC703E707870F32000F0EFFA3846002100F039FB0548B7F90040006880470C
:20E0B8002046F8BD2C590020D0560020305900202DE9F04143787F2B17D1406845181048A8
:20E0D8004FF47051AE18006801EA802700F0CCF98046B5420CD22846EC1900F0A6FC000609
:20E0F8002546F6D04FF0FF3503E04FF0FF3503E00025404600F036FC2846BDE8F08100BF1B
:20E11800302403407CB5134606460C46084601AA1946022300F0ECFB10B16FF002007CBD79
:20E13800019D202D06D3206820222844A0F12001304608E0C5F12001304600F001FD701BF7
:20E1580021682A46203000F0C3FD20682844206000207CBD10B504460068411C04BF4FF00B
:20E17800FF3010BD636961689A0609D541B1A268521A05D000F054FB00280CD4616863695F
:20E198005806A16021615CBF002010BD23F030010020616110BD606940F480614FF0FF303F
:20E1B800F7E7F0B513180D469C1E93081E4636B154F8027C043C013E3FBA80C5F7E702F04F
:20E1D8000302032A05D0022A0BD0012A0ED100780AE00278B0F80100000400BA40EA024060
:20E1F80002E00088000400BA41F82300F0BD7CB5054600200C4600F030FDC0B201A900F0BF
:20E218004FFB10B14FF0FF307CBD019800F0B5FC0646019800F011F82C20002204FB00505F
:20E238001146042A03D0435C4A1CB342F8D00020042938BF4FF0FF307CBD704710B50D48F0
:20E258000D4C007840B92068816904208847042000F0A6F80228FAD12068016A40F2024069
:20E278008847064801210160054801688907FCD510BD00BFE0560020B80100102820086074
:20E298002820084080B546F200014EF6B47E4EF6B87CC4F20C01C0F20A0EC0F20A0C00BF66
:20E2B8000B6800BF4A689342FCD1834208BF80BD1EF803201EF800309A424FF0FF3338BF34
:20E2D80001231A441CF802200A60E9E7F8B516460C46054600F08DFC0746204600F089FCED
:20E2F8003844263000F0D3FC58B108492A4623460746009600F032F93846BDE8F84000F0F9
:20E31800C1BB0348BDE8F84000F0BCBBE2ED0A00CAED0A0010B50D4C2068416904208847FD
:20E33800042000F03DF80128FAD12068C1694FF4A0608847064801210160064801688907AC
:20E35800FCD5054801210160416010BDB80100102820086028200840181A4442B0B5044626
:20E378000C48006880470023E05C01330028FBD1094DF5202246294600F078F92846002149
:20E3980000F0C2F90548B5F90040006880472046B0BD00BF2C590020D0560020305900202A
:20E3B80042F24011C4F208010A68496DC30701D1012106E002F0010301F00401C91818BF91
:20E3D8000121830744BF02F0020301EA5301400744BF02F0040001EA90010220002918BF62
:20E3F8000120704770B500F020FC0C4D687878B10B48012606600B480068016A272088477E
:20E4180000246FF00200AE70EC602C81686001E04FF0FF3400F00FFC204670BD60560020C9
:20E4380040470240B00100102DE9F04116468846044600250746022D09D0204629463A46B0
:20E45800334600F0DEF828B92C370135F3E74FF0000806E0B8F1000F18BF8046002D08BF9B
:20E4780080464046BDE8F08170B50D4E0D4C30688168204688470546606840F03000606060
:20E4980028060AD03068002142682046904730688168204688470028F9D1E8B270BD00BF8E
:20E4B800D801001000400340B0B504460A48006880470A4DF1200022002329462C8000F0F0
:20E4D800D5F82846002100F01FF90548B5F90040006880472046B0BD2C590020D056002098
:20E4F800305900202DE9F0470C4F14468A4606464FF000084FF001090025554528BFBDE862
:20E51800F087204606F8079000F02FFB204606F8078000F02AFB0135EFE700BF002002402A
:20E53800F8B5154642787F2A13D140681C464618FFF79AFF074628463146224600F066FA93
:20E558000446384600F00EFA002C18BF4FF0FF3401E04FF0FF342046F8BDFEE782B0F8B53C
:20E57800CDE901010948CDE9062306A9084B0391009002A801AAFEF777F8019A002111707F
:20E5980004B0BDE8804002B0704700BF0DEB0A008DEC0A0070B50948094C84420BD0094DDB
:20E5B800094EB54207D0F5E8020110F8012B54F822209047F5E700BF00BF70BD4CF00A00D8
:20E5D80040F00A0054F00A0064F00A0070B50C461146012306460125224600F035FA00282A
:20E5F8000DD430462146012200F045F908B1032003E02078012818BF022000252070284658
:20E6180070BD1CB50020144600F027FBC0B201A900F046F908B1012409E001980021224624
:20E63800202300F011FA0446002818BF01240198FFF703FE20461CBD70B50A4C2046FFF770
:20E6580091F9094D1834012628688642A8BF70BD2168002903D42046FFF784F92868183425
:20E678000136F2E7E45600202859002070B50B4C207100202360082804D00D5C26180130EB
:20E698007571F8E704F10D002BB112F8011B013B00F8011BF8E700BF70BD00BFA0530020AC
:20E6B800B0B50146007880B1094A02F12800783290420AD00023C55CCC5C15B10133A542DC
:20E6D800F9D0A54202D02830F2E70020B0BD00BFD4570020B0B503231546044600F008F9B7
:20E6F80000B1B0BD2868411E022829603CBF6FF06700B0BD2068411C21600078002818BF37
:20E718006FF06700B0BDFEE7B0B50A4B00241A68082C04D01D192D7905550134F8E741B125
:20E7380003F10C002AB110F8013B013A01F8013BF8E7B0BDA053002004460848006880470A
:20E75800074D696809B120468847286800B1804704480068804700F0B9FA00BF2C59002003
:20E778001859002030590020094880F308880948016841F47001016000BF00BF00F09EFA2C
:20E7980008B1FFF707FF00F0C1F90120FFF7D4FF0040022088ED00E0BCB50446FA200D4639
:20E7B80001905020012908BF2420225801A92846FFF71CFB00B1BCBD5421012D08BF28218F
:20E7D800019A6250BCBD000010B500280CD409280AD8074C54F8303033B104EBC000DB69A5
:20E7F8004068BDE8104018474FF0FF3010BD00BFB05800201CB5019007480068804701A85A
:20E81800FFF7FEF9016A01988847044603480068804720461CBD00BF2C5900203059002010
:20E8380010B500280CD409280AD8074C54F8303033B104EBC0009B694068BDE8104018474E
:20E858004FF0FF3010BD00BFB0580020B0B5012104460125FFF7A0FF58B920460221FFF762
:20E878009BFF08B1012504E0206A00F0BFF80025E0652846B0BDB0B579B114466AB10D4656
:20E8980000F07BF90146B4FA84F0400924B115F8012B013C8A42F6D0B0BD0020B0BD000073
:20E8B800B0B5084B0022032A04BF4FF0FF30B0BD53F82240013225788542F4D100200C6006
:20E8D800B0BD00BF5CEF0A0010B50168074A21F0010113683BB11C6824F001048C4202D267
:20E8F80003F10802F5E78360106010BDDC560020B0B504680D1B012DBCBF6FF05F00B0BDE7
:20E9180025789D421CBF6FF06100B0BD631C0360BDE8B040FEF75CBF41F21830C5F20000A2
:20E9380000684FF20001C0F6FF71084047F20001C0F6B731884208BF704700BFFEE71CB512
:20E958000C46C0B201A9FFF7ABFF08B1012407E001982146FEF7B6FD04460198FFF76DFCE2
:20E9780020461CBD10B5064C28B1064801210068426820469047606820F03000606010BDFC
:20E9980000400340D801001010B562B10C780378A34206D1013A00F1010001F10101F5D179
:20E9B8001C46181B10BD002010BD000010B5044600F00CF8201F0B288EBF4FF0FF30024975
:20E9D80051F8200010BD00BF50EE0A00B0B542F23C04C4F20804256845F400202060402081
:20E9F80000F04DF925F400202060B0BD40787F281CBF4FF0FF30704703484FF4705100688D
:20EA180001EA8020704700BF3024034080B540F2A813C1F200031B689B69984740F2844111
:20EA3800C4F2602100220A6080BD80B540F2A811C1F2000109684969884740F28441C4F24B
:20EA5800602100220A6080BD10B544787F2C1CBF4FF0FF3010BD4068014410461A4600F07F
:20EA780037F9002010BD10B553B10130D2B20C78944200F8014C04D001300131013BF6D10A
:20EA9800002010BD054901F130042146FEF7C4F92046FEF7DBFF00F019F900BFE456002094
:20EAB800054A136833B1114603F108028342F8D180680860704700BFDC56002010B50C784C
:20EAD8000378A34206D1013A00F1010001F10101F5D11C46181B10BD00F0A7F8FEF714FA0C
:20EAF8000348016841F470010160FFF73DBEFEE788ED00E0B0B50D4601461446286800F03F
:20EB1800E7F82868204428602046B0BD0349002912BF01C900200021FFF798B9D0EF0A004E
:20EB380080B5014602480430FDF75CFC80BD00BF4C5800200B4611461A4600F068B800BFE0
:20EB58000A46002100F063B810B500239A4208BF10BDCC5CC4540133F8E710B5FEF754FC6C
:20EB78000446FEF77BFE204610BD40F6AA71484310B100BF0138FBE770474078A0F17F019B
:20EB98000020022938BFFF20704700000A4602490B680021184700BFC8EF0A0080B50A46B2
:20EBB800D0F803101046FFF7CBFF80BDC1693868866B48460B4600953047C269086859462F
:20EBD80010440130FFF7EDBA20682A68C1693868C3685046184711F8012B00F8012B002A74
:20EBF800F9D170470021425C0131002AFBD1481E70470021425C0131002AFBD1481E704774
:20EC18000021425C0131002AFBD1481E704700239A4208BF7047C1540133F9E70B46D0F819
:20EC38000320C11D184600F053B80020EFF3108072B6704770470020EFF3108062B67047D9
:20EC5800704721682069CA695146FFF7AABA0169C2693868C36A504618474FF0FF300329BE
:20EC780038BF481C704700000148012101707047062002400A68531C0B60107070470138B3
:20EC9800FDD1704770478268183AFFF79FBC01460820FDF731BFC0E9001270473868406A84
:20ECB80000474FF480600847FFF7C8BAFFF782B9FEF7D4BDFEF762BCFEF776BA0120704744
:14ECD800FFF762BEFEF768BFFFF794BD00BFFEE7FFF73ABF1C
:20ECEC007263203D3D2030002F686F6D652F61303439313539356C6F63616C2F74692F73B7
:20ED0C00646B2F73696D706C656C696E6B5F6363313378785F6363323678785F73646B5FBB
:20ED2C00375F31305F30305F39382F736F757263652F74686972645F70617274792F6D63A9
:20ED4C0075626F6F742F626F6F742F626F6F747574696C2F7372632F6C6F616465722E634C
:20ED6C000030003059301306072A8648CE3D020106082A8648CE3D030107034200042ACB1E
:20ED8C00403CE8FEED5BA44995A1A91DAEE8DBBE1937CD14FB2F245737E5953988D994B937
:20EDAC00D65AEBD7CDD5308AD6FE48B24A6A810EE5F07D8B6834CC3A6AFC538EFAC16D6199
:20EDCC006C6C6F63206661696C656420696E2061737365727400417373657274696F6E2077
:20EDEC006661696C65642C20282573292C2066696C652025732C206C696E652025640A0022
:20EE0C002E00000096C298D84539A1F4A033EB2D817D0377F240A463E5E6BCF847422CE12C
:20EE2C00F2D1176BF551BF376840B6CBCE5E316B5733CE2B169E0F7C4AEBE78E9B7F1AFEB6
:20EE4C00E242E34FF9FFFFFFFFFFFFFFFFFFFFFFFFFFFFFFFFFFFFFFFFFFFFFFFFFFFFFF72
:20EE6C00F9FFFFFFF9FFFFFFFAFFFFFFFAFFFFFFFBFFFFFF0100000028EF0A00C8EE0A00D2
:20EE8C00E8EE0A0008EF0A0010EE0A0030EE0A002000000001000000303132333435363798
:20EEAC0038396162636465660030313233343536373839414243444546000000FCFFFFFFE5
:20EECC00FFFFFFFFFFFFFFFF00000000000000000000000001000000FFFFFFFF4B60D2278D
:20EEEC003E3CCE3BF6B053CCB0061D65BC86987655BDEBB3E7933AAAD835C65A512563FC26
:20EF0C00C2CAB9F3849E17A7ADFAE6BCFFFFFFFFFFFFFFFF00000000FFFFFFFFFFFFFFFF94
:20EF2C00FFFFFFFFFFFFFFFF00000000000000000000000001000000FFFFFFFF04010403C4
:20EF4C00040204010401040301030304010400007CEF0A0088EF0A0094EF0A0000000000FB
:20EF6C0077C295F360D2EF7F3552500F2CB67980007F000000C00A00A83F0000017F0000B3
:20EF8C000000000000D00000027F00000060050000D000002A8648CE3D03010700000000D1
:20EFAC006FED0A00CCEF0A0001020003020001032A8648CE3D0201000100000027EC0A00EA
:04EFCC005B000000E6
:08EFD000000000000000000039
:20EFD800005500000F0112014001018F012202C0E502030F0124044F02013F8F0102001D89
:20EFF800FFDF0A00C1E40A00216FE00A00750030C5DE0070BFE30A0081DC0A0D1FA301D479
:20F018000757002000751BF100F11AFF021AEF27A421412188FF000023F1032440730BD81E
:20F038000A003200FFF0000045DB0A0035EC0A00B5EB0A0002000000E1160000D8EF0A00C4
:0CF05800E45600204CF00A0000400020AC
:20FFA80000008001100080FFFDFF5800FFFFBBF3FFFFFFFFFFFFFFFFFFFFFFFFFFFFFFFF39
:20FFC800FFFFFFFFFFFFFFFFFFFFFFFFFFFFFFFFC50DFEC5FFFFFFFF00FFFFFF00C5C5FF12
:18FFE800000000FF00C00A00FFFFFFFFFFFFFFFFFFFFFFFFFFFFFFFF48
:00000001FF
