:10000000C03902204DD2040085EB040085EB0400CA
:1000100085EB040085EB040085EB040085EB040010
:1000200085EB040085EB040085EB040085EB040000
:0C00300085EB040085EB04006D1203005A
:10004000A9CC0000D82200004906040003000000EB
:100050000300000003000000030000000000000097
:10006000ABCC0000FB2300004906050003000000A4
:100070000300000003000000030000000000000077
:10008000ACCC000006230000490608000300000075
:100090000300000003000000030000000000000057
:1000A00009C000004724000005040400030000000C
:1000B0000100000003000000030000000000000039
:1000C0000AC000009124000007040400030000009F
:1000D0000100000003000000030000000000000019
:1000E00023C0000084230000050604000300000074
:1000F00003000000030000000300000000000000F7
:100100002BC00000AC2300000E060400030000001A
:1001100003000000030000000300000000000000D6
:10012000ADC00000F32500002D0604000300000010
:1001300003000000030000000300000000000000B6
:10014000AFC000008D2500002D0604000300000054
:100150000300000003000000030000000200000094
:10016000ACC00000D22500002B06040003000000F4
:100170000300000003000000030000000000000076
:10018000AEC00000242500002B0604000300000080
:100190000300000003000000030000000200000054
:1001A000A8000000D42700000E0605000300000090
:1001B0000300000003000000030000000000000036
:1001C000AE000000B4270000050605000300000093
:1001D0000100000003000000030000000000000018
:1001E0008C0000003028000005040500030000001A
:1001F00000000000030000000300000000000000F9
:100200008D0000004D2800000704050003000000D9
:1002100000000000030000000300000000000000D8
:10022000A5C000004C2C00002D06050003000000B6
:1002300003000000030000000300000000000000B5
:10024000A9C000007C2B00002D0605000300000063
:100250000300000003000000030000000200000093
:10026000A4C00000332C00002B0605000300000092
:100270000300000003000000030000000000000075
:10028000A8C00000972B00002B060500030000000B
:100290000300000003000000030000000200000053
:1002A00037C00000212400000506080003000000FC
:1002B0000100000003000000030000000000000037
:1002C00035C00000472500000504080003000000B9
:1002D0000100000003000000030000000000000017
:1002E00036C000006A250000070408000300000073
:1002F00001000000030000000300000000000000F7
:1003000000000000B7240000000000000000000012
:1003100000000000000000000000000000000000DD
:1003200071400021DB4000219D4000210941002156
:100330001541002121410021394100215141002175
:10034000DB420021074C657900F009F861796940CA
:10035000490703D50121044A8903116070BD70B5B6
:100360000249084780030021081104402D5900006C
:1003700000F019F8E1B26C290BD0042801D006284E
:1003800007D110490978C90703D12178090700D49A
:1003900002200D490A780C21114202D00B4980221B
:1003A0000A6003B0F0BDF0B583B0094908470020EA
:1003B0000849884704480178402291430170064863
:1003C00000470000C80000213301002100E200E0E6
:1003D00041160300F7630000231B030000F088F8B8
:1003E00000480047577F000000F088F800480047A9
:1003F0001B880000094B1A780824A243002800D06B
:1004000022431A70004A1047838E0000034908787F
:10041000000701D402480047704700008003002114
:100420005F7E0000044A2820904704480121416073
:100430000348044A416010474F4200000050044006
:100440000060044085420000F8B5014908470000FB
:100450000D64000070B51F4D2878C4B21E48804757
:100460002878032834D1032C32D01C488068400DF2
:10047000C2071A48014660318030002A03D01F2489
:100480000C57458802E01E240C570588002C1FD00D
:100490001348154A41690079414348101149496997
:1004A000401810494039497F90474005401569423E
:1004B00088420DDBA8420BDC0C4B996988B20246DE
:1004C000090C624309045212801880B208439861F3
:1004D00070BD0000E40200217941000028000021E5
:1004E0008003002100030021CB8100004040044034
:1004F000806B0C490007000F48717047094A0A4990
:1005000018235079CB56497EC018814201DD084638
:1005100002E00F2800DD0F20D189090909010143FC
:10052000D1817047E00200218800002110B501460A
:100530002B4B2C4800E020BF42699207FBD1294891
:10054000DA7A403000680B2A01D100F043F810BD80
:100550002022521A9040244A00BA9369434021480D
:1005600000E020BF42699207FBD488001F49401871
:10057000C3631C4840300360704710B5194800E061
:1005800020BF42699207FBD4426B174B98695040D9
:100590005A8AD40701D00124604052085A8220228E
:1005A000511A88400F4900BA4031086010BD10B59B
:1005B0000446FFF749FF0C49097C8909C80708D0A0
:1005C0000B48E10701D00B4900E00B4901620B49E0
:1005D000416210BD2022511A884000BA70470000C5
:1005E000600100210020044028000021C0210440B7
:1005F00080030021A74200217D42002159420021B1
:100600002D2D2D2D2D424547494E2043455254490D
:100610004649434154452D2D2D2D2D0D0A4D494957
:1006200042627A434341525543464873582F614FC3
:100630002F38736B5A2F334E4151727A51393537F7
:10064000482F614E594D416F4743437147534D34D5
:100650003942414D434D413078437A414A0D0A4277
:10066000674E5642414D54416B4E424D43495944A9
:100670007A41774D4441774D5441784D4441774D0F
:10068000444177576867504F546B354F5445794D07
:100690007A45794D7A55354E546C614D474D780DFC
:1006A0000A437A414A42674E5642415954416B5A75
:1006B0004A4D51307743775944565151494441523C
:1006C00050645778314D51307743775944565151E2
:1006D0004844415250645778314D513077437759EF
:1006E000440D0A5651514B444152305A584E304DE8
:1006F0005130774377594456515144444152305A0E
:10070000584E304D5267774667594A4B6F5A496881
:1007100076634E41516B4246676C305A584E3051A9
:1007200048526C0D0A633351775754415442676302
:1007300071686B6A4F5051494242676771686B6AD2
:100740004F50514D4242774E434141517462727154
:100750004B2B5A3267577A39726776533466676B18
:10076000576E316B620D0A7745527231356B4672A6
:1007700037436D4E4D363367416D4D795330386D8B
:10078000352F7342597073355855644977462B504D
:100790007A3875596D6B344C70536C2B6F304F4CED
:1007A0006B6D614D416F470D0A43437147534D34A3
:1007B0003942414D43413067414D45554349446BB2
:1007C0006E754F642F73745959674B336F7A747811
:1007D00073706E4B42486F4F4F38556355423350DC
:1007E0004832416649713234650D0A4169454138E4
:1007F0004F4D4A34346933544B546F696E56314906
:1008000041546D38316D71752B35704271597534A5
:1008100052745830452F785038383D0D0A2D2D2D03
:100820002D2D454E44204345525449464943415499
:10083000452D2D2D2D2D00FF000000003D38050019
:100840000000000001000000713C050000000000F5
:10085000020000007D3C05000000000003000000D5
:100860005B4505000000000008000000150A0500B7
:10087000000000000D000000F1A1040000000000D5
:100880002400000051310500000000002500000098
:10089000613105000000000026000000B98203005D
:1008A0000000000027000000F15D040000000000CF
:1008B000280000006345050000000000360000002D
:1008C00085E604000000000041000000E90E05007C
:1008D00000000000420000009DCA0400000000006B
:1008E00043000000191C0500000000004400000047
:1008F00021320500000000005000000031320500E8
:10090000000000005100000041320500000000001E
:100910005200000099F504000000000053000000A0
:10092000ADE604000000000054000000D5E604001D
:10093000000000005B0000000B2C05000000000020
:100940005F00000051320500000000006000000060
:10095000B524030000000000630000008D9C03002C
:100960000000000064000000A98C040000000000EA
:10097000650000000953040000000000660000004C
:10098000B19B02000000000000150000713105005D
:100990000000000001150000B1B3040000000000D9
:1009A00056150000813105000000000057150000B9
:1009B000913105000000000058150000A13105002C
:1009C0000000000059150000B131050000000000D2
:1009D0005A150000C1310500000000005B15000041
:1009E0003DE40300000000005C150000D13105006B
:1009F000000000005D1500006B45050000000000D0
:100A00005E150000E91B0500000000005F150000F6
:100A1000011C05000000000060150000E131050028
:100A20000000000061150000F13105000000000029
:100A3000621500000132050000000000631500008F
:100A400011320500000000000000891112239B32C2
:100A50002446AD573665BF74488CC19D5AAFD3BE8E
:100A60006CCAE5DB7EE9F7F88110080193331A229E
:100A7000A5562C47B7753E64C99C408DDBBF52AE6E
:100A8000EDDA64CBFFF976E802218B30100299137E
:100A90002667AF763444BD554AADC3BC588ED19F4E
:100AA0006EEBE7FA7CC8F5D983310A20911218035E
:100AB000A7772E66B5543C45CBBD42ACD99E508F2E
:100AC000EFFB66EAFDD874C904428D5316619F702E
:100AD0002004A9153227BB364CCEC5DF5EEDD7FC0E
:100AE0006888E1997AABF3BA85520C4397711E601E
:100AF000A1142805B3373A26CDDE44CFDFFD56ECEE
:100B0000E9986089FBBB72AA06638F7214409D51FD
:100B10002225AB343006B9174EEFC7FE5CCCD5DDCD
:100B20006AA9E3B8788AF19B87730E6295501C41DD
:100B3000A3352A24B1163807CFFF46EEDDDC54CDAD
:100B4000EBB962A8F99A708B088481951AA793B6BD
:100B50002CC2A5D33EE1B7F04008C919522BDB3AAD
:100B6000644EED5F766DFF7C899400859BB712A67D
:100B7000ADD224C3BFF136E0C1184809D33B5A2A8D
:100B8000E55E6C4FF77D7E6C0AA583B4188691975D
:100B90002EE3A7F23CC0B5D14229CB38500AD91B6D
:100BA000666FEF7E744CFD5D8BB502A4999610873D
:100BB000AFF326E2BDD034C1C3394A28D11A580B4D
:100BC000E77F6E6EF55C7C4D0CC685D71EE597F40D
:100BD0002880A1913AA3B3B2444ACD5B5669DF782D
:100BE000600CE91D722FFB3E8DD604C79FF516E4FD
:100BF000A9902081BBB332A2C55A4C4BD7795E680D
:100C0000E11C680DF33F7A2E0EE787F61CC495D5DC
:100C10002AA1A3B03882B193466BCF7A5448DD59EC
:100C2000622DEB3C700EF91F8FF706E69DD414C5BC
:100C3000ABB122A0B9923083C77B4E6AD5585C49CC
:100C4000E33D6A2CF11E780F2D2D2D2D2D424547A9
:100C5000494E2043455254494649434154452D2D60
:100C60002D2D2D0D0A4D4949424C7A434231714197
:100C700044416745434168516F6F44744232444672
:100C8000574673446C6B5679654B4C6B6B467132AF
:100C9000377654414B42676771686B6A4F505151C8
:100CA00044416A414E0D0A4D5173774351594456A0
:100CB00051514445774A4451544169474138774D31
:100CC0004441774D4445774D5441774D4441774DEC
:100CD000466F59447A6B354F546B784D6A4D784D59
:100CE0006A4D314F5455350D0A576A414E4D517377
:100CF00077435159445651514445774A44515442DF
:100D00005A4D424D4742797147534D3439416745F9
:100D10004743437147534D34394177454841304942
:100D2000414247305A4142442B0D0A67384E7663A0
:100D3000394B4270772F6148686F696D394B72711A
:100D40007A4F59503571546D5A67533875784D2F15
:100D5000657165414A3676725369765746543266F4
:100D60007848757A58472B796676730D0A6F504E1E
:100D700067424A68762F594E684D394B6A4544415F
:100D80004F4D41774741315564457751464D414D6F
:100D90004241663877436759494B6F5A497A6A30FE
:100DA000454177494453414177525149670D0A43C0
:100DB0004B30302F574E71724C7A537437517475D3
:100DC000737467624C2B6B6962584275574665595C
:100DD000426A55357950626148454349514438610A
:100DE00046775074322F6F584C4F53613767420D1E
:100DF0000A396E7770413172736D7A434A4C76626C
:100E0000386F7578513375685862673D3D0D0A2D0E
:100E10002D2D2D2D454E44204345525449464943DE
:100E20004154452D2D2D2D2D0000080000000000FF
:100E3000000000080400000000FFFFFF000C11008C
:100E4000000000000000001D110000000000000074
:100E5000002E010F000000FF0000002F0100000025
:100E600000FF000000300100000000FF0000003122
:100E70000100000000FF000000320100000000033C
:100E800000000033010000000003000000340100F6
:100E900000000001000000350200000000FFFF001C
:100EA00000370200000000FF0000003902000000CF
:100EB00000FF0000003B0200000000FFFF00003DBB
:100EC0000200000000FFFF00003E010000000001E2
:100ED0000000003F01000000000100000040010090
:100EE000000000070000004120000000000000009A
:100EF00000610200000000FFFF0000630800000026
:100F000000000000006B08000000000000000073FB
:100F10000800000000000000007B08000000000046
:100F20000000008302050000005802000085010057
:100F300000000010000000860200000000320000E7
:100F400000880200000000320000008A0200000059
:100F5000000A0000000005BE030000C56603000291
:100F6000E7080200008576040001E708020000851A
:100F700076040003154603000085760400043D4610
:100F80000500043746050000E7080200014F46054A
:100F900000014946050001857604000185760400BC
:100FA000018576040000018A0400018576040001B1
:100FB0008576040001E708020001857604000185BA
:100FC000760400024F460500024946050002857678
:100FD000040000018A04000285760400028576047C
:100FE0000002F5720400028576040002E7080200A0
:100FF00004374605000285760400034F46050003CA
:101000004946050003E708020003E70802000385DC
:101010007604000315460300038576040000018A68
:1010200004000385760400038576040003857604B6
:1010300000044F460500044946050004E708020085
:1010400004E708020004E708020004E708020004BD
:10105000F5720400048576040004E70802000437F2
:1010600046050000018A040024000000893C0500B8
:1010700000000000250000006132050000000000B3
:1010800036000000C13205000000000041000000F1
:10109000252201000000000042000000615304000E
:1010A0000000000044000000455E04000000000055
:1010B00045000000953C05000000000052000000C3
:1010C0002DA204000000000053000000E19604007F
:1010D0000000000054000000CDCA04000000000021
:1010E0005F000000D9010500000000007200000050
:1010F000B1D5030000000000561500007132050054
:1011000000000000571500008132050000000000BB
:1011100058150000FDE6040000000000591500000D
:1011200091320500000000005A150000A1320500B0
:10113000000000005C150000B13205000000000056
:101140005D1500004B380500000000005E15000032
:10115000BDF50400000000005F150000E1F504008B
:1011600000000000AB150000058B0200000000002D
:10117000008080808080808080809090909090809F
:10118000808080808080808080808080808080805F
:10119000801804040404040404040404040404047F
:1011A0000402020202020202020202040404040413
:1011B000040443434343434341414141414141418D
:1011C0004141414141414141414141410404040403
:1011D000040423232323232321212121212121212D
:1011E0002121212121212121212121210404040463
:1011F000800000000000000000000000000000006F
:1012000000000000000000000000000000000000DE
:1012100000000000000000000000000000000000CE
:1012200000000000000000000000000000000000BE
:1012300000000000000000000000000000000000AE
:10124000000000000000000000000000000000009E
:10125000000000000000000000000000000000008E
:10126000000000000000000000000000000000007E
:1012700000000FAC982F8A4291443771CFFBC0B564
:10128000A5DBB5E95BC25639F111F159A4823F9251
:10129000D55E1CAB98AA07D8015B8312BE853124AA
:1012A000C37D0C55745DBE72FEB1DE80A706DC9B6B
:1012B00074F19BC1C1699BE48647BEEFC69DC10F17
:1012C000CCA10C246F2CE92DAA84744ADCA9B05C53
:1012D000DA88F97652513E986DC631A8C82703B016
:1012E000C77F59BFF30BE0C64791A7D55163CA0624
:1012F00067292914850AB72738211B2EFC6D2C4D30
:10130000130D385354730A65BB0A6A762EC9C2811D
:10131000852C7292A1E8BFA24B661AA8708B4BC2B3
:10132000A3516CC719E892D1240699D685350EF4DD
:1013300070A06A1016C1A419086C371E4C77482794
:10134000B5BCB034B30C1C394AAAD84E4FCA9C5B0A
:10135000F36F2E68EE828F746F63A5781478C8845B
:101360000802C78CFAFFBE90EB6C50A4F7A3F9BE3D
:10137000F27871C60097B92EE5725CCB5DCAE47352
:10138000B82F0196BA2D03945FC8E671E7705EC965
:101390000295BB2CE3745ACD0691BF28BE29079055
:1013A0005BCCE27559CEE077BC2B05920493BD2A45
:1013B000E17658CF51C6E87FB4230D9A0C9BB52235
:1013C000E97E50C7EB7C52C50E99B720B6210F9825
:1013D00053C4EA7DB2250B9C57C0EE79EF7856C115
:1013E0000A9DB324089FB126ED7A54C355C2EC7B05
:1013F000B027099EA2351B8C47D0FE69FF6846D1F5
:101400001A8DA334188FA136FD6A44D345D2FC6BE4
:10141000A037198E41D6F86FA4331D8A1C8BA532D4
:10142000F96E40D7FB6C42D51E89A730A6311F88C4
:1014300043D4FA6DF3644ADD1681AF38AE391780B4
:101440004BDCF26549DEF067AC3B15821483AD3AA4
:10145000F16648DF1087A93EF5624CDB4DDAF46394
:10146000A83F1186AA3D13844FD8F661F7604ED984
:101470001285AB3C0001363601010001020100017A
:101480000301000104010606080400000C010034F9
:101490000D01000F10040101140100FF16080000E7
:1014A00020020000220100FF23010001240100FEB0
:1014B0002501000826020000280100012901000181
:1014C0002A0200002C01000F2E0200003001000152
:1014D00031010008320200FF34010007350102FF2C
:1014E000360100003701000138010001390100FF19
:1014F0003A01000F3C0200FF3E01010F3F010001D5
:101500004001041F41010001420100FF430100802E
:10151000440800004E0100084F01000F5001000177
:10152000510100FF5201000A5301008954010001DA
:10153000580400005C040000600400006404000023
:10154000680400006C0400007004000074040000D3
:10155000780400007C040000800100FF810100018C
:101560008201000183010102840100012D2D2D2D36
:101570002D424547494E204543205052495641543B
:1015800045204B45592D2D2D2D2D0D0A4D486343DA
:1015900041514545494576624A3953472F71657532
:1015A00064367A336F52622B73524F786B362F4802
:1015B00057485157746375634446713367727A6F45
:1015C0006F416F4743437147534D34390D0A41779B
:1015D00045486F555144516741454C5736366976F9
:1015E0006D646F46732F61344C307548344A4670D1
:1015F000395A473842456139655A42612B77706ADA
:10160000544F7434414A6A4D6B74504A75660D0AE2
:101610003741574B624F563148534D42666A382F17
:101620004C6D4A704F4336557066714E4469354A69
:101630006D673D3D0D0A2D2D2D2D2D454E44204528
:10164000432050524956415445204B45592D2D2D8C
:101650002D2D00FF020000001429000003000000EF
:10166000BC29000004000000642A000005000000FE
:10167000DC280000060000008429000007000000AC
:101680002C2A00000E000000302900000F0000008E
:10169000D829000010000000802A00002B00000064
:1016A000F82800002C000000A02900002D000000F8
:1016B000482A000048000000D42A00004900000029
:1016C000F02A00004A0000004C2900004B000000F6
:1016D000F42900004C0000009C2A00004D0000008E
:1016E000682900004E000000102A00004F00000092
:1016F000B82A000000000000000000006861726469
:101700007761726520657863657074696F6E2069B2
:1017100064203D2025642C207063203D20307825F6
:1017200030387820282F55736572732F6C6177736A
:101730006F6E6C61792F74692F73696D706C656C55
:10174000696E6B5F6363313378785F6363323678D9
:10175000785F73646B5F385F33305F30315F303197
:101760002F6B65726E656C2F746972746F73372F8F
:101770007061636B616765732F74692F737973622E
:10178000696F732F66616D696C792F61726D2F6D52
:10179000332F4877692E633A3131303429000008FD
:1017A00038C40D00C80000008100000032000501AF
:1017B00038C40D00C80000008100000032000F0195
:1017C00038C40D00C800000081000000640005015D
:1017D00038C40D00C80000008100000064000F0143
:1017E00038C40D00C800000081000000960005010B
:1017F00038C40D00C80000008100000096000F01F1
:1018000038C40D00C800000081000000C8000501B8
:1018100038C40D00C800000081000000C8000F019E
:1018200038C40D00C8000000810000002C01050133
:1018300038C40D00C8000000810000002C010F0119
:1018400048776920616C72656164792064656669B6
:101850006E65643A20696E74722320256420282FF7
:1018600055736572732F6C6177736F6E6C61792F2E
:1018700074692F73696D706C656C696E6B5F6363FF
:10188000313378785F6363323678785F73646B5F87
:10189000385F33305F30315F30312F6B65726E658A
:1018A0006C2F746972746F73372F7061636B61672B
:1018B00065732F74692F73797362696F732F666113
:1018C0006D696C792F61726D2F6D332F4877692E9A
:1018D000633A33393729006E6F204953522C2069FF
:1018E00064203D2025642C207063203D2030782525
:1018F00030387820282F55736572732F6C61777399
:101900006F6E6C61792F74692F73696D706C656C83
:10191000696E6B5F6363313378785F636332367807
:10192000785F73646B5F385F33305F30315F3031C5
:101930002F6B65726E656C2F746972746F73372FBD
:101940007061636B616765732F74692F737973625C
:10195000696F732F66616D696C792F61726D2F6D80
:10196000332F4877692E633A3131303729006F754C
:1019700074206F66206D656D6F72793A20686561BD
:10198000703D307825782C2073697A653D25752067
:10199000282F55736572732F6C6177736F6E6C614E
:1019A000792F74692F73696D706C656C696E6B5FEC
:1019B0006363313378785F6363323678785F73645A
:1019C0006B5F385F33305F30315F30312F6B657262
:1019D0006E656C2F746972746F73372F7061636BEF
:1019E000616765732F74692F73797362696F732FE1
:1019F00072756E74696D652F4D656D6F72792E63AA
:101A00003A37382900696E746E756D3A2025642066
:101A10006973206F7574206F662072616E67652030
:101A2000282F55736572732F6C6177736F6E6C61BD
:101A3000792F74692F73696D706C656C696E6B5F5B
:101A40006363313378785F6363323678785F7364C9
:101A50006B5F385F33305F30315F30312F6B6572D1
:101A60006E656C2F746972746F73372F7061636B5E
:101A7000616765732F74692F73797362696F732F50
:101A800066616D696C792F61726D2F6D332F4877A8
:101A9000692E633A33383929002578001546050048
:101AA000EDEC04009D91010000000000D908050044
:101AB000A1440400E9070400000000003F250500E0
:101AC00089F30300FD89030028000000F9080500E0
:101AD0000D2C04006DBD03002E00000039FB040036
:101AE000E1580400D5FC02003C000000312A05004A
:101AF00091850400699403007C0000008DD10400EE
:101B00002DE00300750704004C00000061C50400CF
:101B1000014504003959040084000000C1DF0400BD
:101B20002D2004007D6504009C000000FFFFFFFFE6
:101B3000FFFFFFFF000000000000000000000000A9
:101B40000000000000000000000000000000000095
:101B50000000000000000000000000001400000071
:101B60000000000000000000000001010000000073
:101B70000000000000000000000000000000000065
:101B80000000000000000000000000000000000055
:101B90000000000000000000000000000000000045
:101BA00000000000000000000000000000000078BD
:101BB0000008020030000A00E435000003000000C5
:101BC000B62D0000F02E000000010000E0350000FE
:101BD0000300000077310000CF3300000400000054
:101BE000D435000003000000262F0000CB2E00009B
:101BF00000080000F0350000030000003C2E00004B
:101C0000922F000020000000EE33000009000000C9
:101C1000512E0000E62B000000000100E835000016
:101C200003000000B22B0000272E00000800000077
:101C300000000000000000000000000000000000A4
:101C40000000000036000100060000000000000057
:101C5000000F000000000000000000000000000075
:101C600000000300FFFF00000403FFFF0000FFFF70
:101C70000F00E8030005401F0310000101000000F1
:101C8000FF3F0F0008000E000000000000000000F1
:101C90000300010F00000901000000000000000027
:101CA0000000000000000000000000000000000034
:101CB0000000000000000000000000000000000024
:101CC00000000000AD000001000000007F7F7F7F6A
:101CD0007F7F7F7F7F7F7F7F7F7F7F7F7F7F7F7F14
:101CE0007F7F7F7F7F7F7F7F7F7F7F7F7F7F7F7F04
:101CF0007F7F7F7F7F7F7F3E7F7F7F3F343536379B
:101D000038393A3B3C3D7F7F7F407F7F7F00010237
:101D1000030405060708090A0B0C0D0E0F1011121B
:101D2000131415161718197F7F7F7F7F7F1A1B1CCE
:101D30001D1E1F202122232425262728292A2B2C5B
:101D40002D2E2F303132337F7F7F7F7F22000100A5
:101D50000000000000000000201C00000000000047
:101D60004038000000000000602400000000000077
:101D70008070000000000000A06C00000000000067
:101D8000C048000000000000E05400000000000017
:101D900000E100000000000020FD00000000000045
:101DA00040D900000000000060C5000000000000F5
:101DB0008091000000000000A08D000000000000E5
:101DC000C0A9000000000000E0B500000000000015
:101DD0008DF4010069000300000000000000000015
:101DE00000000000A11B0500AD2605000DDC03006E
:101DF000413C0500DF490500D949050027220500BF
:101E000000000000CD490500B1EE03009D5D040017
:101E10001901050089DB0300F92B05007552030049
:101E2000E5660200291804007901050000000000A1
:101E3000998B0400891B05007DA9030000000000A8
:101E4000010000000E0000000B0000000100000077
:101E50000C00000009000000030000000100000069
:101E6000010000000100000001000000020000006D
:101E7000040000001100000012000000010000003A
:101E8000010000000100000001000000010000004E
:101E90000100000001000000140000001300000019
:101EA00000000200000004000200020000003200F6
:101EB000040001000000020000000000000000001B
:101EC00005000100000007000600010000000300FB
:101ED00007000800000000000F0001000100FF00E3
:101EE00010000800000000001800080000000000BA
:101EF0002200020000000000001000401500000059
:101F0000FF000000D8B601208000000058B7012073
:101F100080000000000000000C0000000D00000028
:101F2000FF000000FF000000201800201018002013
:101F30000400000002000000050000001000000086
:101F40000F0000001100000012000000000200005D
:101F50008E0000008E0001008E0002008E00030043
:101F60008F0000018F0000028F0000038E0001042B
:101F70008E0000058E0008048E0000048900000613
:101F8000500000007F0001003F0004003F000200FD
:101F90003F0001007F0002008E0002048E0001025B
:101FA0008E000101000000FF000101030001020397
:101FB000FF03030300010203000101030001020308
:101FC000FF030303B7210000B7210000FD2100003B
:101FD000FE210000000000000400000008000000D6
:101FE00000000000580000005C0000006C000000D1
:101FF0006C000000D933000009000000DE31000051
:10200000D035000001000000083500000700000086
:1020100086310000A4310000020000008835000075
:1020200005000000F0340000F8300000030000005C
:1020300000000000000000000000000000000000A0
:1020400000000000E8340000070000002831000014
:1020500018310000040400000A34000008000000E9
:10206000DE2E0000022F00000504000025340000D1
:10207000080000005C2F00004A2F0000060400004A
:102080000000000000000000000000000000000050
:10209000000000006D250500112E0400C539050063
:1020A000F12D0500C34205002B460500254605001D
:1020B0000000000000000000000000000000000020
:1020C000000000000000000000000000F5390500DD
:1020D000E9390500C003000080070000000F000080
:1020E000001E0000003C00000078000000F000002E
:1020F00000E0010000C003000080070000000F00A6
:1021000000001E0000003C00000078000000F0000D
:102110000000F00038333335444331363342423126
:102120003234423635313239433936464445393313
:1021300033443844373233413730414144433837F0
:10214000334436443534413742423044007365717C
:10215000282575292044282564292052582028251F
:10216000642C202575292C205458202825642C25E2
:10217000752920686F7028256429204C656E2825F4
:102180006429002A2A2A2042522063616E206E6F41
:102190007420666F72776172642072782D73657136
:1021A0002825752920707265762825752920696E85
:1021B0002077696E646F7700073800000000000028
:1021C00000000000000121030F008000520798E08A
:1021D0000800C106C4D5012096039905050000003A
:1021E00000000000000000000438000000000000B3
:1021F00000000000000188F94E905500000000002A
:10220000FF0710580000FC01000000000000000063
:1022100000000000000000005449574953554E4645
:10222000414E2F312E302E323B2052454C454153EA
:10223000453B204D61722032382032303235203219
:10224000333A31333A313500040000008E35000056
:10225000F94A05000F4A0500AD190200AF0A050052
:1022600000000000000000007D7D0300011005005B
:10227000091D0500FD260500020000007D2C000060
:10228000F94A0500211D050071B50400D1A3040021
:1022900000000000000000007D7D03001D1005000F
:1022A000391D0500FD260500030000007C350000F7
:1022B000F94A05004B420500000000000000000044
:1022C00000000000000000007D7D03001D100500DF
:1022D000391D0500FD260500544C532D4543444847
:1022E000452D45434453412D574954482D434841BA
:1022F00043484132302D504F4C59313330352D53F6
:10230000484132353600544C532D45434448452D01
:1023100050534B2D574954482D434841434841326F
:10232000302D504F4C59313330352D5348413235D3
:1023300036000A00DB4205006D460500ADC9040009
:1023400019000500F17F0400E11A0500BD17040023
:1023500039800400253A050069F402003734000092
:1023600008000000C5330000C53300000300000072
:10237000000000000000000000000000000000005D
:1023800000000000544C532D45434448452D45431F
:102390004453412D574954482D4145532D3132382E
:1023A0002D4342432D53484132353600544C532D72
:1023B00045434448452D45434453412D57495448CE
:1023C0002D4145532D3132382D47434D2D53484132
:1023D000323536003E3E3E204461746120496E64D1
:1023E0002073726350616E49442025753A206D79DF
:1023F0002050616E49442825752900544C532D50B6
:10240000534B2D574954482D43484143484132309E
:102410002D504F4C59313330352D534841323536DC
:1024200000544C532D45434448452D50534B2D5794
:102430004954482D4145532D3132382D4342432DC7
:1024400053484132353600544C532D45434448459A
:102450002D45434453412D574954482D4145532D53
:102460003132382D4342432D534841003D3D2072C7
:10247000782D736571282575292070726576282559
:102480007529206E6F7420696E2077696E646F778E
:1024900000544C532D45434448452D454344534136
:1024A0002D574954482D4145532D3235362D434241
:1024B000432D53484100FF000100000001000000CF
:1024C000000000000000000000000000010000000B
:1024D00001000000010000000100000000000000F9
:1024E0007700000000000000000000000E00000067
:1024F00001000000000000001D00000000000000BE
:1025000000000000000000000000000001000000CA
:1025100000000000000200000000000000000000B9
:1025200001000000544C532D45434448452D45437C
:102530004453412D574954482D4145532D3132388C
:102540002D43434D2D3800544C532D4543444845AD
:102550002D50534B2D574954482D4145532D313261
:10256000382D4342432D53484100544C532D45438D
:102570004448452D50534B2D574954482D41455300
:102580002D3235362D4342432D53484100544C5390
:102590002D45434448452D45434453412D57495407
:1025A000482D4145532D3235362D43434D2D3800AE
:1025B0003D3D3D2072782D73657128257529207069
:1025C0007265762825752920696E2077696E646F9B
:1025D0007700544C532D45434448452D45434453BF
:1025E000412D574954482D4145532D3132382D4303
:1025F000434D00544C532D45434448452D454344D9
:1026000053412D574954482D4145532D3235362DD0
:1026100043434D00033800000000000000000000AC
:102620008201081014000084000000004E90550044
:102630000000000002000000CD4A050069A204006D
:1026400000000000590F0500593805003D0F050036
:10265000C11C050002000000000000000000000096
:10266000000000009193040091930400790205009A
:1026700091D90400090000000000000000000000E3
:1026800037420500D91C0500D91C0500C90F0500FB
:1026900071F60400090000000000000000000000C6
:1026A00000000000F11C0500F11C05004DC00400F5
:1026B000C9B40400FFFFFFFF00000000000000009D
:1026C000000000003A013A01000000000000000094
:1026D00000000000020000000000000000000000F8
:1026E00000000000150503001505030049F704006C
:1026F00015DA0400020000000000000000000000E5
:10270000000000001B4A0500154A0500B90305003A
:10271000C91D05004B60D2273E3CCE3BF6B053CCE2
:10272000B0061D65BC86987655BDEBB3E7933AAA13
:10273000D835C65A96C298D84539A1F4A033EB2DA6
:10274000817D0377F240A463E5E6BCF847422CE1C3
:10275000F2D1176BF551BF376840B6CBCE5E316B07
:102760005733CE2B169E0F7C4AEBE78E9B7F1AFECB
:10277000E242E34F512563FCC2CAB9F3849E17A716
:10278000ADFAE6BCFFFFFFFFFFFFFFFF0000000008
:10279000FFFFFFFFFFFFFFFFFFFFFFFFFFFFFFFF49
:1027A0000000000000000000000000000100000028
:1027B000FFFFFFFF544C532D50534B2D57495448A6
:1027C0002D4145532D3132382D4342432D5348413D
:1027D00032353600544C532D50534B2D57495448E5
:1027E0002D4145532D3132382D47434D2D5348410E
:1027F000323536002D2D2D2D2D424547494E204591
:10280000432050524956415445204B45592D2D2DBA
:102810002D2D0074692E73797362696F732E6B6E40
:102820006C2E5461736B2E49646C655461736B003C
:10283000544C532D50534B2D574954482D4145531B
:102840002D3132382D4342432D53484100544C53CF
:102850002D50534B2D574954482D4145532D32355A
:10286000362D4342432D534841002D2D2D2D2D450E
:102870004E442045432050524956415445204B4533
:10288000592D2D2D2D2D0000040000000800000002
:10289000100000000000000004000000080000001C
:1028A00010000000400D0300801A0600C027090038
:1028B000A086010090D0030000350C00804F12006C
:1028C00005380000000000000000000000000000CB
:1028D00000000000000000000000000005020000F1
:1028E00080000000603300001000000000000000C5
:1028F00010000000342600002B08000080000000BB
:10290000C43200000C0000000100000010000000B4
:10291000542600000201000080000000483300003F
:10292000000000000000000010000000342600003D
:102930000E06000080000000B83200000C0000000D
:102940000100000010000000D42600004A0B000027
:1029500080000000A633000000000000000000001E
:1029600010000000F42600004D0C00008000000064
:1029700018330000000000000000000010000000FC
:10298000F426000006020000C000000054330000DE
:1029900010000000000000001000000034260000BD
:1029A0002C080000C00000003C3300000C000000B8
:1029B0000100000010000000542600000301000088
:1029C000C000000000330000000000000000000014
:1029D00010000000342600000F060000C0000000B8
:1029E000E83200000C0000000100000010000000B0
:1029F000D42600004B0B0000C00000009B330000F9
:102A0000000000000000000010000000F42600009C
:102A10004E0C0000C0000000243300000000000045
:102A20000000000010000000F42600000702000073
:102A300000010000AC3200001000000000000000A7
:102A400010000000342600002D08000000010000E6
:102A5000DC3200000C00000001000000100000004B
:102A6000542600000401000000010000F4320000C0
:102A700000000000000000001000000034260000EC
:102A80001006000000010000303300000C000000C0
:102A90000100000010000000D42600004C0B0000D4
:102AA0000001000090330000000000000000000062
:102AB00010000000F42600004F0C00000001000090
:102AC0000C330000000000000000000010000000B7
:102AD000F426000048070000000100001C3400003C
:102AE0000C0000000000000001000000742600003F
:102AF000490A000000010000142F00000C00000033
:102B00000000000001000000942600002D2D2D2D56
:102B10002D424547494E2050524956415445204B7D
:102B200045592D2D2D2D2D002D2D2D2D2D42454777
:102B3000494E2043455254494649434154452D2D61
:102B40002D2D2D0069643A20307825782061303AA7
:102B500020307825782061313A20307825780A00B5
:102B60000000000000000000E8030000000000007A
:102B7000000000000000000000000000544C532D35
:102B800050534B2D574954482D4145532D3235361E
:102B90002D43434D2D3800544C532D50534B2D573E
:102BA0004954482D4145532D3132382D43434D2D45
:102BB000380069642D63652D6365727469666963A5
:102BC000617465506F6C6963696573002D2D2D2DDF
:102BD0002D454E442050524956415445204B4559AD
:102BE0002D2D2D2D2D004E6574736361706520436E
:102BF00065727469666963617465205479706500F3
:102C00002D2D2D2D2D454E442043455254494649E6
:102C1000434154452D2D2D2D2D002D2D2D2D2D4293
:102C20004547494E20583530392043524C2D2D2DE3
:102C30002D2D00544C532D50534B2D574954482D96
:102C40004145532D3132382D43434D00544C532DC3
:102C500050534B2D574954482D4145532D3235364D
:102C60002D43434D001A1B2A2B034A4B051A1A1AEF
:102C70001A1A1A1A1A1A1B2A2B034A4B0545430023
:102C8000030800000000000000000000000196039F
:102C9000343300000000000064000000ADBE0400FA
:102CA000000000005B1500006586030000000000C6
:102CB000640000001F9D0400000000005B15000080
:102CC00095C903000000000000BE020801020003D5
:102CD0000200010300204060000208100000000014
:102CE0000300170000010000C533000000000000D1
:102CF00000000000000000000000000000000000D4
:102D000000000000000000000E0000000B000000AA
:102D100000000000000000000100000000000000B2
:102D2000E000000001000000FF00000000000000C3
:102D300080A90300FF0000000000000080A903003C
:102D4000000000000001010101000001010000007D
:102D50000000000000000050726F632D5479706510
:102D60003A20342C454E4352595054454400444572
:102D70004B2D496E666F3A204145532D3139322D26
:102D80004342432C000C5A9E506169727769736507
:102D9000206B657920657870616E73696F6E004491
:102DA000454B2D496E666F3A204145532D323536DD
:102DB0002D4342432C0069642D63652D6261736964
:102DC00063436F6E73747261696E7473002D2D2D81
:102DD0002D2D454E4420583530392043524C2D2D51
:102DE0002D2D2D0044454B2D496E666F3A204145EF
:102DF000532D3132382D4342432C000100700050D6
:102E00000004000300600002000000050006000747
:102E100000636C69656E742045415020656E637275
:102E2000797074696F6E0043657274696669636175
:102E3000746520506F6C69636965730069642D6304
:102E4000652D7375626A656374416C744E616D655E
:102E50000069642D6E657473636170652D636572BE
:102E60007474797065005478536571282564205412
:102E7000782825642C256429292000000200000000
:102E80000000000000000000FFFFFFFF0000000046
:102E9000000108011001200140018001000200042E
:102EA000FEFFFFFF00000000000000000000000027
:102EB0000500000000000000001610160E18151C7A
:102EC0000212032428600302100260457874656EC4
:102ED000646564204B65792055736167650065639F
:102EE0006473612D776974682D5348413232340020
:102EF000426173696320436F6E73747261696E74AB
:102F00007300454344534120776974682053484116
:102F10003232340043484143484132302D504F4C07
:102F200059313330350069642D63652D6578744BF4
:102F300065795573616765007061655F6672616D83
:102F4000655F636F756E746572004543445341203D
:102F5000776974682053484132353600656364737D
:102F6000612D776974682D53484132353600000071
:102F7000FFFFFFFFFFFFFFFFFFFFFFFFFFFFFFFF61
:102F80000130313233343536373839616263646544
:102F900066005375626A65637420416C74204E61EB
:102FA0006D650020202020202020202020202020AF
:102FB0002020200030313233343536373839414221
:102FC0004344454600000000B8340000C03400000F
:102FD000C8340000D0340000FF03000000000000EF
:102FE00000000000000000FCFF01000000000000E5
:102FF0000000000000000001FF01000000000000D0
:103000000000000000000002FF02000000000000BD
:103010000000000000000001FF02000000000000AE
:103020000000000000000002FF020000000000009D
:10303000000000000000001A000000000000000076
:103040000000000000000001FF030000000000007D
:103050000000000000000001FF030000000000006D
:103060000000000000000002FF050000000000005A
:10307000000000000000000200000000000000004E
:103080000000000000000000A4AC0120282D00007A
:1030900028AD0120342D00000200000000000000D7
:1030A000FFFFFFFF000000000505020032003200B4
:1030B000040001010000FF070101020203040405EE
:1030C0004500230037001B00F0000000FFFFFF0F4A
:1030D000FFFFFF0F000800000000000000000000DC
:1030E00000000000000000007365727665722066C3
:1030F000696E6973686564004543206B6579206675
:103100006F72204543444800636C69656E742066A5
:10311000696E69736865640045434453412077696B
:10312000746820534841310065636473612D776989
:1031300074682D53484131006B65795F7374726711
:10314000655F696E646578004173736572742066AB
:1031500061696C65643A2000AEC0000000000000A8
:1031600000000000000000006B65795F73746F72EF
:103170006167655F30300069642D63652D6B65792B
:1031800055736167650069642D65635075626C698C
:10319000634B65790044454B2D496E666F3A20417B
:1031A00045532D0047656E65726963204543206B6A
:1031B0006579004572726F72207261697365643A55
:1031C000200057692D53554E46414E2F312E300069
:1031D0006B657920657870616E73696F6E007273CC
:1031E00061456E6372797074696F6E006D6173749E
:1031F000657220736563726574000000FF02000051
:103200000000000000000001FF7061655F626272F3
:103210005F696E666F000000496E697420436F75C8
:103220006E74657200000000FF00000000000000E6
:103230000001000078220000A822000048220000BF
:10324000000200000004000000080000F623000057
:10325000F9230000F8230000000000000000000037
:103260000000FFFF3423000082C00120D83400009A
:10327000FF000100B91B050007000000C8010000A5
:103280008D4B05003DED040000000000CF7E0400E2
:1032900049F80300B11A040009930400AD2E03009D
:1032A0004A616E2020392032303235004145532D9D
:1032B0003235362D434243004145532D3132382DAE
:1032C00047434D004145532D3132382D43434D0086
:1032D0007061655F6E775F696E666F004145532D63
:1032E0003235362D43434D004145532D3139322D72
:1032F00047434D004145532D3235362D454342005D
:103300004145532D3139322D454342004145532D1E
:103310003235362D4B5750004145532D3132382D23
:103320004B5750004145532D3139322D4B575000EA
:103330004145532D3235362D47434D004145532DE0
:103340003139322D43434D004145532D3132382D13
:10335000454342004145532D3139322D434243000C
:103360004145532D3132382D4342430000000000C7
:10337000000000000000000000000000000000004D
:10338000000000000700230222020D280F280E284B
:103390004145532D3235362D4B57004145532D3184
:1033A00039322D4B57004145532D3132382D4B5773
:1033B000000100000000060700000A0101010400EE
:1033C0000001000202736563703235367231004BC2
:1033D0006579205573616765002A864886F70D0177
:1033E00001010000416E6F6E796D6F75730060862C
:1033F000480186F8420101000001040704040202AA
:10340000027061655F6B657973002A8648CE3D0462
:103410000301002B0601050507080400434841434A
:1034200048413230002A8648CE3D0403020031373D
:103430003A33323A3138002A8648CE3D030107003C
:10344000B4D50120B8D50120FE80000000000000A6
:10345000F4BE01203708000044C0012053160000CC
:103460008CBF0120B6240000A6A6A6A6A6A6A6A6E6
:1034700064A60120F81E0000B4BF0120183500002A
:1034800008300000E82F0000AEC00000000000007F
:1034900000000208354525150C0E0811000105092C
:1034A00000040810000408100000000000000000E4
:1034B000FF00000000000000CC35000003104000B9
:1034C000B8350000041440003C350000051C4000E5
:1034D000353500000620400000800A000040000052
:1034E000B3310000483100002A8648CE3D04010077
:1034F00069642D6563444800286572726F72290003
:1035000065636B65792E51002A8648CE3D02010025
:103510007DBF0400711B0500000002400929FF0067
:1035200004081000040810FDFFFFFFFFFFFF286ED6
:10353000756C6C290053484132353600534841328E
:1035400032340077735F746C73001B5B306D0A0D4F
:1035500000040A1000000600FFFF000180002600A2
:1035600012000C00810040002A00000000FFFE0055
:103570000000009EACAC253032783A0045435F44F1
:10358000480025642E2564002B8104010C0045436E
:1035900044534100312E362E3200551D20000002CA
:1035A000005EFFFE000602868200081018204D52C1
:1035B000734800393841410053484131000001024D
:1035C0000304000044000100A93905004D44350002
:1035D00052534100551D25002F2575002E256400EE
:1035E000551D0F00551D1300551D200055040300E7
:0835F000551D1100FCD2012061
:0835F8000000000000000000CB
:103600002DE9F04FA7B0DFF88C1D8146DFF8883D2B
:103610004FF6FF72086A48440862988881B24945AB
:10362000CDF81C9004D9A0EB0900988001F0F9BAFC
:10363000A9EB00000A24093ADFF8608D4FF0000A78
:1036400081B2B1FBF4F101FB02004D1CDFF8501D0B
:10365000C0F10A0058319880E8B211910A90DFF861
:10366000440D583050F0AAFD00F05A859BF80C002C
:10367000002840F050849BF83000000740F14B8454
:10368000DBF86001002800F0BA839BF82C000328C7
:1036900040F0F782DBF86401002800F0F282D8F8ED
:1036A0003400A84203D9401BC8F83400D9E23C20BA
:1036B000C8F83400DFF8DC0C806A00284DD011987F
:1036C0004AF008FB00285CD0DFF8D86CDFF8D81C83
:1036D000082206F1300420464FF092F828B15846EF
:1036E00021463FF04BFFC6E90CAADFF8B40CDFF827
:1036F000B81C50F01BFA119EB0B158462CF050FA8D
:10370000DFF8A80C90F96320002A09D41520402185
:103710000023CDE902AACDE9000A20464AF090F93B
:10372000DFF87C0CC0E912AADFF87C1C304651F0AF
:1037300039F848B1584631463FF020FFDFF8600CB9
:10374000C0E916AAC0E918AADFF8480C806A002868
:1037500000F087824DF014FA36E21198DFF8481C29
:1037600010224FF04DF840B3DFF8440CDFF8441C52
:10377000DFF8206C4162DFF8400CDFF8401C41624A
:10378000C4E1C148CDE912AACDF854A0149014A800
:1037900044F0B4F9DFF8140C90F863001AA944B2AD
:1037A000204647F03DFE98B1DFF8FC1B12A850F010
:1037B000F9FF28B3C8F838A039E0002044F09EF99A
:1037C000002800F065810146119850F0A9FF8BE1B7
:1037D00020464FF07DFCE7D0806B1AA94DF060FFCA
:1037E0000028E1D080690028DED01AA814A950F082
:1037F000D9FF0028D8D0DDE91A01CDE91201D3E7BD
:10380000D8F838003C30C8F83800002044F076F989
:10381000D8F8380058B1DFF8880BDFF88C1B082285
:1038200048304EF0EDFFDDE91401CDE91201DFF87B
:10383000700B12A950F07AF9DFF86C1B064620468F
:1038400050F0B0FF002E00F01081D0B1DFF8440B33
:1038500021460122806A4EF0B3FBDFF8500B90F94D
:103860006320002A0AD4152040210023CDE9000A54
:103870007820CDE9020A20464AF0E2F858462CF0BA
:103880008FF9DFF8241B12A850F08CFF002800F0FD
:10389000D781DFF8180B90F96320002A0ED4152089
:1038A00040210023CDE9000A4FF0FF30CDE9020AA4
:1038B00012A84AF0C5F8002800F0D3819BF82C002C
:1038C000032840F0B681DFF8F80A90F83C000028A1
:1038D00040F0AF81DBF8600148F2FE021692DFF89B
:1038E000E42AD0F80805466CDBE94801CDE917A0C9
:1038F00080F00200199101218DF860009BF80D0005
:1039000044B21090204624F0B1FC074620464FF008
:10391000DFFB00F08E818146DFF8900A90F85A00B4
:10392000FF2807D1DFF8A00A50F0C0FFDFF87C1AAB
:1039300081F85A0041B2002900F17581D8F81C10B5
:10394000C9B90221CDF874A0CDF86CA08DF868003B
:103950008DF8701001218DF86B104FF40071ADF8E7
:1039600069101AA84FF47A714AF03EF80028C8F896
:103970001C0000F058810DF1480820460F97414681
:103980004AF0A0F8044600285BD184200E964EF041
:10399000B9FF044610204EF0B5FF0746002C00F09A
:1039A0003D81002F00F03A81022109F59070C4F8A2
:1039B00030A0C4E90A7A0E9E6183102121734FF46E
:1039C000E151E161C8212161214641F844AFA16480
:1039D000214641F83CAF2164214641F834AFA16350
:1039E000617801F0FC0161708378D9F82011D9F871
:1039F0002421A3750088A08299F827016076B9F880
:103A000025016762A4F81700207D80F00200207570
:103A10004FF4C060C7F80620C7F802103880DDE90F
:103A20001201C4E901011098DFF8A01920701748AD
:103A3000206248680460C4F88000204640F87CAFEB
:103A400048600F98414660809BF90D4020464AF03F
:103A500039F8002800F0BD80DFF87419C162DFF882
:103A6000741901639BF80D40B4E0002800F0F98060
:103A7000DFF8200921460022806A4EF0A1FA58465C
:103A8000214629F045FBECE02020ABCD03000A00E5
:103A9000DFF81009DBF838604022002300F1380419
:103AA0003046214630F0E6FB28B1014630464DF065
:103AB000F7FD064648B94FF0F3FA02200190584648
:103AC00020F026FA0646002874D04FF0E9FA58464E
:103AD00042F063F820464021022224233BF0C4FD3B
:103AE000119896E81E001EC0DFF8CC08DFF8CC184D
:103AF000DFF8A0684162DFF8B808DFF8B818416263
:103B0000B06A18B14DF03CF8C6F828A0DFF890086C
:103B1000766A119A0121848F306847F068FA074667
:103B200030B93046012141F07BFD074600284BD0DB
:103B3000F86911994AF0EAFF28B190F82D10C907E9
:103B400042D140F08DFB11993846882239F04CFB68
:103B5000D0B30646DFF848080022002300F1340104
:103B600030462DF071FF96F82D00C1070DD140F0C1
:103B7000010086F82D003068806A4FF049FC96F805
:103B80002D0040F0020086F82D003046F02136F07E
:103B900079FAB0B10146384622463DF0A0FD4FF417
:103BA0008030F021C8E9040ADFF8E8078662584649
:103BB00043F052FBDFF8DC07806A00287FF47FAD1A
:103BC0004FE0304640F04CFBDFF8C807C0F828A0B3
:103BD00047E0E4B260B2414649F074FF28B1417851
:103BE00001F0FC0141709BF80D4060B24146324645
:103BF0004EF03CFF9BF90D00414649F063FF10B1C8
:103C00004FF6FD7101615846414629F081FA9BF853
:103C10000D00414616AA27F0ADFB0AE050F0ADFDBD
:103C200050F0B3FE0F9F27B138462FF0EDFF4CF058
:103C300073F9DFF860070022806A12A94EF0C0F91C
:103C4000DDE91201DFF85827C2E91201584643F0B6
:103C50007BFF9BF90D00DFF88017DFF8802742F02B
:103C60003DFBDFF83007806A58B1DBF86001B0F83F
:103C70008614A94287BF491BA0F88614584643F012
:103C800063FFDBF86001DFF81077D0F8881479B3B0
:103C9000A94226D9491B0A22C0F88814DBF8600122
:103CA000D0F88814D0F80805808EB0FBF2F081427D
:103CB0001ED2DBF864412468D4B104F14C000668DC
:103CC000002EF8D0B08C400708D5F06A30B1142827
:103CD00004D3012014214AF035FBF06206F13C00C8
:103CE000EDE7C0F888A405209BF90E104BF0A0FA70
:103CF000DBF86001B0F8841459B1A94203D9491B1B
:103D0000A0F8841405E0A0F884A45846002135F0FA
:103D100067FFDBF86001D0F87C1459B1A94203D9E0
:103D2000491BC0F87C1405E0C0F87CA4DBF86001F6
:103D3000A0F880A4F88858B1A84201D9441B06E035
:103D40000020002449F0A0FD012049F09DFDFC80E9
:103D50009BF83400092809D80A21DFE800F00E1189
:103D6000051111110B11110D0C2106E01A2807D1B4
:103D70000E2102E00D2100E00B2158463AF0DCFF55
:103D8000DBF86001D0F88C140131C0F88C1458466F
:103D90004FF076F830D0816ED1F8F81A61B30B4647
:103DA0000A4653F8681F33F80E4CAC420ED9631B19
:103DB000A2F85A3092F85830002BEFD09D422EBF17
:103DC00082F858A05B1B82F85830E7E7866E01F155
:103DD0006C04002908BF06F6FC24D66E2660CF4C82
:103DE0003160C2E91A44846ED4F8046B3260C2E9CF
:103DF0001AA6C4F8043BD1E7284639F049FFDBF89E
:103E0000740168B3D0F8AC4054B3266846B3F06888
:103E10003746B669A8421ED9411C02D13969013121
:103E2000F4D0401BF860226A002AEFD0607D03289E
:103E3000ECD8387D8106E9D4C007E7D0A1693846BF
:103E400090470028E2D0607D01306075387D40F0F9
:103E500020003875DAE72046394640F041F9D5E7C9
:103E6000DBF87C0110B1426900219047DFF83C0586
:103E70009BF80D4090F84600012833D14FFA84F8A2
:103E800040464FF025F92DD050F00DF850B304689E
:103E900034B327784046394647F086FBE8B10646FA
:103EA000B0F80500800618D4DFF8F01407EB4700DF
:103EB0002A46896801EB40073146384640F03CFE0F
:103EC00058B1204610F8011B1B908DF86810304641
:103ED000FA7839881AAB2CF089FA04F11800D6E781
:103EE0009BF80D4060B24CF077FADFF8B08490B1E7
:103EF000044642F0CDF870B120463BF0D1F820B135
:103F00000146584612F0F4FDF6E7B4F84C10DBF821
:103F10003C014AF0E7FDDBF8380108B1C168884789
:103F2000DBF8386046B3B0693446F66A411C0229B2
:103F30000BD3A84202D9401BA06106E05846214697
:103F40000422C4F818A048F039FE6069411CE9D089
:103F5000A84202D9401B6061E4E758462146052289
:103F6000C4F814A048F02AFE60690028DAD1584647
:103F700021463DF067FDD5E7DBF84C4064B12146B2
:103F8000D4E90404421CF9D0A84287BF401B086151
:103F9000584649F04DFCF1E7DFF844245E4692F8BC
:103FA00042002844C1B27C2988BF002056F8CC7F4B
:103FB00082F84200A6F12C09D7B13C46D7E90707A1
:103FC000411C0229F8D30A99884202D9401AE061BB
:103FD000F2E7E07CC4F81CA001380128ECD8484680
:103FE000214640F0D7FD4846214636F0B7FDE3E7CD
:103FF0009BF8A4000A99884203D9401B8BF8A400BF
:1040000031E0142000248BF8A4003046006828B169
:10401000C17C002908BF01342030F7E7092C22D3E6
:10402000306820B1DBF8D000A0F1200700E00027C5
:10403000CFB130683946B8421ABF486AA0F12007AC
:104040000027C87C0028F3D1887C062801D00328EB
:10405000EED1C86908B1212CEAD3484636F07EFD7E
:10406000013C082CE4D8DBF85001B8B14188446821
:10407000A94203D9491B41802046F6E704F1080113
:10408000002C08BF0BF5AA7182680A6023491460EE
:10409000C0E9011128F078FA2046E6E7DBF858017C
:1040A000B8B14189C468A94203D9491B418120465E
:1040B000F6E704F11001002C08BF0BF5AE710269A0
:1040C0000A6016491460C0E9031128F05DFA204621
:1040D000E6E7BBF8F200A84203D9401BABF8F200B8
:1040E00004E0DBF8F41058464BF018FCBBF8DA009B
:1040F0000221284480B2032828BF0320ABF8DA004D
:10410000BBF8DC00284480B2022828BF0846ABF880
:10411000DC000BF12400FFF7A5BA00BFEFBEADDE57
:10412000AA484FF00A08383050F048F84CD0BBF895
:1041300018004FF4167900EB80004100B1F5167FAE
:1041400038BF4FEA4009DBF81C40D4B36089D4F88B
:1041500000A0A8421DD92669401B60817EB39BF850
:104160003300717A7769814229D34CF0B5F87168D0
:10417000401AB0FBF8F0484521D3B08B31463044AB
:1041800090F8200001302073204645F089FB3E4620
:10419000E4E7216929B14E69204645F081FB3146AB
:1041A000F8E7D4E90001021D002808BF0BF1200246
:1041B000116008608B48C4E9000050F0DEFA5446F4
:1041C000C3E70BF13C00AFE7744980484FF00008AB
:1041D000096930300F918449896F0E91D0F80090B1
:1041E000B9F1000F00F0D783D9F800001190119EAB
:1041F000002E00F0CC8330681190FF2041B2484679
:104200004AF05CFCD8B1044638300768AFB197F883
:10421000210080070ED43878FE2803D1787850F03A
:10422000D8F807D07A69304639460123CDF80080A6
:1042300038F064F907F12C00E7E7607BDEE706F170
:104240001C000468D4B3276CAFB139467F68087B83
:104250000028F9D00868421CF6D0A84202D9401BB9
:104260000860F1E7487BC1F800800028ECD12046C7
:1042700047F022FBE8E7A76BEFB13946FF694878C2
:104280000207F9D58A68531C03D0521B38BF424637
:104290008A604A68531CEFD0AA4202D9501B48607A
:1042A000EAE700F01700C1F804801028E4D12046A6
:1042B00045F036FBE0E704F15000C2E7F789380625
:1042C00061D5306B4EF046FB002859D1B06A4EF0F4
:1042D000E9F8002854D0F46C20464EF0D8F8824615
:1042E000F0B900E0E46BB4B1A08C0106FAD540F45B
:1042F000807020F08000A084C6F82480B06A70B17D
:104300000146406B91F82620002AF8D08A8C22F0D2
:1043100010028A84F3E727F08000F08133E0A246A0
:10432000706A58B19AF81700854203D2401B8AF888
:10433000170028E08AF81780C6F82480B06A0028A1
:1043400000F085810446406B94F826100029F6D0D1
:10435000A18CC906F3D494F929004EF0B9FE0FD010
:104360000746806B0AF104014CF0B6FF40B10246EB
:10437000384621463FF008F828B105207462D6E798
:1043800030464BF00FFDF08EA8422FD9401BF0862F
:1043900032E200BFE0CD0120A0C701201CC80120EF
:1043A000F0CC012048CF01207830000020C7012048
:1043B000DCBA0120F1C2040080BA0120FD03020032
:1043C0001CC60120591B0300C1FF030078CC01204B
:1043D00083980300496F0400BB2D050029250500C3
:1043E000A0C60120EFBEADDE14C90120002800F0F8
:1043F00003824FF41670F086F06D002800F0FC8107
:10440000326BB18E2AB1106890F82D00800740F011
:10441000F38130460691089250F8281F0D9059B349
:10442000888C4C6BC20711D10A68126892F8203050
:10443000FF2B0BD0128D5FF8A4705A430B6B3F6AB1
:10444000FB1A0A27B3FBF7F39A4210D991F82620FA
:1044500081F8268081F8272000F0010220F0030077
:1044600040EA420040F0080088842146D7E7304601
:1044700041F02EF92146D2E70D98006830B1818CC9
:1044800011F0030118BF0146099101E000200990D5
:10449000F06D416830468847002010900D98046800
:1044A000002C7BD0A08C00F00102C0F340019142AF
:1044B00008D04AB9204648F0A9FDA08C01221092EC
:1044C00000F0010111B962E00121109121680F682B
:1044D00039680A6B002A4CD01268BA4249D1C20727
:1044E00047D04209CE4891F80CC097F82030398D5A
:1044F00004F1040A60F31F1201FB03FBFF2B534678
:1045000002F08F000B9294F929200C9008BF4FF015
:10451000FF3B0C218DE81210CDE903B000200021F3
:1045200025F016FC386894F929200B215346007BAE
:10453000CDE900148021CDE9020B0C98CDF830A014
:10454000049007F1080025F003FC38688168897C35
:1045500079B90B99007B0B2394F92920CDE900341C
:104560000C9BC9B2CDE9020B00200491002125F07B
:10457000EFFBB068807C50B107F14000076837B1AD
:10458000304621463A4642F019FE381DF6E7A08C27
:1045900020F00200A08404F1340080E70D984FF071
:1045A0000DFE1BD0BBF82400800717D0B468FF2095
:1045B00041B220464AF082FAC8B10746B0F8F80086
:1045C000C10709D020F0010006210022A7F8F80059
:1045D00097F90D0047F03CF8787BE9E73046022177
:1045E0004FF0B2FB4FF0000B4FF0010A01E04FF02B
:1045F000000A0998584506D05FF86002806910B13A
:10460000816A01318162BAF1000F0BD0F089C005D7
:104610004AD5304601213AF079FEF08920F48070C5
:10462000F08141E00BF104049BF929007D4B00214E
:10463000224645F063FFDBF8341011B1888CC007C7
:104640000CD19BF92900012144F00AFD0DE0BAF8D4
:10465000240020F48070AAF8240094E691F929003F
:10466000714B0A1D002145F049FF304600213AF008
:104670004DFEF0895FF8E41240F48070F081DBF8C1
:104680003000096A081A316B0968B1F84A1001EB69
:104690004101B0EB510F07D9337BB06800214022B4
:1046A000CDE900843AF008FB30464DF095FC002837
:1046B0004ED030464DF090FC082805D0182801D087
:1046C000102845D1012300E000230D98002704683D
:1046D00064B194F8260094F82710814203D0C243B5
:1046E0000A4204D1074304F13400F0E787B30D9880
:1046F000006878B190F8261011B190F8271009B130
:104700003430F5E7B068426922B1416A03200C9366
:1047100090470C9BE3B987F0FF0006F14C01096854
:1047200091B18A8C53070DD513070BD52CB142F0EC
:104730002002C1F828808A8404E091F82A200240EF
:1047400081F82A203C31EAE7304600214CF036FA65
:104750000D98076887B13C467F6BA08CC007F9D1E4
:10476000F06D2146C268304690470028F2D13046AD
:10477000214640F0ADFFEDE72CF03CFF376B089988
:10478000B94221D0BAF1000F1AD1CFB19BF929005B
:104790004EF09EFC14D0044638680BF1040A383001
:1047A00007686FB13846214649F0E1FDB06883697A
:1047B0001BB1384621465246984707F11C00EFE7E7
:1047C00030464EF01DFE17E00998B0EB0B0018BF05
:1047D0000120109A1043C0070846069906D128B157
:1047E000B28E00684EF0D4F8800705D4F08986F8C0
:1047F000388040F01000F081B06A42F2273A10B1E0
:10480000808C80073AD15FF86C04806910B1816CAC
:1048100001318164708AA8420CD9401B2DE000BF91
:10482000F8FFFF0F5537030015F2030098C8012069
:1048300000CC012010B3707C337B00214022A6F80D
:10484000128001307074B068CDE900883AF034FA13
:10485000707C052804D80A2148B101384900FBE7DB
:10486000B068426952B1416A0220904706E088B2BE
:10487000B0F5616F28BF4FF461607082F46C64B171
:10488000E0692146E46B421CF9D0A84287BF401B77
:10489000C86130463CF04EFCF1E7F46CBCB12046F8
:1048A000E46B818C4A07F9D5C26A531C022BF5D3FD
:1048B000AA4287BF511BC162C0E90A8841F02001AA
:1048C0009FBF8184304600214CF078F9E6E7DDE9AE
:1048D0000E1081427FF68BACD6F81CE0B06A50EA2D
:1048E0000E0004D1304640F0C7FEFFF780BCBEF199
:1048F000000F1ABF306AA0F1500400245FF86C0565
:10490000D0F820C0002034B3234694F82D40E207AD
:104910000FD15F68220713D4ACEB0707574501D8C6
:10492000E10606D420B14168ACEB01018F4200D909
:10493000184600249E45E6D0596DA1F15004E2E7E7
:104940001A6828321268002AE6D01168096899426C
:10495000EFD03432F6E718B13FF082FCFFF747BCE6
:1049600030462FF0E3FD00283FF441AC0146808C37
:1049700000F0090008287FF43AAC91F826000028DE
:104980007FF435AC304640F0A3FEFFF730BC09F1B0
:104990000800FFF723BC5FF8CC050A9E046984B1C8
:1049A000A18C204611B1D1FA55F18184016A846A43
:1049B0004A1CF4D0A94286BF491B01623AF0F4FABE
:1049C000EDE75FF89801018D31448AB20185142A20
:1049D0004BD314394FF00008002401855FF814060A
:1049E000D0F808904E46DEB1B08C08B10138B084E2
:1049F000308D776B88B114280DD896F921004FF6C9
:104A0000FF71A6F82880002803D44FF04FF960B357
:104A1000C188F18401E01438308501343E46E2E774
:104A2000112C22D35FF85C06B9F1000FC06818BFE3
:104A3000A0F134095FF86C1648468A68B9F1000F96
:104A400013D049464A451ABF8B6BA3F134094FF086
:104A500000098B8C0BB1292CF0D3002B08BF084622
:104A600045F010FD241A102CE4D85FF8A006DDF8FC
:104A70001C905FF8D8860026876D57B338783C467F
:104A800028443870C0B23F693D28F6D36089E0B150
:104A90006178D1B9218901230844E168A1F8440073
:104AA000E068B0F840104218B0F84400401A002105
:104AB000283800BA000CA2F88C000322E0680096A7
:104AC00020F04CFD3FF06CFBE660204645F09EFC7C
:104AD000D3E75FF8300750300468BCB1616891B12A
:104AE00008884E69A84203D9401B08803146F6E782
:104AF0004FF0FBFC02D0026A01320262204643F012
:104B00004BFC3146EBE704F11800E5E75FF8E042C3
:104B1000266F5EB171693046F6694A1CF9D0A94228
:104B200086BF491B416146F0EBFCF2E7A46E5CB125
:104B3000216A2046E46A4A1CF9D0A94286BF491B73
:104B4000016245F027FCF2E75FF8A80700263C2742
:104B500000F1080424680CB3D4F8EC1209B128461B
:104B60008847B4F80402A84203D9401BA4F8040201
:104B700005E020460121A4F804722FF0F7FFD4F8D5
:104B80000802A84203D9401BC4F80802E2E7204605
:104B90000121C4F808622FF0E9FFDBE75FF8D427B2
:104BA000D2E91A01401941F10001C2E91A01D8F80D
:104BB0002000B0B3818A02698468294481825369E4
:104BC000A34203D98360037B022B12D18BB20A2B41
:104BD00027D30A39818291684268914213D9007BB8
:104BE00002281ED001204BF0F7FCD8F8200002214B
:104BF00016E00221017301204BF0EEFCD8F82000F2
:104C0000002181820DE00268914208D9007B40B901
:104C100000204BF0E1FCD8F82000012100E0002149
:104C200001734FF06408B9F1000F5FF8881809FBB1
:104C300008FA504608BF012000260E9016AA01F17E
:104C40005800483103320F921AAA09915FF8B01840
:104C50000E3248310C920D914FF0B0FA00F07E8583
:104C60009BF80C0020B99BF83000000700F1F3809E
:104C7000DBF8CC500BF1A007002D6BD0A8692C46B7
:104C80002D6A0028F8D0504503D9A0EB0A00A06196
:104C9000F2E7A07CA66101380528EDD8DFE800F036
:104CA000040F03121E2BE7E7607C21460130C3B2DC
:104CB00060743846032B40D33FF06CFF32E0032092
:104CC000A074D9E738462146052245F0A5F83846B4
:104CD00021460122002345F0F3FBCDE7607C02284A
:104CE00009D3267C384621463FF054FFB0072BD429
:104CF00006200026A074607CFF2801D1FF2303E07A
:104D0000431C0428637401D3E07C58B13846214623
:104D1000012245F0D5FB617C042908D3E07C78B101
:104D2000A661A9E73846214635F018FFA4E7DBF86D
:104D3000A8004BF004F8A0619EE7002245F0C0FBFC
:104D4000DBF8A800A06197E73846214635F006FF5A
:104D5000002691E79BF83000000727D40BF14400B0
:104D60000468B4B1608A88B1484503D9A0EB090052
:104D700060820BE0207C83212246668240F00100A5
:104D8000207458462FF02AFD3FF00AFA04F118006B
:104D9000E6E7BBF8D8000A21484480B20A2828BFB9
:104DA0000846ABF8D8000BF1240055E7DBF8385083
:104DB000002DD3D0E8692C46ED6A0028F8D048458C
:104DC00003D9A0EB0900E061F2E794F82100E66165
:104DD000800703D458462146032235E094F820008A
:104DE00050B95846214647F0B9FE28B194F8210041
:104DF00040F0040084F821009BF81C0194F8201076
:104E0000814216D20120214600220023CDE900066E
:104E1000584625F09BFF3FF0C3F9DBF8A80094F853
:104E2000201032300131B0FBF8F084F82010E0613E
:104E30000CE094F8210084F820602146002200F064
:104E4000FD0084F82100584647F0B8FE9BF830007A
:104E50000007ADD482E7BBF83200F0B10138ABF8FF
:104E60003200000419D14FF4C0601D961B96ADF8B6
:104E7000690002208DF870005FF8D00A90F85800A1
:104E80008DF868009BF80D008DF86B001AA849F0AA
:104E9000D5FC10B10120ABF8320009980768002F4B
:104EA00000F0C18138469BF80C2010F8541B8A4250
:104EB000F4D19BF8300000F08100812807D1B88B35
:104EC000D8B1484505D9A0EB0900B88315E0BE83E9
:104ED00013E058461FF046FF08B1022005E09BF89A
:104EE000300040064CBF00209B20B883B87F08B13B
:104EF0000138B877012038F0CBFEBC7D012C5AD0A8
:104F0000388B002855D0484503D9A0EB09003883D9
:104F10004FE038783E834CF0A7F9002849D0054689
:104F2000B88A0B2822BF0120B882788395F89100B7
:104F300000283ED105F17C00119005F13800109059
:104F400007F134004FF044F932D098F801004006E0
:104F500004D4DDF81C9008F11C00F3E7109808F168
:104F60000C090468002CF4D094F8220001281CD10C
:104F70002046494608224DF04DFCB0B995F8910005
:104F800010B10520E06110E019202146DDF844C091
:104F9000AE46E061012085F8910091E82D008CE893
:104FA0002D00754605208EF8900004F12C00D8E7FE
:104FB000BC7D012C0AD8788B010400F0348181B2C9
:104FC000494509D9A0EB090078832CE138465946B8
:104FD0004A4631F0A5FA26E1494503D14FF00108D0
:104FE0000A200EE0A9EB00000A2281B2B1FBF2F127
:104FF0004FF6FF72093A01FB020001F10108C0F10E
:105000000A00788307F134000068D8B181684A1C2F
:10501000022A04D3B1EB080138BF314681604168F0
:105020004A1C022A0CD3414503D9A1EB0801416077
:1050300006E0B97D012903D04178490600F1A0803E
:105040001C30E1E708EB8801F86B4D00A0B1016866
:105050008469A94203D9491B01602046F6E704F19F
:105060001C01002C08BF07F14001C2690A60D94940
:105070004EF064FF2046E9E7B88A002800F0D380AC
:10508000404503D9A0EB0800B882CCE0B87D0028E9
:105090005CD038784CF0E8F8002800F0BB8004467B
:1050A0004FF00BFA40F0B680D4F83401002800F03D
:1050B000B180416A0029119100F0AC80856A002D11
:1050C00000F0A8801198298850F8342F20F8221C6D
:1050D0000AB147F0BBFD0894119C54F83C0F10B185
:1050E000204647F073FED5F8108010940A95B8F169
:1050F000000F60D0089894300B90B8F1000F5AD090
:10510000B8F80410D8F8000008F106042346CAB223
:1051100000F25720C1F3042500924FF4167229467D
:10512000B0FBF2F01FFA80F910984A4632F07CFB8F
:1051300098F804004A462946DDF81C902346009062
:105140000B9832F071FBD8F81880D6E70220A249FC
:10515000B875032087F8200091F8570040F0080048
:1051600081F857000120FE7778839BF830004006D5
:1051700002D5584644F0ADFE38465946012228E78C
:10518000791C584646F0CAFFD7E91501934C00F147
:105190005802002808BF04F14C02116008608D48D5
:1051A000C7E91500384649F071FBA06CD8BB5846DA
:1051B00048F080FB37E00A98DDF83080089D84686D
:1051C00004BB21E0CDF8726010222088ADF86800A1
:1051D000D4E9010100BA8DF87110CDF86A00080A0F
:1051E0008DF87000080C8DF86F00080E04F10C01AA
:1051F0008DF86E004FF0ACFA1AA811992A462EF0DD
:1052000045F8E469002CDDD10A994868013048600E
:1052100011994862788A791C800800EB4000B882B6
:10522000584632F03DFADBF860014FF06408002880
:1052300000F06C8290F8BE1411F00A0F6AD03C2185
:1052400001857821DBF860014185DBF860010221EE
:1052500080F82C104EF0A4FE800719D501F114003F
:105260004FF0E7F8A0B11AAC34214FF088FB1120C1
:105270008DF86A0040F201104EF0D4FD5846062128
:105280008DF8736039F058FD5846214633F02EF9F9
:105290004EF086FE02075BD5D1F898044A46B0EB83
:1052A000090038BF3046C1F89804DBF8600100F10E
:1052B00028013DF09AF808B3DBF8600190F82F1050
:1052C0001D2918D81AAC34214FF059FB11208DF844
:1052D0006A0040F203104EF0A5FD584608218DF8F3
:1052E000736039F029FD5846214633F0FFF8DBF8AA
:1052F000600190F82F10013180F82F10DBF8601159
:1053000091F82F001E2818D8D1F89804A8B191F868
:10531000BE041DE011F0140F9CD01E21018542F245
:105320002831DBF8600141859BF82C10DBF8600127
:1053300003297FF48CAF05218AE791F8BE04C207E8
:1053400006D14EF028FE9BF80E004FF04FF90DE10C
:10535000400740F1A88001F11E004FF06AF80028D4
:1053600000F0A1801AAC34214FF009FB41F6011086
:10537000ADF86900204642F0CBFC9BF82C008DF87C
:10538000736003282CD1DBF86451002D5CD00D9C98
:10539000DFF8DC1C082220464DF032FA0028DFF846
:1053A000CC0C08BF00F1300428680121002245F030
:1053B0001EFE002848D04C3000250768002F3FD043
:1053C000381D2146402243F049FA054407F13C00CC
:1053D000F3E700BFEFBEADDE20C7012048CF0120BC
:1053E000DBF87401D0F8AC0000684DF0B1FF4FF667
:1053F000FF7278B3DBF860414FF6FF72D4F868357E
:1054000043B3017894F86C054FF6FF72884221D9B6
:1054100058204FF6FF7211FB0034DCB19BF90D00F0
:1054200039F084FD4108002808BF4FF48061B4F8CA
:1054300054000A184FF6FF70824228BF024609E066
:10544000280401D0681E00E00020DBF86011002273
:10545000A1F80C05DBF860010721A0F80E255846DD
:1054600039F06AFC58461AA933F040F89BF82C0032
:10547000032818D0DFF8FC0B90F86000012812D147
:10548000DBF8600190F82610013180F82610DBF877
:10549000600190F82610142905D390F8BE1401F08D
:1054A000FB0180F8BE144EF07BFDC0065ED5B1F85E
:1054B000C00428B1D0FA59F0A1F8C004DBF860119B
:1054C00001F10A004EF0B5FF00284FD01AAC34218C
:1054D0004FF055FA67208DF86A0040F202304EF026
:1054E000A1FCDBF874010178C1F3C2018DF87310DF
:1054F000017889098DF874109BF82C10032910D1BC
:10550000DBF8601191F8C42402F00303012B08D1E9
:1055100002F0FC00023081F8C40491F8C5040130A7
:1055200000E0C0788DF875005846092139F004FC78
:1055300058461AA932F0DAFF9BF82C00032815D040
:10554000DFF8300B90F8600001280FD1DBF8600124
:10555000817C01318174DBF86001817C142905D3E1
:1055600090F8BE1401F0EF0180F8BE14B9F1000FFD
:1055700055464FEA191008BF0125109028284FF60C
:10558000FF7088BF05460BF138001190DBF8600111
:10559000D0F8F874002F00F09380B888A9B2D7F83B
:1055A0000880884203D9401BB8804746F2E7B879A3
:1055B00041071ED43968F8794FF0000948F2FE031C
:1055C0000024D1F80120D1F8051000284FF0000088
:1055D000CDF86C901A931D9182F002011C928DF807
:1055E00070103AD19BF89E00C0071DD10024002006
:1055F00033E0F97900295DD0800708D44EF066FDCC
:10560000B880B87900F0FB00B8714746C2E7584649
:10561000394640F015FADBF874013968D0F8AC006F
:105620004CF032FC4746B5E711980468002CDDD0F9
:1056300020463DF07BF8022802D804F12C00F4E764
:10564000DBE948010F9A8DF85A6010600120516023
:105650008DF86300ADF8580016A8CDE900905846C3
:105660001AA92246012325F071FB044618B14EF019
:1056700027FA4FF00409B87900F0FB0141EA09016B
:10568000B9716CB1013001F0FC0141F28932DDF8F1
:105690001C9000F00300BA800844B871474679E7CF
:1056A000F979DDF81C9029B110F0020002D14EF01A
:1056B0000DFD79E75846394640F0C2F9474669E79B
:1056C00058464DF0DDFB4FF064081FD04189E9B129
:1056D000109A282A07D80E9A92B2914203D90E9AAC
:1056E000891A418112E04681DBF8700170B1C3680C
:1056F00063B101218DF8701016A98DF858601B91C7
:10570000F221ADF869100A211AAA9847DBF8940033
:1057100000283FF4ADAA01688469494504D9A1EB8A
:10572000090101602046F3E781888A0409D421F445
:10573000405148F6A04201F50051026081802046A8
:10574000E6E704F11C01002C08BF0BF19801C269C7
:105750000A60CD494EF0F2FB2046D9E7DFF8180980
:10576000DFF810894FF0000B0DF1680A3030076840
:10577000002F00F0928210973F68002F00F08A827D
:105780003D6B85B32C682846D4B3C8B320464CF093
:1057900098F808B1387C98B328464DF0DBF880B90A
:1057A000387C70B9FE89B0050BD498F851000128F7
:1057B00007D1384648F01AFE10B328464DF0CAF813
:1057C000B8B107F1380004F148014A463CF00DFE3B
:1057D000B0B1F8890021002220F01000F88138468D
:1057E00013F0D8FE0CE0387C50B1FC6944B1206B5A
:1057F000CAE716F0A00F03D1B7F856000028E0D092
:10580000B7F85800B8B1484504D9A0EB0900A7F88B
:10581000580010E0F889A7F858B097F855304FF0C5
:10582000FF32400646BFFF200090CDF800B00021B7
:10583000384625F02DF8B7F8560000283FF49CAF05
:10584000484504D9A0EB0900A7F8560094E7386B47
:10585000A7F856B000283FF48FAF0268002A3FF443
:105860008BAF92F82D00C0077FF486AF107E00F05A
:105870003800082807D0182802D010287FF47CAF01
:105880004FF0010901E04FF00009F889010622D428
:10589000810626D498F84F10119216AD012904D133
:1058A00097F85A10032980F00B8100210020B9F1EC
:1058B000000F0F901A9123D107F14C000068E8B156
:1058C000818C4A0705D5090703D5017D802900F0A1
:1058D000DF813C30F2E73C20DDF81C90A7F8560051
:1058E0004AE7B868007C45F007F8B7F85810DDF8CB
:1058F0001C90814288BFA7F858003DE700200F9018
:105900004FF4A0604DF00CFC00F0D380DDF844C0F3
:1059100007F128030E900D931CF81C1FC1F34202DF
:1059200000211B6823B193F8264034332143F8E764
:10593000802020FA02F252420A4007F14C01D34380
:105940000C4624688CB194F82B50A67D94F82A005C
:1059500084F829B0154084F82B5006EA0305284343
:1059600016AD84F82A003C34EBE70E9C0968D9B1E7
:1059700091F82800B0B91198CB6990F82D00000774
:105980000CEAE072581C05D090890344013BB3FB3C
:10599000F0F301E04FF0FF331079834238BF18462F
:1059A00081F828003C31E1E704F54078444580F077
:1059B0009D804DF0B5FA002800F096808346808CDB
:1059C000B9F1000F0BD1010709D40F9939B99BF830
:1059D0002A009DF8581008438BF82A0050E08106F1
:1059E0000BD520F02000ABF824009BF81500B0F197
:1059F0007F0118BF411C8BF815102046594643F013
:105A000073FB04469DF858008BF82900444513D2D7
:105A10004DF086FA80B101469BF8150048759DF857
:105A2000580081F82900888C20F0200088842046C6
:105A300043F05AFB0446E9E7B9F1000F11D040F2F8
:105A4000064020809BF824009DF85810C001E170AA
:105A5000A0709BF8150020719BF828006071063437
:105A60000EE0BBF824009DF858A000070ED40F9B51
:105A700020465946524646F0F5F804460DF1680AAC
:105A80004FF0000B92E700BFEFBEADDE0D98066849
:105A9000002EF3D096F826001AEA000206D006F18E
:105AA00014032046594646F0DDF8044606F134005A
:105AB000EDE7384600214BF081F8DDF81C905BE6FD
:105AC000B96A19B138463FF003FEF889DDF81C9039
:105AD0004FF6FF7120F0200087F85AB0A7F858B0B1
