:02000004000AF0
:20E000000040022005E80A0035E80A0031E80A0033E80A0033E80A0033E80A0000000000EE
:20E0200000000000000000000000000033E80A0033E80A000000000033E80A0033E80A004C
:20E0400033E80A0033E80A0033E80A0033E80A0033E80A0033E80A0033E80A0033E80A0098
:20E0600033E80A0033E80A0033E80A0033E80A0033E80A0033E80A0033E80A0033E80A0078
:20E0800033E80A0033E80A0033E80A0033E80A0033E80A0033E80A0033E80A0033E80A0058
:20E0A00033E80A0033E80A0033E80A0033E80A0033E80A0033E80A0033E80A0033E80A0038
:18E0C00033E80A0033E80A0033E80A0033E80A0033E80A0033E80A006A
:20E0D8002DE9F04F8BB08246581C022803D200200BB0BDE8F08F14981D4616460C46B3F5F9
:20E0F800801F01D90028F2D1B5F5302F01D90028EDD038B14E4A504600214FF4807300F07E
:20E11800F3FA06E00AFB046149484FF4807200F04AFB681E01234FF0FF38B0FBF4F101FB03
:20E138001400013082B2C5B2100A002D18BF03EB1220029001EB0A0006F580713C4E08BFD4
:20E158004FF4807503940191C0B25146069508900898CDB2854268D8029A4FF0FF3018BF03
:20E17800220A079150FA82F009920A90019805FB040000240590481C049009985FFA84FB0B
:20E19800C0B283454ED20898A9465746854206984FF4807508BF05460A9858454FF48070C0
:20E1B80018BF0546079880EA0A004FF0000A2043000608BF4FF00C0A1FFA8AF085420AD907
:20E1D800305C80EA0800C0B200F0B4FA80EA18280AF1010AF0E7149858B10A98584513D1BA
:20E1F8000498002132464FF48073C0B200F07CFA07E005984FF4807200EB0B21304600F08E
:20E21800D2FABA464D460BE04FF4807032464FF480734D4600EB0B21484600F065FABA4634
:20E238000134AAE7DDE9034192E76FEA08004FE7000300202DE9F0470C4631498046344F61
:20E25800154608688946800744BF2E48C86000212D4801602D488246006838688169272077
:20E2780088472C4E2C49306B08403063B06F20F48070B0673868016B4FF48060884738687A
:20E29800016B4FF4816088473868016B4FF4C0608847224801210160C6F880413160D9F8FB
:20E2B8000000800705D4681C08BF4FF04045C9F80C50DAF80000F0698007FCD5072000F020
:20E2D80047F90228FAD1B8F1000F13D1144C386A8168204688470428F9D0012804D1386AA0
:20E2F8000321426820469047D6F8180220F00300C6F818023868806BBDE8F047004700BFBB
:20E3180010000940FD0000400C4009402C200940B80100100C200840FFFFFEFE282008603E
:20E338000040034070B52548066800F013FA24480025244C0560206C806C804722480068CE
:20E3580038B122480068B6F1FF3018BF304600F0A9F81F4840F2391205601E48016862F3C9
:20E378001B4101601C48016801F44051B1F5805F06D10168194A114001F500320260016011
:20E39800174D0126EE612068016A142088471548016841F4E021016013482E60006800F4F3
:20E3B8004000B0F5000F03D1206C416C0F4888470F4801680029FCD170BD00BF1C130050FD
:20E3D80084046042B001001080012843800520438C2108404820034028000940EFFFFCFC6F
:20E3F8000000244300200940B44F0050BD3786000C00684270B590B002AE0D4600210823FE
:20E418000446324600F070F9304600F081F910B302AA204600212C2300F066F99DF81A00A6
:20E43800A84218D1079800F0C8F9A0B19DF81400032810D19DF8150001280CD19DF819003D
:20E45800FC2808D09DF81A10072908BFFF2804D0099800F0D0F910B070BDFE20089B0022CD
:20E478008DF807000E480168002000902046FFF727FE0499884207D10DF10702204611212A
:20E49800012300F0A5F8E3E7FC200DF10702112101238DF80700204600F09AF8DBE700BF7B
:20E4B80000040020F8B504462148224E4168890705D40168F02242EA114186F84D101E4903
:20E4D8004FF001221E4F0A601C49098839680968856828468847A80105D4E80103D53078CE
:20E4F80040F002003070386829464268204690471448154A0068C0F305311170C1054FF0AA
:20E51800130158BF232140237354382101EA901000F56050A2F85C00386881682846884705
:20E53800022000F073F8094801210160F8BD00BFAC4F00500962084004A40C4000A00C4020
:20E55800F00100100C1400500EB00C40940460420F49C3070A68496D01D1002106E001F0DA
:20E57800040102F00103C91818BF0121830744BF02F0020341EA5301400744BF02F004006B
:20E5980041EA90010220002918BF0120704700BF4021084010B50C484FF47051006801EAD5
:20E5B80080200A49086000200721FFF723FF0124E0B2572804D80021FFF71CFF0134F7E731
:20E5D80000F0E6F8002010BD3024034000040020F8B51C46154601EB403600F033F8074679
:20E5F80028463146224600F0C5F804462FB1054801210068426804489047002C18BFFF2415
:20E618002046F8BDD801001000400340B0B50A490A4A0B4B0C684D68AC42FCD1844208BF88
:20E63800B0BD155C145DAC424FF0FF3538BF01252C441C5D0C60EDE700600C403EE80A00F0
:20E6580042E80A0070B50B4E0B4C3068816820468847054600060AD03068002142682046EF
:20E67800904730688168204688470028F9D1E8B270BD00BFD80100100040034070B509489B
:20E69800094C84420BD0094D094EB54207D0F5E8020110F8012B54F822209047F5E700BFDD
:20E6B80000BF70BD54E80A0050E80A0054E80A005CE80A000A4880F308880A48016841F4F5
:20E6D8007001016000BF00BF00F0A2F808B1FFF7D5FF0020FFF75EFF012000F09BF800BFEF
:20E6F8000040022088ED00E070B51C46154601EB403600F074F8210405D016F8011B013C4A
:20E7180005F8011BF7E708B900F07EF8002070BDB0B5074907231A465BB2002B05D4D3B2A1
:20E73800CC5CC55C531EA542F5D0D0B2C009B0BD36E80A0010B5064A08210B0608BF10BD98
:20E7580082EA5003C40708BF430801391846F4E72083B8ED044805490068084004498842E9
:20E7780008BF7047FEE700BF1813005000F0FF0F0070B70B80B5044B1B689B69984703497E
:20E7980000220A6080BD00BFA80100108404604280B500F035F8002000214FF0FF32BDE84E
:20E7B8008040FFF747BD10B530B1431E01391AB18C5C9C54013AFAE710BD002118B1421E70
:20E7D80001311040FAE7012088437047D0F80300002218B101F8012B0138FAE7704780B53A
:20E7F80000F00EF8002818BF012080BDFFF79AFDFFF760BFFEE7016881F3088841688F463C
:1EE81800EFF3108072B67047EFF3108062B670470120704700BFFEE7FEE7FEE7FEE725
:10E8360043433133783252310102000302000103AF
:14E848000000000004010000E5E70A0048E80A000003002084
:20FFA80000008001100080FFFDFF5800FFC1B9F3FFFFFFFFFFFFFFFFFFFFFFFFFFFFFFFF79
:20FFC800FFFFFFFFFFFFFFFFFFFFFFFFFFFFFFFFFFFFFF00FFFFFFFF00FFFFFF00C5C5FFAA
:18FFE800000000FF00E00A00FFFFFFFFFFFFFFFFFFFFFFFFFFFFFFFF28
:00000001FF
